{
	"contract/dexRishabh.sol": {
		"MyHyperOptimizedDEX": {
			"abi": [
				{
					"inputs": [
						{
							"internalType": "address",
							"name": "tokenAAddress",
							"type": "address"
						},
						{
							"internalType": "address",
							"name": "tokenBAddress",
							"type": "address"
						}
					],
					"stateMutability": "nonpayable",
					"type": "constructor"
				},
				{
					"inputs": [
						{
							"internalType": "address",
							"name": "target",
							"type": "address"
						}
					],
					"name": "AddressEmptyCode",
					"type": "error"
				},
				{
					"inputs": [
						{
							"internalType": "address",
							"name": "account",
							"type": "address"
						}
					],
					"name": "AddressInsufficientBalance",
					"type": "error"
				},
				{
					"inputs": [],
					"name": "ExcessiveSlippage",
					"type": "error"
				},
				{
					"inputs": [],
					"name": "FailedInnerCall",
					"type": "error"
				},
				{
					"inputs": [],
					"name": "IdenticalAddresses",
					"type": "error"
				},
				{
					"inputs": [],
					"name": "InsufficientOutput",
					"type": "error"
				},
				{
					"inputs": [],
					"name": "InsufficientReserve",
					"type": "error"
				},
				{
					"inputs": [],
					"name": "InvalidToken",
					"type": "error"
				},
				{
					"inputs": [],
					"name": "NoLiquidity",
					"type": "error"
				},
				{
					"inputs": [
						{
							"internalType": "address",
							"name": "owner",
							"type": "address"
						}
					],
					"name": "OwnableInvalidOwner",
					"type": "error"
				},
				{
					"inputs": [
						{
							"internalType": "address",
							"name": "account",
							"type": "address"
						}
					],
					"name": "OwnableUnauthorizedAccount",
					"type": "error"
				},
				{
					"inputs": [],
					"name": "ReentrancyGuardReentrantCall",
					"type": "error"
				},
				{
					"inputs": [
						{
							"internalType": "address",
							"name": "token",
							"type": "address"
						}
					],
					"name": "SafeERC20FailedOperation",
					"type": "error"
				},
				{
					"inputs": [],
					"name": "ZeroAddress",
					"type": "error"
				},
				{
					"inputs": [],
					"name": "ZeroAmount",
					"type": "error"
				},
				{
					"anonymous": false,
					"inputs": [
						{
							"indexed": true,
							"internalType": "address",
							"name": "token",
							"type": "address"
						},
						{
							"indexed": false,
							"internalType": "uint256",
							"name": "amount",
							"type": "uint256"
						}
					],
					"name": "EmergencyWithdraw",
					"type": "event"
				},
				{
					"anonymous": false,
					"inputs": [
						{
							"indexed": true,
							"internalType": "address",
							"name": "provider",
							"type": "address"
						},
						{
							"indexed": false,
							"internalType": "uint256",
							"name": "amountA",
							"type": "uint256"
						},
						{
							"indexed": false,
							"internalType": "uint256",
							"name": "amountB",
							"type": "uint256"
						},
						{
							"indexed": false,
							"internalType": "uint256",
							"name": "liquidity",
							"type": "uint256"
						}
					],
					"name": "LiquidityAdded",
					"type": "event"
				},
				{
					"anonymous": false,
					"inputs": [
						{
							"indexed": true,
							"internalType": "address",
							"name": "previousOwner",
							"type": "address"
						},
						{
							"indexed": true,
							"internalType": "address",
							"name": "newOwner",
							"type": "address"
						}
					],
					"name": "OwnershipTransferred",
					"type": "event"
				},
				{
					"anonymous": false,
					"inputs": [
						{
							"indexed": true,
							"internalType": "address",
							"name": "sender",
							"type": "address"
						},
						{
							"indexed": false,
							"internalType": "uint256",
							"name": "amountIn",
							"type": "uint256"
						},
						{
							"indexed": false,
							"internalType": "uint256",
							"name": "amountOut",
							"type": "uint256"
						},
						{
							"indexed": true,
							"internalType": "address",
							"name": "tokenIn",
							"type": "address"
						},
						{
							"indexed": true,
							"internalType": "address",
							"name": "tokenOut",
							"type": "address"
						}
					],
					"name": "Swapped",
					"type": "event"
				},
				{
					"inputs": [
						{
							"internalType": "uint256",
							"name": "amountA",
							"type": "uint256"
						},
						{
							"internalType": "uint256",
							"name": "amountB",
							"type": "uint256"
						}
					],
					"name": "addLiquidity",
					"outputs": [],
					"stateMutability": "nonpayable",
					"type": "function"
				},
				{
					"inputs": [
						{
							"internalType": "contract IERC20",
							"name": "token",
							"type": "address"
						}
					],
					"name": "emergencyWithdraw",
					"outputs": [],
					"stateMutability": "nonpayable",
					"type": "function"
				},
				{
					"inputs": [
						{
							"internalType": "uint256",
							"name": "amountIn",
							"type": "uint256"
						},
						{
							"internalType": "uint256",
							"name": "reserveIn",
							"type": "uint256"
						},
						{
							"internalType": "uint256",
							"name": "reserveOut",
							"type": "uint256"
						}
					],
					"name": "getAmountOut",
					"outputs": [
						{
							"internalType": "uint256",
							"name": "amountOut",
							"type": "uint256"
						}
					],
					"stateMutability": "pure",
					"type": "function"
				},
				{
					"inputs": [],
					"name": "getReserves",
					"outputs": [
						{
							"internalType": "uint256",
							"name": "_reserveA",
							"type": "uint256"
						},
						{
							"internalType": "uint256",
							"name": "_reserveB",
							"type": "uint256"
						}
					],
					"stateMutability": "view",
					"type": "function"
				},
				{
					"inputs": [],
					"name": "owner",
					"outputs": [
						{
							"internalType": "address",
							"name": "",
							"type": "address"
						}
					],
					"stateMutability": "view",
					"type": "function"
				},
				{
					"inputs": [],
					"name": "renounceOwnership",
					"outputs": [],
					"stateMutability": "nonpayable",
					"type": "function"
				},
				{
					"inputs": [],
					"name": "reserveA",
					"outputs": [
						{
							"internalType": "uint256",
							"name": "",
							"type": "uint256"
						}
					],
					"stateMutability": "view",
					"type": "function"
				},
				{
					"inputs": [],
					"name": "reserveB",
					"outputs": [
						{
							"internalType": "uint256",
							"name": "",
							"type": "uint256"
						}
					],
					"stateMutability": "view",
					"type": "function"
				},
				{
					"inputs": [
						{
							"internalType": "uint256",
							"name": "amountInA",
							"type": "uint256"
						},
						{
							"internalType": "uint256",
							"name": "amountOutMin",
							"type": "uint256"
						}
					],
					"name": "swapTokenAForTokenB",
					"outputs": [],
					"stateMutability": "nonpayable",
					"type": "function"
				},
				{
					"inputs": [
						{
							"internalType": "uint256",
							"name": "amountInB",
							"type": "uint256"
						},
						{
							"internalType": "uint256",
							"name": "amountOutMin",
							"type": "uint256"
						}
					],
					"name": "swapTokenBForTokenA",
					"outputs": [],
					"stateMutability": "nonpayable",
					"type": "function"
				},
				{
					"inputs": [],
					"name": "tokenA",
					"outputs": [
						{
							"internalType": "contract IERC20",
							"name": "",
							"type": "address"
						}
					],
					"stateMutability": "view",
					"type": "function"
				},
				{
					"inputs": [],
					"name": "tokenB",
					"outputs": [
						{
							"internalType": "contract IERC20",
							"name": "",
							"type": "address"
						}
					],
					"stateMutability": "view",
					"type": "function"
				},
				{
					"inputs": [],
					"name": "totalLiquidity",
					"outputs": [
						{
							"internalType": "uint256",
							"name": "",
							"type": "uint256"
						}
					],
					"stateMutability": "view",
					"type": "function"
				},
				{
					"inputs": [
						{
							"internalType": "address",
							"name": "newOwner",
							"type": "address"
						}
					],
					"name": "transferOwnership",
					"outputs": [],
					"stateMutability": "nonpayable",
					"type": "function"
				}
			],
			"devdoc": {
				"author": "Production-Ready DEX",
				"details": "Implements constant product formula (x*y=k) with 0.3% trading fee.",
				"errors": {
					"AddressEmptyCode(address)": [
						{
							"details": "There's no code at `target` (it is not a contract)."
						}
					],
					"AddressInsufficientBalance(address)": [
						{
							"details": "The ETH balance of the account is not enough to perform the operation."
						}
					],
					"FailedInnerCall()": [
						{
							"details": "A call to an address target failed. The target may have reverted."
						}
					],
					"OwnableInvalidOwner(address)": [
						{
							"details": "The owner is not a valid owner account. (eg. `address(0)`)"
						}
					],
					"OwnableUnauthorizedAccount(address)": [
						{
							"details": "The caller account is not authorized to perform an operation."
						}
					],
					"ReentrancyGuardReentrantCall()": [
						{
							"details": "Unauthorized reentrant call."
						}
					],
					"SafeERC20FailedOperation(address)": [
						{
							"details": "An operation with an ERC20 token failed."
						}
					]
				},
				"events": {
					"EmergencyWithdraw(address,uint256)": {
						"params": {
							"amount": "Amount withdrawn",
							"token": "Token withdrawn"
						}
					},
					"LiquidityAdded(address,uint256,uint256,uint256)": {
						"params": {
							"amountA": "Amount of Token A added",
							"amountB": "Amount of Token B added",
							"liquidity": "Liquidity shares minted",
							"provider": "Address providing liquidity"
						}
					},
					"Swapped(address,uint256,uint256,address,address)": {
						"params": {
							"amountIn": "Amount of input tokens",
							"amountOut": "Amount of output tokens received",
							"sender": "Address initiating the swap",
							"tokenIn": "Address of input token",
							"tokenOut": "Address of output token"
						}
					}
				},
				"kind": "dev",
				"methods": {
					"addLiquidity(uint256,uint256)": {
						"details": "Follows Checks-Effects-Interactions patternUses SafeERC20 for secure token transfers",
						"params": {
							"amountA": "Amount of Token A to add",
							"amountB": "Amount of Token B to add"
						}
					},
					"constructor": {
						"details": "Validates addresses and ensures tokens are different",
						"params": {
							"tokenAAddress": "Address of first token",
							"tokenBAddress": "Address of second token"
						}
					},
					"emergencyWithdraw(address)": {
						"details": "Only allows withdrawal of tokenA or tokenBShould only be used in emergency situations",
						"params": {
							"token": "Token to withdraw"
						}
					},
					"getAmountOut(uint256,uint256,uint256)": {
						"details": "Useful for frontends to calculate expected output before swapping",
						"params": {
							"amountIn": "Input token amount",
							"reserveIn": "Reserve of input token",
							"reserveOut": "Reserve of output token"
						},
						"returns": {
							"amountOut": "Expected output amount"
						}
					},
					"getReserves()": {
						"details": "View function for external integrations",
						"returns": {
							"_reserveA": "Current reserve of Token A",
							"_reserveB": "Current reserve of Token B"
						}
					},
					"owner()": {
						"details": "Returns the address of the current owner."
					},
					"renounceOwnership()": {
						"details": "Leaves the contract without owner. It will not be possible to call `onlyOwner` functions. Can only be called by the current owner. NOTE: Renouncing ownership will leave the contract without an owner, thereby disabling any functionality that is only available to the owner."
					},
					"swapTokenAForTokenB(uint256,uint256)": {
						"details": "Implements Uniswap V2 constant product formula with 0.3% feePrevents MEV attacks through slippage checks",
						"params": {
							"amountInA": "Exact amount of Token A being sent",
							"amountOutMin": "Minimum amount of Token B to accept (slippage protection)"
						}
					},
					"swapTokenBForTokenA(uint256,uint256)": {
						"details": "Mirror function of swapTokenAForTokenB for reverse swaps",
						"params": {
							"amountInB": "Exact amount of Token B being sent",
							"amountOutMin": "Minimum amount of Token A to accept (slippage protection)"
						}
					},
					"transferOwnership(address)": {
						"details": "Transfers ownership of the contract to a new account (`newOwner`). Can only be called by the current owner."
					}
				},
				"title": "MyHyperOptimizedDEX",
				"version": 1
			},
			"evm": {
				"assembly": "    /* \"contract/dexRishabh.sol\":793:10385  contract MyHyperOptimizedDEX is ReentrancyGuard, Ownable {... */\n  mstore(0x40, 0xc0)\n    /* \"contract/dexRishabh.sol\":3237:3671  constructor(... */\n  callvalue\n  dup1\n  iszero\n  tag_1\n  jumpi\n  0x00\n  dup1\n  revert\ntag_1:\n  pop\n  mload(0x40)\n  sub(codesize, bytecodeSize)\n  dup1\n  bytecodeSize\n  dup4\n  codecopy\n  dup2\n  add\n  0x40\n  dup2\n  swap1\n  mstore\n  tag_2\n  swap2\n  tag_3\n  jump\t// in\ntag_2:\n    /* \"@openzeppelin/contracts@5.0.0/utils/ReentrancyGuard.sol\":1713:1714  1 */\n  0x01\n    /* \"@openzeppelin/contracts@5.0.0/utils/ReentrancyGuard.sol\":1917:1924  _status */\n  0x00\n    /* \"@openzeppelin/contracts@5.0.0/utils/ReentrancyGuard.sol\":1917:1938  _status = NOT_ENTERED */\n  sstore\n    /* \"contract/dexRishabh.sol\":3328:3338  msg.sender */\n  caller\n  dup1\n    /* \"@openzeppelin/contracts@5.0.0/access/Ownable.sol\":1269:1364  if (initialOwner == address(0)) {... */\n  tag_9\n  jumpi\n    /* \"@openzeppelin/contracts@5.0.0/access/Ownable.sol\":1322:1353  OwnableInvalidOwner(address(0)) */\n  mload(0x40)\n  shl(0xe0, 0x1e4fbdf7)\n  dup2\n  mstore\n    /* \"@openzeppelin/contracts@5.0.0/access/Ownable.sol\":1350:1351  0 */\n  0x00\n    /* \"@openzeppelin/contracts@5.0.0/access/Ownable.sol\":1322:1353  OwnableInvalidOwner(address(0)) */\n  0x04\n  dup3\n  add\n    /* \"#utility.yul\":640:691   */\n  mstore\n    /* \"#utility.yul\":613:631   */\n  0x24\n  add\n    /* \"@openzeppelin/contracts@5.0.0/access/Ownable.sol\":1322:1353  OwnableInvalidOwner(address(0)) */\n  mload(0x40)\n  dup1\n  swap2\n  sub\n  swap1\n  revert\n    /* \"@openzeppelin/contracts@5.0.0/access/Ownable.sol\":1269:1364  if (initialOwner == address(0)) {... */\ntag_9:\n    /* \"@openzeppelin/contracts@5.0.0/access/Ownable.sol\":1373:1405  _transferOwnership(initialOwner) */\n  tag_12\n    /* \"@openzeppelin/contracts@5.0.0/access/Ownable.sol\":1392:1404  initialOwner */\n  dup2\n    /* \"@openzeppelin/contracts@5.0.0/access/Ownable.sol\":1373:1391  _transferOwnership */\n  tag_13\n    /* \"@openzeppelin/contracts@5.0.0/access/Ownable.sol\":1373:1405  _transferOwnership(initialOwner) */\n  jump\t// in\ntag_12:\n  pop\n  sub(shl(0xa0, 0x01), 0x01)\n    /* \"contract/dexRishabh.sol\":3373:3400  tokenAAddress == address(0) */\n  dup3\n  and\n  iszero\n  dup1\n    /* \"contract/dexRishabh.sol\":3373:3431  tokenAAddress == address(0) || tokenBAddress == address(0) */\n  tag_15\n  jumpi\n  pop\n  sub(shl(0xa0, 0x01), 0x01)\n    /* \"contract/dexRishabh.sol\":3404:3431  tokenBAddress == address(0) */\n  dup2\n  and\n  iszero\n    /* \"contract/dexRishabh.sol\":3373:3431  tokenAAddress == address(0) || tokenBAddress == address(0) */\ntag_15:\n    /* \"contract/dexRishabh.sol\":3369:3480  if (tokenAAddress == address(0) || tokenBAddress == address(0)) {... */\n  iszero\n  tag_16\n  jumpi\n    /* \"contract/dexRishabh.sol\":3455:3468  ZeroAddress() */\n  mload(0x40)\n  shl(0xe0, 0xd92e233d)\n  dup2\n  mstore\n  0x04\n  add\n  mload(0x40)\n  dup1\n  swap2\n  sub\n  swap1\n  revert\n    /* \"contract/dexRishabh.sol\":3369:3480  if (tokenAAddress == address(0) || tokenBAddress == address(0)) {... */\ntag_16:\n    /* \"contract/dexRishabh.sol\":3511:3524  tokenBAddress */\n  dup1\n  sub(shl(0xa0, 0x01), 0x01)\n    /* \"contract/dexRishabh.sol\":3494:3524  tokenAAddress == tokenBAddress */\n  and\n    /* \"contract/dexRishabh.sol\":3494:3507  tokenAAddress */\n  dup3\n  sub(shl(0xa0, 0x01), 0x01)\n    /* \"contract/dexRishabh.sol\":3494:3524  tokenAAddress == tokenBAddress */\n  and\n  sub\n    /* \"contract/dexRishabh.sol\":3490:3580  if (tokenAAddress == tokenBAddress) {... */\n  tag_17\n  jumpi\n    /* \"contract/dexRishabh.sol\":3548:3568  IdenticalAddresses() */\n  mload(0x40)\n  shl(0xe4, 0x0bd969eb)\n  dup2\n  mstore\n  0x04\n  add\n  mload(0x40)\n  dup1\n  swap2\n  sub\n  swap1\n  revert\n    /* \"contract/dexRishabh.sol\":3490:3580  if (tokenAAddress == tokenBAddress) {... */\ntag_17:\n  sub(shl(0xa0, 0x01), 0x01)\n    /* \"contract/dexRishabh.sol\":3592:3622  tokenA = IERC20(tokenAAddress) */\n  swap2\n  dup3\n  and\n  0x80\n  mstore\n    /* \"contract/dexRishabh.sol\":3633:3663  tokenB = IERC20(tokenBAddress) */\n  and\n  0xa0\n  mstore\n    /* \"contract/dexRishabh.sol\":793:10385  contract MyHyperOptimizedDEX is ReentrancyGuard, Ownable {... */\n  jump(tag_21)\n    /* \"@openzeppelin/contracts@5.0.0/access/Ownable.sol\":2912:3099  function _transferOwnership(address newOwner) internal virtual {... */\ntag_13:\n    /* \"@openzeppelin/contracts@5.0.0/access/Ownable.sol\":3004:3010  _owner */\n  0x01\n  dup1\n  sload\n  sub(shl(0xa0, 0x01), 0x01)\n    /* \"@openzeppelin/contracts@5.0.0/access/Ownable.sol\":3020:3037  _owner = newOwner */\n  dup4\n  dup2\n  and\n  not(sub(shl(0xa0, 0x01), 0x01))\n  dup4\n  and\n  dup2\n  or\n  swap1\n  swap4\n  sstore\n    /* \"@openzeppelin/contracts@5.0.0/access/Ownable.sol\":3052:3092  OwnershipTransferred(oldOwner, newOwner) */\n  mload(0x40)\n    /* \"@openzeppelin/contracts@5.0.0/access/Ownable.sol\":3004:3010  _owner */\n  swap2\n  and\n  swap2\n    /* \"@openzeppelin/contracts@5.0.0/access/Ownable.sol\":3020:3037  _owner = newOwner */\n  swap1\n    /* \"@openzeppelin/contracts@5.0.0/access/Ownable.sol\":3004:3010  _owner */\n  dup3\n  swap1\n    /* \"@openzeppelin/contracts@5.0.0/access/Ownable.sol\":3052:3092  OwnershipTransferred(oldOwner, newOwner) */\n  0x8be0079c531659141344cd1fd0a4f28419497f9722a3daafe3b4186f6b6457e0\n  swap1\n    /* \"@openzeppelin/contracts@5.0.0/access/Ownable.sol\":2985:3001  address oldOwner */\n  0x00\n  swap1\n    /* \"@openzeppelin/contracts@5.0.0/access/Ownable.sol\":3052:3092  OwnershipTransferred(oldOwner, newOwner) */\n  log3\n    /* \"@openzeppelin/contracts@5.0.0/access/Ownable.sol\":2975:3099  {... */\n  pop\n    /* \"@openzeppelin/contracts@5.0.0/access/Ownable.sol\":2912:3099  function _transferOwnership(address newOwner) internal virtual {... */\n  pop\n  jump\t// out\n    /* \"#utility.yul\":14:191   */\ntag_20:\n    /* \"#utility.yul\":93:106   */\n  dup1\n  mload\n  sub(shl(0xa0, 0x01), 0x01)\n    /* \"#utility.yul\":135:166   */\n  dup2\n  and\n    /* \"#utility.yul\":125:167   */\n  dup2\n  eq\n    /* \"#utility.yul\":115:185   */\n  tag_23\n  jumpi\n    /* \"#utility.yul\":181:182   */\n  0x00\n    /* \"#utility.yul\":178:179   */\n  dup1\n    /* \"#utility.yul\":171:183   */\n  revert\n    /* \"#utility.yul\":115:185   */\ntag_23:\n    /* \"#utility.yul\":14:191   */\n  swap2\n  swap1\n  pop\n  jump\t// out\n    /* \"#utility.yul\":196:489   */\ntag_3:\n    /* \"#utility.yul\":275:281   */\n  0x00\n    /* \"#utility.yul\":283:289   */\n  dup1\n    /* \"#utility.yul\":336:338   */\n  0x40\n    /* \"#utility.yul\":324:333   */\n  dup4\n    /* \"#utility.yul\":315:322   */\n  dup6\n    /* \"#utility.yul\":311:334   */\n  sub\n    /* \"#utility.yul\":307:339   */\n  slt\n    /* \"#utility.yul\":304:356   */\n  iszero\n  tag_25\n  jumpi\n    /* \"#utility.yul\":352:353   */\n  0x00\n    /* \"#utility.yul\":349:350   */\n  dup1\n    /* \"#utility.yul\":342:354   */\n  revert\n    /* \"#utility.yul\":304:356   */\ntag_25:\n    /* \"#utility.yul\":375:415   */\n  tag_26\n    /* \"#utility.yul\":405:414   */\n  dup4\n    /* \"#utility.yul\":375:415   */\n  tag_20\n  jump\t// in\ntag_26:\n    /* \"#utility.yul\":365:415   */\n  swap2\n  pop\n    /* \"#utility.yul\":434:483   */\n  tag_27\n    /* \"#utility.yul\":479:481   */\n  0x20\n    /* \"#utility.yul\":468:477   */\n  dup5\n    /* \"#utility.yul\":464:482   */\n  add\n    /* \"#utility.yul\":434:483   */\n  tag_20\n  jump\t// in\ntag_27:\n    /* \"#utility.yul\":424:483   */\n  swap1\n  pop\n    /* \"#utility.yul\":196:489   */\n  swap3\n  pop\n  swap3\n  swap1\n  pop\n  jump\t// out\n    /* \"#utility.yul\":494:697   */\ntag_21:\n    /* \"contract/dexRishabh.sol\":793:10385  contract MyHyperOptimizedDEX is ReentrancyGuard, Ownable {... */\n  mload(0x80)\n  mload(0xa0)\n  codecopy(0x00, dataOffset(sub_0), dataSize(sub_0))\n  0x00\n  assignImmutable(\"0x800e5167fcdf08619843f8e892e4ee5b0c228c18c17637b1d2ba8ec6b4153b4e\")\n  0x00\n  assignImmutable(\"0x4a06b8506ca29f0071472c073fef4bd34656e41207e20131380c952c1539f411\")\n  return(0x00, dataSize(sub_0))\nstop\n\nsub_0: assembly {\n        /* \"contract/dexRishabh.sol\":793:10385  contract MyHyperOptimizedDEX is ReentrancyGuard, Ownable {... */\n      mstore(0x40, 0x80)\n      callvalue\n      dup1\n      iszero\n      tag_1\n      jumpi\n      0x00\n      dup1\n      revert\n    tag_1:\n      pop\n      jumpi(tag_2, lt(calldatasize, 0x04))\n      shr(0xe0, calldataload(0x00))\n      dup1\n      0x6ff1c9bc\n      gt\n      tag_17\n      jumpi\n      dup1\n      0x8da5cb5b\n      gt\n      tag_18\n      jumpi\n      dup1\n      0x8da5cb5b\n      eq\n      tag_13\n      jumpi\n      dup1\n      0x9cd441da\n      eq\n      tag_14\n      jumpi\n      dup1\n      0xdc5fa6c5\n      eq\n      tag_15\n      jumpi\n      dup1\n      0xf2fde38b\n      eq\n      tag_16\n      jumpi\n      0x00\n      dup1\n      revert\n    tag_18:\n      dup1\n      0x6ff1c9bc\n      eq\n      tag_10\n      jumpi\n      dup1\n      0x715018a6\n      eq\n      tag_11\n      jumpi\n      dup1\n      0x76d5f25f\n      eq\n      tag_12\n      jumpi\n      0x00\n      dup1\n      revert\n    tag_17:\n      dup1\n      0x15770f92\n      gt\n      tag_19\n      jumpi\n      dup1\n      0x15770f92\n      eq\n      tag_6\n      jumpi\n      dup1\n      0x19e36f3b\n      eq\n      tag_7\n      jumpi\n      dup1\n      0x56d9be4c\n      eq\n      tag_8\n      jumpi\n      dup1\n      0x5f64b55b\n      eq\n      tag_9\n      jumpi\n      0x00\n      dup1\n      revert\n    tag_19:\n      dup1\n      0x054d50d4\n      eq\n      tag_3\n      jumpi\n      dup1\n      0x0902f1ac\n      eq\n      tag_4\n      jumpi\n      dup1\n      0x0fc63d10\n      eq\n      tag_5\n      jumpi\n    tag_2:\n      0x00\n      dup1\n      revert\n        /* \"contract/dexRishabh.sol\":9130:9660  function getAmountOut(... */\n    tag_3:\n      tag_20\n      tag_21\n      calldatasize\n      0x04\n      tag_22\n      jump\t// in\n    tag_21:\n      tag_23\n      jump\t// in\n    tag_20:\n      mload(0x40)\n        /* \"#utility.yul\":481:506   */\n      swap1\n      dup2\n      mstore\n        /* \"#utility.yul\":469:471   */\n      0x20\n        /* \"#utility.yul\":454:472   */\n      add\n        /* \"contract/dexRishabh.sol\":9130:9660  function getAmountOut(... */\n    tag_24:\n      mload(0x40)\n      dup1\n      swap2\n      sub\n      swap1\n      return\n        /* \"contract/dexRishabh.sol\":8606:8760  function getReserves() external view returns (uint256 _reserveA, uint256 _reserveB) {... */\n    tag_4:\n        /* \"contract/dexRishabh.sol\":8713:8721  reserveA */\n      sload(0x02)\n        /* \"contract/dexRishabh.sol\":8744:8752  reserveB */\n      sload(0x03)\n        /* \"contract/dexRishabh.sol\":8606:8760  function getReserves() external view returns (uint256 _reserveA, uint256 _reserveB) {... */\n      0x40\n      dup1\n      mload\n        /* \"#utility.yul\":691:716   */\n      swap3\n      dup4\n      mstore\n        /* \"#utility.yul\":747:749   */\n      0x20\n        /* \"#utility.yul\":732:750   */\n      dup4\n      add\n        /* \"#utility.yul\":725:759   */\n      swap2\n      swap1\n      swap2\n      mstore\n        /* \"#utility.yul\":664:682   */\n      add\n        /* \"contract/dexRishabh.sol\":8606:8760  function getReserves() external view returns (uint256 _reserveA, uint256 _reserveB) {... */\n      tag_24\n        /* \"#utility.yul\":517:765   */\n      jump\n        /* \"contract/dexRishabh.sol\":1315:1345  IERC20 public immutable tokenA */\n    tag_5:\n      tag_30\n      immutable(\"0x4a06b8506ca29f0071472c073fef4bd34656e41207e20131380c952c1539f411\")\n      dup2\n      jump\n    tag_30:\n      mload(0x40)\n      sub(shl(0xa0, 0x01), 0x01)\n        /* \"#utility.yul\":948:980   */\n      swap1\n      swap2\n      and\n        /* \"#utility.yul\":930:981   */\n      dup2\n      mstore\n        /* \"#utility.yul\":918:920   */\n      0x20\n        /* \"#utility.yul\":903:921   */\n      add\n        /* \"contract/dexRishabh.sol\":1315:1345  IERC20 public immutable tokenA */\n      tag_24\n        /* \"#utility.yul\":770:987   */\n      jump\n        /* \"contract/dexRishabh.sol\":1630:1659  uint256 public totalLiquidity */\n    tag_6:\n      tag_20\n      sload(0x04)\n      dup2\n      jump\n        /* \"contract/dexRishabh.sol\":1517:1540  uint256 public reserveB */\n    tag_7:\n      tag_20\n      sload(0x03)\n      dup2\n      jump\n        /* \"contract/dexRishabh.sol\":5299:6855  function swapTokenAForTokenB(... */\n    tag_8:\n      tag_40\n      tag_41\n      calldatasize\n      0x04\n      tag_42\n      jump\t// in\n    tag_41:\n      tag_43\n      jump\t// in\n    tag_40:\n      stop\n        /* \"contract/dexRishabh.sol\":1352:1382  IERC20 public immutable tokenB */\n    tag_9:\n      tag_30\n      immutable(\"0x800e5167fcdf08619843f8e892e4ee5b0c228c18c17637b1d2ba8ec6b4153b4e\")\n      dup2\n      jump\n        /* \"contract/dexRishabh.sol\":9898:10382  function emergencyWithdraw(IERC20 token) external onlyOwner {... */\n    tag_10:\n      tag_40\n      tag_48\n      calldatasize\n      0x04\n      tag_49\n      jump\t// in\n    tag_48:\n      tag_50\n      jump\t// in\n        /* \"@openzeppelin/contracts@5.0.0/access/Ownable.sol\":2293:2394  function renounceOwnership() public virtual onlyOwner {... */\n    tag_11:\n      tag_40\n      tag_52\n      jump\t// in\n        /* \"contract/dexRishabh.sol\":7159:8367  function swapTokenBForTokenA(... */\n    tag_12:\n      tag_40\n      tag_54\n      calldatasize\n      0x04\n      tag_42\n      jump\t// in\n    tag_54:\n      tag_55\n      jump\t// in\n        /* \"@openzeppelin/contracts@5.0.0/access/Ownable.sol\":1638:1723  function owner() public view virtual returns (address) {... */\n    tag_13:\n        /* \"@openzeppelin/contracts@5.0.0/access/Ownable.sol\":1710:1716  _owner */\n      and(sub(shl(0xa0, 0x01), 0x01), sload(0x01))\n        /* \"@openzeppelin/contracts@5.0.0/access/Ownable.sol\":1638:1723  function owner() public view virtual returns (address) {... */\n      jump(tag_30)\n        /* \"contract/dexRishabh.sol\":3948:4933  function addLiquidity(... */\n    tag_14:\n      tag_40\n      tag_61\n      calldatasize\n      0x04\n      tag_42\n      jump\t// in\n    tag_61:\n      tag_62\n      jump\t// in\n        /* \"contract/dexRishabh.sol\":1439:1462  uint256 public reserveA */\n    tag_15:\n      tag_20\n      sload(0x02)\n      dup2\n      jump\n        /* \"@openzeppelin/contracts@5.0.0/access/Ownable.sol\":2543:2758  function transferOwnership(address newOwner) public virtual onlyOwner {... */\n    tag_16:\n      tag_40\n      tag_67\n      calldatasize\n      0x04\n      tag_49\n      jump\t// in\n    tag_67:\n      tag_69\n      jump\t// in\n        /* \"contract/dexRishabh.sol\":9130:9660  function getAmountOut(... */\n    tag_23:\n        /* \"contract/dexRishabh.sol\":9266:9283  uint256 amountOut */\n      0x00\n        /* \"contract/dexRishabh.sol\":9300:9308  amountIn */\n      dup4\n        /* \"contract/dexRishabh.sol\":9312:9313  0 */\n      0x00\n        /* \"contract/dexRishabh.sol\":9300:9313  amountIn == 0 */\n      sub\n        /* \"contract/dexRishabh.sol\":9296:9334  if (amountIn == 0) revert ZeroAmount() */\n      tag_71\n      jumpi\n        /* \"contract/dexRishabh.sol\":9322:9334  ZeroAmount() */\n      mload(0x40)\n      shl(0xe0, 0x1f2a2005)\n      dup2\n      mstore\n      0x04\n      add\n      mload(0x40)\n      dup1\n      swap2\n      sub\n      swap1\n      revert\n        /* \"contract/dexRishabh.sol\":9296:9334  if (amountIn == 0) revert ZeroAmount() */\n    tag_71:\n        /* \"contract/dexRishabh.sol\":9349:9363  reserveIn == 0 */\n      dup3\n      iszero\n      dup1\n        /* \"contract/dexRishabh.sol\":9349:9382  reserveIn == 0 || reserveOut == 0 */\n      tag_72\n      jumpi\n      pop\n        /* \"contract/dexRishabh.sol\":9367:9382  reserveOut == 0 */\n      dup2\n      iszero\n        /* \"contract/dexRishabh.sol\":9349:9382  reserveIn == 0 || reserveOut == 0 */\n    tag_72:\n        /* \"contract/dexRishabh.sol\":9345:9404  if (reserveIn == 0 || reserveOut == 0) revert NoLiquidity() */\n      iszero\n      tag_73\n      jumpi\n        /* \"contract/dexRishabh.sol\":9391:9404  NoLiquidity() */\n      mload(0x40)\n      shl(0xe1, 0x6180f03f)\n      dup2\n      mstore\n      0x04\n      add\n      mload(0x40)\n      dup1\n      swap2\n      sub\n      swap1\n      revert\n        /* \"contract/dexRishabh.sol\":9345:9404  if (reserveIn == 0 || reserveOut == 0) revert NoLiquidity() */\n    tag_73:\n        /* \"contract/dexRishabh.sol\":9417:9440  uint256 amountInWithFee */\n      0x00\n        /* \"contract/dexRishabh.sol\":9443:9467  amountIn * FEE_NUMERATOR */\n      tag_74\n        /* \"contract/dexRishabh.sol\":1016:1019  997 */\n      0x03e5\n        /* \"contract/dexRishabh.sol\":9443:9451  amountIn */\n      dup7\n        /* \"contract/dexRishabh.sol\":9443:9467  amountIn * FEE_NUMERATOR */\n      tag_75\n      jump\t// in\n    tag_74:\n        /* \"contract/dexRishabh.sol\":9417:9467  uint256 amountInWithFee = amountIn * FEE_NUMERATOR */\n      swap1\n      pop\n        /* \"contract/dexRishabh.sol\":9478:9495  uint256 numerator */\n      0x00\n        /* \"contract/dexRishabh.sol\":9498:9526  amountInWithFee * reserveOut */\n      tag_76\n        /* \"contract/dexRishabh.sol\":9516:9526  reserveOut */\n      dup5\n        /* \"contract/dexRishabh.sol\":9417:9467  uint256 amountInWithFee = amountIn * FEE_NUMERATOR */\n      dup4\n        /* \"contract/dexRishabh.sol\":9498:9526  amountInWithFee * reserveOut */\n      tag_75\n      jump\t// in\n    tag_76:\n        /* \"contract/dexRishabh.sol\":9478:9526  uint256 numerator = amountInWithFee * reserveOut */\n      swap1\n      pop\n        /* \"contract/dexRishabh.sol\":9537:9556  uint256 denominator */\n      0x00\n        /* \"contract/dexRishabh.sol\":9591:9606  amountInWithFee */\n      dup3\n        /* \"contract/dexRishabh.sol\":9560:9587  reserveIn * FEE_DENOMINATOR */\n      tag_77\n        /* \"contract/dexRishabh.sol\":1110:1114  1000 */\n      0x03e8\n        /* \"contract/dexRishabh.sol\":9560:9569  reserveIn */\n      dup9\n        /* \"contract/dexRishabh.sol\":9560:9587  reserveIn * FEE_DENOMINATOR */\n      tag_75\n      jump\t// in\n    tag_77:\n        /* \"contract/dexRishabh.sol\":9559:9606  (reserveIn * FEE_DENOMINATOR) + amountInWithFee */\n      tag_78\n      swap2\n      swap1\n      tag_79\n      jump\t// in\n    tag_78:\n        /* \"contract/dexRishabh.sol\":9537:9606  uint256 denominator = (reserveIn * FEE_DENOMINATOR) + amountInWithFee */\n      swap1\n      pop\n        /* \"contract/dexRishabh.sol\":9629:9652  numerator / denominator */\n      tag_80\n        /* \"contract/dexRishabh.sol\":9537:9606  uint256 denominator = (reserveIn * FEE_DENOMINATOR) + amountInWithFee */\n      dup2\n        /* \"contract/dexRishabh.sol\":9629:9638  numerator */\n      dup4\n        /* \"contract/dexRishabh.sol\":9629:9652  numerator / denominator */\n      tag_81\n      jump\t// in\n    tag_80:\n        /* \"contract/dexRishabh.sol\":9617:9652  amountOut = numerator / denominator */\n      swap8\n        /* \"contract/dexRishabh.sol\":9130:9660  function getAmountOut(... */\n      swap7\n      pop\n      pop\n      pop\n      pop\n      pop\n      pop\n      pop\n      jump\t// out\n        /* \"contract/dexRishabh.sol\":5299:6855  function swapTokenAForTokenB(... */\n    tag_43:\n        /* \"@openzeppelin/contracts@5.0.0/utils/ReentrancyGuard.sol\":2356:2377  _nonReentrantBefore() */\n      tag_84\n        /* \"@openzeppelin/contracts@5.0.0/utils/ReentrancyGuard.sol\":2356:2375  _nonReentrantBefore */\n      tag_85\n        /* \"@openzeppelin/contracts@5.0.0/utils/ReentrancyGuard.sol\":2356:2377  _nonReentrantBefore() */\n      jump\t// in\n    tag_84:\n        /* \"contract/dexRishabh.sol\":2910:2918  reserveA */\n      sload(0x02)\n        /* \"contract/dexRishabh.sol\":2910:2923  reserveA == 0 */\n      iszero\n      dup1\n        /* \"contract/dexRishabh.sol\":2910:2940  reserveA == 0 || reserveB == 0 */\n      tag_87\n      jumpi\n      pop\n        /* \"contract/dexRishabh.sol\":2927:2935  reserveB */\n      sload(0x03)\n        /* \"contract/dexRishabh.sol\":2927:2940  reserveB == 0 */\n      iszero\n        /* \"contract/dexRishabh.sol\":2910:2940  reserveA == 0 || reserveB == 0 */\n    tag_87:\n        /* \"contract/dexRishabh.sol\":2906:2962  if (reserveA == 0 || reserveB == 0) revert NoLiquidity() */\n      iszero\n      tag_88\n      jumpi\n        /* \"contract/dexRishabh.sol\":2949:2962  NoLiquidity() */\n      mload(0x40)\n      shl(0xe1, 0x6180f03f)\n      dup2\n      mstore\n      0x04\n      add\n      mload(0x40)\n      dup1\n      swap2\n      sub\n      swap1\n      revert\n        /* \"contract/dexRishabh.sol\":2906:2962  if (reserveA == 0 || reserveB == 0) revert NoLiquidity() */\n    tag_88:\n        /* \"contract/dexRishabh.sol\":5471:5480  amountInA */\n      dup2\n        /* \"contract/dexRishabh.sol\":5484:5485  0 */\n      0x00\n        /* \"contract/dexRishabh.sol\":5471:5485  amountInA == 0 */\n      sub\n        /* \"contract/dexRishabh.sol\":5467:5506  if (amountInA == 0) revert ZeroAmount() */\n      tag_90\n      jumpi\n        /* \"contract/dexRishabh.sol\":5494:5506  ZeroAmount() */\n      mload(0x40)\n      shl(0xe0, 0x1f2a2005)\n      dup2\n      mstore\n      0x04\n      add\n      mload(0x40)\n      dup1\n      swap2\n      sub\n      swap1\n      revert\n        /* \"contract/dexRishabh.sol\":5467:5506  if (amountInA == 0) revert ZeroAmount() */\n    tag_90:\n        /* \"contract/dexRishabh.sol\":5521:5533  amountOutMin */\n      dup1\n        /* \"contract/dexRishabh.sol\":5537:5538  0 */\n      0x00\n        /* \"contract/dexRishabh.sol\":5521:5538  amountOutMin == 0 */\n      sub\n        /* \"contract/dexRishabh.sol\":5517:5559  if (amountOutMin == 0) revert ZeroAmount() */\n      tag_91\n      jumpi\n        /* \"contract/dexRishabh.sol\":5547:5559  ZeroAmount() */\n      mload(0x40)\n      shl(0xe0, 0x1f2a2005)\n      dup2\n      mstore\n      0x04\n      add\n      mload(0x40)\n      dup1\n      swap2\n      sub\n      swap1\n      revert\n        /* \"contract/dexRishabh.sol\":5517:5559  if (amountOutMin == 0) revert ZeroAmount() */\n    tag_91:\n        /* \"contract/dexRishabh.sol\":5639:5662  uint256 amountInWithFee */\n      0x00\n        /* \"contract/dexRishabh.sol\":5665:5690  amountInA * FEE_NUMERATOR */\n      tag_92\n        /* \"contract/dexRishabh.sol\":1016:1019  997 */\n      0x03e5\n        /* \"contract/dexRishabh.sol\":5665:5674  amountInA */\n      dup5\n        /* \"contract/dexRishabh.sol\":5665:5690  amountInA * FEE_NUMERATOR */\n      tag_75\n      jump\t// in\n    tag_92:\n        /* \"contract/dexRishabh.sol\":5639:5690  uint256 amountInWithFee = amountInA * FEE_NUMERATOR */\n      swap1\n      pop\n        /* \"contract/dexRishabh.sol\":5701:5718  uint256 numerator */\n      0x00\n        /* \"contract/dexRishabh.sol\":5739:5747  reserveB */\n      sload(0x03)\n        /* \"contract/dexRishabh.sol\":5721:5736  amountInWithFee */\n      dup3\n        /* \"contract/dexRishabh.sol\":5721:5747  amountInWithFee * reserveB */\n      tag_93\n      swap2\n      swap1\n      tag_75\n      jump\t// in\n    tag_93:\n        /* \"contract/dexRishabh.sol\":5701:5747  uint256 numerator = amountInWithFee * reserveB */\n      swap1\n      pop\n        /* \"contract/dexRishabh.sol\":5758:5777  uint256 denominator */\n      0x00\n        /* \"contract/dexRishabh.sol\":5811:5826  amountInWithFee */\n      dup3\n        /* \"contract/dexRishabh.sol\":1110:1114  1000 */\n      0x03e8\n        /* \"contract/dexRishabh.sol\":5781:5789  reserveA */\n      sload(0x02)\n        /* \"contract/dexRishabh.sol\":5781:5807  reserveA * FEE_DENOMINATOR */\n      tag_94\n      swap2\n      swap1\n      tag_75\n      jump\t// in\n    tag_94:\n        /* \"contract/dexRishabh.sol\":5780:5826  (reserveA * FEE_DENOMINATOR) + amountInWithFee */\n      tag_95\n      swap2\n      swap1\n      tag_79\n      jump\t// in\n    tag_95:\n        /* \"contract/dexRishabh.sol\":5758:5826  uint256 denominator = (reserveA * FEE_DENOMINATOR) + amountInWithFee */\n      swap1\n      pop\n        /* \"contract/dexRishabh.sol\":5837:5855  uint256 amountOutB */\n      0x00\n        /* \"contract/dexRishabh.sol\":5858:5881  numerator / denominator */\n      tag_96\n        /* \"contract/dexRishabh.sol\":5758:5826  uint256 denominator = (reserveA * FEE_DENOMINATOR) + amountInWithFee */\n      dup3\n        /* \"contract/dexRishabh.sol\":5858:5867  numerator */\n      dup5\n        /* \"contract/dexRishabh.sol\":5858:5881  numerator / denominator */\n      tag_81\n      jump\t// in\n    tag_96:\n        /* \"contract/dexRishabh.sol\":5837:5881  uint256 amountOutB = numerator / denominator */\n      swap1\n      pop\n        /* \"contract/dexRishabh.sol\":5943:5955  amountOutMin */\n      dup5\n        /* \"contract/dexRishabh.sol\":5930:5940  amountOutB */\n      dup2\n        /* \"contract/dexRishabh.sol\":5930:5955  amountOutB < amountOutMin */\n      lt\n        /* \"contract/dexRishabh.sol\":5926:6011  if (amountOutB < amountOutMin) {... */\n      iszero\n      tag_97\n      jumpi\n        /* \"contract/dexRishabh.sol\":5979:5999  InsufficientOutput() */\n      mload(0x40)\n      shl(0xe0, 0xbb2875c3)\n      dup2\n      mstore\n      0x04\n      add\n      mload(0x40)\n      dup1\n      swap2\n      sub\n      swap1\n      revert\n        /* \"contract/dexRishabh.sol\":5926:6011  if (amountOutB < amountOutMin) {... */\n    tag_97:\n        /* \"contract/dexRishabh.sol\":6097:6105  reserveB */\n      sload(0x03)\n        /* \"contract/dexRishabh.sol\":6084:6094  amountOutB */\n      dup2\n        /* \"contract/dexRishabh.sol\":6084:6105  amountOutB > reserveB */\n      gt\n        /* \"contract/dexRishabh.sol\":6080:6162  if (amountOutB > reserveB) {... */\n      iszero\n      tag_98\n      jumpi\n        /* \"contract/dexRishabh.sol\":6129:6150  InsufficientReserve() */\n      mload(0x40)\n      shl(0xe0, 0x28b35f21)\n      dup2\n      mstore\n      0x04\n      add\n      mload(0x40)\n      dup1\n      swap2\n      sub\n      swap1\n      revert\n        /* \"contract/dexRishabh.sol\":6080:6162  if (amountOutB > reserveB) {... */\n    tag_98:\n        /* \"contract/dexRishabh.sol\":6242:6261  uint256 maxSlippage */\n      0x00\n        /* \"contract/dexRishabh.sol\":1269:1274  10000 */\n      0x2710\n        /* \"contract/dexRishabh.sol\":6265:6294  amountOutB * MAX_SLIPPAGE_BPS */\n      tag_99\n        /* \"contract/dexRishabh.sol\":1215:1219  1000 */\n      0x03e8\n        /* \"contract/dexRishabh.sol\":6265:6275  amountOutB */\n      dup5\n        /* \"contract/dexRishabh.sol\":6265:6294  amountOutB * MAX_SLIPPAGE_BPS */\n      tag_75\n      jump\t// in\n    tag_99:\n        /* \"contract/dexRishabh.sol\":6264:6313  (amountOutB * MAX_SLIPPAGE_BPS) / BPS_DENOMINATOR */\n      tag_100\n      swap2\n      swap1\n      tag_81\n      jump\t// in\n    tag_100:\n        /* \"contract/dexRishabh.sol\":6242:6313  uint256 maxSlippage = (amountOutB * MAX_SLIPPAGE_BPS) / BPS_DENOMINATOR */\n      swap1\n      pop\n      dup1\n        /* \"contract/dexRishabh.sol\":6328:6353  amountOutB - amountOutMin */\n      tag_101\n        /* \"contract/dexRishabh.sol\":6341:6353  amountOutMin */\n      dup8\n        /* \"contract/dexRishabh.sol\":6328:6338  amountOutB */\n      dup5\n        /* \"contract/dexRishabh.sol\":6328:6353  amountOutB - amountOutMin */\n      tag_102\n      jump\t// in\n    tag_101:\n        /* \"contract/dexRishabh.sol\":6328:6367  amountOutB - amountOutMin > maxSlippage */\n      gt\n        /* \"contract/dexRishabh.sol\":6324:6422  if (amountOutB - amountOutMin > maxSlippage) {... */\n      iszero\n      tag_103\n      jumpi\n        /* \"contract/dexRishabh.sol\":6391:6410  ExcessiveSlippage() */\n      mload(0x40)\n      shl(0xe0, 0x97c7f537)\n      dup2\n      mstore\n      0x04\n      add\n      mload(0x40)\n      dup1\n      swap2\n      sub\n      swap1\n      revert\n        /* \"contract/dexRishabh.sol\":6324:6422  if (amountOutB - amountOutMin > maxSlippage) {... */\n    tag_103:\n        /* \"contract/dexRishabh.sol\":6474:6483  amountInA */\n      dup7\n        /* \"contract/dexRishabh.sol\":6462:6470  reserveA */\n      0x02\n      0x00\n        /* \"contract/dexRishabh.sol\":6462:6483  reserveA += amountInA */\n      dup3\n      dup3\n      sload\n      tag_104\n      swap2\n      swap1\n      tag_79\n      jump\t// in\n    tag_104:\n      swap3\n      pop\n      pop\n      dup2\n      swap1\n      sstore\n      pop\n        /* \"contract/dexRishabh.sol\":6506:6516  amountOutB */\n      dup2\n        /* \"contract/dexRishabh.sol\":6494:6502  reserveB */\n      0x03\n      0x00\n        /* \"contract/dexRishabh.sol\":6494:6516  reserveB -= amountOutB */\n      dup3\n      dup3\n      sload\n      tag_105\n      swap2\n      swap1\n      tag_102\n      jump\t// in\n    tag_105:\n      swap1\n      swap2\n      sstore\n      pop\n        /* \"contract/dexRishabh.sol\":6562:6623  tokenA.safeTransferFrom(msg.sender, address(this), amountInA) */\n      tag_106\n      swap1\n      pop\n      sub(shl(0xa0, 0x01), 0x01)\n        /* \"contract/dexRishabh.sol\":6562:6568  tokenA */\n      immutable(\"0x4a06b8506ca29f0071472c073fef4bd34656e41207e20131380c952c1539f411\")\n        /* \"contract/dexRishabh.sol\":6562:6585  tokenA.safeTransferFrom */\n      and\n        /* \"contract/dexRishabh.sol\":6586:6596  msg.sender */\n      caller\n        /* \"contract/dexRishabh.sol\":6606:6610  this */\n      address\n        /* \"contract/dexRishabh.sol\":6613:6622  amountInA */\n      dup11\n        /* \"contract/dexRishabh.sol\":6562:6585  tokenA.safeTransferFrom */\n      tag_107\n        /* \"contract/dexRishabh.sol\":6562:6623  tokenA.safeTransferFrom(msg.sender, address(this), amountInA) */\n      jump\t// in\n    tag_106:\n        /* \"contract/dexRishabh.sol\":6634:6677  tokenB.safeTransfer(msg.sender, amountOutB) */\n      tag_108\n      sub(shl(0xa0, 0x01), 0x01)\n        /* \"contract/dexRishabh.sol\":6634:6640  tokenB */\n      immutable(\"0x800e5167fcdf08619843f8e892e4ee5b0c228c18c17637b1d2ba8ec6b4153b4e\")\n        /* \"contract/dexRishabh.sol\":6634:6653  tokenB.safeTransfer */\n      and\n        /* \"contract/dexRishabh.sol\":6654:6664  msg.sender */\n      caller\n        /* \"contract/dexRishabh.sol\":6666:6676  amountOutB */\n      dup5\n        /* \"contract/dexRishabh.sol\":6634:6653  tokenB.safeTransfer */\n      tag_109\n        /* \"contract/dexRishabh.sol\":6634:6677  tokenB.safeTransfer(msg.sender, amountOutB) */\n      jump\t// in\n    tag_108:\n        /* \"contract/dexRishabh.sol\":6829:6835  tokenB */\n      immutable(\"0x800e5167fcdf08619843f8e892e4ee5b0c228c18c17637b1d2ba8ec6b4153b4e\")\n      sub(shl(0xa0, 0x01), 0x01)\n        /* \"contract/dexRishabh.sol\":6695:6847  Swapped(... */\n      and\n        /* \"contract/dexRishabh.sol\":6799:6805  tokenA */\n      immutable(\"0x4a06b8506ca29f0071472c073fef4bd34656e41207e20131380c952c1539f411\")\n      sub(shl(0xa0, 0x01), 0x01)\n        /* \"contract/dexRishabh.sol\":6695:6847  Swapped(... */\n      and\n        /* \"contract/dexRishabh.sol\":6717:6727  msg.sender */\n      caller\n      sub(shl(0xa0, 0x01), 0x01)\n        /* \"contract/dexRishabh.sol\":6695:6847  Swapped(... */\n      and\n      0xdbee45ea236748b94cfbe4aa4456c6460410d51bc244040093d65457fb4b2850\n        /* \"contract/dexRishabh.sol\":6742:6751  amountInA */\n      dup11\n        /* \"contract/dexRishabh.sol\":6766:6776  amountOutB */\n      dup7\n        /* \"contract/dexRishabh.sol\":6695:6847  Swapped(... */\n      mload(0x40)\n      tag_110\n      swap3\n      swap2\n      swap1\n        /* \"#utility.yul\":691:716   */\n      swap2\n      dup3\n      mstore\n        /* \"#utility.yul\":747:749   */\n      0x20\n        /* \"#utility.yul\":732:750   */\n      dup3\n      add\n        /* \"#utility.yul\":725:759   */\n      mstore\n        /* \"#utility.yul\":679:681   */\n      0x40\n        /* \"#utility.yul\":664:682   */\n      add\n      swap1\n        /* \"#utility.yul\":517:765   */\n      jump\n        /* \"contract/dexRishabh.sol\":6695:6847  Swapped(... */\n    tag_110:\n      mload(0x40)\n      dup1\n      swap2\n      sub\n      swap1\n      log4\n        /* \"contract/dexRishabh.sol\":5429:6855  {... */\n      pop\n      pop\n      pop\n      pop\n      pop\n        /* \"@openzeppelin/contracts@5.0.0/utils/ReentrancyGuard.sol\":2398:2418  _nonReentrantAfter() */\n      tag_111\n        /* \"@openzeppelin/contracts@5.0.0/utils/ReentrancyGuard.sol\":1713:1714  1 */\n      0x01\n        /* \"@openzeppelin/contracts@5.0.0/utils/ReentrancyGuard.sol\":2924:2931  _status */\n      0x00\n        /* \"@openzeppelin/contracts@5.0.0/utils/ReentrancyGuard.sol\":2924:2945  _status = NOT_ENTERED */\n      sstore\n        /* \"@openzeppelin/contracts@5.0.0/utils/ReentrancyGuard.sol\":2744:2952  function _nonReentrantAfter() private {... */\n      jump\n        /* \"@openzeppelin/contracts@5.0.0/utils/ReentrancyGuard.sol\":2398:2418  _nonReentrantAfter() */\n    tag_111:\n        /* \"contract/dexRishabh.sol\":5299:6855  function swapTokenAForTokenB(... */\n      pop\n      pop\n      jump\t// out\n        /* \"contract/dexRishabh.sol\":9898:10382  function emergencyWithdraw(IERC20 token) external onlyOwner {... */\n    tag_50:\n        /* \"@openzeppelin/contracts@5.0.0/access/Ownable.sol\":1531:1544  _checkOwner() */\n      tag_114\n        /* \"@openzeppelin/contracts@5.0.0/access/Ownable.sol\":1531:1542  _checkOwner */\n      tag_115\n        /* \"@openzeppelin/contracts@5.0.0/access/Ownable.sol\":1531:1544  _checkOwner() */\n      jump\t// in\n    tag_114:\n        /* \"contract/dexRishabh.sol\":10013:10019  tokenA */\n      immutable(\"0x4a06b8506ca29f0071472c073fef4bd34656e41207e20131380c952c1539f411\")\n      sub(shl(0xa0, 0x01), 0x01)\n        /* \"contract/dexRishabh.sol\":9987:10020  address(token) != address(tokenA) */\n      and\n        /* \"contract/dexRishabh.sol\":9995:10000  token */\n      dup2\n      sub(shl(0xa0, 0x01), 0x01)\n        /* \"contract/dexRishabh.sol\":9987:10020  address(token) != address(tokenA) */\n      and\n      eq\n      iszero\n        /* \"contract/dexRishabh.sol\":9987:10070  address(token) != address(tokenA) &&... */\n      dup1\n      iszero\n      tag_117\n      jumpi\n      pop\n        /* \"contract/dexRishabh.sol\":10063:10069  tokenB */\n      immutable(\"0x800e5167fcdf08619843f8e892e4ee5b0c228c18c17637b1d2ba8ec6b4153b4e\")\n      sub(shl(0xa0, 0x01), 0x01)\n        /* \"contract/dexRishabh.sol\":10037:10070  address(token) != address(tokenB) */\n      and\n        /* \"contract/dexRishabh.sol\":10045:10050  token */\n      dup2\n      sub(shl(0xa0, 0x01), 0x01)\n        /* \"contract/dexRishabh.sol\":10037:10070  address(token) != address(tokenB) */\n      and\n      eq\n      iszero\n        /* \"contract/dexRishabh.sol\":9987:10070  address(token) != address(tokenA) &&... */\n    tag_117:\n        /* \"contract/dexRishabh.sol\":9969:10130  if (... */\n      iszero\n      tag_118\n      jumpi\n        /* \"contract/dexRishabh.sol\":10104:10118  InvalidToken() */\n      mload(0x40)\n      shl(0xe0, 0xc1ab6dc1)\n      dup2\n      mstore\n      0x04\n      add\n      mload(0x40)\n      dup1\n      swap2\n      sub\n      swap1\n      revert\n        /* \"contract/dexRishabh.sol\":9969:10130  if (... */\n    tag_118:\n        /* \"contract/dexRishabh.sol\":10168:10198  token.balanceOf(address(this)) */\n      mload(0x40)\n      shl(0xe0, 0x70a08231)\n      dup2\n      mstore\n        /* \"contract/dexRishabh.sol\":10192:10196  this */\n      address\n        /* \"contract/dexRishabh.sol\":10168:10198  token.balanceOf(address(this)) */\n      0x04\n      dup3\n      add\n        /* \"#utility.yul\":930:981   */\n      mstore\n        /* \"contract/dexRishabh.sol\":10150:10165  uint256 balance */\n      0x00\n      swap1\n      sub(shl(0xa0, 0x01), 0x01)\n        /* \"contract/dexRishabh.sol\":10168:10183  token.balanceOf */\n      dup4\n      and\n      swap1\n      0x70a08231\n      swap1\n        /* \"#utility.yul\":903:921   */\n      0x24\n      add\n        /* \"contract/dexRishabh.sol\":10168:10198  token.balanceOf(address(this)) */\n      0x20\n      mload(0x40)\n      dup1\n      dup4\n      sub\n      dup2\n      dup7\n      gas\n      staticcall\n      iszero\n      dup1\n      iszero\n      tag_121\n      jumpi\n      returndatasize\n      0x00\n      dup1\n      returndatacopy\n      revert(0x00, returndatasize)\n    tag_121:\n      pop\n      pop\n      pop\n      pop\n      mload(0x40)\n      returndatasize\n      not(0x1f)\n      0x1f\n      dup3\n      add\n      and\n      dup3\n      add\n      dup1\n      0x40\n      mstore\n      pop\n      dup2\n      add\n      swap1\n      tag_122\n      swap2\n      swap1\n      tag_123\n      jump\t// in\n    tag_122:\n        /* \"contract/dexRishabh.sol\":10150:10198  uint256 balance = token.balanceOf(address(this)) */\n      swap1\n      pop\n        /* \"contract/dexRishabh.sol\":10213:10220  balance */\n      dup1\n        /* \"contract/dexRishabh.sol\":10224:10225  0 */\n      0x00\n        /* \"contract/dexRishabh.sol\":10213:10225  balance == 0 */\n      sub\n        /* \"contract/dexRishabh.sol\":10209:10246  if (balance == 0) revert ZeroAmount() */\n      tag_124\n      jumpi\n        /* \"contract/dexRishabh.sol\":10234:10246  ZeroAmount() */\n      mload(0x40)\n      shl(0xe0, 0x1f2a2005)\n      dup2\n      mstore\n      0x04\n      add\n      mload(0x40)\n      dup1\n      swap2\n      sub\n      swap1\n      revert\n        /* \"contract/dexRishabh.sol\":10209:10246  if (balance == 0) revert ZeroAmount() */\n    tag_124:\n        /* \"contract/dexRishabh.sol\":10267:10306  token.safeTransfer(msg.sender, balance) */\n      tag_125\n      sub(shl(0xa0, 0x01), 0x01)\n        /* \"contract/dexRishabh.sol\":10267:10285  token.safeTransfer */\n      dup4\n      and\n        /* \"contract/dexRishabh.sol\":10286:10296  msg.sender */\n      caller\n        /* \"contract/dexRishabh.sol\":10298:10305  balance */\n      dup4\n        /* \"contract/dexRishabh.sol\":10267:10285  token.safeTransfer */\n      tag_109\n        /* \"contract/dexRishabh.sol\":10267:10306  token.safeTransfer(msg.sender, balance) */\n      jump\t// in\n    tag_125:\n        /* \"contract/dexRishabh.sol\":10358:10363  token */\n      dup2\n      sub(shl(0xa0, 0x01), 0x01)\n        /* \"contract/dexRishabh.sol\":10332:10374  EmergencyWithdraw(address(token), balance) */\n      and\n      0x5fafa99d0643513820be26656b45130b01e1c03062e1266bf36f88cbd3bd9695\n        /* \"contract/dexRishabh.sol\":10366:10373  balance */\n      dup3\n        /* \"contract/dexRishabh.sol\":10332:10374  EmergencyWithdraw(address(token), balance) */\n      mload(0x40)\n      tag_126\n      swap2\n        /* \"#utility.yul\":481:506   */\n      dup2\n      mstore\n        /* \"#utility.yul\":469:471   */\n      0x20\n        /* \"#utility.yul\":454:472   */\n      add\n      swap1\n        /* \"#utility.yul\":335:512   */\n      jump\n        /* \"contract/dexRishabh.sol\":10332:10374  EmergencyWithdraw(address(token), balance) */\n    tag_126:\n      mload(0x40)\n      dup1\n      swap2\n      sub\n      swap1\n      log2\n        /* \"contract/dexRishabh.sol\":9958:10382  {... */\n      pop\n        /* \"contract/dexRishabh.sol\":9898:10382  function emergencyWithdraw(IERC20 token) external onlyOwner {... */\n      pop\n      jump\t// out\n        /* \"@openzeppelin/contracts@5.0.0/access/Ownable.sol\":2293:2394  function renounceOwnership() public virtual onlyOwner {... */\n    tag_52:\n        /* \"@openzeppelin/contracts@5.0.0/access/Ownable.sol\":1531:1544  _checkOwner() */\n      tag_128\n        /* \"@openzeppelin/contracts@5.0.0/access/Ownable.sol\":1531:1542  _checkOwner */\n      tag_115\n        /* \"@openzeppelin/contracts@5.0.0/access/Ownable.sol\":1531:1544  _checkOwner() */\n      jump\t// in\n    tag_128:\n        /* \"@openzeppelin/contracts@5.0.0/access/Ownable.sol\":2357:2387  _transferOwnership(address(0)) */\n      tag_130\n        /* \"@openzeppelin/contracts@5.0.0/access/Ownable.sol\":2384:2385  0 */\n      0x00\n        /* \"@openzeppelin/contracts@5.0.0/access/Ownable.sol\":2357:2375  _transferOwnership */\n      tag_131\n        /* \"@openzeppelin/contracts@5.0.0/access/Ownable.sol\":2357:2387  _transferOwnership(address(0)) */\n      jump\t// in\n    tag_130:\n        /* \"@openzeppelin/contracts@5.0.0/access/Ownable.sol\":2293:2394  function renounceOwnership() public virtual onlyOwner {... */\n      jump\t// out\n        /* \"contract/dexRishabh.sol\":7159:8367  function swapTokenBForTokenA(... */\n    tag_55:\n        /* \"@openzeppelin/contracts@5.0.0/utils/ReentrancyGuard.sol\":2356:2377  _nonReentrantBefore() */\n      tag_133\n        /* \"@openzeppelin/contracts@5.0.0/utils/ReentrancyGuard.sol\":2356:2375  _nonReentrantBefore */\n      tag_85\n        /* \"@openzeppelin/contracts@5.0.0/utils/ReentrancyGuard.sol\":2356:2377  _nonReentrantBefore() */\n      jump\t// in\n    tag_133:\n        /* \"contract/dexRishabh.sol\":2910:2918  reserveA */\n      sload(0x02)\n        /* \"contract/dexRishabh.sol\":2910:2923  reserveA == 0 */\n      iszero\n      dup1\n        /* \"contract/dexRishabh.sol\":2910:2940  reserveA == 0 || reserveB == 0 */\n      tag_135\n      jumpi\n      pop\n        /* \"contract/dexRishabh.sol\":2927:2935  reserveB */\n      sload(0x03)\n        /* \"contract/dexRishabh.sol\":2927:2940  reserveB == 0 */\n      iszero\n        /* \"contract/dexRishabh.sol\":2910:2940  reserveA == 0 || reserveB == 0 */\n    tag_135:\n        /* \"contract/dexRishabh.sol\":2906:2962  if (reserveA == 0 || reserveB == 0) revert NoLiquidity() */\n      iszero\n      tag_136\n      jumpi\n        /* \"contract/dexRishabh.sol\":2949:2962  NoLiquidity() */\n      mload(0x40)\n      shl(0xe1, 0x6180f03f)\n      dup2\n      mstore\n      0x04\n      add\n      mload(0x40)\n      dup1\n      swap2\n      sub\n      swap1\n      revert\n        /* \"contract/dexRishabh.sol\":2906:2962  if (reserveA == 0 || reserveB == 0) revert NoLiquidity() */\n    tag_136:\n        /* \"contract/dexRishabh.sol\":7331:7340  amountInB */\n      dup2\n        /* \"contract/dexRishabh.sol\":7344:7345  0 */\n      0x00\n        /* \"contract/dexRishabh.sol\":7331:7345  amountInB == 0 */\n      sub\n        /* \"contract/dexRishabh.sol\":7327:7366  if (amountInB == 0) revert ZeroAmount() */\n      tag_138\n      jumpi\n        /* \"contract/dexRishabh.sol\":7354:7366  ZeroAmount() */\n      mload(0x40)\n      shl(0xe0, 0x1f2a2005)\n      dup2\n      mstore\n      0x04\n      add\n      mload(0x40)\n      dup1\n      swap2\n      sub\n      swap1\n      revert\n        /* \"contract/dexRishabh.sol\":7327:7366  if (amountInB == 0) revert ZeroAmount() */\n    tag_138:\n        /* \"contract/dexRishabh.sol\":7381:7393  amountOutMin */\n      dup1\n        /* \"contract/dexRishabh.sol\":7397:7398  0 */\n      0x00\n        /* \"contract/dexRishabh.sol\":7381:7398  amountOutMin == 0 */\n      sub\n        /* \"contract/dexRishabh.sol\":7377:7419  if (amountOutMin == 0) revert ZeroAmount() */\n      tag_139\n      jumpi\n        /* \"contract/dexRishabh.sol\":7407:7419  ZeroAmount() */\n      mload(0x40)\n      shl(0xe0, 0x1f2a2005)\n      dup2\n      mstore\n      0x04\n      add\n      mload(0x40)\n      dup1\n      swap2\n      sub\n      swap1\n      revert\n        /* \"contract/dexRishabh.sol\":7377:7419  if (amountOutMin == 0) revert ZeroAmount() */\n    tag_139:\n        /* \"contract/dexRishabh.sol\":7468:7491  uint256 amountInWithFee */\n      0x00\n        /* \"contract/dexRishabh.sol\":7494:7519  amountInB * FEE_NUMERATOR */\n      tag_140\n        /* \"contract/dexRishabh.sol\":1016:1019  997 */\n      0x03e5\n        /* \"contract/dexRishabh.sol\":7494:7503  amountInB */\n      dup5\n        /* \"contract/dexRishabh.sol\":7494:7519  amountInB * FEE_NUMERATOR */\n      tag_75\n      jump\t// in\n    tag_140:\n        /* \"contract/dexRishabh.sol\":7468:7519  uint256 amountInWithFee = amountInB * FEE_NUMERATOR */\n      swap1\n      pop\n        /* \"contract/dexRishabh.sol\":7530:7547  uint256 numerator */\n      0x00\n        /* \"contract/dexRishabh.sol\":7568:7576  reserveA */\n      sload(0x02)\n        /* \"contract/dexRishabh.sol\":7550:7565  amountInWithFee */\n      dup3\n        /* \"contract/dexRishabh.sol\":7550:7576  amountInWithFee * reserveA */\n      tag_141\n      swap2\n      swap1\n      tag_75\n      jump\t// in\n    tag_141:\n        /* \"contract/dexRishabh.sol\":7530:7576  uint256 numerator = amountInWithFee * reserveA */\n      swap1\n      pop\n        /* \"contract/dexRishabh.sol\":7587:7606  uint256 denominator */\n      0x00\n        /* \"contract/dexRishabh.sol\":7640:7655  amountInWithFee */\n      dup3\n        /* \"contract/dexRishabh.sol\":1110:1114  1000 */\n      0x03e8\n        /* \"contract/dexRishabh.sol\":7610:7618  reserveB */\n      sload(0x03)\n        /* \"contract/dexRishabh.sol\":7610:7636  reserveB * FEE_DENOMINATOR */\n      tag_142\n      swap2\n      swap1\n      tag_75\n      jump\t// in\n    tag_142:\n        /* \"contract/dexRishabh.sol\":7609:7655  (reserveB * FEE_DENOMINATOR) + amountInWithFee */\n      tag_143\n      swap2\n      swap1\n      tag_79\n      jump\t// in\n    tag_143:\n        /* \"contract/dexRishabh.sol\":7587:7655  uint256 denominator = (reserveB * FEE_DENOMINATOR) + amountInWithFee */\n      swap1\n      pop\n        /* \"contract/dexRishabh.sol\":7666:7684  uint256 amountOutA */\n      0x00\n        /* \"contract/dexRishabh.sol\":7687:7710  numerator / denominator */\n      tag_144\n        /* \"contract/dexRishabh.sol\":7587:7655  uint256 denominator = (reserveB * FEE_DENOMINATOR) + amountInWithFee */\n      dup3\n        /* \"contract/dexRishabh.sol\":7687:7696  numerator */\n      dup5\n        /* \"contract/dexRishabh.sol\":7687:7710  numerator / denominator */\n      tag_81\n      jump\t// in\n    tag_144:\n        /* \"contract/dexRishabh.sol\":7666:7710  uint256 amountOutA = numerator / denominator */\n      swap1\n      pop\n        /* \"contract/dexRishabh.sol\":7772:7784  amountOutMin */\n      dup5\n        /* \"contract/dexRishabh.sol\":7759:7769  amountOutA */\n      dup2\n        /* \"contract/dexRishabh.sol\":7759:7784  amountOutA < amountOutMin */\n      lt\n        /* \"contract/dexRishabh.sol\":7755:7840  if (amountOutA < amountOutMin) {... */\n      iszero\n      tag_145\n      jumpi\n        /* \"contract/dexRishabh.sol\":7808:7828  InsufficientOutput() */\n      mload(0x40)\n      shl(0xe0, 0xbb2875c3)\n      dup2\n      mstore\n      0x04\n      add\n      mload(0x40)\n      dup1\n      swap2\n      sub\n      swap1\n      revert\n        /* \"contract/dexRishabh.sol\":7755:7840  if (amountOutA < amountOutMin) {... */\n    tag_145:\n        /* \"contract/dexRishabh.sol\":7869:7877  reserveA */\n      sload(0x02)\n        /* \"contract/dexRishabh.sol\":7856:7866  amountOutA */\n      dup2\n        /* \"contract/dexRishabh.sol\":7856:7877  amountOutA > reserveA */\n      gt\n        /* \"contract/dexRishabh.sol\":7852:7934  if (amountOutA > reserveA) {... */\n      iszero\n      tag_146\n      jumpi\n        /* \"contract/dexRishabh.sol\":7901:7922  InsufficientReserve() */\n      mload(0x40)\n      shl(0xe0, 0x28b35f21)\n      dup2\n      mstore\n      0x04\n      add\n      mload(0x40)\n      dup1\n      swap2\n      sub\n      swap1\n      revert\n        /* \"contract/dexRishabh.sol\":7852:7934  if (amountOutA > reserveA) {... */\n    tag_146:\n        /* \"contract/dexRishabh.sol\":7986:7995  amountInB */\n      dup6\n        /* \"contract/dexRishabh.sol\":7974:7982  reserveB */\n      0x03\n      0x00\n        /* \"contract/dexRishabh.sol\":7974:7995  reserveB += amountInB */\n      dup3\n      dup3\n      sload\n      tag_147\n      swap2\n      swap1\n      tag_79\n      jump\t// in\n    tag_147:\n      swap3\n      pop\n      pop\n      dup2\n      swap1\n      sstore\n      pop\n        /* \"contract/dexRishabh.sol\":8018:8028  amountOutA */\n      dup1\n        /* \"contract/dexRishabh.sol\":8006:8014  reserveA */\n      0x02\n      0x00\n        /* \"contract/dexRishabh.sol\":8006:8028  reserveA -= amountOutA */\n      dup3\n      dup3\n      sload\n      tag_148\n      swap2\n      swap1\n      tag_102\n      jump\t// in\n    tag_148:\n      swap1\n      swap2\n      sstore\n      pop\n        /* \"contract/dexRishabh.sol\":8074:8135  tokenB.safeTransferFrom(msg.sender, address(this), amountInB) */\n      tag_149\n      swap1\n      pop\n      sub(shl(0xa0, 0x01), 0x01)\n        /* \"contract/dexRishabh.sol\":8074:8080  tokenB */\n      immutable(\"0x800e5167fcdf08619843f8e892e4ee5b0c228c18c17637b1d2ba8ec6b4153b4e\")\n        /* \"contract/dexRishabh.sol\":8074:8097  tokenB.safeTransferFrom */\n      and\n        /* \"contract/dexRishabh.sol\":8098:8108  msg.sender */\n      caller\n        /* \"contract/dexRishabh.sol\":8118:8122  this */\n      address\n        /* \"contract/dexRishabh.sol\":8125:8134  amountInB */\n      dup10\n        /* \"contract/dexRishabh.sol\":8074:8097  tokenB.safeTransferFrom */\n      tag_107\n        /* \"contract/dexRishabh.sol\":8074:8135  tokenB.safeTransferFrom(msg.sender, address(this), amountInB) */\n      jump\t// in\n    tag_149:\n        /* \"contract/dexRishabh.sol\":8146:8189  tokenA.safeTransfer(msg.sender, amountOutA) */\n      tag_150\n      sub(shl(0xa0, 0x01), 0x01)\n        /* \"contract/dexRishabh.sol\":8146:8152  tokenA */\n      immutable(\"0x4a06b8506ca29f0071472c073fef4bd34656e41207e20131380c952c1539f411\")\n        /* \"contract/dexRishabh.sol\":8146:8165  tokenA.safeTransfer */\n      and\n        /* \"contract/dexRishabh.sol\":8166:8176  msg.sender */\n      caller\n        /* \"contract/dexRishabh.sol\":8178:8188  amountOutA */\n      dup4\n        /* \"contract/dexRishabh.sol\":8146:8165  tokenA.safeTransfer */\n      tag_109\n        /* \"contract/dexRishabh.sol\":8146:8189  tokenA.safeTransfer(msg.sender, amountOutA) */\n      jump\t// in\n    tag_150:\n        /* \"contract/dexRishabh.sol\":8341:8347  tokenA */\n      immutable(\"0x4a06b8506ca29f0071472c073fef4bd34656e41207e20131380c952c1539f411\")\n      sub(shl(0xa0, 0x01), 0x01)\n        /* \"contract/dexRishabh.sol\":8207:8359  Swapped(... */\n      and\n        /* \"contract/dexRishabh.sol\":8311:8317  tokenB */\n      immutable(\"0x800e5167fcdf08619843f8e892e4ee5b0c228c18c17637b1d2ba8ec6b4153b4e\")\n      sub(shl(0xa0, 0x01), 0x01)\n        /* \"contract/dexRishabh.sol\":8207:8359  Swapped(... */\n      and\n        /* \"contract/dexRishabh.sol\":8229:8239  msg.sender */\n      caller\n      sub(shl(0xa0, 0x01), 0x01)\n        /* \"contract/dexRishabh.sol\":8207:8359  Swapped(... */\n      and\n      0xdbee45ea236748b94cfbe4aa4456c6460410d51bc244040093d65457fb4b2850\n        /* \"contract/dexRishabh.sol\":8254:8263  amountInB */\n      dup10\n        /* \"contract/dexRishabh.sol\":8278:8288  amountOutA */\n      dup6\n        /* \"contract/dexRishabh.sol\":8207:8359  Swapped(... */\n      mload(0x40)\n      tag_151\n      swap3\n      swap2\n      swap1\n        /* \"#utility.yul\":691:716   */\n      swap2\n      dup3\n      mstore\n        /* \"#utility.yul\":747:749   */\n      0x20\n        /* \"#utility.yul\":732:750   */\n      dup3\n      add\n        /* \"#utility.yul\":725:759   */\n      mstore\n        /* \"#utility.yul\":679:681   */\n      0x40\n        /* \"#utility.yul\":664:682   */\n      add\n      swap1\n        /* \"#utility.yul\":517:765   */\n      jump\n        /* \"contract/dexRishabh.sol\":8207:8359  Swapped(... */\n    tag_151:\n      mload(0x40)\n      dup1\n      swap2\n      sub\n      swap1\n      log4\n        /* \"contract/dexRishabh.sol\":7289:8367  {... */\n      pop\n      pop\n      pop\n      pop\n        /* \"@openzeppelin/contracts@5.0.0/utils/ReentrancyGuard.sol\":2398:2418  _nonReentrantAfter() */\n      tag_111\n        /* \"@openzeppelin/contracts@5.0.0/utils/ReentrancyGuard.sol\":1713:1714  1 */\n      0x01\n        /* \"@openzeppelin/contracts@5.0.0/utils/ReentrancyGuard.sol\":2924:2931  _status */\n      0x00\n        /* \"@openzeppelin/contracts@5.0.0/utils/ReentrancyGuard.sol\":2924:2945  _status = NOT_ENTERED */\n      sstore\n        /* \"@openzeppelin/contracts@5.0.0/utils/ReentrancyGuard.sol\":2744:2952  function _nonReentrantAfter() private {... */\n      jump\n        /* \"contract/dexRishabh.sol\":3948:4933  function addLiquidity(... */\n    tag_62:\n        /* \"@openzeppelin/contracts@5.0.0/utils/ReentrancyGuard.sol\":2356:2377  _nonReentrantBefore() */\n      tag_155\n        /* \"@openzeppelin/contracts@5.0.0/utils/ReentrancyGuard.sol\":2356:2375  _nonReentrantBefore */\n      tag_85\n        /* \"@openzeppelin/contracts@5.0.0/utils/ReentrancyGuard.sol\":2356:2377  _nonReentrantBefore() */\n      jump\t// in\n    tag_155:\n        /* \"contract/dexRishabh.sol\":4093:4105  amountA == 0 */\n      dup2\n      iszero\n      dup1\n        /* \"contract/dexRishabh.sol\":4093:4121  amountA == 0 || amountB == 0 */\n      tag_157\n      jumpi\n      pop\n        /* \"contract/dexRishabh.sol\":4109:4121  amountB == 0 */\n      dup1\n      iszero\n        /* \"contract/dexRishabh.sol\":4093:4121  amountA == 0 || amountB == 0 */\n    tag_157:\n        /* \"contract/dexRishabh.sol\":4089:4169  if (amountA == 0 || amountB == 0) {... */\n      iszero\n      tag_158\n      jumpi\n        /* \"contract/dexRishabh.sol\":4145:4157  ZeroAmount() */\n      mload(0x40)\n      shl(0xe0, 0x1f2a2005)\n      dup2\n      mstore\n      0x04\n      add\n      mload(0x40)\n      dup1\n      swap2\n      sub\n      swap1\n      revert\n        /* \"contract/dexRishabh.sol\":4089:4169  if (amountA == 0 || amountB == 0) {... */\n    tag_158:\n        /* \"contract/dexRishabh.sol\":4257:4274  uint256 liquidity */\n      0x00\n        /* \"contract/dexRishabh.sol\":4289:4303  totalLiquidity */\n      sload(0x04)\n        /* \"contract/dexRishabh.sol\":4307:4308  0 */\n      0x00\n        /* \"contract/dexRishabh.sol\":4289:4308  totalLiquidity == 0 */\n      sub\n        /* \"contract/dexRishabh.sol\":4285:4550  if (totalLiquidity == 0) {... */\n      tag_159\n      jumpi\n        /* \"contract/dexRishabh.sol\":4378:4395  amountA + amountB */\n      tag_160\n        /* \"contract/dexRishabh.sol\":4388:4395  amountB */\n      dup3\n        /* \"contract/dexRishabh.sol\":4378:4385  amountA */\n      dup5\n        /* \"contract/dexRishabh.sol\":4378:4395  amountA + amountB */\n      tag_79\n      jump\t// in\n    tag_160:\n        /* \"contract/dexRishabh.sol\":4366:4395  liquidity = amountA + amountB */\n      swap1\n      pop\n        /* \"contract/dexRishabh.sol\":4285:4550  if (totalLiquidity == 0) {... */\n      jump(tag_161)\n    tag_159:\n        /* \"contract/dexRishabh.sol\":4530:4538  reserveA */\n      sload(0x02)\n        /* \"contract/dexRishabh.sol\":4512:4526  totalLiquidity */\n      sload(0x04)\n        /* \"contract/dexRishabh.sol\":4502:4526  amountA * totalLiquidity */\n      tag_162\n      swap1\n        /* \"contract/dexRishabh.sol\":4502:4509  amountA */\n      dup6\n        /* \"contract/dexRishabh.sol\":4502:4526  amountA * totalLiquidity */\n      tag_75\n      jump\t// in\n    tag_162:\n        /* \"contract/dexRishabh.sol\":4501:4538  (amountA * totalLiquidity) / reserveA */\n      tag_163\n      swap2\n      swap1\n      tag_81\n      jump\t// in\n    tag_163:\n        /* \"contract/dexRishabh.sol\":4489:4538  liquidity = (amountA * totalLiquidity) / reserveA */\n      swap1\n      pop\n        /* \"contract/dexRishabh.sol\":4285:4550  if (totalLiquidity == 0) {... */\n    tag_161:\n        /* \"contract/dexRishabh.sol\":4602:4609  amountA */\n      dup3\n        /* \"contract/dexRishabh.sol\":4590:4598  reserveA */\n      0x02\n      0x00\n        /* \"contract/dexRishabh.sol\":4590:4609  reserveA += amountA */\n      dup3\n      dup3\n      sload\n      tag_164\n      swap2\n      swap1\n      tag_79\n      jump\t// in\n    tag_164:\n      swap3\n      pop\n      pop\n      dup2\n      swap1\n      sstore\n      pop\n        /* \"contract/dexRishabh.sol\":4632:4639  amountB */\n      dup2\n        /* \"contract/dexRishabh.sol\":4620:4628  reserveB */\n      0x03\n      0x00\n        /* \"contract/dexRishabh.sol\":4620:4639  reserveB += amountB */\n      dup3\n      dup3\n      sload\n      tag_165\n      swap2\n      swap1\n      tag_79\n      jump\t// in\n    tag_165:\n      swap3\n      pop\n      pop\n      dup2\n      swap1\n      sstore\n      pop\n        /* \"contract/dexRishabh.sol\":4668:4677  liquidity */\n      dup1\n        /* \"contract/dexRishabh.sol\":4650:4664  totalLiquidity */\n      0x04\n      0x00\n        /* \"contract/dexRishabh.sol\":4650:4677  totalLiquidity += liquidity */\n      dup3\n      dup3\n      sload\n      tag_166\n      swap2\n      swap1\n      tag_79\n      jump\t// in\n    tag_166:\n      swap1\n      swap2\n      sstore\n      pop\n        /* \"contract/dexRishabh.sol\":4723:4782  tokenA.safeTransferFrom(msg.sender, address(this), amountA) */\n      tag_167\n      swap1\n      pop\n      sub(shl(0xa0, 0x01), 0x01)\n        /* \"contract/dexRishabh.sol\":4723:4729  tokenA */\n      immutable(\"0x4a06b8506ca29f0071472c073fef4bd34656e41207e20131380c952c1539f411\")\n        /* \"contract/dexRishabh.sol\":4723:4746  tokenA.safeTransferFrom */\n      and\n        /* \"contract/dexRishabh.sol\":4747:4757  msg.sender */\n      caller\n        /* \"contract/dexRishabh.sol\":4767:4771  this */\n      address\n        /* \"contract/dexRishabh.sol\":4774:4781  amountA */\n      dup7\n        /* \"contract/dexRishabh.sol\":4723:4746  tokenA.safeTransferFrom */\n      tag_107\n        /* \"contract/dexRishabh.sol\":4723:4782  tokenA.safeTransferFrom(msg.sender, address(this), amountA) */\n      jump\t// in\n    tag_167:\n        /* \"contract/dexRishabh.sol\":4793:4852  tokenB.safeTransferFrom(msg.sender, address(this), amountB) */\n      tag_168\n      sub(shl(0xa0, 0x01), 0x01)\n        /* \"contract/dexRishabh.sol\":4793:4799  tokenB */\n      immutable(\"0x800e5167fcdf08619843f8e892e4ee5b0c228c18c17637b1d2ba8ec6b4153b4e\")\n        /* \"contract/dexRishabh.sol\":4793:4816  tokenB.safeTransferFrom */\n      and\n        /* \"contract/dexRishabh.sol\":4817:4827  msg.sender */\n      caller\n        /* \"contract/dexRishabh.sol\":4837:4841  this */\n      address\n        /* \"contract/dexRishabh.sol\":4844:4851  amountB */\n      dup6\n        /* \"contract/dexRishabh.sol\":4793:4816  tokenB.safeTransferFrom */\n      tag_107\n        /* \"contract/dexRishabh.sol\":4793:4852  tokenB.safeTransferFrom(msg.sender, address(this), amountB) */\n      jump\t// in\n    tag_168:\n        /* \"contract/dexRishabh.sol\":4870:4925  LiquidityAdded(msg.sender, amountA, amountB, liquidity) */\n      0x40\n      dup1\n      mload\n        /* \"#utility.yul\":3312:3337   */\n      dup5\n      dup2\n      mstore\n        /* \"#utility.yul\":3368:3370   */\n      0x20\n        /* \"#utility.yul\":3353:3371   */\n      dup2\n      add\n        /* \"#utility.yul\":3346:3380   */\n      dup5\n      swap1\n      mstore\n        /* \"#utility.yul\":3396:3414   */\n      swap1\n      dup2\n      add\n        /* \"#utility.yul\":3389:3423   */\n      dup3\n      swap1\n      mstore\n        /* \"contract/dexRishabh.sol\":4885:4895  msg.sender */\n      caller\n      swap1\n        /* \"contract/dexRishabh.sol\":4870:4925  LiquidityAdded(msg.sender, amountA, amountB, liquidity) */\n      0x64b83944e79c3ce8d4c297411de637c3e102d064677aac0c163976ebdcd6f50e\n      swap1\n        /* \"#utility.yul\":3300:3302   */\n      0x60\n        /* \"#utility.yul\":3285:3303   */\n      add\n        /* \"contract/dexRishabh.sol\":4870:4925  LiquidityAdded(msg.sender, amountA, amountB, liquidity) */\n      mload(0x40)\n      dup1\n      swap2\n      sub\n      swap1\n      log2\n        /* \"contract/dexRishabh.sol\":4051:4933  {... */\n      pop\n        /* \"@openzeppelin/contracts@5.0.0/utils/ReentrancyGuard.sol\":2398:2418  _nonReentrantAfter() */\n      tag_111\n        /* \"@openzeppelin/contracts@5.0.0/utils/ReentrancyGuard.sol\":1713:1714  1 */\n      0x01\n        /* \"@openzeppelin/contracts@5.0.0/utils/ReentrancyGuard.sol\":2924:2931  _status */\n      0x00\n        /* \"@openzeppelin/contracts@5.0.0/utils/ReentrancyGuard.sol\":2924:2945  _status = NOT_ENTERED */\n      sstore\n        /* \"@openzeppelin/contracts@5.0.0/utils/ReentrancyGuard.sol\":2744:2952  function _nonReentrantAfter() private {... */\n      jump\n        /* \"@openzeppelin/contracts@5.0.0/access/Ownable.sol\":2543:2758  function transferOwnership(address newOwner) public virtual onlyOwner {... */\n    tag_69:\n        /* \"@openzeppelin/contracts@5.0.0/access/Ownable.sol\":1531:1544  _checkOwner() */\n      tag_173\n        /* \"@openzeppelin/contracts@5.0.0/access/Ownable.sol\":1531:1542  _checkOwner */\n      tag_115\n        /* \"@openzeppelin/contracts@5.0.0/access/Ownable.sol\":1531:1544  _checkOwner() */\n      jump\t// in\n    tag_173:\n      sub(shl(0xa0, 0x01), 0x01)\n        /* \"@openzeppelin/contracts@5.0.0/access/Ownable.sol\":2627:2649  newOwner == address(0) */\n      dup2\n      and\n        /* \"@openzeppelin/contracts@5.0.0/access/Ownable.sol\":2623:2714  if (newOwner == address(0)) {... */\n      tag_175\n      jumpi\n        /* \"@openzeppelin/contracts@5.0.0/access/Ownable.sol\":2672:2703  OwnableInvalidOwner(address(0)) */\n      mload(0x40)\n      shl(0xe0, 0x1e4fbdf7)\n      dup2\n      mstore\n        /* \"@openzeppelin/contracts@5.0.0/access/Ownable.sol\":2700:2701  0 */\n      0x00\n        /* \"@openzeppelin/contracts@5.0.0/access/Ownable.sol\":2672:2703  OwnableInvalidOwner(address(0)) */\n      0x04\n      dup3\n      add\n        /* \"#utility.yul\":930:981   */\n      mstore\n        /* \"#utility.yul\":903:921   */\n      0x24\n      add\n        /* \"@openzeppelin/contracts@5.0.0/access/Ownable.sol\":2672:2703  OwnableInvalidOwner(address(0)) */\n    tag_176:\n      mload(0x40)\n      dup1\n      swap2\n      sub\n      swap1\n      revert\n        /* \"@openzeppelin/contracts@5.0.0/access/Ownable.sol\":2623:2714  if (newOwner == address(0)) {... */\n    tag_175:\n        /* \"@openzeppelin/contracts@5.0.0/access/Ownable.sol\":2723:2751  _transferOwnership(newOwner) */\n      tag_177\n        /* \"@openzeppelin/contracts@5.0.0/access/Ownable.sol\":2742:2750  newOwner */\n      dup2\n        /* \"@openzeppelin/contracts@5.0.0/access/Ownable.sol\":2723:2741  _transferOwnership */\n      tag_131\n        /* \"@openzeppelin/contracts@5.0.0/access/Ownable.sol\":2723:2751  _transferOwnership(newOwner) */\n      jump\t// in\n    tag_177:\n        /* \"@openzeppelin/contracts@5.0.0/access/Ownable.sol\":2543:2758  function transferOwnership(address newOwner) public virtual onlyOwner {... */\n      pop\n      jump\t// out\n        /* \"@openzeppelin/contracts@5.0.0/utils/ReentrancyGuard.sol\":2431:2738  function _nonReentrantBefore() private {... */\n    tag_85:\n        /* \"@openzeppelin/contracts@5.0.0/utils/ReentrancyGuard.sol\":1755:1756  2 */\n      0x02\n        /* \"@openzeppelin/contracts@5.0.0/utils/ReentrancyGuard.sol\":2558:2565  _status */\n      sload(0x00)\n        /* \"@openzeppelin/contracts@5.0.0/utils/ReentrancyGuard.sol\":2558:2576  _status == ENTERED */\n      sub\n        /* \"@openzeppelin/contracts@5.0.0/utils/ReentrancyGuard.sol\":2554:2640  if (_status == ENTERED) {... */\n      tag_179\n      jumpi\n        /* \"@openzeppelin/contracts@5.0.0/utils/ReentrancyGuard.sol\":2599:2629  ReentrancyGuardReentrantCall() */\n      mload(0x40)\n      shl(0xe0, 0x3ee5aeb5)\n      dup2\n      mstore\n      0x04\n      add\n      mload(0x40)\n      dup1\n      swap2\n      sub\n      swap1\n      revert\n        /* \"@openzeppelin/contracts@5.0.0/utils/ReentrancyGuard.sol\":2554:2640  if (_status == ENTERED) {... */\n    tag_179:\n        /* \"@openzeppelin/contracts@5.0.0/utils/ReentrancyGuard.sol\":1755:1756  2 */\n      0x02\n        /* \"@openzeppelin/contracts@5.0.0/utils/ReentrancyGuard.sol\":2714:2721  _status */\n      0x00\n        /* \"@openzeppelin/contracts@5.0.0/utils/ReentrancyGuard.sol\":2714:2731  _status = ENTERED */\n      sstore\n        /* \"@openzeppelin/contracts@5.0.0/utils/ReentrancyGuard.sol\":2431:2738  function _nonReentrantBefore() private {... */\n      jump\t// out\n        /* \"@openzeppelin/contracts@5.0.0/token/ERC20/utils/SafeERC20.sol\":1702:1890  function safeTransferFrom(IERC20 token, address from, address to, uint256 value) internal {... */\n    tag_107:\n        /* \"@openzeppelin/contracts@5.0.0/token/ERC20/utils/SafeERC20.sol\":1829:1882  abi.encodeCall(token.transferFrom, (from, to, value)) */\n      mload(0x40)\n      sub(shl(0xa0, 0x01), 0x01)\n        /* \"#utility.yul\":3692:3707   */\n      dup5\n      dup2\n      and\n        /* \"@openzeppelin/contracts@5.0.0/token/ERC20/utils/SafeERC20.sol\":1829:1882  abi.encodeCall(token.transferFrom, (from, to, value)) */\n      0x24\n      dup4\n      add\n        /* \"#utility.yul\":3674:3708   */\n      mstore\n        /* \"#utility.yul\":3744:3759   */\n      dup4\n      dup2\n      and\n        /* \"#utility.yul\":3724:3742   */\n      0x44\n      dup4\n      add\n        /* \"#utility.yul\":3717:3760   */\n      mstore\n        /* \"#utility.yul\":3776:3794   */\n      0x64\n      dup3\n      add\n        /* \"#utility.yul\":3769:3803   */\n      dup4\n      swap1\n      mstore\n        /* \"@openzeppelin/contracts@5.0.0/token/ERC20/utils/SafeERC20.sol\":1802:1883  _callOptionalReturn(token, abi.encodeCall(token.transferFrom, (from, to, value))) */\n      tag_181\n      swap2\n        /* \"@openzeppelin/contracts@5.0.0/token/ERC20/utils/SafeERC20.sol\":1822:1827  token */\n      dup7\n      swap2\n        /* \"@openzeppelin/contracts@5.0.0/token/ERC20/utils/SafeERC20.sol\":1844:1862  token.transferFrom */\n      dup3\n      and\n      swap1\n      0x23b872dd\n      swap1\n        /* \"#utility.yul\":3609:3627   */\n      0x84\n      add\n        /* \"@openzeppelin/contracts@5.0.0/token/ERC20/utils/SafeERC20.sol\":1829:1882  abi.encodeCall(token.transferFrom, (from, to, value)) */\n    tag_182:\n      mload(0x40)\n      0x20\n      dup2\n      dup4\n      sub\n      sub\n      dup2\n      mstore\n      swap1\n      0x40\n      mstore\n      swap2\n      pop\n      0xe0\n      shl\n      0x20\n      dup3\n      add\n      dup1\n      mload\n      sub(shl(0xe0, 0x01), 0x01)\n      dup4\n      dup2\n      dup4\n      and\n      or\n      dup4\n      mstore\n      pop\n      pop\n      pop\n      pop\n        /* \"@openzeppelin/contracts@5.0.0/token/ERC20/utils/SafeERC20.sol\":1802:1821  _callOptionalReturn */\n      tag_184\n        /* \"@openzeppelin/contracts@5.0.0/token/ERC20/utils/SafeERC20.sol\":1802:1883  _callOptionalReturn(token, abi.encodeCall(token.transferFrom, (from, to, value))) */\n      jump\t// in\n    tag_181:\n        /* \"@openzeppelin/contracts@5.0.0/token/ERC20/utils/SafeERC20.sol\":1702:1890  function safeTransferFrom(IERC20 token, address from, address to, uint256 value) internal {... */\n      pop\n      pop\n      pop\n      pop\n      jump\t// out\n        /* \"@openzeppelin/contracts@5.0.0/token/ERC20/utils/SafeERC20.sol\":1303:1463  function safeTransfer(IERC20 token, address to, uint256 value) internal {... */\n    tag_109:\n        /* \"@openzeppelin/contracts@5.0.0/token/ERC20/utils/SafeERC20.sol\":1412:1455  abi.encodeCall(token.transfer, (to, value)) */\n      mload(0x40)\n      sub(shl(0xa0, 0x01), 0x01)\n        /* \"#utility.yul\":4006:4038   */\n      dup4\n      dup2\n      and\n        /* \"@openzeppelin/contracts@5.0.0/token/ERC20/utils/SafeERC20.sol\":1412:1455  abi.encodeCall(token.transfer, (to, value)) */\n      0x24\n      dup4\n      add\n        /* \"#utility.yul\":3988:4039   */\n      mstore\n        /* \"#utility.yul\":4055:4073   */\n      0x44\n      dup3\n      add\n        /* \"#utility.yul\":4048:4082   */\n      dup4\n      swap1\n      mstore\n        /* \"@openzeppelin/contracts@5.0.0/token/ERC20/utils/SafeERC20.sol\":1385:1456  _callOptionalReturn(token, abi.encodeCall(token.transfer, (to, value))) */\n      tag_186\n      swap2\n        /* \"@openzeppelin/contracts@5.0.0/token/ERC20/utils/SafeERC20.sol\":1405:1410  token */\n      dup6\n      swap2\n        /* \"@openzeppelin/contracts@5.0.0/token/ERC20/utils/SafeERC20.sol\":1427:1441  token.transfer */\n      dup3\n      and\n      swap1\n      0xa9059cbb\n      swap1\n        /* \"#utility.yul\":3961:3979   */\n      0x64\n      add\n        /* \"@openzeppelin/contracts@5.0.0/token/ERC20/utils/SafeERC20.sol\":1412:1455  abi.encodeCall(token.transfer, (to, value)) */\n      tag_182\n        /* \"#utility.yul\":3814:4088   */\n      jump\n        /* \"@openzeppelin/contracts@5.0.0/token/ERC20/utils/SafeERC20.sol\":1385:1456  _callOptionalReturn(token, abi.encodeCall(token.transfer, (to, value))) */\n    tag_186:\n        /* \"@openzeppelin/contracts@5.0.0/token/ERC20/utils/SafeERC20.sol\":1303:1463  function safeTransfer(IERC20 token, address to, uint256 value) internal {... */\n      pop\n      pop\n      pop\n      jump\t// out\n        /* \"@openzeppelin/contracts@5.0.0/access/Ownable.sol\":1796:1958  function _checkOwner() internal view virtual {... */\n    tag_115:\n        /* \"@openzeppelin/contracts@5.0.0/access/Ownable.sol\":1710:1716  _owner */\n      and(sub(shl(0xa0, 0x01), 0x01), sload(0x01))\n        /* \"@openzeppelin/contracts@5.0.0/utils/Context.sol\":735:745  msg.sender */\n      caller\n        /* \"@openzeppelin/contracts@5.0.0/access/Ownable.sol\":1855:1878  owner() != _msgSender() */\n      eq\n        /* \"@openzeppelin/contracts@5.0.0/access/Ownable.sol\":1851:1952  if (owner() != _msgSender()) {... */\n      tag_130\n      jumpi\n        /* \"@openzeppelin/contracts@5.0.0/access/Ownable.sol\":1901:1941  OwnableUnauthorizedAccount(_msgSender()) */\n      mload(0x40)\n      shl(0xe0, 0x118cdaa7)\n      dup2\n      mstore\n        /* \"@openzeppelin/contracts@5.0.0/utils/Context.sol\":735:745  msg.sender */\n      caller\n        /* \"@openzeppelin/contracts@5.0.0/access/Ownable.sol\":1901:1941  OwnableUnauthorizedAccount(_msgSender()) */\n      0x04\n      dup3\n      add\n        /* \"#utility.yul\":930:981   */\n      mstore\n        /* \"#utility.yul\":903:921   */\n      0x24\n      add\n        /* \"@openzeppelin/contracts@5.0.0/access/Ownable.sol\":1901:1941  OwnableUnauthorizedAccount(_msgSender()) */\n      tag_176\n        /* \"#utility.yul\":770:987   */\n      jump\n        /* \"@openzeppelin/contracts@5.0.0/access/Ownable.sol\":2912:3099  function _transferOwnership(address newOwner) internal virtual {... */\n    tag_131:\n        /* \"@openzeppelin/contracts@5.0.0/access/Ownable.sol\":3004:3010  _owner */\n      0x01\n      dup1\n      sload\n      sub(shl(0xa0, 0x01), 0x01)\n        /* \"@openzeppelin/contracts@5.0.0/access/Ownable.sol\":3020:3037  _owner = newOwner */\n      dup4\n      dup2\n      and\n      not(sub(shl(0xa0, 0x01), 0x01))\n      dup4\n      and\n      dup2\n      or\n      swap1\n      swap4\n      sstore\n        /* \"@openzeppelin/contracts@5.0.0/access/Ownable.sol\":3052:3092  OwnershipTransferred(oldOwner, newOwner) */\n      mload(0x40)\n        /* \"@openzeppelin/contracts@5.0.0/access/Ownable.sol\":3004:3010  _owner */\n      swap2\n      and\n      swap2\n        /* \"@openzeppelin/contracts@5.0.0/access/Ownable.sol\":3020:3037  _owner = newOwner */\n      swap1\n        /* \"@openzeppelin/contracts@5.0.0/access/Ownable.sol\":3004:3010  _owner */\n      dup3\n      swap1\n        /* \"@openzeppelin/contracts@5.0.0/access/Ownable.sol\":3052:3092  OwnershipTransferred(oldOwner, newOwner) */\n      0x8be0079c531659141344cd1fd0a4f28419497f9722a3daafe3b4186f6b6457e0\n      swap1\n        /* \"@openzeppelin/contracts@5.0.0/access/Ownable.sol\":2985:3001  address oldOwner */\n      0x00\n      swap1\n        /* \"@openzeppelin/contracts@5.0.0/access/Ownable.sol\":3052:3092  OwnershipTransferred(oldOwner, newOwner) */\n      log3\n        /* \"@openzeppelin/contracts@5.0.0/access/Ownable.sol\":2975:3099  {... */\n      pop\n        /* \"@openzeppelin/contracts@5.0.0/access/Ownable.sol\":2912:3099  function _transferOwnership(address newOwner) internal virtual {... */\n      pop\n      jump\t// out\n        /* \"@openzeppelin/contracts@5.0.0/token/ERC20/utils/SafeERC20.sol\":4059:4688  function _callOptionalReturn(IERC20 token, bytes memory data) private {... */\n    tag_184:\n        /* \"@openzeppelin/contracts@5.0.0/token/ERC20/utils/SafeERC20.sol\":4478:4501  bytes memory returndata */\n      0x00\n        /* \"@openzeppelin/contracts@5.0.0/token/ERC20/utils/SafeERC20.sol\":4504:4537  address(token).functionCall(data) */\n      tag_199\n      sub(shl(0xa0, 0x01), 0x01)\n        /* \"@openzeppelin/contracts@5.0.0/token/ERC20/utils/SafeERC20.sol\":4504:4531  address(token).functionCall */\n      dup5\n      and\n        /* \"@openzeppelin/contracts@5.0.0/token/ERC20/utils/SafeERC20.sol\":4532:4536  data */\n      dup4\n        /* \"@openzeppelin/contracts@5.0.0/token/ERC20/utils/SafeERC20.sol\":4504:4531  address(token).functionCall */\n      tag_200\n        /* \"@openzeppelin/contracts@5.0.0/token/ERC20/utils/SafeERC20.sol\":4504:4537  address(token).functionCall(data) */\n      jump\t// in\n    tag_199:\n        /* \"@openzeppelin/contracts@5.0.0/token/ERC20/utils/SafeERC20.sol\":4478:4537  bytes memory returndata = address(token).functionCall(data) */\n      swap1\n      pop\n        /* \"@openzeppelin/contracts@5.0.0/token/ERC20/utils/SafeERC20.sol\":4551:4561  returndata */\n      dup1\n        /* \"@openzeppelin/contracts@5.0.0/token/ERC20/utils/SafeERC20.sol\":4551:4568  returndata.length */\n      mload\n        /* \"@openzeppelin/contracts@5.0.0/token/ERC20/utils/SafeERC20.sol\":4572:4573  0 */\n      0x00\n        /* \"@openzeppelin/contracts@5.0.0/token/ERC20/utils/SafeERC20.sol\":4551:4573  returndata.length != 0 */\n      eq\n      iszero\n        /* \"@openzeppelin/contracts@5.0.0/token/ERC20/utils/SafeERC20.sol\":4551:4608  returndata.length != 0 && !abi.decode(returndata, (bool)) */\n      dup1\n      iszero\n      tag_201\n      jumpi\n      pop\n        /* \"@openzeppelin/contracts@5.0.0/token/ERC20/utils/SafeERC20.sol\":4589:4599  returndata */\n      dup1\n        /* \"@openzeppelin/contracts@5.0.0/token/ERC20/utils/SafeERC20.sol\":4578:4608  abi.decode(returndata, (bool)) */\n      dup1\n      0x20\n      add\n      swap1\n      mload\n      dup2\n      add\n      swap1\n      tag_202\n      swap2\n      swap1\n      tag_203\n      jump\t// in\n    tag_202:\n        /* \"@openzeppelin/contracts@5.0.0/token/ERC20/utils/SafeERC20.sol\":4577:4608  !abi.decode(returndata, (bool)) */\n      iszero\n        /* \"@openzeppelin/contracts@5.0.0/token/ERC20/utils/SafeERC20.sol\":4551:4608  returndata.length != 0 && !abi.decode(returndata, (bool)) */\n    tag_201:\n        /* \"@openzeppelin/contracts@5.0.0/token/ERC20/utils/SafeERC20.sol\":4547:4682  if (returndata.length != 0 && !abi.decode(returndata, (bool))) {... */\n      iszero\n      tag_186\n      jumpi\n        /* \"@openzeppelin/contracts@5.0.0/token/ERC20/utils/SafeERC20.sol\":4631:4671  SafeERC20FailedOperation(address(token)) */\n      mload(0x40)\n      shl(0xe0, 0x5274afe7)\n      dup2\n      mstore\n      sub(shl(0xa0, 0x01), 0x01)\n        /* \"#utility.yul\":948:980   */\n      dup5\n      and\n        /* \"@openzeppelin/contracts@5.0.0/token/ERC20/utils/SafeERC20.sol\":4631:4671  SafeERC20FailedOperation(address(token)) */\n      0x04\n      dup3\n      add\n        /* \"#utility.yul\":930:981   */\n      mstore\n        /* \"#utility.yul\":903:921   */\n      0x24\n      add\n        /* \"@openzeppelin/contracts@5.0.0/token/ERC20/utils/SafeERC20.sol\":4631:4671  SafeERC20FailedOperation(address(token)) */\n      tag_176\n        /* \"#utility.yul\":770:987   */\n      jump\n        /* \"@openzeppelin/contracts@5.0.0/utils/Address.sol\":2705:2856  function functionCall(address target, bytes memory data) internal returns (bytes memory) {... */\n    tag_200:\n        /* \"@openzeppelin/contracts@5.0.0/utils/Address.sol\":2780:2792  bytes memory */\n      0x60\n        /* \"@openzeppelin/contracts@5.0.0/utils/Address.sol\":2811:2849  functionCallWithValue(target, data, 0) */\n      tag_208\n        /* \"@openzeppelin/contracts@5.0.0/utils/Address.sol\":2833:2839  target */\n      dup4\n        /* \"@openzeppelin/contracts@5.0.0/utils/Address.sol\":2841:2845  data */\n      dup4\n        /* \"@openzeppelin/contracts@5.0.0/utils/Address.sol\":2847:2848  0 */\n      0x00\n        /* \"@openzeppelin/contracts@5.0.0/utils/Address.sol\":2811:2832  functionCallWithValue */\n      tag_209\n        /* \"@openzeppelin/contracts@5.0.0/utils/Address.sol\":2811:2849  functionCallWithValue(target, data, 0) */\n      jump\t// in\n    tag_208:\n        /* \"@openzeppelin/contracts@5.0.0/utils/Address.sol\":2804:2849  return functionCallWithValue(target, data, 0) */\n      swap1\n      pop\n        /* \"@openzeppelin/contracts@5.0.0/utils/Address.sol\":2705:2856  function functionCall(address target, bytes memory data) internal returns (bytes memory) {... */\n    tag_207:\n      swap3\n      swap2\n      pop\n      pop\n      jump\t// out\n        /* \"@openzeppelin/contracts@5.0.0/utils/Address.sol\":3180:3572  function functionCallWithValue(address target, bytes memory data, uint256 value) internal returns (bytes memory) {... */\n    tag_209:\n        /* \"@openzeppelin/contracts@5.0.0/utils/Address.sol\":3279:3291  bytes memory */\n      0x60\n        /* \"@openzeppelin/contracts@5.0.0/utils/Address.sol\":3331:3336  value */\n      dup2\n        /* \"@openzeppelin/contracts@5.0.0/utils/Address.sol\":3307:3328  address(this).balance */\n      selfbalance\n        /* \"@openzeppelin/contracts@5.0.0/utils/Address.sol\":3307:3336  address(this).balance < value */\n      lt\n        /* \"@openzeppelin/contracts@5.0.0/utils/Address.sol\":3303:3411  if (address(this).balance < value) {... */\n      iszero\n      tag_211\n      jumpi\n        /* \"@openzeppelin/contracts@5.0.0/utils/Address.sol\":3359:3400  AddressInsufficientBalance(address(this)) */\n      mload(0x40)\n      shl(0xe0, 0xcd786059)\n      dup2\n      mstore\n        /* \"@openzeppelin/contracts@5.0.0/utils/Address.sol\":3394:3398  this */\n      address\n        /* \"@openzeppelin/contracts@5.0.0/utils/Address.sol\":3359:3400  AddressInsufficientBalance(address(this)) */\n      0x04\n      dup3\n      add\n        /* \"#utility.yul\":930:981   */\n      mstore\n        /* \"#utility.yul\":903:921   */\n      0x24\n      add\n        /* \"@openzeppelin/contracts@5.0.0/utils/Address.sol\":3359:3400  AddressInsufficientBalance(address(this)) */\n      tag_176\n        /* \"#utility.yul\":770:987   */\n      jump\n        /* \"@openzeppelin/contracts@5.0.0/utils/Address.sol\":3303:3411  if (address(this).balance < value) {... */\n    tag_211:\n        /* \"@openzeppelin/contracts@5.0.0/utils/Address.sol\":3421:3433  bool success */\n      0x00\n        /* \"@openzeppelin/contracts@5.0.0/utils/Address.sol\":3435:3458  bytes memory returndata */\n      dup1\n        /* \"@openzeppelin/contracts@5.0.0/utils/Address.sol\":3462:3468  target */\n      dup6\n      sub(shl(0xa0, 0x01), 0x01)\n        /* \"@openzeppelin/contracts@5.0.0/utils/Address.sol\":3462:3473  target.call */\n      and\n        /* \"@openzeppelin/contracts@5.0.0/utils/Address.sol\":3481:3486  value */\n      dup5\n        /* \"@openzeppelin/contracts@5.0.0/utils/Address.sol\":3488:3492  data */\n      dup7\n        /* \"@openzeppelin/contracts@5.0.0/utils/Address.sol\":3462:3493  target.call{value: value}(data) */\n      mload(0x40)\n      tag_213\n      swap2\n      swap1\n      tag_214\n      jump\t// in\n    tag_213:\n      0x00\n      mload(0x40)\n      dup1\n      dup4\n      sub\n      dup2\n      dup6\n      dup8\n      gas\n      call\n      swap3\n      pop\n      pop\n      pop\n      returndatasize\n      dup1\n      0x00\n      dup2\n      eq\n      tag_217\n      jumpi\n      mload(0x40)\n      swap2\n      pop\n      and(add(returndatasize, 0x3f), not(0x1f))\n      dup3\n      add\n      0x40\n      mstore\n      returndatasize\n      dup3\n      mstore\n      returndatasize\n      0x00\n      0x20\n      dup5\n      add\n      returndatacopy\n      jump(tag_216)\n    tag_217:\n      0x60\n      swap2\n      pop\n    tag_216:\n      pop\n        /* \"@openzeppelin/contracts@5.0.0/utils/Address.sol\":3420:3493  (bool success, bytes memory returndata) = target.call{value: value}(data) */\n      swap2\n      pop\n      swap2\n      pop\n        /* \"@openzeppelin/contracts@5.0.0/utils/Address.sol\":3510:3565  verifyCallResultFromTarget(target, success, returndata) */\n      tag_218\n        /* \"@openzeppelin/contracts@5.0.0/utils/Address.sol\":3537:3543  target */\n      dup7\n        /* \"@openzeppelin/contracts@5.0.0/utils/Address.sol\":3545:3552  success */\n      dup4\n        /* \"@openzeppelin/contracts@5.0.0/utils/Address.sol\":3554:3564  returndata */\n      dup4\n        /* \"@openzeppelin/contracts@5.0.0/utils/Address.sol\":3510:3536  verifyCallResultFromTarget */\n      tag_219\n        /* \"@openzeppelin/contracts@5.0.0/utils/Address.sol\":3510:3565  verifyCallResultFromTarget(target, success, returndata) */\n      jump\t// in\n    tag_218:\n        /* \"@openzeppelin/contracts@5.0.0/utils/Address.sol\":3503:3565  return verifyCallResultFromTarget(target, success, returndata) */\n      swap3\n      pop\n      pop\n      pop\n        /* \"@openzeppelin/contracts@5.0.0/utils/Address.sol\":3180:3572  function functionCallWithValue(address target, bytes memory data, uint256 value) internal returns (bytes memory) {... */\n    tag_210:\n      swap4\n      swap3\n      pop\n      pop\n      pop\n      jump\t// out\n        /* \"@openzeppelin/contracts@5.0.0/utils/Address.sol\":4625:5207  function verifyCallResultFromTarget(... */\n    tag_219:\n        /* \"@openzeppelin/contracts@5.0.0/utils/Address.sol\":4769:4781  bytes memory */\n      0x60\n        /* \"@openzeppelin/contracts@5.0.0/utils/Address.sol\":4798:4805  success */\n      dup3\n        /* \"@openzeppelin/contracts@5.0.0/utils/Address.sol\":4793:5201  if (!success) {... */\n      tag_221\n      jumpi\n        /* \"@openzeppelin/contracts@5.0.0/utils/Address.sol\":4821:4840  _revert(returndata) */\n      tag_222\n        /* \"@openzeppelin/contracts@5.0.0/utils/Address.sol\":4829:4839  returndata */\n      dup3\n        /* \"@openzeppelin/contracts@5.0.0/utils/Address.sol\":4821:4828  _revert */\n      tag_223\n        /* \"@openzeppelin/contracts@5.0.0/utils/Address.sol\":4821:4840  _revert(returndata) */\n      jump\t// in\n    tag_222:\n        /* \"@openzeppelin/contracts@5.0.0/utils/Address.sol\":4793:5201  if (!success) {... */\n      jump(tag_210)\n    tag_221:\n        /* \"@openzeppelin/contracts@5.0.0/utils/Address.sol\":5045:5062  returndata.length */\n      dup2\n      mload\n        /* \"@openzeppelin/contracts@5.0.0/utils/Address.sol\":5045:5067  returndata.length == 0 */\n      iszero\n        /* \"@openzeppelin/contracts@5.0.0/utils/Address.sol\":5045:5094  returndata.length == 0 && target.code.length == 0 */\n      dup1\n      iszero\n      tag_225\n      jumpi\n      pop\n      sub(shl(0xa0, 0x01), 0x01)\n        /* \"@openzeppelin/contracts@5.0.0/utils/Address.sol\":5071:5089  target.code.length */\n      dup5\n      and\n      extcodesize\n        /* \"@openzeppelin/contracts@5.0.0/utils/Address.sol\":5071:5094  target.code.length == 0 */\n      iszero\n        /* \"@openzeppelin/contracts@5.0.0/utils/Address.sol\":5045:5094  returndata.length == 0 && target.code.length == 0 */\n    tag_225:\n        /* \"@openzeppelin/contracts@5.0.0/utils/Address.sol\":5041:5160  if (returndata.length == 0 && target.code.length == 0) {... */\n      iszero\n      tag_226\n      jumpi\n        /* \"@openzeppelin/contracts@5.0.0/utils/Address.sol\":5121:5145  AddressEmptyCode(target) */\n      mload(0x40)\n      shl(0xe0, 0x9996b315)\n      dup2\n      mstore\n      sub(shl(0xa0, 0x01), 0x01)\n        /* \"#utility.yul\":948:980   */\n      dup6\n      and\n        /* \"@openzeppelin/contracts@5.0.0/utils/Address.sol\":5121:5145  AddressEmptyCode(target) */\n      0x04\n      dup3\n      add\n        /* \"#utility.yul\":930:981   */\n      mstore\n        /* \"#utility.yul\":903:921   */\n      0x24\n      add\n        /* \"@openzeppelin/contracts@5.0.0/utils/Address.sol\":5121:5145  AddressEmptyCode(target) */\n      tag_176\n        /* \"#utility.yul\":770:987   */\n      jump\n        /* \"@openzeppelin/contracts@5.0.0/utils/Address.sol\":5041:5160  if (returndata.length == 0 && target.code.length == 0) {... */\n    tag_226:\n      pop\n        /* \"@openzeppelin/contracts@5.0.0/utils/Address.sol\":5180:5190  returndata */\n      dup1\n        /* \"@openzeppelin/contracts@5.0.0/utils/Address.sol\":5173:5190  return returndata */\n      jump(tag_210)\n        /* \"@openzeppelin/contracts@5.0.0/utils/Address.sol\":5743:6259  function _revert(bytes memory returndata) private pure {... */\n    tag_223:\n        /* \"@openzeppelin/contracts@5.0.0/utils/Address.sol\":5874:5891  returndata.length */\n      dup1\n      mload\n        /* \"@openzeppelin/contracts@5.0.0/utils/Address.sol\":5874:5895  returndata.length > 0 */\n      iszero\n        /* \"@openzeppelin/contracts@5.0.0/utils/Address.sol\":5870:6253  if (returndata.length > 0) {... */\n      tag_229\n      jumpi\n        /* \"@openzeppelin/contracts@5.0.0/utils/Address.sol\":6102:6112  returndata */\n      dup1\n        /* \"@openzeppelin/contracts@5.0.0/utils/Address.sol\":6096:6113  mload(returndata) */\n      mload\n        /* \"@openzeppelin/contracts@5.0.0/utils/Address.sol\":6158:6173  returndata_size */\n      dup1\n        /* \"@openzeppelin/contracts@5.0.0/utils/Address.sol\":6145:6155  returndata */\n      dup3\n        /* \"@openzeppelin/contracts@5.0.0/utils/Address.sol\":6141:6143  32 */\n      0x20\n        /* \"@openzeppelin/contracts@5.0.0/utils/Address.sol\":6137:6156  add(32, returndata) */\n      add\n        /* \"@openzeppelin/contracts@5.0.0/utils/Address.sol\":6130:6174  revert(add(32, returndata), returndata_size) */\n      revert\n        /* \"@openzeppelin/contracts@5.0.0/utils/Address.sol\":5870:6253  if (returndata.length > 0) {... */\n    tag_229:\n        /* \"@openzeppelin/contracts@5.0.0/utils/Address.sol\":6225:6242  FailedInnerCall() */\n      mload(0x40)\n      shl(0xe1, 0x0a12f521)\n      dup2\n      mstore\n      0x04\n      add\n      mload(0x40)\n      dup1\n      swap2\n      sub\n      swap1\n      revert\n        /* \"#utility.yul\":14:330   */\n    tag_22:\n        /* \"#utility.yul\":91:97   */\n      0x00\n        /* \"#utility.yul\":99:105   */\n      dup1\n        /* \"#utility.yul\":107:113   */\n      0x00\n        /* \"#utility.yul\":160:162   */\n      0x60\n        /* \"#utility.yul\":148:157   */\n      dup5\n        /* \"#utility.yul\":139:146   */\n      dup7\n        /* \"#utility.yul\":135:158   */\n      sub\n        /* \"#utility.yul\":131:163   */\n      slt\n        /* \"#utility.yul\":128:180   */\n      iszero\n      tag_235\n      jumpi\n        /* \"#utility.yul\":176:177   */\n      0x00\n        /* \"#utility.yul\":173:174   */\n      dup1\n        /* \"#utility.yul\":166:178   */\n      revert\n        /* \"#utility.yul\":128:180   */\n    tag_235:\n      pop\n      pop\n        /* \"#utility.yul\":199:222   */\n      dup2\n      calldataload\n      swap4\n        /* \"#utility.yul\":269:271   */\n      0x20\n        /* \"#utility.yul\":254:272   */\n      dup4\n      add\n        /* \"#utility.yul\":241:273   */\n      calldataload\n      swap4\n      pop\n        /* \"#utility.yul\":320:322   */\n      0x40\n        /* \"#utility.yul\":305:323   */\n      swap1\n      swap3\n      add\n        /* \"#utility.yul\":292:324   */\n      calldataload\n      swap2\n        /* \"#utility.yul\":14:330   */\n      swap1\n      pop\n      jump\t// out\n        /* \"#utility.yul\":992:1240   */\n    tag_42:\n        /* \"#utility.yul\":1060:1066   */\n      0x00\n        /* \"#utility.yul\":1068:1074   */\n      dup1\n        /* \"#utility.yul\":1121:1123   */\n      0x40\n        /* \"#utility.yul\":1109:1118   */\n      dup4\n        /* \"#utility.yul\":1100:1107   */\n      dup6\n        /* \"#utility.yul\":1096:1119   */\n      sub\n        /* \"#utility.yul\":1092:1124   */\n      slt\n        /* \"#utility.yul\":1089:1141   */\n      iszero\n      tag_240\n      jumpi\n        /* \"#utility.yul\":1137:1138   */\n      0x00\n        /* \"#utility.yul\":1134:1135   */\n      dup1\n        /* \"#utility.yul\":1127:1139   */\n      revert\n        /* \"#utility.yul\":1089:1141   */\n    tag_240:\n      pop\n      pop\n        /* \"#utility.yul\":1160:1183   */\n      dup1\n      calldataload\n      swap3\n        /* \"#utility.yul\":1230:1232   */\n      0x20\n        /* \"#utility.yul\":1215:1233   */\n      swap1\n      swap2\n      add\n        /* \"#utility.yul\":1202:1234   */\n      calldataload\n      swap2\n      pop\n        /* \"#utility.yul\":992:1240   */\n      jump\t// out\n        /* \"#utility.yul\":1245:1384   */\n    tag_231:\n      sub(shl(0xa0, 0x01), 0x01)\n        /* \"#utility.yul\":1328:1359   */\n      dup2\n      and\n        /* \"#utility.yul\":1318:1360   */\n      dup2\n      eq\n        /* \"#utility.yul\":1308:1378   */\n      tag_177\n      jumpi\n        /* \"#utility.yul\":1374:1375   */\n      0x00\n        /* \"#utility.yul\":1371:1372   */\n      dup1\n        /* \"#utility.yul\":1364:1376   */\n      revert\n        /* \"#utility.yul\":1389:1658   */\n    tag_49:\n        /* \"#utility.yul\":1462:1468   */\n      0x00\n        /* \"#utility.yul\":1515:1517   */\n      0x20\n        /* \"#utility.yul\":1503:1512   */\n      dup3\n        /* \"#utility.yul\":1494:1501   */\n      dup5\n        /* \"#utility.yul\":1490:1513   */\n      sub\n        /* \"#utility.yul\":1486:1518   */\n      slt\n        /* \"#utility.yul\":1483:1535   */\n      iszero\n      tag_244\n      jumpi\n        /* \"#utility.yul\":1531:1532   */\n      0x00\n        /* \"#utility.yul\":1528:1529   */\n      dup1\n        /* \"#utility.yul\":1521:1533   */\n      revert\n        /* \"#utility.yul\":1483:1535   */\n    tag_244:\n        /* \"#utility.yul\":1570:1579   */\n      dup2\n        /* \"#utility.yul\":1557:1580   */\n      calldataload\n        /* \"#utility.yul\":1589:1628   */\n      tag_210\n        /* \"#utility.yul\":1622:1627   */\n      dup2\n        /* \"#utility.yul\":1589:1628   */\n      tag_231\n      jump\t// in\n        /* \"#utility.yul\":2131:2258   */\n    tag_232:\n        /* \"#utility.yul\":2192:2202   */\n      0x4e487b71\n        /* \"#utility.yul\":2187:2190   */\n      0xe0\n        /* \"#utility.yul\":2183:2203   */\n      shl\n        /* \"#utility.yul\":2180:2181   */\n      0x00\n        /* \"#utility.yul\":2173:2204   */\n      mstore\n        /* \"#utility.yul\":2223:2227   */\n      0x11\n        /* \"#utility.yul\":2220:2221   */\n      0x04\n        /* \"#utility.yul\":2213:2228   */\n      mstore\n        /* \"#utility.yul\":2247:2251   */\n      0x24\n        /* \"#utility.yul\":2244:2245   */\n      0x00\n        /* \"#utility.yul\":2237:2252   */\n      revert\n        /* \"#utility.yul\":2263:2431   */\n    tag_75:\n        /* \"#utility.yul\":2336:2345   */\n      dup1\n      dup3\n      mul\n        /* \"#utility.yul\":2367:2376   */\n      dup2\n      iszero\n        /* \"#utility.yul\":2384:2399   */\n      dup3\n      dup3\n      div\n        /* \"#utility.yul\":2378:2400   */\n      dup5\n      eq\n        /* \"#utility.yul\":2364:2401   */\n      or\n        /* \"#utility.yul\":2354:2425   */\n      tag_207\n      jumpi\n        /* \"#utility.yul\":2405:2423   */\n      tag_207\n      tag_232\n      jump\t// in\n        /* \"#utility.yul\":2436:2561   */\n    tag_79:\n        /* \"#utility.yul\":2501:2510   */\n      dup1\n      dup3\n      add\n        /* \"#utility.yul\":2522:2532   */\n      dup1\n      dup3\n      gt\n        /* \"#utility.yul\":2519:2555   */\n      iszero\n      tag_207\n      jumpi\n        /* \"#utility.yul\":2535:2553   */\n      tag_207\n      tag_232\n      jump\t// in\n        /* \"#utility.yul\":2566:2783   */\n    tag_81:\n        /* \"#utility.yul\":2606:2607   */\n      0x00\n        /* \"#utility.yul\":2632:2633   */\n      dup3\n        /* \"#utility.yul\":2622:2754   */\n      tag_258\n      jumpi\n        /* \"#utility.yul\":2676:2686   */\n      0x4e487b71\n        /* \"#utility.yul\":2671:2674   */\n      0xe0\n        /* \"#utility.yul\":2667:2687   */\n      shl\n        /* \"#utility.yul\":2664:2665   */\n      0x00\n        /* \"#utility.yul\":2657:2688   */\n      mstore\n        /* \"#utility.yul\":2711:2715   */\n      0x12\n        /* \"#utility.yul\":2708:2709   */\n      0x04\n        /* \"#utility.yul\":2701:2716   */\n      mstore\n        /* \"#utility.yul\":2739:2743   */\n      0x24\n        /* \"#utility.yul\":2736:2737   */\n      0x00\n        /* \"#utility.yul\":2729:2744   */\n      revert\n        /* \"#utility.yul\":2622:2754   */\n    tag_258:\n      pop\n        /* \"#utility.yul\":2768:2777   */\n      div\n      swap1\n        /* \"#utility.yul\":2566:2783   */\n      jump\t// out\n        /* \"#utility.yul\":2788:2916   */\n    tag_102:\n        /* \"#utility.yul\":2855:2864   */\n      dup2\n      dup2\n      sub\n        /* \"#utility.yul\":2876:2887   */\n      dup2\n      dup2\n      gt\n        /* \"#utility.yul\":2873:2910   */\n      iszero\n      tag_207\n      jumpi\n        /* \"#utility.yul\":2890:2908   */\n      tag_207\n      tag_232\n      jump\t// in\n        /* \"#utility.yul\":2921:3105   */\n    tag_123:\n        /* \"#utility.yul\":2991:2997   */\n      0x00\n        /* \"#utility.yul\":3044:3046   */\n      0x20\n        /* \"#utility.yul\":3032:3041   */\n      dup3\n        /* \"#utility.yul\":3023:3030   */\n      dup5\n        /* \"#utility.yul\":3019:3042   */\n      sub\n        /* \"#utility.yul\":3015:3047   */\n      slt\n        /* \"#utility.yul\":3012:3064   */\n      iszero\n      tag_263\n      jumpi\n        /* \"#utility.yul\":3060:3061   */\n      0x00\n        /* \"#utility.yul\":3057:3058   */\n      dup1\n        /* \"#utility.yul\":3050:3062   */\n      revert\n        /* \"#utility.yul\":3012:3064   */\n    tag_263:\n      pop\n        /* \"#utility.yul\":3083:3099   */\n      mload\n      swap2\n        /* \"#utility.yul\":2921:3105   */\n      swap1\n      pop\n      jump\t// out\n        /* \"#utility.yul\":4093:4370   */\n    tag_203:\n        /* \"#utility.yul\":4160:4166   */\n      0x00\n        /* \"#utility.yul\":4213:4215   */\n      0x20\n        /* \"#utility.yul\":4201:4210   */\n      dup3\n        /* \"#utility.yul\":4192:4199   */\n      dup5\n        /* \"#utility.yul\":4188:4211   */\n      sub\n        /* \"#utility.yul\":4184:4216   */\n      slt\n        /* \"#utility.yul\":4181:4233   */\n      iszero\n      tag_268\n      jumpi\n        /* \"#utility.yul\":4229:4230   */\n      0x00\n        /* \"#utility.yul\":4226:4227   */\n      dup1\n        /* \"#utility.yul\":4219:4231   */\n      revert\n        /* \"#utility.yul\":4181:4233   */\n    tag_268:\n        /* \"#utility.yul\":4261:4270   */\n      dup2\n        /* \"#utility.yul\":4255:4271   */\n      mload\n        /* \"#utility.yul\":4314:4319   */\n      dup1\n        /* \"#utility.yul\":4307:4320   */\n      iszero\n        /* \"#utility.yul\":4300:4321   */\n      iszero\n        /* \"#utility.yul\":4293:4298   */\n      dup2\n        /* \"#utility.yul\":4290:4322   */\n      eq\n        /* \"#utility.yul\":4280:4340   */\n      tag_210\n      jumpi\n        /* \"#utility.yul\":4336:4337   */\n      0x00\n        /* \"#utility.yul\":4333:4334   */\n      dup1\n        /* \"#utility.yul\":4326:4338   */\n      revert\n        /* \"#utility.yul\":4375:4787   */\n    tag_214:\n        /* \"#utility.yul\":4504:4507   */\n      0x00\n        /* \"#utility.yul\":4542:4548   */\n      dup3\n        /* \"#utility.yul\":4536:4549   */\n      mload\n        /* \"#utility.yul\":4567:4568   */\n      0x00\n        /* \"#utility.yul\":4577:4706   */\n    tag_271:\n        /* \"#utility.yul\":4591:4597   */\n      dup2\n        /* \"#utility.yul\":4588:4589   */\n      dup2\n        /* \"#utility.yul\":4585:4598   */\n      lt\n        /* \"#utility.yul\":4577:4706   */\n      iszero\n      tag_273\n      jumpi\n        /* \"#utility.yul\":4689:4693   */\n      0x20\n        /* \"#utility.yul\":4673:4687   */\n      dup2\n      dup7\n      add\n        /* \"#utility.yul\":4669:4694   */\n      dup2\n      add\n        /* \"#utility.yul\":4663:4695   */\n      mload\n        /* \"#utility.yul\":4650:4661   */\n      dup6\n      dup4\n      add\n        /* \"#utility.yul\":4643:4696   */\n      mstore\n        /* \"#utility.yul\":4606:4618   */\n      add\n        /* \"#utility.yul\":4577:4706   */\n      jump(tag_271)\n    tag_273:\n      pop\n        /* \"#utility.yul\":4761:4762   */\n      0x00\n        /* \"#utility.yul\":4725:4741   */\n      swap3\n      add\n        /* \"#utility.yul\":4750:4763   */\n      swap2\n      dup3\n      mstore\n      pop\n        /* \"#utility.yul\":4725:4741   */\n      swap2\n        /* \"#utility.yul\":4375:4787   */\n      swap1\n      pop\n      jump\t// out\n\n    auxdata: 0xa2646970667358221220caba3b37e685607a38327a7ed8498bfa43dc52a92b8703e63d74730e2bb0661f64736f6c63430008140033\n}\n",
				"bytecode": {
					"linkReferences": {},
					"object": "60c060405234801561000f575f80fd5b506040516200112c3803806200112c83398101604081905261003091610153565b60015f55338061005957604051631e4fbdf760e01b81525f600482015260240160405180910390fd5b610062816100e7565b506001600160a01b038216158061008057506001600160a01b038116155b1561009e5760405163d92e233d60e01b815260040160405180910390fd5b806001600160a01b0316826001600160a01b0316036100d057604051630bd969eb60e41b815260040160405180910390fd5b6001600160a01b039182166080521660a052610184565b600180546001600160a01b038381166001600160a01b0319831681179093556040519116919082907f8be0079c531659141344cd1fd0a4f28419497f9722a3daafe3b4186f6b6457e0905f90a35050565b80516001600160a01b038116811461014e575f80fd5b919050565b5f8060408385031215610164575f80fd5b61016d83610138565b915061017b60208401610138565b90509250929050565b60805160a051610f32620001fa5f395f8181610195015281816104750152818161049e0152818161059501528181610820015281816108a80152610a1b01525f818161012f01528181610440015281816104c801528181610558015281816108550152818161087e01526109e60152610f325ff3fe608060405234801561000f575f80fd5b50600436106100e5575f3560e01c80636ff1c9bc116100885780638da5cb5b116100635780638da5cb5b146101e55780639cd441da146101f6578063dc5fa6c514610209578063f2fde38b14610212575f80fd5b80636ff1c9bc146101b7578063715018a6146101ca57806376d5f25f146101d2575f80fd5b806315770f92116100c357806315770f921461016957806319e36f3b1461017257806356d9be4c1461017b5780635f64b55b14610190575f80fd5b8063054d50d4146100e95780630902f1ac1461010f5780630fc63d101461012a575b5f80fd5b6100fc6100f7366004610db2565b610225565b6040519081526020015b60405180910390f35b60025460035460408051928352602083019190915201610106565b6101517f000000000000000000000000000000000000000000000000000000000000000081565b6040516001600160a01b039091168152602001610106565b6100fc60045481565b6100fc60035481565b61018e610189366004610ddb565b6102ba565b005b6101517f000000000000000000000000000000000000000000000000000000000000000081565b61018e6101c5366004610e0f565b61054e565b61018e6106cd565b61018e6101e0366004610ddb565b6106e0565b6001546001600160a01b0316610151565b61018e610204366004610ddb565b610929565b6100fc60025481565b61018e610220366004610e0f565b610a90565b5f835f0361024657604051631f2a200560e01b815260040160405180910390fd5b821580610251575081155b1561026f57604051636180f03f60e11b815260040160405180910390fd5b5f61027c6103e586610e3e565b90505f6102898483610e3e565b90505f826102996103e888610e3e565b6102a39190610e55565b90506102af8183610e68565b979650505050505050565b6102c2610ad2565b60025415806102d15750600354155b156102ef57604051636180f03f60e11b815260040160405180910390fd5b815f0361030f57604051631f2a200560e01b815260040160405180910390fd5b805f0361032f57604051631f2a200560e01b815260040160405180910390fd5b5f61033c6103e584610e3e565b90505f6003548261034d9190610e3e565b90505f826103e86002546103619190610e3e565b61036b9190610e55565b90505f6103788284610e68565b90508481101561039b5760405163bb2875c360e01b815260040160405180910390fd5b6003548111156103be576040516328b35f2160e01b815260040160405180910390fd5b5f6127106103ce6103e884610e3e565b6103d89190610e68565b9050806103e58784610e87565b1115610404576040516397c7f53760e01b815260040160405180910390fd5b8660025f8282546104159190610e55565b925050819055508160035f82825461042d9190610e87565b9091555061046890506001600160a01b037f00000000000000000000000000000000000000000000000000000000000000001633308a610afa565b61049c6001600160a01b037f0000000000000000000000000000000000000000000000000000000000000000163384610b67565b7f00000000000000000000000000000000000000000000000000000000000000006001600160a01b03167f00000000000000000000000000000000000000000000000000000000000000006001600160a01b0316336001600160a01b03167fdbee45ea236748b94cfbe4aa4456c6460410d51bc244040093d65457fb4b28508a86604051610534929190918252602082015260400190565b60405180910390a4505050505061054a60015f55565b5050565b610556610b9d565b7f00000000000000000000000000000000000000000000000000000000000000006001600160a01b0316816001600160a01b0316141580156105ca57507f00000000000000000000000000000000000000000000000000000000000000006001600160a01b0316816001600160a01b031614155b156105e85760405163c1ab6dc160e01b815260040160405180910390fd5b6040516370a0823160e01b81523060048201525f906001600160a01b038316906370a0823190602401602060405180830381865afa15801561062c573d5f803e3d5ffd5b505050506040513d601f19601f820116820180604052508101906106509190610e9a565b9050805f0361067257604051631f2a200560e01b815260040160405180910390fd5b6106866001600160a01b0383163383610b67565b816001600160a01b03167f5fafa99d0643513820be26656b45130b01e1c03062e1266bf36f88cbd3bd9695826040516106c191815260200190565b60405180910390a25050565b6106d5610b9d565b6106de5f610bca565b565b6106e8610ad2565b60025415806106f75750600354155b1561071557604051636180f03f60e11b815260040160405180910390fd5b815f0361073557604051631f2a200560e01b815260040160405180910390fd5b805f0361075557604051631f2a200560e01b815260040160405180910390fd5b5f6107626103e584610e3e565b90505f600254826107739190610e3e565b90505f826103e86003546107879190610e3e565b6107919190610e55565b90505f61079e8284610e68565b9050848110156107c15760405163bb2875c360e01b815260040160405180910390fd5b6002548111156107e4576040516328b35f2160e01b815260040160405180910390fd5b8560035f8282546107f59190610e55565b925050819055508060025f82825461080d9190610e87565b9091555061084890506001600160a01b037f000000000000000000000000000000000000000000000000000000000000000016333089610afa565b61087c6001600160a01b037f0000000000000000000000000000000000000000000000000000000000000000163383610b67565b7f00000000000000000000000000000000000000000000000000000000000000006001600160a01b03167f00000000000000000000000000000000000000000000000000000000000000006001600160a01b0316336001600160a01b03167fdbee45ea236748b94cfbe4aa4456c6460410d51bc244040093d65457fb4b28508985604051610914929190918252602082015260400190565b60405180910390a45050505061054a60015f55565b610931610ad2565b81158061093c575080155b1561095a57604051631f2a200560e01b815260040160405180910390fd5b5f6004545f036109755761096e8284610e55565b9050610992565b6002546004546109859085610e3e565b61098f9190610e68565b90505b8260025f8282546109a39190610e55565b925050819055508160035f8282546109bb9190610e55565b925050819055508060045f8282546109d39190610e55565b90915550610a0e90506001600160a01b037f000000000000000000000000000000000000000000000000000000000000000016333086610afa565b610a436001600160a01b037f000000000000000000000000000000000000000000000000000000000000000016333085610afa565b604080518481526020810184905290810182905233907f64b83944e79c3ce8d4c297411de637c3e102d064677aac0c163976ebdcd6f50e9060600160405180910390a25061054a60015f55565b610a98610b9d565b6001600160a01b038116610ac657604051631e4fbdf760e01b81525f60048201526024015b60405180910390fd5b610acf81610bca565b50565b60025f5403610af457604051633ee5aeb560e01b815260040160405180910390fd5b60025f55565b6040516001600160a01b038481166024830152838116604483015260648201839052610b619186918216906323b872dd906084015b604051602081830303815290604052915060e01b6020820180516001600160e01b038381831617835250505050610c1b565b50505050565b6040516001600160a01b03838116602483015260448201839052610b9891859182169063a9059cbb90606401610b2f565b505050565b6001546001600160a01b031633146106de5760405163118cdaa760e01b8152336004820152602401610abd565b600180546001600160a01b038381166001600160a01b0319831681179093556040519116919082907f8be0079c531659141344cd1fd0a4f28419497f9722a3daafe3b4186f6b6457e0905f90a35050565b5f610c2f6001600160a01b03841683610c7c565b905080515f14158015610c53575080806020019051810190610c519190610eb1565b155b15610b9857604051635274afe760e01b81526001600160a01b0384166004820152602401610abd565b6060610c8983835f610c92565b90505b92915050565b606081471015610cb75760405163cd78605960e01b8152306004820152602401610abd565b5f80856001600160a01b03168486604051610cd29190610ed0565b5f6040518083038185875af1925050503d805f8114610d0c576040519150601f19603f3d011682016040523d82523d5f602084013e610d11565b606091505b5091509150610d21868383610d2d565b925050505b9392505050565b606082610d4257610d3d82610d89565b610d26565b8151158015610d5957506001600160a01b0384163b155b15610d8257604051639996b31560e01b81526001600160a01b0385166004820152602401610abd565b5080610d26565b805115610d995780518082602001fd5b604051630a12f52160e11b815260040160405180910390fd5b5f805f60608486031215610dc4575f80fd5b505081359360208301359350604090920135919050565b5f8060408385031215610dec575f80fd5b50508035926020909101359150565b6001600160a01b0381168114610acf575f80fd5b5f60208284031215610e1f575f80fd5b8135610d2681610dfb565b634e487b7160e01b5f52601160045260245ffd5b8082028115828204841417610c8c57610c8c610e2a565b80820180821115610c8c57610c8c610e2a565b5f82610e8257634e487b7160e01b5f52601260045260245ffd5b500490565b81810381811115610c8c57610c8c610e2a565b5f60208284031215610eaa575f80fd5b5051919050565b5f60208284031215610ec1575f80fd5b81518015158114610d26575f80fd5b5f82515f5b81811015610eef5760208186018101518583015201610ed5565b505f92019182525091905056fea2646970667358221220caba3b37e685607a38327a7ed8498bfa43dc52a92b8703e63d74730e2bb0661f64736f6c63430008140033",
					"opcodes": "PUSH1 0xC0 PUSH1 0x40 MSTORE CALLVALUE DUP1 ISZERO PUSH2 0xF JUMPI PUSH0 DUP1 REVERT JUMPDEST POP PUSH1 0x40 MLOAD PUSH3 0x112C CODESIZE SUB DUP1 PUSH3 0x112C DUP4 CODECOPY DUP2 ADD PUSH1 0x40 DUP2 SWAP1 MSTORE PUSH2 0x30 SWAP2 PUSH2 0x153 JUMP JUMPDEST PUSH1 0x1 PUSH0 SSTORE CALLER DUP1 PUSH2 0x59 JUMPI PUSH1 0x40 MLOAD PUSH4 0x1E4FBDF7 PUSH1 0xE0 SHL DUP2 MSTORE PUSH0 PUSH1 0x4 DUP3 ADD MSTORE PUSH1 0x24 ADD PUSH1 0x40 MLOAD DUP1 SWAP2 SUB SWAP1 REVERT JUMPDEST PUSH2 0x62 DUP2 PUSH2 0xE7 JUMP JUMPDEST POP PUSH1 0x1 PUSH1 0x1 PUSH1 0xA0 SHL SUB DUP3 AND ISZERO DUP1 PUSH2 0x80 JUMPI POP PUSH1 0x1 PUSH1 0x1 PUSH1 0xA0 SHL SUB DUP2 AND ISZERO JUMPDEST ISZERO PUSH2 0x9E JUMPI PUSH1 0x40 MLOAD PUSH4 0xD92E233D PUSH1 0xE0 SHL DUP2 MSTORE PUSH1 0x4 ADD PUSH1 0x40 MLOAD DUP1 SWAP2 SUB SWAP1 REVERT JUMPDEST DUP1 PUSH1 0x1 PUSH1 0x1 PUSH1 0xA0 SHL SUB AND DUP3 PUSH1 0x1 PUSH1 0x1 PUSH1 0xA0 SHL SUB AND SUB PUSH2 0xD0 JUMPI PUSH1 0x40 MLOAD PUSH4 0xBD969EB PUSH1 0xE4 SHL DUP2 MSTORE PUSH1 0x4 ADD PUSH1 0x40 MLOAD DUP1 SWAP2 SUB SWAP1 REVERT JUMPDEST PUSH1 0x1 PUSH1 0x1 PUSH1 0xA0 SHL SUB SWAP2 DUP3 AND PUSH1 0x80 MSTORE AND PUSH1 0xA0 MSTORE PUSH2 0x184 JUMP JUMPDEST PUSH1 0x1 DUP1 SLOAD PUSH1 0x1 PUSH1 0x1 PUSH1 0xA0 SHL SUB DUP4 DUP2 AND PUSH1 0x1 PUSH1 0x1 PUSH1 0xA0 SHL SUB NOT DUP4 AND DUP2 OR SWAP1 SWAP4 SSTORE PUSH1 0x40 MLOAD SWAP2 AND SWAP2 SWAP1 DUP3 SWAP1 PUSH32 0x8BE0079C531659141344CD1FD0A4F28419497F9722A3DAAFE3B4186F6B6457E0 SWAP1 PUSH0 SWAP1 LOG3 POP POP JUMP JUMPDEST DUP1 MLOAD PUSH1 0x1 PUSH1 0x1 PUSH1 0xA0 SHL SUB DUP2 AND DUP2 EQ PUSH2 0x14E JUMPI PUSH0 DUP1 REVERT JUMPDEST SWAP2 SWAP1 POP JUMP JUMPDEST PUSH0 DUP1 PUSH1 0x40 DUP4 DUP6 SUB SLT ISZERO PUSH2 0x164 JUMPI PUSH0 DUP1 REVERT JUMPDEST PUSH2 0x16D DUP4 PUSH2 0x138 JUMP JUMPDEST SWAP2 POP PUSH2 0x17B PUSH1 0x20 DUP5 ADD PUSH2 0x138 JUMP JUMPDEST SWAP1 POP SWAP3 POP SWAP3 SWAP1 POP JUMP JUMPDEST PUSH1 0x80 MLOAD PUSH1 0xA0 MLOAD PUSH2 0xF32 PUSH3 0x1FA PUSH0 CODECOPY PUSH0 DUP2 DUP2 PUSH2 0x195 ADD MSTORE DUP2 DUP2 PUSH2 0x475 ADD MSTORE DUP2 DUP2 PUSH2 0x49E ADD MSTORE DUP2 DUP2 PUSH2 0x595 ADD MSTORE DUP2 DUP2 PUSH2 0x820 ADD MSTORE DUP2 DUP2 PUSH2 0x8A8 ADD MSTORE PUSH2 0xA1B ADD MSTORE PUSH0 DUP2 DUP2 PUSH2 0x12F ADD MSTORE DUP2 DUP2 PUSH2 0x440 ADD MSTORE DUP2 DUP2 PUSH2 0x4C8 ADD MSTORE DUP2 DUP2 PUSH2 0x558 ADD MSTORE DUP2 DUP2 PUSH2 0x855 ADD MSTORE DUP2 DUP2 PUSH2 0x87E ADD MSTORE PUSH2 0x9E6 ADD MSTORE PUSH2 0xF32 PUSH0 RETURN INVALID PUSH1 0x80 PUSH1 0x40 MSTORE CALLVALUE DUP1 ISZERO PUSH2 0xF JUMPI PUSH0 DUP1 REVERT JUMPDEST POP PUSH1 0x4 CALLDATASIZE LT PUSH2 0xE5 JUMPI PUSH0 CALLDATALOAD PUSH1 0xE0 SHR DUP1 PUSH4 0x6FF1C9BC GT PUSH2 0x88 JUMPI DUP1 PUSH4 0x8DA5CB5B GT PUSH2 0x63 JUMPI DUP1 PUSH4 0x8DA5CB5B EQ PUSH2 0x1E5 JUMPI DUP1 PUSH4 0x9CD441DA EQ PUSH2 0x1F6 JUMPI DUP1 PUSH4 0xDC5FA6C5 EQ PUSH2 0x209 JUMPI DUP1 PUSH4 0xF2FDE38B EQ PUSH2 0x212 JUMPI PUSH0 DUP1 REVERT JUMPDEST DUP1 PUSH4 0x6FF1C9BC EQ PUSH2 0x1B7 JUMPI DUP1 PUSH4 0x715018A6 EQ PUSH2 0x1CA JUMPI DUP1 PUSH4 0x76D5F25F EQ PUSH2 0x1D2 JUMPI PUSH0 DUP1 REVERT JUMPDEST DUP1 PUSH4 0x15770F92 GT PUSH2 0xC3 JUMPI DUP1 PUSH4 0x15770F92 EQ PUSH2 0x169 JUMPI DUP1 PUSH4 0x19E36F3B EQ PUSH2 0x172 JUMPI DUP1 PUSH4 0x56D9BE4C EQ PUSH2 0x17B JUMPI DUP1 PUSH4 0x5F64B55B EQ PUSH2 0x190 JUMPI PUSH0 DUP1 REVERT JUMPDEST DUP1 PUSH4 0x54D50D4 EQ PUSH2 0xE9 JUMPI DUP1 PUSH4 0x902F1AC EQ PUSH2 0x10F JUMPI DUP1 PUSH4 0xFC63D10 EQ PUSH2 0x12A JUMPI JUMPDEST PUSH0 DUP1 REVERT JUMPDEST PUSH2 0xFC PUSH2 0xF7 CALLDATASIZE PUSH1 0x4 PUSH2 0xDB2 JUMP JUMPDEST PUSH2 0x225 JUMP JUMPDEST PUSH1 0x40 MLOAD SWAP1 DUP2 MSTORE PUSH1 0x20 ADD JUMPDEST PUSH1 0x40 MLOAD DUP1 SWAP2 SUB SWAP1 RETURN JUMPDEST PUSH1 0x2 SLOAD PUSH1 0x3 SLOAD PUSH1 0x40 DUP1 MLOAD SWAP3 DUP4 MSTORE PUSH1 0x20 DUP4 ADD SWAP2 SWAP1 SWAP2 MSTORE ADD PUSH2 0x106 JUMP JUMPDEST PUSH2 0x151 PUSH32 0x0 DUP2 JUMP JUMPDEST PUSH1 0x40 MLOAD PUSH1 0x1 PUSH1 0x1 PUSH1 0xA0 SHL SUB SWAP1 SWAP2 AND DUP2 MSTORE PUSH1 0x20 ADD PUSH2 0x106 JUMP JUMPDEST PUSH2 0xFC PUSH1 0x4 SLOAD DUP2 JUMP JUMPDEST PUSH2 0xFC PUSH1 0x3 SLOAD DUP2 JUMP JUMPDEST PUSH2 0x18E PUSH2 0x189 CALLDATASIZE PUSH1 0x4 PUSH2 0xDDB JUMP JUMPDEST PUSH2 0x2BA JUMP JUMPDEST STOP JUMPDEST PUSH2 0x151 PUSH32 0x0 DUP2 JUMP JUMPDEST PUSH2 0x18E PUSH2 0x1C5 CALLDATASIZE PUSH1 0x4 PUSH2 0xE0F JUMP JUMPDEST PUSH2 0x54E JUMP JUMPDEST PUSH2 0x18E PUSH2 0x6CD JUMP JUMPDEST PUSH2 0x18E PUSH2 0x1E0 CALLDATASIZE PUSH1 0x4 PUSH2 0xDDB JUMP JUMPDEST PUSH2 0x6E0 JUMP JUMPDEST PUSH1 0x1 SLOAD PUSH1 0x1 PUSH1 0x1 PUSH1 0xA0 SHL SUB AND PUSH2 0x151 JUMP JUMPDEST PUSH2 0x18E PUSH2 0x204 CALLDATASIZE PUSH1 0x4 PUSH2 0xDDB JUMP JUMPDEST PUSH2 0x929 JUMP JUMPDEST PUSH2 0xFC PUSH1 0x2 SLOAD DUP2 JUMP JUMPDEST PUSH2 0x18E PUSH2 0x220 CALLDATASIZE PUSH1 0x4 PUSH2 0xE0F JUMP JUMPDEST PUSH2 0xA90 JUMP JUMPDEST PUSH0 DUP4 PUSH0 SUB PUSH2 0x246 JUMPI PUSH1 0x40 MLOAD PUSH4 0x1F2A2005 PUSH1 0xE0 SHL DUP2 MSTORE PUSH1 0x4 ADD PUSH1 0x40 MLOAD DUP1 SWAP2 SUB SWAP1 REVERT JUMPDEST DUP3 ISZERO DUP1 PUSH2 0x251 JUMPI POP DUP2 ISZERO JUMPDEST ISZERO PUSH2 0x26F JUMPI PUSH1 0x40 MLOAD PUSH4 0x6180F03F PUSH1 0xE1 SHL DUP2 MSTORE PUSH1 0x4 ADD PUSH1 0x40 MLOAD DUP1 SWAP2 SUB SWAP1 REVERT JUMPDEST PUSH0 PUSH2 0x27C PUSH2 0x3E5 DUP7 PUSH2 0xE3E JUMP JUMPDEST SWAP1 POP PUSH0 PUSH2 0x289 DUP5 DUP4 PUSH2 0xE3E JUMP JUMPDEST SWAP1 POP PUSH0 DUP3 PUSH2 0x299 PUSH2 0x3E8 DUP9 PUSH2 0xE3E JUMP JUMPDEST PUSH2 0x2A3 SWAP2 SWAP1 PUSH2 0xE55 JUMP JUMPDEST SWAP1 POP PUSH2 0x2AF DUP2 DUP4 PUSH2 0xE68 JUMP JUMPDEST SWAP8 SWAP7 POP POP POP POP POP POP POP JUMP JUMPDEST PUSH2 0x2C2 PUSH2 0xAD2 JUMP JUMPDEST PUSH1 0x2 SLOAD ISZERO DUP1 PUSH2 0x2D1 JUMPI POP PUSH1 0x3 SLOAD ISZERO JUMPDEST ISZERO PUSH2 0x2EF JUMPI PUSH1 0x40 MLOAD PUSH4 0x6180F03F PUSH1 0xE1 SHL DUP2 MSTORE PUSH1 0x4 ADD PUSH1 0x40 MLOAD DUP1 SWAP2 SUB SWAP1 REVERT JUMPDEST DUP2 PUSH0 SUB PUSH2 0x30F JUMPI PUSH1 0x40 MLOAD PUSH4 0x1F2A2005 PUSH1 0xE0 SHL DUP2 MSTORE PUSH1 0x4 ADD PUSH1 0x40 MLOAD DUP1 SWAP2 SUB SWAP1 REVERT JUMPDEST DUP1 PUSH0 SUB PUSH2 0x32F JUMPI PUSH1 0x40 MLOAD PUSH4 0x1F2A2005 PUSH1 0xE0 SHL DUP2 MSTORE PUSH1 0x4 ADD PUSH1 0x40 MLOAD DUP1 SWAP2 SUB SWAP1 REVERT JUMPDEST PUSH0 PUSH2 0x33C PUSH2 0x3E5 DUP5 PUSH2 0xE3E JUMP JUMPDEST SWAP1 POP PUSH0 PUSH1 0x3 SLOAD DUP3 PUSH2 0x34D SWAP2 SWAP1 PUSH2 0xE3E JUMP JUMPDEST SWAP1 POP PUSH0 DUP3 PUSH2 0x3E8 PUSH1 0x2 SLOAD PUSH2 0x361 SWAP2 SWAP1 PUSH2 0xE3E JUMP JUMPDEST PUSH2 0x36B SWAP2 SWAP1 PUSH2 0xE55 JUMP JUMPDEST SWAP1 POP PUSH0 PUSH2 0x378 DUP3 DUP5 PUSH2 0xE68 JUMP JUMPDEST SWAP1 POP DUP5 DUP2 LT ISZERO PUSH2 0x39B JUMPI PUSH1 0x40 MLOAD PUSH4 0xBB2875C3 PUSH1 0xE0 SHL DUP2 MSTORE PUSH1 0x4 ADD PUSH1 0x40 MLOAD DUP1 SWAP2 SUB SWAP1 REVERT JUMPDEST PUSH1 0x3 SLOAD DUP2 GT ISZERO PUSH2 0x3BE JUMPI PUSH1 0x40 MLOAD PUSH4 0x28B35F21 PUSH1 0xE0 SHL DUP2 MSTORE PUSH1 0x4 ADD PUSH1 0x40 MLOAD DUP1 SWAP2 SUB SWAP1 REVERT JUMPDEST PUSH0 PUSH2 0x2710 PUSH2 0x3CE PUSH2 0x3E8 DUP5 PUSH2 0xE3E JUMP JUMPDEST PUSH2 0x3D8 SWAP2 SWAP1 PUSH2 0xE68 JUMP JUMPDEST SWAP1 POP DUP1 PUSH2 0x3E5 DUP8 DUP5 PUSH2 0xE87 JUMP JUMPDEST GT ISZERO PUSH2 0x404 JUMPI PUSH1 0x40 MLOAD PUSH4 0x97C7F537 PUSH1 0xE0 SHL DUP2 MSTORE PUSH1 0x4 ADD PUSH1 0x40 MLOAD DUP1 SWAP2 SUB SWAP1 REVERT JUMPDEST DUP7 PUSH1 0x2 PUSH0 DUP3 DUP3 SLOAD PUSH2 0x415 SWAP2 SWAP1 PUSH2 0xE55 JUMP JUMPDEST SWAP3 POP POP DUP2 SWAP1 SSTORE POP DUP2 PUSH1 0x3 PUSH0 DUP3 DUP3 SLOAD PUSH2 0x42D SWAP2 SWAP1 PUSH2 0xE87 JUMP JUMPDEST SWAP1 SWAP2 SSTORE POP PUSH2 0x468 SWAP1 POP PUSH1 0x1 PUSH1 0x1 PUSH1 0xA0 SHL SUB PUSH32 0x0 AND CALLER ADDRESS DUP11 PUSH2 0xAFA JUMP JUMPDEST PUSH2 0x49C PUSH1 0x1 PUSH1 0x1 PUSH1 0xA0 SHL SUB PUSH32 0x0 AND CALLER DUP5 PUSH2 0xB67 JUMP JUMPDEST PUSH32 0x0 PUSH1 0x1 PUSH1 0x1 PUSH1 0xA0 SHL SUB AND PUSH32 0x0 PUSH1 0x1 PUSH1 0x1 PUSH1 0xA0 SHL SUB AND CALLER PUSH1 0x1 PUSH1 0x1 PUSH1 0xA0 SHL SUB AND PUSH32 0xDBEE45EA236748B94CFBE4AA4456C6460410D51BC244040093D65457FB4B2850 DUP11 DUP7 PUSH1 0x40 MLOAD PUSH2 0x534 SWAP3 SWAP2 SWAP1 SWAP2 DUP3 MSTORE PUSH1 0x20 DUP3 ADD MSTORE PUSH1 0x40 ADD SWAP1 JUMP JUMPDEST PUSH1 0x40 MLOAD DUP1 SWAP2 SUB SWAP1 LOG4 POP POP POP POP POP PUSH2 0x54A PUSH1 0x1 PUSH0 SSTORE JUMP JUMPDEST POP POP JUMP JUMPDEST PUSH2 0x556 PUSH2 0xB9D JUMP JUMPDEST PUSH32 0x0 PUSH1 0x1 PUSH1 0x1 PUSH1 0xA0 SHL SUB AND DUP2 PUSH1 0x1 PUSH1 0x1 PUSH1 0xA0 SHL SUB AND EQ ISZERO DUP1 ISZERO PUSH2 0x5CA JUMPI POP PUSH32 0x0 PUSH1 0x1 PUSH1 0x1 PUSH1 0xA0 SHL SUB AND DUP2 PUSH1 0x1 PUSH1 0x1 PUSH1 0xA0 SHL SUB AND EQ ISZERO JUMPDEST ISZERO PUSH2 0x5E8 JUMPI PUSH1 0x40 MLOAD PUSH4 0xC1AB6DC1 PUSH1 0xE0 SHL DUP2 MSTORE PUSH1 0x4 ADD PUSH1 0x40 MLOAD DUP1 SWAP2 SUB SWAP1 REVERT JUMPDEST PUSH1 0x40 MLOAD PUSH4 0x70A08231 PUSH1 0xE0 SHL DUP2 MSTORE ADDRESS PUSH1 0x4 DUP3 ADD MSTORE PUSH0 SWAP1 PUSH1 0x1 PUSH1 0x1 PUSH1 0xA0 SHL SUB DUP4 AND SWAP1 PUSH4 0x70A08231 SWAP1 PUSH1 0x24 ADD PUSH1 0x20 PUSH1 0x40 MLOAD DUP1 DUP4 SUB DUP2 DUP7 GAS STATICCALL ISZERO DUP1 ISZERO PUSH2 0x62C JUMPI RETURNDATASIZE PUSH0 DUP1 RETURNDATACOPY RETURNDATASIZE PUSH0 REVERT JUMPDEST POP POP POP POP PUSH1 0x40 MLOAD RETURNDATASIZE PUSH1 0x1F NOT PUSH1 0x1F DUP3 ADD AND DUP3 ADD DUP1 PUSH1 0x40 MSTORE POP DUP2 ADD SWAP1 PUSH2 0x650 SWAP2 SWAP1 PUSH2 0xE9A JUMP JUMPDEST SWAP1 POP DUP1 PUSH0 SUB PUSH2 0x672 JUMPI PUSH1 0x40 MLOAD PUSH4 0x1F2A2005 PUSH1 0xE0 SHL DUP2 MSTORE PUSH1 0x4 ADD PUSH1 0x40 MLOAD DUP1 SWAP2 SUB SWAP1 REVERT JUMPDEST PUSH2 0x686 PUSH1 0x1 PUSH1 0x1 PUSH1 0xA0 SHL SUB DUP4 AND CALLER DUP4 PUSH2 0xB67 JUMP JUMPDEST DUP2 PUSH1 0x1 PUSH1 0x1 PUSH1 0xA0 SHL SUB AND PUSH32 0x5FAFA99D0643513820BE26656B45130B01E1C03062E1266BF36F88CBD3BD9695 DUP3 PUSH1 0x40 MLOAD PUSH2 0x6C1 SWAP2 DUP2 MSTORE PUSH1 0x20 ADD SWAP1 JUMP JUMPDEST PUSH1 0x40 MLOAD DUP1 SWAP2 SUB SWAP1 LOG2 POP POP JUMP JUMPDEST PUSH2 0x6D5 PUSH2 0xB9D JUMP JUMPDEST PUSH2 0x6DE PUSH0 PUSH2 0xBCA JUMP JUMPDEST JUMP JUMPDEST PUSH2 0x6E8 PUSH2 0xAD2 JUMP JUMPDEST PUSH1 0x2 SLOAD ISZERO DUP1 PUSH2 0x6F7 JUMPI POP PUSH1 0x3 SLOAD ISZERO JUMPDEST ISZERO PUSH2 0x715 JUMPI PUSH1 0x40 MLOAD PUSH4 0x6180F03F PUSH1 0xE1 SHL DUP2 MSTORE PUSH1 0x4 ADD PUSH1 0x40 MLOAD DUP1 SWAP2 SUB SWAP1 REVERT JUMPDEST DUP2 PUSH0 SUB PUSH2 0x735 JUMPI PUSH1 0x40 MLOAD PUSH4 0x1F2A2005 PUSH1 0xE0 SHL DUP2 MSTORE PUSH1 0x4 ADD PUSH1 0x40 MLOAD DUP1 SWAP2 SUB SWAP1 REVERT JUMPDEST DUP1 PUSH0 SUB PUSH2 0x755 JUMPI PUSH1 0x40 MLOAD PUSH4 0x1F2A2005 PUSH1 0xE0 SHL DUP2 MSTORE PUSH1 0x4 ADD PUSH1 0x40 MLOAD DUP1 SWAP2 SUB SWAP1 REVERT JUMPDEST PUSH0 PUSH2 0x762 PUSH2 0x3E5 DUP5 PUSH2 0xE3E JUMP JUMPDEST SWAP1 POP PUSH0 PUSH1 0x2 SLOAD DUP3 PUSH2 0x773 SWAP2 SWAP1 PUSH2 0xE3E JUMP JUMPDEST SWAP1 POP PUSH0 DUP3 PUSH2 0x3E8 PUSH1 0x3 SLOAD PUSH2 0x787 SWAP2 SWAP1 PUSH2 0xE3E JUMP JUMPDEST PUSH2 0x791 SWAP2 SWAP1 PUSH2 0xE55 JUMP JUMPDEST SWAP1 POP PUSH0 PUSH2 0x79E DUP3 DUP5 PUSH2 0xE68 JUMP JUMPDEST SWAP1 POP DUP5 DUP2 LT ISZERO PUSH2 0x7C1 JUMPI PUSH1 0x40 MLOAD PUSH4 0xBB2875C3 PUSH1 0xE0 SHL DUP2 MSTORE PUSH1 0x4 ADD PUSH1 0x40 MLOAD DUP1 SWAP2 SUB SWAP1 REVERT JUMPDEST PUSH1 0x2 SLOAD DUP2 GT ISZERO PUSH2 0x7E4 JUMPI PUSH1 0x40 MLOAD PUSH4 0x28B35F21 PUSH1 0xE0 SHL DUP2 MSTORE PUSH1 0x4 ADD PUSH1 0x40 MLOAD DUP1 SWAP2 SUB SWAP1 REVERT JUMPDEST DUP6 PUSH1 0x3 PUSH0 DUP3 DUP3 SLOAD PUSH2 0x7F5 SWAP2 SWAP1 PUSH2 0xE55 JUMP JUMPDEST SWAP3 POP POP DUP2 SWAP1 SSTORE POP DUP1 PUSH1 0x2 PUSH0 DUP3 DUP3 SLOAD PUSH2 0x80D SWAP2 SWAP1 PUSH2 0xE87 JUMP JUMPDEST SWAP1 SWAP2 SSTORE POP PUSH2 0x848 SWAP1 POP PUSH1 0x1 PUSH1 0x1 PUSH1 0xA0 SHL SUB PUSH32 0x0 AND CALLER ADDRESS DUP10 PUSH2 0xAFA JUMP JUMPDEST PUSH2 0x87C PUSH1 0x1 PUSH1 0x1 PUSH1 0xA0 SHL SUB PUSH32 0x0 AND CALLER DUP4 PUSH2 0xB67 JUMP JUMPDEST PUSH32 0x0 PUSH1 0x1 PUSH1 0x1 PUSH1 0xA0 SHL SUB AND PUSH32 0x0 PUSH1 0x1 PUSH1 0x1 PUSH1 0xA0 SHL SUB AND CALLER PUSH1 0x1 PUSH1 0x1 PUSH1 0xA0 SHL SUB AND PUSH32 0xDBEE45EA236748B94CFBE4AA4456C6460410D51BC244040093D65457FB4B2850 DUP10 DUP6 PUSH1 0x40 MLOAD PUSH2 0x914 SWAP3 SWAP2 SWAP1 SWAP2 DUP3 MSTORE PUSH1 0x20 DUP3 ADD MSTORE PUSH1 0x40 ADD SWAP1 JUMP JUMPDEST PUSH1 0x40 MLOAD DUP1 SWAP2 SUB SWAP1 LOG4 POP POP POP POP PUSH2 0x54A PUSH1 0x1 PUSH0 SSTORE JUMP JUMPDEST PUSH2 0x931 PUSH2 0xAD2 JUMP JUMPDEST DUP2 ISZERO DUP1 PUSH2 0x93C JUMPI POP DUP1 ISZERO JUMPDEST ISZERO PUSH2 0x95A JUMPI PUSH1 0x40 MLOAD PUSH4 0x1F2A2005 PUSH1 0xE0 SHL DUP2 MSTORE PUSH1 0x4 ADD PUSH1 0x40 MLOAD DUP1 SWAP2 SUB SWAP1 REVERT JUMPDEST PUSH0 PUSH1 0x4 SLOAD PUSH0 SUB PUSH2 0x975 JUMPI PUSH2 0x96E DUP3 DUP5 PUSH2 0xE55 JUMP JUMPDEST SWAP1 POP PUSH2 0x992 JUMP JUMPDEST PUSH1 0x2 SLOAD PUSH1 0x4 SLOAD PUSH2 0x985 SWAP1 DUP6 PUSH2 0xE3E JUMP JUMPDEST PUSH2 0x98F SWAP2 SWAP1 PUSH2 0xE68 JUMP JUMPDEST SWAP1 POP JUMPDEST DUP3 PUSH1 0x2 PUSH0 DUP3 DUP3 SLOAD PUSH2 0x9A3 SWAP2 SWAP1 PUSH2 0xE55 JUMP JUMPDEST SWAP3 POP POP DUP2 SWAP1 SSTORE POP DUP2 PUSH1 0x3 PUSH0 DUP3 DUP3 SLOAD PUSH2 0x9BB SWAP2 SWAP1 PUSH2 0xE55 JUMP JUMPDEST SWAP3 POP POP DUP2 SWAP1 SSTORE POP DUP1 PUSH1 0x4 PUSH0 DUP3 DUP3 SLOAD PUSH2 0x9D3 SWAP2 SWAP1 PUSH2 0xE55 JUMP JUMPDEST SWAP1 SWAP2 SSTORE POP PUSH2 0xA0E SWAP1 POP PUSH1 0x1 PUSH1 0x1 PUSH1 0xA0 SHL SUB PUSH32 0x0 AND CALLER ADDRESS DUP7 PUSH2 0xAFA JUMP JUMPDEST PUSH2 0xA43 PUSH1 0x1 PUSH1 0x1 PUSH1 0xA0 SHL SUB PUSH32 0x0 AND CALLER ADDRESS DUP6 PUSH2 0xAFA JUMP JUMPDEST PUSH1 0x40 DUP1 MLOAD DUP5 DUP2 MSTORE PUSH1 0x20 DUP2 ADD DUP5 SWAP1 MSTORE SWAP1 DUP2 ADD DUP3 SWAP1 MSTORE CALLER SWAP1 PUSH32 0x64B83944E79C3CE8D4C297411DE637C3E102D064677AAC0C163976EBDCD6F50E SWAP1 PUSH1 0x60 ADD PUSH1 0x40 MLOAD DUP1 SWAP2 SUB SWAP1 LOG2 POP PUSH2 0x54A PUSH1 0x1 PUSH0 SSTORE JUMP JUMPDEST PUSH2 0xA98 PUSH2 0xB9D JUMP JUMPDEST PUSH1 0x1 PUSH1 0x1 PUSH1 0xA0 SHL SUB DUP2 AND PUSH2 0xAC6 JUMPI PUSH1 0x40 MLOAD PUSH4 0x1E4FBDF7 PUSH1 0xE0 SHL DUP2 MSTORE PUSH0 PUSH1 0x4 DUP3 ADD MSTORE PUSH1 0x24 ADD JUMPDEST PUSH1 0x40 MLOAD DUP1 SWAP2 SUB SWAP1 REVERT JUMPDEST PUSH2 0xACF DUP2 PUSH2 0xBCA JUMP JUMPDEST POP JUMP JUMPDEST PUSH1 0x2 PUSH0 SLOAD SUB PUSH2 0xAF4 JUMPI PUSH1 0x40 MLOAD PUSH4 0x3EE5AEB5 PUSH1 0xE0 SHL DUP2 MSTORE PUSH1 0x4 ADD PUSH1 0x40 MLOAD DUP1 SWAP2 SUB SWAP1 REVERT JUMPDEST PUSH1 0x2 PUSH0 SSTORE JUMP JUMPDEST PUSH1 0x40 MLOAD PUSH1 0x1 PUSH1 0x1 PUSH1 0xA0 SHL SUB DUP5 DUP2 AND PUSH1 0x24 DUP4 ADD MSTORE DUP4 DUP2 AND PUSH1 0x44 DUP4 ADD MSTORE PUSH1 0x64 DUP3 ADD DUP4 SWAP1 MSTORE PUSH2 0xB61 SWAP2 DUP7 SWAP2 DUP3 AND SWAP1 PUSH4 0x23B872DD SWAP1 PUSH1 0x84 ADD JUMPDEST PUSH1 0x40 MLOAD PUSH1 0x20 DUP2 DUP4 SUB SUB DUP2 MSTORE SWAP1 PUSH1 0x40 MSTORE SWAP2 POP PUSH1 0xE0 SHL PUSH1 0x20 DUP3 ADD DUP1 MLOAD PUSH1 0x1 PUSH1 0x1 PUSH1 0xE0 SHL SUB DUP4 DUP2 DUP4 AND OR DUP4 MSTORE POP POP POP POP PUSH2 0xC1B JUMP JUMPDEST POP POP POP POP JUMP JUMPDEST PUSH1 0x40 MLOAD PUSH1 0x1 PUSH1 0x1 PUSH1 0xA0 SHL SUB DUP4 DUP2 AND PUSH1 0x24 DUP4 ADD MSTORE PUSH1 0x44 DUP3 ADD DUP4 SWAP1 MSTORE PUSH2 0xB98 SWAP2 DUP6 SWAP2 DUP3 AND SWAP1 PUSH4 0xA9059CBB SWAP1 PUSH1 0x64 ADD PUSH2 0xB2F JUMP JUMPDEST POP POP POP JUMP JUMPDEST PUSH1 0x1 SLOAD PUSH1 0x1 PUSH1 0x1 PUSH1 0xA0 SHL SUB AND CALLER EQ PUSH2 0x6DE JUMPI PUSH1 0x40 MLOAD PUSH4 0x118CDAA7 PUSH1 0xE0 SHL DUP2 MSTORE CALLER PUSH1 0x4 DUP3 ADD MSTORE PUSH1 0x24 ADD PUSH2 0xABD JUMP JUMPDEST PUSH1 0x1 DUP1 SLOAD PUSH1 0x1 PUSH1 0x1 PUSH1 0xA0 SHL SUB DUP4 DUP2 AND PUSH1 0x1 PUSH1 0x1 PUSH1 0xA0 SHL SUB NOT DUP4 AND DUP2 OR SWAP1 SWAP4 SSTORE PUSH1 0x40 MLOAD SWAP2 AND SWAP2 SWAP1 DUP3 SWAP1 PUSH32 0x8BE0079C531659141344CD1FD0A4F28419497F9722A3DAAFE3B4186F6B6457E0 SWAP1 PUSH0 SWAP1 LOG3 POP POP JUMP JUMPDEST PUSH0 PUSH2 0xC2F PUSH1 0x1 PUSH1 0x1 PUSH1 0xA0 SHL SUB DUP5 AND DUP4 PUSH2 0xC7C JUMP JUMPDEST SWAP1 POP DUP1 MLOAD PUSH0 EQ ISZERO DUP1 ISZERO PUSH2 0xC53 JUMPI POP DUP1 DUP1 PUSH1 0x20 ADD SWAP1 MLOAD DUP2 ADD SWAP1 PUSH2 0xC51 SWAP2 SWAP1 PUSH2 0xEB1 JUMP JUMPDEST ISZERO JUMPDEST ISZERO PUSH2 0xB98 JUMPI PUSH1 0x40 MLOAD PUSH4 0x5274AFE7 PUSH1 0xE0 SHL DUP2 MSTORE PUSH1 0x1 PUSH1 0x1 PUSH1 0xA0 SHL SUB DUP5 AND PUSH1 0x4 DUP3 ADD MSTORE PUSH1 0x24 ADD PUSH2 0xABD JUMP JUMPDEST PUSH1 0x60 PUSH2 0xC89 DUP4 DUP4 PUSH0 PUSH2 0xC92 JUMP JUMPDEST SWAP1 POP JUMPDEST SWAP3 SWAP2 POP POP JUMP JUMPDEST PUSH1 0x60 DUP2 SELFBALANCE LT ISZERO PUSH2 0xCB7 JUMPI PUSH1 0x40 MLOAD PUSH4 0xCD786059 PUSH1 0xE0 SHL DUP2 MSTORE ADDRESS PUSH1 0x4 DUP3 ADD MSTORE PUSH1 0x24 ADD PUSH2 0xABD JUMP JUMPDEST PUSH0 DUP1 DUP6 PUSH1 0x1 PUSH1 0x1 PUSH1 0xA0 SHL SUB AND DUP5 DUP7 PUSH1 0x40 MLOAD PUSH2 0xCD2 SWAP2 SWAP1 PUSH2 0xED0 JUMP JUMPDEST PUSH0 PUSH1 0x40 MLOAD DUP1 DUP4 SUB DUP2 DUP6 DUP8 GAS CALL SWAP3 POP POP POP RETURNDATASIZE DUP1 PUSH0 DUP2 EQ PUSH2 0xD0C JUMPI PUSH1 0x40 MLOAD SWAP2 POP PUSH1 0x1F NOT PUSH1 0x3F RETURNDATASIZE ADD AND DUP3 ADD PUSH1 0x40 MSTORE RETURNDATASIZE DUP3 MSTORE RETURNDATASIZE PUSH0 PUSH1 0x20 DUP5 ADD RETURNDATACOPY PUSH2 0xD11 JUMP JUMPDEST PUSH1 0x60 SWAP2 POP JUMPDEST POP SWAP2 POP SWAP2 POP PUSH2 0xD21 DUP7 DUP4 DUP4 PUSH2 0xD2D JUMP JUMPDEST SWAP3 POP POP POP JUMPDEST SWAP4 SWAP3 POP POP POP JUMP JUMPDEST PUSH1 0x60 DUP3 PUSH2 0xD42 JUMPI PUSH2 0xD3D DUP3 PUSH2 0xD89 JUMP JUMPDEST PUSH2 0xD26 JUMP JUMPDEST DUP2 MLOAD ISZERO DUP1 ISZERO PUSH2 0xD59 JUMPI POP PUSH1 0x1 PUSH1 0x1 PUSH1 0xA0 SHL SUB DUP5 AND EXTCODESIZE ISZERO JUMPDEST ISZERO PUSH2 0xD82 JUMPI PUSH1 0x40 MLOAD PUSH4 0x9996B315 PUSH1 0xE0 SHL DUP2 MSTORE PUSH1 0x1 PUSH1 0x1 PUSH1 0xA0 SHL SUB DUP6 AND PUSH1 0x4 DUP3 ADD MSTORE PUSH1 0x24 ADD PUSH2 0xABD JUMP JUMPDEST POP DUP1 PUSH2 0xD26 JUMP JUMPDEST DUP1 MLOAD ISZERO PUSH2 0xD99 JUMPI DUP1 MLOAD DUP1 DUP3 PUSH1 0x20 ADD REVERT JUMPDEST PUSH1 0x40 MLOAD PUSH4 0xA12F521 PUSH1 0xE1 SHL DUP2 MSTORE PUSH1 0x4 ADD PUSH1 0x40 MLOAD DUP1 SWAP2 SUB SWAP1 REVERT JUMPDEST PUSH0 DUP1 PUSH0 PUSH1 0x60 DUP5 DUP7 SUB SLT ISZERO PUSH2 0xDC4 JUMPI PUSH0 DUP1 REVERT JUMPDEST POP POP DUP2 CALLDATALOAD SWAP4 PUSH1 0x20 DUP4 ADD CALLDATALOAD SWAP4 POP PUSH1 0x40 SWAP1 SWAP3 ADD CALLDATALOAD SWAP2 SWAP1 POP JUMP JUMPDEST PUSH0 DUP1 PUSH1 0x40 DUP4 DUP6 SUB SLT ISZERO PUSH2 0xDEC JUMPI PUSH0 DUP1 REVERT JUMPDEST POP POP DUP1 CALLDATALOAD SWAP3 PUSH1 0x20 SWAP1 SWAP2 ADD CALLDATALOAD SWAP2 POP JUMP JUMPDEST PUSH1 0x1 PUSH1 0x1 PUSH1 0xA0 SHL SUB DUP2 AND DUP2 EQ PUSH2 0xACF JUMPI PUSH0 DUP1 REVERT JUMPDEST PUSH0 PUSH1 0x20 DUP3 DUP5 SUB SLT ISZERO PUSH2 0xE1F JUMPI PUSH0 DUP1 REVERT JUMPDEST DUP2 CALLDATALOAD PUSH2 0xD26 DUP2 PUSH2 0xDFB JUMP JUMPDEST PUSH4 0x4E487B71 PUSH1 0xE0 SHL PUSH0 MSTORE PUSH1 0x11 PUSH1 0x4 MSTORE PUSH1 0x24 PUSH0 REVERT JUMPDEST DUP1 DUP3 MUL DUP2 ISZERO DUP3 DUP3 DIV DUP5 EQ OR PUSH2 0xC8C JUMPI PUSH2 0xC8C PUSH2 0xE2A JUMP JUMPDEST DUP1 DUP3 ADD DUP1 DUP3 GT ISZERO PUSH2 0xC8C JUMPI PUSH2 0xC8C PUSH2 0xE2A JUMP JUMPDEST PUSH0 DUP3 PUSH2 0xE82 JUMPI PUSH4 0x4E487B71 PUSH1 0xE0 SHL PUSH0 MSTORE PUSH1 0x12 PUSH1 0x4 MSTORE PUSH1 0x24 PUSH0 REVERT JUMPDEST POP DIV SWAP1 JUMP JUMPDEST DUP2 DUP2 SUB DUP2 DUP2 GT ISZERO PUSH2 0xC8C JUMPI PUSH2 0xC8C PUSH2 0xE2A JUMP JUMPDEST PUSH0 PUSH1 0x20 DUP3 DUP5 SUB SLT ISZERO PUSH2 0xEAA JUMPI PUSH0 DUP1 REVERT JUMPDEST POP MLOAD SWAP2 SWAP1 POP JUMP JUMPDEST PUSH0 PUSH1 0x20 DUP3 DUP5 SUB SLT ISZERO PUSH2 0xEC1 JUMPI PUSH0 DUP1 REVERT JUMPDEST DUP2 MLOAD DUP1 ISZERO ISZERO DUP2 EQ PUSH2 0xD26 JUMPI PUSH0 DUP1 REVERT JUMPDEST PUSH0 DUP3 MLOAD PUSH0 JUMPDEST DUP2 DUP2 LT ISZERO PUSH2 0xEEF JUMPI PUSH1 0x20 DUP2 DUP7 ADD DUP2 ADD MLOAD DUP6 DUP4 ADD MSTORE ADD PUSH2 0xED5 JUMP JUMPDEST POP PUSH0 SWAP3 ADD SWAP2 DUP3 MSTORE POP SWAP2 SWAP1 POP JUMP INVALID LOG2 PUSH5 0x6970667358 0x22 SLT KECCAK256 0xCA 0xBA EXTCODESIZE CALLDATACOPY 0xE6 DUP6 PUSH1 0x7A CODESIZE ORIGIN PUSH27 0x7ED8498BFA43DC52A92B8703E63D74730E2BB0661F64736F6C6343 STOP ADDMOD EQ STOP CALLER "
				},
				"gasEstimates": {
					"creation": {
						"codeDepositCost": "778000",
						"executionCost": "infinite",
						"totalCost": "infinite"
					},
					"external": {
						"addLiquidity(uint256,uint256)": "infinite",
						"emergencyWithdraw(address)": "infinite",
						"getAmountOut(uint256,uint256,uint256)": "infinite",
						"getReserves()": "4452",
						"owner()": "2352",
						"renounceOwnership()": "infinite",
						"reserveA()": "2349",
						"reserveB()": "2328",
						"swapTokenAForTokenB(uint256,uint256)": "infinite",
						"swapTokenBForTokenA(uint256,uint256)": "infinite",
						"tokenA()": "infinite",
						"tokenB()": "infinite",
						"totalLiquidity()": "2306",
						"transferOwnership(address)": "infinite"
					}
				},
				"methodIdentifiers": {
					"addLiquidity(uint256,uint256)": "9cd441da",
					"emergencyWithdraw(address)": "6ff1c9bc",
					"getAmountOut(uint256,uint256,uint256)": "054d50d4",
					"getReserves()": "0902f1ac",
					"owner()": "8da5cb5b",
					"renounceOwnership()": "715018a6",
					"reserveA()": "dc5fa6c5",
					"reserveB()": "19e36f3b",
					"swapTokenAForTokenB(uint256,uint256)": "56d9be4c",
					"swapTokenBForTokenA(uint256,uint256)": "76d5f25f",
					"tokenA()": "0fc63d10",
					"tokenB()": "5f64b55b",
					"totalLiquidity()": "15770f92",
					"transferOwnership(address)": "f2fde38b"
				}
			},
			"storageLayout": {
				"storage": [
					{
						"astId": 837,
						"contract": "contract/dexRishabh.sol:MyHyperOptimizedDEX",
						"label": "_status",
						"offset": 0,
						"slot": "0",
						"type": "t_uint256"
					},
					{
						"astId": 8,
						"contract": "contract/dexRishabh.sol:MyHyperOptimizedDEX",
						"label": "_owner",
						"offset": 0,
						"slot": "1",
						"type": "t_address"
					},
					{
						"astId": 950,
						"contract": "contract/dexRishabh.sol:MyHyperOptimizedDEX",
						"label": "reserveA",
						"offset": 0,
						"slot": "2",
						"type": "t_uint256"
					},
					{
						"astId": 953,
						"contract": "contract/dexRishabh.sol:MyHyperOptimizedDEX",
						"label": "reserveB",
						"offset": 0,
						"slot": "3",
						"type": "t_uint256"
					},
					{
						"astId": 956,
						"contract": "contract/dexRishabh.sol:MyHyperOptimizedDEX",
						"label": "totalLiquidity",
						"offset": 0,
						"slot": "4",
						"type": "t_uint256"
					}
				],
				"types": {
					"t_address": {
						"encoding": "inplace",
						"label": "address",
						"numberOfBytes": "20"
					},
					"t_uint256": {
						"encoding": "inplace",
						"label": "uint256",
						"numberOfBytes": "32"
					}
				}
			},
			"userdoc": {
				"events": {
					"EmergencyWithdraw(address,uint256)": {
						"notice": "Emitted when emergency withdrawal occurs"
					},
					"LiquidityAdded(address,uint256,uint256,uint256)": {
						"notice": "Emitted when liquidity is added"
					},
					"Swapped(address,uint256,uint256,address,address)": {
						"notice": "Emitted when a swap occurs"
					}
				},
				"kind": "user",
				"methods": {
					"addLiquidity(uint256,uint256)": {
						"notice": "Adds liquidity to the pool"
					},
					"constructor": {
						"notice": "Initializes the DEX with two ERC20 tokens"
					},
					"emergencyWithdraw(address)": {
						"notice": "Emergency withdrawal of tokens (owner only)"
					},
					"getAmountOut(uint256,uint256,uint256)": {
						"notice": "Calculates output amount for a given input (view function)"
					},
					"getReserves()": {
						"notice": "Gets current reserves for both tokens"
					},
					"reserveA()": {
						"notice": "Reserve of Token A in the pool"
					},
					"reserveB()": {
						"notice": "Reserve of Token B in the pool"
					},
					"swapTokenAForTokenB(uint256,uint256)": {
						"notice": "Swaps Token A for Token B with MEV protection"
					},
					"swapTokenBForTokenA(uint256,uint256)": {
						"notice": "Swaps Token B for Token A with MEV protection"
					},
					"totalLiquidity()": {
						"notice": "Total liquidity shares (for future LP token implementation)"
					}
				},
				"notice": "A production-grade, gas-optimized, and hardened AMM with MEV protection.",
				"version": 1
			}
		}
	}
}