{
	"contract/MyDEX.sol": {
		"MyHyperOptimizedDEX": {
			"abi": [
				{
					"inputs": [
						{
							"internalType": "address",
							"name": "tokenAAddress",
							"type": "address"
						},
						{
							"internalType": "address",
							"name": "tokenBAddress",
							"type": "address"
						}
					],
					"stateMutability": "nonpayable",
					"type": "constructor"
				},
				{
					"inputs": [
						{
							"internalType": "address",
							"name": "target",
							"type": "address"
						}
					],
					"name": "AddressEmptyCode",
					"type": "error"
				},
				{
					"inputs": [
						{
							"internalType": "address",
							"name": "account",
							"type": "address"
						}
					],
					"name": "AddressInsufficientBalance",
					"type": "error"
				},
				{
					"inputs": [],
					"name": "FailedInnerCall",
					"type": "error"
				},
				{
					"inputs": [],
					"name": "IdenticalAddresses",
					"type": "error"
				},
				{
					"inputs": [],
					"name": "InsufficientOutput",
					"type": "error"
				},
				{
					"inputs": [],
					"name": "InvalidToken",
					"type": "error"
				},
				{
					"inputs": [],
					"name": "NoLiquidity",
					"type": "error"
				},
				{
					"inputs": [
						{
							"internalType": "address",
							"name": "owner",
							"type": "address"
						}
					],
					"name": "OwnableInvalidOwner",
					"type": "error"
				},
				{
					"inputs": [
						{
							"internalType": "address",
							"name": "account",
							"type": "address"
						}
					],
					"name": "OwnableUnauthorizedAccount",
					"type": "error"
				},
				{
					"inputs": [],
					"name": "ReentrancyGuardReentrantCall",
					"type": "error"
				},
				{
					"inputs": [
						{
							"internalType": "address",
							"name": "token",
							"type": "address"
						}
					],
					"name": "SafeERC20FailedOperation",
					"type": "error"
				},
				{
					"inputs": [],
					"name": "ZeroAddress",
					"type": "error"
				},
				{
					"inputs": [],
					"name": "ZeroAmount",
					"type": "error"
				},
				{
					"anonymous": false,
					"inputs": [
						{
							"indexed": true,
							"internalType": "address",
							"name": "sender",
							"type": "address"
						},
						{
							"indexed": false,
							"internalType": "uint256",
							"name": "amountA",
							"type": "uint256"
						},
						{
							"indexed": false,
							"internalType": "uint256",
							"name": "amountB",
							"type": "uint256"
						}
					],
					"name": "LiquidityAdded",
					"type": "event"
				},
				{
					"anonymous": false,
					"inputs": [
						{
							"indexed": true,
							"internalType": "address",
							"name": "previousOwner",
							"type": "address"
						},
						{
							"indexed": true,
							"internalType": "address",
							"name": "newOwner",
							"type": "address"
						}
					],
					"name": "OwnershipTransferred",
					"type": "event"
				},
				{
					"anonymous": false,
					"inputs": [
						{
							"indexed": true,
							"internalType": "address",
							"name": "sender",
							"type": "address"
						},
						{
							"indexed": false,
							"internalType": "uint256",
							"name": "amountIn",
							"type": "uint256"
						},
						{
							"indexed": false,
							"internalType": "uint256",
							"name": "amountOut",
							"type": "uint256"
						},
						{
							"indexed": true,
							"internalType": "address",
							"name": "tokenIn",
							"type": "address"
						},
						{
							"indexed": true,
							"internalType": "address",
							"name": "tokenOut",
							"type": "address"
						}
					],
					"name": "Swapped",
					"type": "event"
				},
				{
					"inputs": [
						{
							"internalType": "uint256",
							"name": "amountA",
							"type": "uint256"
						},
						{
							"internalType": "uint256",
							"name": "amountB",
							"type": "uint256"
						}
					],
					"name": "addLiquidity",
					"outputs": [],
					"stateMutability": "nonpayable",
					"type": "function"
				},
				{
					"inputs": [
						{
							"internalType": "contract IERC20",
							"name": "token",
							"type": "address"
						}
					],
					"name": "emergencyWithdraw",
					"outputs": [],
					"stateMutability": "nonpayable",
					"type": "function"
				},
				{
					"inputs": [],
					"name": "owner",
					"outputs": [
						{
							"internalType": "address",
							"name": "",
							"type": "address"
						}
					],
					"stateMutability": "view",
					"type": "function"
				},
				{
					"inputs": [],
					"name": "renounceOwnership",
					"outputs": [],
					"stateMutability": "nonpayable",
					"type": "function"
				},
				{
					"inputs": [],
					"name": "reserveA",
					"outputs": [
						{
							"internalType": "uint256",
							"name": "",
							"type": "uint256"
						}
					],
					"stateMutability": "view",
					"type": "function"
				},
				{
					"inputs": [],
					"name": "reserveB",
					"outputs": [
						{
							"internalType": "uint256",
							"name": "",
							"type": "uint256"
						}
					],
					"stateMutability": "view",
					"type": "function"
				},
				{
					"inputs": [
						{
							"internalType": "uint256",
							"name": "amountInA",
							"type": "uint256"
						},
						{
							"internalType": "uint256",
							"name": "amountOutMin",
							"type": "uint256"
						}
					],
					"name": "swapTokenAForTokenB",
					"outputs": [],
					"stateMutability": "nonpayable",
					"type": "function"
				},
				{
					"inputs": [],
					"name": "tokenA",
					"outputs": [
						{
							"internalType": "contract IERC20",
							"name": "",
							"type": "address"
						}
					],
					"stateMutability": "view",
					"type": "function"
				},
				{
					"inputs": [],
					"name": "tokenB",
					"outputs": [
						{
							"internalType": "contract IERC20",
							"name": "",
							"type": "address"
						}
					],
					"stateMutability": "view",
					"type": "function"
				},
				{
					"inputs": [
						{
							"internalType": "address",
							"name": "newOwner",
							"type": "address"
						}
					],
					"name": "transferOwnership",
					"outputs": [],
					"stateMutability": "nonpayable",
					"type": "function"
				}
			],
			"devdoc": {
				"author": "(Your Name)",
				"errors": {
					"AddressEmptyCode(address)": [
						{
							"details": "There's no code at `target` (it is not a contract)."
						}
					],
					"AddressInsufficientBalance(address)": [
						{
							"details": "The ETH balance of the account is not enough to perform the operation."
						}
					],
					"FailedInnerCall()": [
						{
							"details": "A call to an address target failed. The target may have reverted."
						}
					],
					"OwnableInvalidOwner(address)": [
						{
							"details": "The owner is not a valid owner account. (eg. `address(0)`)"
						}
					],
					"OwnableUnauthorizedAccount(address)": [
						{
							"details": "The caller account is not authorized to perform an operation."
						}
					],
					"ReentrancyGuardReentrantCall()": [
						{
							"details": "Unauthorized reentrant call."
						}
					],
					"SafeERC20FailedOperation(address)": [
						{
							"details": "An operation with an ERC20 token failed."
						}
					]
				},
				"kind": "dev",
				"methods": {
					"owner()": {
						"details": "Returns the address of the current owner."
					},
					"renounceOwnership()": {
						"details": "Leaves the contract without owner. It will not be possible to call `onlyOwner` functions. Can only be called by the current owner. NOTE: Renouncing ownership will leave the contract without an owner, thereby disabling any functionality that is only available to the owner."
					},
					"swapTokenAForTokenB(uint256,uint256)": {
						"params": {
							"amountInA": "The exact amount of Token A being sent.",
							"amountOutMin": "The *minimum* amount of Token B the user is willing to accept. This prevents MEV."
						}
					},
					"transferOwnership(address)": {
						"details": "Transfers ownership of the contract to a new account (`newOwner`). Can only be called by the current owner."
					}
				},
				"title": "MyHyperOptimizedDEX",
				"version": 1
			},
			"evm": {
				"assembly": "    /* \"contract/MyDEX.sol\":904:4523  contract MyHyperOptimizedDEX is ReentrancyGuard, Ownable {... */\n  mstore(0x40, 0xc0)\n    /* \"contract/MyDEX.sol\":1729:2163  constructor(... */\n  callvalue\n  dup1\n  iszero\n  tag_1\n  jumpi\n  0x00\n  dup1\n  revert\ntag_1:\n  pop\n  mload(0x40)\n  sub(codesize, bytecodeSize)\n  dup1\n  bytecodeSize\n  dup4\n  codecopy\n  dup2\n  add\n  0x40\n  dup2\n  swap1\n  mstore\n  tag_2\n  swap2\n  tag_3\n  jump\t// in\ntag_2:\n    /* \"@openzeppelin/contracts@5.0.0/utils/ReentrancyGuard.sol\":1713:1714  1 */\n  0x01\n    /* \"@openzeppelin/contracts@5.0.0/utils/ReentrancyGuard.sol\":1917:1924  _status */\n  0x00\n    /* \"@openzeppelin/contracts@5.0.0/utils/ReentrancyGuard.sol\":1917:1938  _status = NOT_ENTERED */\n  sstore\n    /* \"contract/MyDEX.sol\":1820:1830  msg.sender */\n  caller\n  dup1\n    /* \"@openzeppelin/contracts@5.0.0/access/Ownable.sol\":1269:1364  if (initialOwner == address(0)) {... */\n  tag_9\n  jumpi\n    /* \"@openzeppelin/contracts@5.0.0/access/Ownable.sol\":1322:1353  OwnableInvalidOwner(address(0)) */\n  mload(0x40)\n  shl(0xe0, 0x1e4fbdf7)\n  dup2\n  mstore\n    /* \"@openzeppelin/contracts@5.0.0/access/Ownable.sol\":1350:1351  0 */\n  0x00\n    /* \"@openzeppelin/contracts@5.0.0/access/Ownable.sol\":1322:1353  OwnableInvalidOwner(address(0)) */\n  0x04\n  dup3\n  add\n    /* \"#utility.yul\":640:691   */\n  mstore\n    /* \"#utility.yul\":613:631   */\n  0x24\n  add\n    /* \"@openzeppelin/contracts@5.0.0/access/Ownable.sol\":1322:1353  OwnableInvalidOwner(address(0)) */\n  mload(0x40)\n  dup1\n  swap2\n  sub\n  swap1\n  revert\n    /* \"@openzeppelin/contracts@5.0.0/access/Ownable.sol\":1269:1364  if (initialOwner == address(0)) {... */\ntag_9:\n    /* \"@openzeppelin/contracts@5.0.0/access/Ownable.sol\":1373:1405  _transferOwnership(initialOwner) */\n  tag_12\n    /* \"@openzeppelin/contracts@5.0.0/access/Ownable.sol\":1392:1404  initialOwner */\n  dup2\n    /* \"@openzeppelin/contracts@5.0.0/access/Ownable.sol\":1373:1391  _transferOwnership */\n  tag_13\n    /* \"@openzeppelin/contracts@5.0.0/access/Ownable.sol\":1373:1405  _transferOwnership(initialOwner) */\n  jump\t// in\ntag_12:\n  pop\n  sub(shl(0xa0, 0x01), 0x01)\n    /* \"contract/MyDEX.sol\":1865:1892  tokenAAddress == address(0) */\n  dup3\n  and\n  iszero\n  dup1\n    /* \"contract/MyDEX.sol\":1865:1923  tokenAAddress == address(0) || tokenBAddress == address(0) */\n  tag_15\n  jumpi\n  pop\n  sub(shl(0xa0, 0x01), 0x01)\n    /* \"contract/MyDEX.sol\":1896:1923  tokenBAddress == address(0) */\n  dup2\n  and\n  iszero\n    /* \"contract/MyDEX.sol\":1865:1923  tokenAAddress == address(0) || tokenBAddress == address(0) */\ntag_15:\n    /* \"contract/MyDEX.sol\":1861:1972  if (tokenAAddress == address(0) || tokenBAddress == address(0)) {... */\n  iszero\n  tag_16\n  jumpi\n    /* \"contract/MyDEX.sol\":1947:1960  ZeroAddress() */\n  mload(0x40)\n  shl(0xe0, 0xd92e233d)\n  dup2\n  mstore\n  0x04\n  add\n  mload(0x40)\n  dup1\n  swap2\n  sub\n  swap1\n  revert\n    /* \"contract/MyDEX.sol\":1861:1972  if (tokenAAddress == address(0) || tokenBAddress == address(0)) {... */\ntag_16:\n    /* \"contract/MyDEX.sol\":2003:2016  tokenBAddress */\n  dup1\n  sub(shl(0xa0, 0x01), 0x01)\n    /* \"contract/MyDEX.sol\":1986:2016  tokenAAddress == tokenBAddress */\n  and\n    /* \"contract/MyDEX.sol\":1986:1999  tokenAAddress */\n  dup3\n  sub(shl(0xa0, 0x01), 0x01)\n    /* \"contract/MyDEX.sol\":1986:2016  tokenAAddress == tokenBAddress */\n  and\n  sub\n    /* \"contract/MyDEX.sol\":1982:2072  if (tokenAAddress == tokenBAddress) {... */\n  tag_17\n  jumpi\n    /* \"contract/MyDEX.sol\":2040:2060  IdenticalAddresses() */\n  mload(0x40)\n  shl(0xe4, 0x0bd969eb)\n  dup2\n  mstore\n  0x04\n  add\n  mload(0x40)\n  dup1\n  swap2\n  sub\n  swap1\n  revert\n    /* \"contract/MyDEX.sol\":1982:2072  if (tokenAAddress == tokenBAddress) {... */\ntag_17:\n  sub(shl(0xa0, 0x01), 0x01)\n    /* \"contract/MyDEX.sol\":2084:2114  tokenA = IERC20(tokenAAddress) */\n  swap2\n  dup3\n  and\n  0x80\n  mstore\n    /* \"contract/MyDEX.sol\":2125:2155  tokenB = IERC20(tokenBAddress) */\n  and\n  0xa0\n  mstore\n    /* \"contract/MyDEX.sol\":904:4523  contract MyHyperOptimizedDEX is ReentrancyGuard, Ownable {... */\n  jump(tag_21)\n    /* \"@openzeppelin/contracts@5.0.0/access/Ownable.sol\":2912:3099  function _transferOwnership(address newOwner) internal virtual {... */\ntag_13:\n    /* \"@openzeppelin/contracts@5.0.0/access/Ownable.sol\":3004:3010  _owner */\n  0x01\n  dup1\n  sload\n  sub(shl(0xa0, 0x01), 0x01)\n    /* \"@openzeppelin/contracts@5.0.0/access/Ownable.sol\":3020:3037  _owner = newOwner */\n  dup4\n  dup2\n  and\n  not(sub(shl(0xa0, 0x01), 0x01))\n  dup4\n  and\n  dup2\n  or\n  swap1\n  swap4\n  sstore\n    /* \"@openzeppelin/contracts@5.0.0/access/Ownable.sol\":3052:3092  OwnershipTransferred(oldOwner, newOwner) */\n  mload(0x40)\n    /* \"@openzeppelin/contracts@5.0.0/access/Ownable.sol\":3004:3010  _owner */\n  swap2\n  and\n  swap2\n    /* \"@openzeppelin/contracts@5.0.0/access/Ownable.sol\":3020:3037  _owner = newOwner */\n  swap1\n    /* \"@openzeppelin/contracts@5.0.0/access/Ownable.sol\":3004:3010  _owner */\n  dup3\n  swap1\n    /* \"@openzeppelin/contracts@5.0.0/access/Ownable.sol\":3052:3092  OwnershipTransferred(oldOwner, newOwner) */\n  0x8be0079c531659141344cd1fd0a4f28419497f9722a3daafe3b4186f6b6457e0\n  swap1\n    /* \"@openzeppelin/contracts@5.0.0/access/Ownable.sol\":2985:3001  address oldOwner */\n  0x00\n  swap1\n    /* \"@openzeppelin/contracts@5.0.0/access/Ownable.sol\":3052:3092  OwnershipTransferred(oldOwner, newOwner) */\n  log3\n    /* \"@openzeppelin/contracts@5.0.0/access/Ownable.sol\":2975:3099  {... */\n  pop\n    /* \"@openzeppelin/contracts@5.0.0/access/Ownable.sol\":2912:3099  function _transferOwnership(address newOwner) internal virtual {... */\n  pop\n  jump\t// out\n    /* \"#utility.yul\":14:191   */\ntag_20:\n    /* \"#utility.yul\":93:106   */\n  dup1\n  mload\n  sub(shl(0xa0, 0x01), 0x01)\n    /* \"#utility.yul\":135:166   */\n  dup2\n  and\n    /* \"#utility.yul\":125:167   */\n  dup2\n  eq\n    /* \"#utility.yul\":115:185   */\n  tag_23\n  jumpi\n    /* \"#utility.yul\":181:182   */\n  0x00\n    /* \"#utility.yul\":178:179   */\n  dup1\n    /* \"#utility.yul\":171:183   */\n  revert\n    /* \"#utility.yul\":115:185   */\ntag_23:\n    /* \"#utility.yul\":14:191   */\n  swap2\n  swap1\n  pop\n  jump\t// out\n    /* \"#utility.yul\":196:489   */\ntag_3:\n    /* \"#utility.yul\":275:281   */\n  0x00\n    /* \"#utility.yul\":283:289   */\n  dup1\n    /* \"#utility.yul\":336:338   */\n  0x40\n    /* \"#utility.yul\":324:333   */\n  dup4\n    /* \"#utility.yul\":315:322   */\n  dup6\n    /* \"#utility.yul\":311:334   */\n  sub\n    /* \"#utility.yul\":307:339   */\n  slt\n    /* \"#utility.yul\":304:356   */\n  iszero\n  tag_25\n  jumpi\n    /* \"#utility.yul\":352:353   */\n  0x00\n    /* \"#utility.yul\":349:350   */\n  dup1\n    /* \"#utility.yul\":342:354   */\n  revert\n    /* \"#utility.yul\":304:356   */\ntag_25:\n    /* \"#utility.yul\":375:415   */\n  tag_26\n    /* \"#utility.yul\":405:414   */\n  dup4\n    /* \"#utility.yul\":375:415   */\n  tag_20\n  jump\t// in\ntag_26:\n    /* \"#utility.yul\":365:415   */\n  swap2\n  pop\n    /* \"#utility.yul\":434:483   */\n  tag_27\n    /* \"#utility.yul\":479:481   */\n  0x20\n    /* \"#utility.yul\":468:477   */\n  dup5\n    /* \"#utility.yul\":464:482   */\n  add\n    /* \"#utility.yul\":434:483   */\n  tag_20\n  jump\t// in\ntag_27:\n    /* \"#utility.yul\":424:483   */\n  swap1\n  pop\n    /* \"#utility.yul\":196:489   */\n  swap3\n  pop\n  swap3\n  swap1\n  pop\n  jump\t// out\n    /* \"#utility.yul\":494:697   */\ntag_21:\n    /* \"contract/MyDEX.sol\":904:4523  contract MyHyperOptimizedDEX is ReentrancyGuard, Ownable {... */\n  mload(0x80)\n  mload(0xa0)\n  codecopy(0x00, dataOffset(sub_0), dataSize(sub_0))\n  0x00\n  assignImmutable(\"0xd6ef8874b909555826a0bd255f0f90b2213baaf47b3be996a6aa5118a433e826\")\n  0x00\n  assignImmutable(\"0x7705a66c05de96d79dddf8024a7669ad29d5b174f4aa496e3ca7c392f0ca18e1\")\n  return(0x00, dataSize(sub_0))\nstop\n\nsub_0: assembly {\n        /* \"contract/MyDEX.sol\":904:4523  contract MyHyperOptimizedDEX is ReentrancyGuard, Ownable {... */\n      mstore(0x40, 0x80)\n      callvalue\n      dup1\n      iszero\n      tag_1\n      jumpi\n      0x00\n      dup1\n      revert\n    tag_1:\n      pop\n      jumpi(tag_2, lt(calldatasize, 0x04))\n      shr(0xe0, calldataload(0x00))\n      dup1\n      0x715018a6\n      gt\n      tag_13\n      jumpi\n      dup1\n      0x715018a6\n      eq\n      tag_8\n      jumpi\n      dup1\n      0x8da5cb5b\n      eq\n      tag_9\n      jumpi\n      dup1\n      0x9cd441da\n      eq\n      tag_10\n      jumpi\n      dup1\n      0xdc5fa6c5\n      eq\n      tag_11\n      jumpi\n      dup1\n      0xf2fde38b\n      eq\n      tag_12\n      jumpi\n      0x00\n      dup1\n      revert\n    tag_13:\n      dup1\n      0x0fc63d10\n      eq\n      tag_3\n      jumpi\n      dup1\n      0x19e36f3b\n      eq\n      tag_4\n      jumpi\n      dup1\n      0x56d9be4c\n      eq\n      tag_5\n      jumpi\n      dup1\n      0x5f64b55b\n      eq\n      tag_6\n      jumpi\n      dup1\n      0x6ff1c9bc\n      eq\n      tag_7\n      jumpi\n    tag_2:\n      0x00\n      dup1\n      revert\n        /* \"contract/MyDEX.sol\":1130:1160  IERC20 public immutable tokenA */\n    tag_3:\n      tag_14\n      immutable(\"0x7705a66c05de96d79dddf8024a7669ad29d5b174f4aa496e3ca7c392f0ca18e1\")\n      dup2\n      jump\n    tag_14:\n      mload(0x40)\n      sub(shl(0xa0, 0x01), 0x01)\n        /* \"#utility.yul\":192:224   */\n      swap1\n      swap2\n      and\n        /* \"#utility.yul\":174:225   */\n      dup2\n      mstore\n        /* \"#utility.yul\":162:164   */\n      0x20\n        /* \"#utility.yul\":147:165   */\n      add\n        /* \"contract/MyDEX.sol\":1130:1160  IERC20 public immutable tokenA */\n    tag_16:\n      mload(0x40)\n      dup1\n      swap2\n      sub\n      swap1\n      return\n        /* \"contract/MyDEX.sol\":1236:1259  uint256 public reserveB */\n    tag_4:\n      tag_18\n      sload(0x03)\n      dup2\n      jump\n    tag_18:\n      mload(0x40)\n        /* \"#utility.yul\":382:407   */\n      swap1\n      dup2\n      mstore\n        /* \"#utility.yul\":370:372   */\n      0x20\n        /* \"#utility.yul\":355:373   */\n      add\n        /* \"contract/MyDEX.sol\":1236:1259  uint256 public reserveB */\n      tag_16\n        /* \"#utility.yul\":236:413   */\n      jump\n        /* \"contract/MyDEX.sol\":2987:4158  function swapTokenAForTokenB(... */\n    tag_5:\n      tag_22\n      tag_23\n      calldatasize\n      0x04\n      tag_24\n      jump\t// in\n    tag_23:\n      tag_25\n      jump\t// in\n    tag_22:\n      stop\n        /* \"contract/MyDEX.sol\":1167:1197  IERC20 public immutable tokenB */\n    tag_6:\n      tag_14\n      immutable(\"0xd6ef8874b909555826a0bd255f0f90b2213baaf47b3be996a6aa5118a433e826\")\n      dup2\n      jump\n        /* \"contract/MyDEX.sol\":4208:4520  function emergencyWithdraw(IERC20 token) external onlyOwner {... */\n    tag_7:\n      tag_22\n      tag_30\n      calldatasize\n      0x04\n      tag_31\n      jump\t// in\n    tag_30:\n      tag_32\n      jump\t// in\n        /* \"@openzeppelin/contracts@5.0.0/access/Ownable.sol\":2293:2394  function renounceOwnership() public virtual onlyOwner {... */\n    tag_8:\n      tag_22\n      tag_34\n      jump\t// in\n        /* \"@openzeppelin/contracts@5.0.0/access/Ownable.sol\":1638:1723  function owner() public view virtual returns (address) {... */\n    tag_9:\n        /* \"@openzeppelin/contracts@5.0.0/access/Ownable.sol\":1710:1716  _owner */\n      and(sub(shl(0xa0, 0x01), 0x01), sload(0x01))\n        /* \"@openzeppelin/contracts@5.0.0/access/Ownable.sol\":1638:1723  function owner() public view virtual returns (address) {... */\n      jump(tag_14)\n        /* \"contract/MyDEX.sol\":2171:2710  function addLiquidity(... */\n    tag_10:\n      tag_22\n      tag_40\n      calldatasize\n      0x04\n      tag_24\n      jump\t// in\n    tag_40:\n      tag_41\n      jump\t// in\n        /* \"contract/MyDEX.sol\":1206:1229  uint256 public reserveA */\n    tag_11:\n      tag_18\n      sload(0x02)\n      dup2\n      jump\n        /* \"@openzeppelin/contracts@5.0.0/access/Ownable.sol\":2543:2758  function transferOwnership(address newOwner) public virtual onlyOwner {... */\n    tag_12:\n      tag_22\n      tag_46\n      calldatasize\n      0x04\n      tag_31\n      jump\t// in\n    tag_46:\n      tag_48\n      jump\t// in\n        /* \"contract/MyDEX.sol\":2987:4158  function swapTokenAForTokenB(... */\n    tag_25:\n        /* \"@openzeppelin/contracts@5.0.0/utils/ReentrancyGuard.sol\":2356:2377  _nonReentrantBefore() */\n      tag_50\n        /* \"@openzeppelin/contracts@5.0.0/utils/ReentrancyGuard.sol\":2356:2375  _nonReentrantBefore */\n      tag_51\n        /* \"@openzeppelin/contracts@5.0.0/utils/ReentrancyGuard.sol\":2356:2377  _nonReentrantBefore() */\n      jump\t// in\n    tag_50:\n        /* \"contract/MyDEX.sol\":1649:1657  reserveA */\n      sload(0x02)\n        /* \"contract/MyDEX.sol\":1649:1662  reserveA == 0 */\n      iszero\n      dup1\n        /* \"contract/MyDEX.sol\":1649:1679  reserveA == 0 || reserveB == 0 */\n      tag_53\n      jumpi\n      pop\n        /* \"contract/MyDEX.sol\":1666:1674  reserveB */\n      sload(0x03)\n        /* \"contract/MyDEX.sol\":1666:1679  reserveB == 0 */\n      iszero\n        /* \"contract/MyDEX.sol\":1649:1679  reserveA == 0 || reserveB == 0 */\n    tag_53:\n        /* \"contract/MyDEX.sol\":1645:1701  if (reserveA == 0 || reserveB == 0) revert NoLiquidity() */\n      iszero\n      tag_54\n      jumpi\n        /* \"contract/MyDEX.sol\":1688:1701  NoLiquidity() */\n      mload(0x40)\n      shl(0xe1, 0x6180f03f)\n      dup2\n      mstore\n      0x04\n      add\n      mload(0x40)\n      dup1\n      swap2\n      sub\n      swap1\n      revert\n        /* \"contract/MyDEX.sol\":1645:1701  if (reserveA == 0 || reserveB == 0) revert NoLiquidity() */\n    tag_54:\n        /* \"contract/MyDEX.sol\":3132:3141  amountInA */\n      dup2\n        /* \"contract/MyDEX.sol\":3145:3146  0 */\n      0x00\n        /* \"contract/MyDEX.sol\":3132:3146  amountInA == 0 */\n      sub\n        /* \"contract/MyDEX.sol\":3128:3167  if (amountInA == 0) revert ZeroAmount() */\n      tag_56\n      jumpi\n        /* \"contract/MyDEX.sol\":3155:3167  ZeroAmount() */\n      mload(0x40)\n      shl(0xe0, 0x1f2a2005)\n      dup2\n      mstore\n      0x04\n      add\n      mload(0x40)\n      dup1\n      swap2\n      sub\n      swap1\n      revert\n        /* \"contract/MyDEX.sol\":3128:3167  if (amountInA == 0) revert ZeroAmount() */\n    tag_56:\n        /* \"contract/MyDEX.sol\":3182:3194  amountOutMin */\n      dup1\n        /* \"contract/MyDEX.sol\":3198:3199  0 */\n      0x00\n        /* \"contract/MyDEX.sol\":3182:3199  amountOutMin == 0 */\n      sub\n        /* \"contract/MyDEX.sol\":3178:3220  if (amountOutMin == 0) revert ZeroAmount() */\n      tag_57\n      jumpi\n        /* \"contract/MyDEX.sol\":3208:3220  ZeroAmount() */\n      mload(0x40)\n      shl(0xe0, 0x1f2a2005)\n      dup2\n      mstore\n      0x04\n      add\n      mload(0x40)\n      dup1\n      swap2\n      sub\n      swap1\n      revert\n        /* \"contract/MyDEX.sol\":3178:3220  if (amountOutMin == 0) revert ZeroAmount() */\n    tag_57:\n        /* \"contract/MyDEX.sol\":3296:3319  uint256 amountInWithFee */\n      0x00\n        /* \"contract/MyDEX.sol\":3322:3337  amountInA * 997 */\n      tag_58\n        /* \"contract/MyDEX.sol\":3322:3331  amountInA */\n      dup4\n        /* \"contract/MyDEX.sol\":3334:3337  997 */\n      0x03e5\n        /* \"contract/MyDEX.sol\":3322:3337  amountInA * 997 */\n      tag_59\n      jump\t// in\n    tag_58:\n        /* \"contract/MyDEX.sol\":3296:3337  uint256 amountInWithFee = amountInA * 997 */\n      swap1\n      pop\n        /* \"contract/MyDEX.sol\":3348:3365  uint256 numerator */\n      0x00\n        /* \"contract/MyDEX.sol\":3386:3394  reserveB */\n      sload(0x03)\n        /* \"contract/MyDEX.sol\":3368:3383  amountInWithFee */\n      dup3\n        /* \"contract/MyDEX.sol\":3368:3394  amountInWithFee * reserveB */\n      tag_60\n      swap2\n      swap1\n      tag_59\n      jump\t// in\n    tag_60:\n        /* \"contract/MyDEX.sol\":3348:3394  uint256 numerator = amountInWithFee * reserveB */\n      swap1\n      pop\n        /* \"contract/MyDEX.sol\":3405:3424  uint256 denominator */\n      0x00\n        /* \"contract/MyDEX.sol\":3447:3462  amountInWithFee */\n      dup3\n        /* \"contract/MyDEX.sol\":3428:3436  reserveA */\n      sload(0x02)\n        /* \"contract/MyDEX.sol\":3439:3443  1000 */\n      0x03e8\n        /* \"contract/MyDEX.sol\":3428:3443  reserveA * 1000 */\n      tag_61\n      swap2\n      swap1\n      tag_59\n      jump\t// in\n    tag_61:\n        /* \"contract/MyDEX.sol\":3427:3462  (reserveA * 1000) + amountInWithFee */\n      tag_62\n      swap2\n      swap1\n      tag_63\n      jump\t// in\n    tag_62:\n        /* \"contract/MyDEX.sol\":3405:3462  uint256 denominator = (reserveA * 1000) + amountInWithFee */\n      swap1\n      pop\n        /* \"contract/MyDEX.sol\":3473:3491  uint256 amountOutB */\n      0x00\n        /* \"contract/MyDEX.sol\":3494:3517  numerator / denominator */\n      tag_64\n        /* \"contract/MyDEX.sol\":3405:3462  uint256 denominator = (reserveA * 1000) + amountInWithFee */\n      dup3\n        /* \"contract/MyDEX.sol\":3494:3503  numerator */\n      dup5\n        /* \"contract/MyDEX.sol\":3494:3517  numerator / denominator */\n      tag_65\n      jump\t// in\n    tag_64:\n        /* \"contract/MyDEX.sol\":3473:3517  uint256 amountOutB = numerator / denominator */\n      swap1\n      pop\n        /* \"contract/MyDEX.sol\":3615:3627  amountOutMin */\n      dup5\n        /* \"contract/MyDEX.sol\":3602:3612  amountOutB */\n      dup2\n        /* \"contract/MyDEX.sol\":3602:3627  amountOutB < amountOutMin */\n      lt\n        /* \"contract/MyDEX.sol\":3598:3683  if (amountOutB < amountOutMin) {... */\n      iszero\n      tag_66\n      jumpi\n        /* \"contract/MyDEX.sol\":3651:3671  InsufficientOutput() */\n      mload(0x40)\n      shl(0xe0, 0xbb2875c3)\n      dup2\n      mstore\n      0x04\n      add\n      mload(0x40)\n      dup1\n      swap2\n      sub\n      swap1\n      revert\n        /* \"contract/MyDEX.sol\":3598:3683  if (amountOutB < amountOutMin) {... */\n    tag_66:\n        /* \"contract/MyDEX.sol\":3765:3774  amountInA */\n      dup6\n        /* \"contract/MyDEX.sol\":3753:3761  reserveA */\n      0x02\n      0x00\n        /* \"contract/MyDEX.sol\":3753:3774  reserveA += amountInA */\n      dup3\n      dup3\n      sload\n      tag_67\n      swap2\n      swap1\n      tag_63\n      jump\t// in\n    tag_67:\n      swap3\n      pop\n      pop\n      dup2\n      swap1\n      sstore\n      pop\n        /* \"contract/MyDEX.sol\":3797:3807  amountOutB */\n      dup1\n        /* \"contract/MyDEX.sol\":3785:3793  reserveB */\n      0x03\n      0x00\n        /* \"contract/MyDEX.sol\":3785:3807  reserveB -= amountOutB */\n      dup3\n      dup3\n      sload\n      tag_68\n      swap2\n      swap1\n      tag_69\n      jump\t// in\n    tag_68:\n      swap1\n      swap2\n      sstore\n      pop\n        /* \"contract/MyDEX.sol\":3865:3926  tokenA.safeTransferFrom(msg.sender, address(this), amountInA) */\n      tag_70\n      swap1\n      pop\n      sub(shl(0xa0, 0x01), 0x01)\n        /* \"contract/MyDEX.sol\":3865:3871  tokenA */\n      immutable(\"0x7705a66c05de96d79dddf8024a7669ad29d5b174f4aa496e3ca7c392f0ca18e1\")\n        /* \"contract/MyDEX.sol\":3865:3888  tokenA.safeTransferFrom */\n      and\n        /* \"contract/MyDEX.sol\":3889:3899  msg.sender */\n      caller\n        /* \"contract/MyDEX.sol\":3909:3913  this */\n      address\n        /* \"contract/MyDEX.sol\":3916:3925  amountInA */\n      dup10\n        /* \"contract/MyDEX.sol\":3865:3888  tokenA.safeTransferFrom */\n      tag_71\n        /* \"contract/MyDEX.sol\":3865:3926  tokenA.safeTransferFrom(msg.sender, address(this), amountInA) */\n      jump\t// in\n    tag_70:\n        /* \"contract/MyDEX.sol\":3937:3980  tokenB.safeTransfer(msg.sender, amountOutB) */\n      tag_72\n      sub(shl(0xa0, 0x01), 0x01)\n        /* \"contract/MyDEX.sol\":3937:3943  tokenB */\n      immutable(\"0xd6ef8874b909555826a0bd255f0f90b2213baaf47b3be996a6aa5118a433e826\")\n        /* \"contract/MyDEX.sol\":3937:3956  tokenB.safeTransfer */\n      and\n        /* \"contract/MyDEX.sol\":3957:3967  msg.sender */\n      caller\n        /* \"contract/MyDEX.sol\":3969:3979  amountOutB */\n      dup4\n        /* \"contract/MyDEX.sol\":3937:3956  tokenB.safeTransfer */\n      tag_73\n        /* \"contract/MyDEX.sol\":3937:3980  tokenB.safeTransfer(msg.sender, amountOutB) */\n      jump\t// in\n    tag_72:\n        /* \"contract/MyDEX.sol\":4132:4138  tokenB */\n      immutable(\"0xd6ef8874b909555826a0bd255f0f90b2213baaf47b3be996a6aa5118a433e826\")\n      sub(shl(0xa0, 0x01), 0x01)\n        /* \"contract/MyDEX.sol\":3998:4150  Swapped(... */\n      and\n        /* \"contract/MyDEX.sol\":4102:4108  tokenA */\n      immutable(\"0x7705a66c05de96d79dddf8024a7669ad29d5b174f4aa496e3ca7c392f0ca18e1\")\n      sub(shl(0xa0, 0x01), 0x01)\n        /* \"contract/MyDEX.sol\":3998:4150  Swapped(... */\n      and\n        /* \"contract/MyDEX.sol\":4020:4030  msg.sender */\n      caller\n      sub(shl(0xa0, 0x01), 0x01)\n        /* \"contract/MyDEX.sol\":3998:4150  Swapped(... */\n      and\n      0xdbee45ea236748b94cfbe4aa4456c6460410d51bc244040093d65457fb4b2850\n        /* \"contract/MyDEX.sol\":4045:4054  amountInA */\n      dup10\n        /* \"contract/MyDEX.sol\":4069:4079  amountOutB */\n      dup6\n        /* \"contract/MyDEX.sol\":3998:4150  Swapped(... */\n      mload(0x40)\n      tag_74\n      swap3\n      swap2\n      swap1\n        /* \"#utility.yul\":2521:2546   */\n      swap2\n      dup3\n      mstore\n        /* \"#utility.yul\":2577:2579   */\n      0x20\n        /* \"#utility.yul\":2562:2580   */\n      dup3\n      add\n        /* \"#utility.yul\":2555:2589   */\n      mstore\n        /* \"#utility.yul\":2509:2511   */\n      0x40\n        /* \"#utility.yul\":2494:2512   */\n      add\n      swap1\n        /* \"#utility.yul\":2347:2595   */\n      jump\n        /* \"contract/MyDEX.sol\":3998:4150  Swapped(... */\n    tag_74:\n      mload(0x40)\n      dup1\n      swap2\n      sub\n      swap1\n      log4\n        /* \"contract/MyDEX.sol\":3117:4158  {... */\n      pop\n      pop\n      pop\n      pop\n        /* \"@openzeppelin/contracts@5.0.0/utils/ReentrancyGuard.sol\":2398:2418  _nonReentrantAfter() */\n      tag_76\n        /* \"@openzeppelin/contracts@5.0.0/utils/ReentrancyGuard.sol\":1713:1714  1 */\n      0x01\n        /* \"@openzeppelin/contracts@5.0.0/utils/ReentrancyGuard.sol\":2924:2931  _status */\n      0x00\n        /* \"@openzeppelin/contracts@5.0.0/utils/ReentrancyGuard.sol\":2924:2945  _status = NOT_ENTERED */\n      sstore\n        /* \"@openzeppelin/contracts@5.0.0/utils/ReentrancyGuard.sol\":2744:2952  function _nonReentrantAfter() private {... */\n      jump\n        /* \"@openzeppelin/contracts@5.0.0/utils/ReentrancyGuard.sol\":2398:2418  _nonReentrantAfter() */\n    tag_76:\n        /* \"contract/MyDEX.sol\":2987:4158  function swapTokenAForTokenB(... */\n      pop\n      pop\n      jump\t// out\n        /* \"contract/MyDEX.sol\":4208:4520  function emergencyWithdraw(IERC20 token) external onlyOwner {... */\n    tag_32:\n        /* \"@openzeppelin/contracts@5.0.0/access/Ownable.sol\":1531:1544  _checkOwner() */\n      tag_79\n        /* \"@openzeppelin/contracts@5.0.0/access/Ownable.sol\":1531:1542  _checkOwner */\n      tag_80\n        /* \"@openzeppelin/contracts@5.0.0/access/Ownable.sol\":1531:1544  _checkOwner() */\n      jump\t// in\n    tag_79:\n        /* \"contract/MyDEX.sol\":4323:4329  tokenA */\n      immutable(\"0x7705a66c05de96d79dddf8024a7669ad29d5b174f4aa496e3ca7c392f0ca18e1\")\n      sub(shl(0xa0, 0x01), 0x01)\n        /* \"contract/MyDEX.sol\":4297:4330  address(token) != address(tokenA) */\n      and\n        /* \"contract/MyDEX.sol\":4305:4310  token */\n      dup2\n      sub(shl(0xa0, 0x01), 0x01)\n        /* \"contract/MyDEX.sol\":4297:4330  address(token) != address(tokenA) */\n      and\n      eq\n      iszero\n        /* \"contract/MyDEX.sol\":4297:4380  address(token) != address(tokenA) &&... */\n      dup1\n      iszero\n      tag_82\n      jumpi\n      pop\n        /* \"contract/MyDEX.sol\":4373:4379  tokenB */\n      immutable(\"0xd6ef8874b909555826a0bd255f0f90b2213baaf47b3be996a6aa5118a433e826\")\n      sub(shl(0xa0, 0x01), 0x01)\n        /* \"contract/MyDEX.sol\":4347:4380  address(token) != address(tokenB) */\n      and\n        /* \"contract/MyDEX.sol\":4355:4360  token */\n      dup2\n      sub(shl(0xa0, 0x01), 0x01)\n        /* \"contract/MyDEX.sol\":4347:4380  address(token) != address(tokenB) */\n      and\n      eq\n      iszero\n        /* \"contract/MyDEX.sol\":4297:4380  address(token) != address(tokenA) &&... */\n    tag_82:\n        /* \"contract/MyDEX.sol\":4279:4440  if (... */\n      iszero\n      tag_83\n      jumpi\n        /* \"contract/MyDEX.sol\":4414:4428  InvalidToken() */\n      mload(0x40)\n      shl(0xe0, 0xc1ab6dc1)\n      dup2\n      mstore\n      0x04\n      add\n      mload(0x40)\n      dup1\n      swap2\n      sub\n      swap1\n      revert\n        /* \"contract/MyDEX.sol\":4279:4440  if (... */\n    tag_83:\n        /* \"contract/MyDEX.sol\":4481:4511  token.balanceOf(address(this)) */\n      mload(0x40)\n      shl(0xe0, 0x70a08231)\n      dup2\n      mstore\n        /* \"contract/MyDEX.sol\":4505:4509  this */\n      address\n        /* \"contract/MyDEX.sol\":4481:4511  token.balanceOf(address(this)) */\n      0x04\n      dup3\n      add\n        /* \"#utility.yul\":174:225   */\n      mstore\n        /* \"contract/MyDEX.sol\":4450:4512  token.safeTransfer(msg.sender, token.balanceOf(address(this))) */\n      tag_84\n      swap1\n        /* \"contract/MyDEX.sol\":4469:4479  msg.sender */\n      caller\n      swap1\n      sub(shl(0xa0, 0x01), 0x01)\n        /* \"contract/MyDEX.sol\":4481:4496  token.balanceOf */\n      dup5\n      and\n      swap1\n      0x70a08231\n      swap1\n        /* \"#utility.yul\":147:165   */\n      0x24\n      add\n        /* \"contract/MyDEX.sol\":4481:4511  token.balanceOf(address(this)) */\n      0x20\n      mload(0x40)\n      dup1\n      dup4\n      sub\n      dup2\n      dup7\n      gas\n      staticcall\n      iszero\n      dup1\n      iszero\n      tag_87\n      jumpi\n      returndatasize\n      0x00\n      dup1\n      returndatacopy\n      revert(0x00, returndatasize)\n    tag_87:\n      pop\n      pop\n      pop\n      pop\n      mload(0x40)\n      returndatasize\n      not(0x1f)\n      0x1f\n      dup3\n      add\n      and\n      dup3\n      add\n      dup1\n      0x40\n      mstore\n      pop\n      dup2\n      add\n      swap1\n      tag_88\n      swap2\n      swap1\n      tag_89\n      jump\t// in\n    tag_88:\n      sub(shl(0xa0, 0x01), 0x01)\n        /* \"contract/MyDEX.sol\":4450:4468  token.safeTransfer */\n      dup5\n      and\n      swap2\n        /* \"contract/MyDEX.sol\":4450:4512  token.safeTransfer(msg.sender, token.balanceOf(address(this))) */\n      swap1\n        /* \"contract/MyDEX.sol\":4450:4468  token.safeTransfer */\n      tag_73\n        /* \"contract/MyDEX.sol\":4450:4512  token.safeTransfer(msg.sender, token.balanceOf(address(this))) */\n      jump\t// in\n    tag_84:\n        /* \"contract/MyDEX.sol\":4208:4520  function emergencyWithdraw(IERC20 token) external onlyOwner {... */\n      pop\n      jump\t// out\n        /* \"@openzeppelin/contracts@5.0.0/access/Ownable.sol\":2293:2394  function renounceOwnership() public virtual onlyOwner {... */\n    tag_34:\n        /* \"@openzeppelin/contracts@5.0.0/access/Ownable.sol\":1531:1544  _checkOwner() */\n      tag_91\n        /* \"@openzeppelin/contracts@5.0.0/access/Ownable.sol\":1531:1542  _checkOwner */\n      tag_80\n        /* \"@openzeppelin/contracts@5.0.0/access/Ownable.sol\":1531:1544  _checkOwner() */\n      jump\t// in\n    tag_91:\n        /* \"@openzeppelin/contracts@5.0.0/access/Ownable.sol\":2357:2387  _transferOwnership(address(0)) */\n      tag_93\n        /* \"@openzeppelin/contracts@5.0.0/access/Ownable.sol\":2384:2385  0 */\n      0x00\n        /* \"@openzeppelin/contracts@5.0.0/access/Ownable.sol\":2357:2375  _transferOwnership */\n      tag_94\n        /* \"@openzeppelin/contracts@5.0.0/access/Ownable.sol\":2357:2387  _transferOwnership(address(0)) */\n      jump\t// in\n    tag_93:\n        /* \"@openzeppelin/contracts@5.0.0/access/Ownable.sol\":2293:2394  function renounceOwnership() public virtual onlyOwner {... */\n      jump\t// out\n        /* \"contract/MyDEX.sol\":2171:2710  function addLiquidity(... */\n    tag_41:\n        /* \"@openzeppelin/contracts@5.0.0/utils/ReentrancyGuard.sol\":2356:2377  _nonReentrantBefore() */\n      tag_97\n        /* \"@openzeppelin/contracts@5.0.0/utils/ReentrancyGuard.sol\":2356:2375  _nonReentrantBefore */\n      tag_51\n        /* \"@openzeppelin/contracts@5.0.0/utils/ReentrancyGuard.sol\":2356:2377  _nonReentrantBefore() */\n      jump\t// in\n    tag_97:\n        /* \"contract/MyDEX.sol\":2289:2301  amountA == 0 */\n      dup2\n      iszero\n      dup1\n        /* \"contract/MyDEX.sol\":2289:2317  amountA == 0 || amountB == 0 */\n      tag_99\n      jumpi\n      pop\n        /* \"contract/MyDEX.sol\":2305:2317  amountB == 0 */\n      dup1\n      iszero\n        /* \"contract/MyDEX.sol\":2289:2317  amountA == 0 || amountB == 0 */\n    tag_99:\n        /* \"contract/MyDEX.sol\":2285:2365  if (amountA == 0 || amountB == 0) {... */\n      iszero\n      tag_100\n      jumpi\n        /* \"contract/MyDEX.sol\":2341:2353  ZeroAmount() */\n      mload(0x40)\n      shl(0xe0, 0x1f2a2005)\n      dup2\n      mstore\n      0x04\n      add\n      mload(0x40)\n      dup1\n      swap2\n      sub\n      swap1\n      revert\n        /* \"contract/MyDEX.sol\":2285:2365  if (amountA == 0 || amountB == 0) {... */\n    tag_100:\n        /* \"contract/MyDEX.sol\":2417:2424  amountA */\n      dup2\n        /* \"contract/MyDEX.sol\":2405:2413  reserveA */\n      0x02\n      0x00\n        /* \"contract/MyDEX.sol\":2405:2424  reserveA += amountA */\n      dup3\n      dup3\n      sload\n      tag_101\n      swap2\n      swap1\n      tag_63\n      jump\t// in\n    tag_101:\n      swap3\n      pop\n      pop\n      dup2\n      swap1\n      sstore\n      pop\n        /* \"contract/MyDEX.sol\":2447:2454  amountB */\n      dup1\n        /* \"contract/MyDEX.sol\":2435:2443  reserveB */\n      0x03\n      0x00\n        /* \"contract/MyDEX.sol\":2435:2454  reserveB += amountB */\n      dup3\n      dup3\n      sload\n      tag_102\n      swap2\n      swap1\n      tag_63\n      jump\t// in\n    tag_102:\n      swap1\n      swap2\n      sstore\n      pop\n        /* \"contract/MyDEX.sol\":2511:2570  tokenA.safeTransferFrom(msg.sender, address(this), amountA) */\n      tag_103\n      swap1\n      pop\n      sub(shl(0xa0, 0x01), 0x01)\n        /* \"contract/MyDEX.sol\":2511:2517  tokenA */\n      immutable(\"0x7705a66c05de96d79dddf8024a7669ad29d5b174f4aa496e3ca7c392f0ca18e1\")\n        /* \"contract/MyDEX.sol\":2511:2534  tokenA.safeTransferFrom */\n      and\n        /* \"contract/MyDEX.sol\":2535:2545  msg.sender */\n      caller\n        /* \"contract/MyDEX.sol\":2555:2559  this */\n      address\n        /* \"contract/MyDEX.sol\":2562:2569  amountA */\n      dup6\n        /* \"contract/MyDEX.sol\":2511:2534  tokenA.safeTransferFrom */\n      tag_71\n        /* \"contract/MyDEX.sol\":2511:2570  tokenA.safeTransferFrom(msg.sender, address(this), amountA) */\n      jump\t// in\n    tag_103:\n        /* \"contract/MyDEX.sol\":2581:2640  tokenB.safeTransferFrom(msg.sender, address(this), amountB) */\n      tag_104\n      sub(shl(0xa0, 0x01), 0x01)\n        /* \"contract/MyDEX.sol\":2581:2587  tokenB */\n      immutable(\"0xd6ef8874b909555826a0bd255f0f90b2213baaf47b3be996a6aa5118a433e826\")\n        /* \"contract/MyDEX.sol\":2581:2604  tokenB.safeTransferFrom */\n      and\n        /* \"contract/MyDEX.sol\":2605:2615  msg.sender */\n      caller\n        /* \"contract/MyDEX.sol\":2625:2629  this */\n      address\n        /* \"contract/MyDEX.sol\":2632:2639  amountB */\n      dup5\n        /* \"contract/MyDEX.sol\":2581:2604  tokenB.safeTransferFrom */\n      tag_71\n        /* \"contract/MyDEX.sol\":2581:2640  tokenB.safeTransferFrom(msg.sender, address(this), amountB) */\n      jump\t// in\n    tag_104:\n        /* \"contract/MyDEX.sol\":2658:2702  LiquidityAdded(msg.sender, amountA, amountB) */\n      0x40\n      dup1\n      mload\n        /* \"#utility.yul\":2521:2546   */\n      dup4\n      dup2\n      mstore\n        /* \"#utility.yul\":2577:2579   */\n      0x20\n        /* \"#utility.yul\":2562:2580   */\n      dup2\n      add\n        /* \"#utility.yul\":2555:2589   */\n      dup4\n      swap1\n      mstore\n        /* \"contract/MyDEX.sol\":2673:2683  msg.sender */\n      caller\n      swap2\n        /* \"contract/MyDEX.sol\":2658:2702  LiquidityAdded(msg.sender, amountA, amountB) */\n      0xac1d76749e5447b7b16f5ab61447e1bd502f3bb4807af3b28e620d1700a6ee45\n      swap2\n        /* \"#utility.yul\":2494:2512   */\n      add\n        /* \"contract/MyDEX.sol\":2658:2702  LiquidityAdded(msg.sender, amountA, amountB) */\n      mload(0x40)\n      dup1\n      swap2\n      sub\n      swap1\n      log2\n        /* \"@openzeppelin/contracts@5.0.0/utils/ReentrancyGuard.sol\":2398:2418  _nonReentrantAfter() */\n      tag_76\n        /* \"@openzeppelin/contracts@5.0.0/utils/ReentrancyGuard.sol\":1713:1714  1 */\n      0x01\n        /* \"@openzeppelin/contracts@5.0.0/utils/ReentrancyGuard.sol\":2924:2931  _status */\n      0x00\n        /* \"@openzeppelin/contracts@5.0.0/utils/ReentrancyGuard.sol\":2924:2945  _status = NOT_ENTERED */\n      sstore\n        /* \"@openzeppelin/contracts@5.0.0/utils/ReentrancyGuard.sol\":2744:2952  function _nonReentrantAfter() private {... */\n      jump\n        /* \"@openzeppelin/contracts@5.0.0/access/Ownable.sol\":2543:2758  function transferOwnership(address newOwner) public virtual onlyOwner {... */\n    tag_48:\n        /* \"@openzeppelin/contracts@5.0.0/access/Ownable.sol\":1531:1544  _checkOwner() */\n      tag_108\n        /* \"@openzeppelin/contracts@5.0.0/access/Ownable.sol\":1531:1542  _checkOwner */\n      tag_80\n        /* \"@openzeppelin/contracts@5.0.0/access/Ownable.sol\":1531:1544  _checkOwner() */\n      jump\t// in\n    tag_108:\n      sub(shl(0xa0, 0x01), 0x01)\n        /* \"@openzeppelin/contracts@5.0.0/access/Ownable.sol\":2627:2649  newOwner == address(0) */\n      dup2\n      and\n        /* \"@openzeppelin/contracts@5.0.0/access/Ownable.sol\":2623:2714  if (newOwner == address(0)) {... */\n      tag_110\n      jumpi\n        /* \"@openzeppelin/contracts@5.0.0/access/Ownable.sol\":2672:2703  OwnableInvalidOwner(address(0)) */\n      mload(0x40)\n      shl(0xe0, 0x1e4fbdf7)\n      dup2\n      mstore\n        /* \"@openzeppelin/contracts@5.0.0/access/Ownable.sol\":2700:2701  0 */\n      0x00\n        /* \"@openzeppelin/contracts@5.0.0/access/Ownable.sol\":2672:2703  OwnableInvalidOwner(address(0)) */\n      0x04\n      dup3\n      add\n        /* \"#utility.yul\":174:225   */\n      mstore\n        /* \"#utility.yul\":147:165   */\n      0x24\n      add\n        /* \"@openzeppelin/contracts@5.0.0/access/Ownable.sol\":2672:2703  OwnableInvalidOwner(address(0)) */\n    tag_111:\n      mload(0x40)\n      dup1\n      swap2\n      sub\n      swap1\n      revert\n        /* \"@openzeppelin/contracts@5.0.0/access/Ownable.sol\":2623:2714  if (newOwner == address(0)) {... */\n    tag_110:\n        /* \"@openzeppelin/contracts@5.0.0/access/Ownable.sol\":2723:2751  _transferOwnership(newOwner) */\n      tag_84\n        /* \"@openzeppelin/contracts@5.0.0/access/Ownable.sol\":2742:2750  newOwner */\n      dup2\n        /* \"@openzeppelin/contracts@5.0.0/access/Ownable.sol\":2723:2741  _transferOwnership */\n      tag_94\n        /* \"@openzeppelin/contracts@5.0.0/access/Ownable.sol\":2723:2751  _transferOwnership(newOwner) */\n      jump\t// in\n        /* \"@openzeppelin/contracts@5.0.0/utils/ReentrancyGuard.sol\":2431:2738  function _nonReentrantBefore() private {... */\n    tag_51:\n        /* \"@openzeppelin/contracts@5.0.0/utils/ReentrancyGuard.sol\":1755:1756  2 */\n      0x02\n        /* \"@openzeppelin/contracts@5.0.0/utils/ReentrancyGuard.sol\":2558:2565  _status */\n      sload(0x00)\n        /* \"@openzeppelin/contracts@5.0.0/utils/ReentrancyGuard.sol\":2558:2576  _status == ENTERED */\n      sub\n        /* \"@openzeppelin/contracts@5.0.0/utils/ReentrancyGuard.sol\":2554:2640  if (_status == ENTERED) {... */\n      tag_114\n      jumpi\n        /* \"@openzeppelin/contracts@5.0.0/utils/ReentrancyGuard.sol\":2599:2629  ReentrancyGuardReentrantCall() */\n      mload(0x40)\n      shl(0xe0, 0x3ee5aeb5)\n      dup2\n      mstore\n      0x04\n      add\n      mload(0x40)\n      dup1\n      swap2\n      sub\n      swap1\n      revert\n        /* \"@openzeppelin/contracts@5.0.0/utils/ReentrancyGuard.sol\":2554:2640  if (_status == ENTERED) {... */\n    tag_114:\n        /* \"@openzeppelin/contracts@5.0.0/utils/ReentrancyGuard.sol\":1755:1756  2 */\n      0x02\n        /* \"@openzeppelin/contracts@5.0.0/utils/ReentrancyGuard.sol\":2714:2721  _status */\n      0x00\n        /* \"@openzeppelin/contracts@5.0.0/utils/ReentrancyGuard.sol\":2714:2731  _status = ENTERED */\n      sstore\n        /* \"@openzeppelin/contracts@5.0.0/utils/ReentrancyGuard.sol\":2431:2738  function _nonReentrantBefore() private {... */\n      jump\t// out\n        /* \"@openzeppelin/contracts@5.0.0/token/ERC20/utils/SafeERC20.sol\":1702:1890  function safeTransferFrom(IERC20 token, address from, address to, uint256 value) internal {... */\n    tag_71:\n        /* \"@openzeppelin/contracts@5.0.0/token/ERC20/utils/SafeERC20.sol\":1829:1882  abi.encodeCall(token.transferFrom, (from, to, value)) */\n      mload(0x40)\n      sub(shl(0xa0, 0x01), 0x01)\n        /* \"#utility.yul\":3047:3062   */\n      dup5\n      dup2\n      and\n        /* \"@openzeppelin/contracts@5.0.0/token/ERC20/utils/SafeERC20.sol\":1829:1882  abi.encodeCall(token.transferFrom, (from, to, value)) */\n      0x24\n      dup4\n      add\n        /* \"#utility.yul\":3029:3063   */\n      mstore\n        /* \"#utility.yul\":3099:3114   */\n      dup4\n      dup2\n      and\n        /* \"#utility.yul\":3079:3097   */\n      0x44\n      dup4\n      add\n        /* \"#utility.yul\":3072:3115   */\n      mstore\n        /* \"#utility.yul\":3131:3149   */\n      0x64\n      dup3\n      add\n        /* \"#utility.yul\":3124:3158   */\n      dup4\n      swap1\n      mstore\n        /* \"@openzeppelin/contracts@5.0.0/token/ERC20/utils/SafeERC20.sol\":1802:1883  _callOptionalReturn(token, abi.encodeCall(token.transferFrom, (from, to, value))) */\n      tag_116\n      swap2\n        /* \"@openzeppelin/contracts@5.0.0/token/ERC20/utils/SafeERC20.sol\":1822:1827  token */\n      dup7\n      swap2\n        /* \"@openzeppelin/contracts@5.0.0/token/ERC20/utils/SafeERC20.sol\":1844:1862  token.transferFrom */\n      dup3\n      and\n      swap1\n      0x23b872dd\n      swap1\n        /* \"#utility.yul\":2964:2982   */\n      0x84\n      add\n        /* \"@openzeppelin/contracts@5.0.0/token/ERC20/utils/SafeERC20.sol\":1829:1882  abi.encodeCall(token.transferFrom, (from, to, value)) */\n    tag_117:\n      mload(0x40)\n      0x20\n      dup2\n      dup4\n      sub\n      sub\n      dup2\n      mstore\n      swap1\n      0x40\n      mstore\n      swap2\n      pop\n      0xe0\n      shl\n      0x20\n      dup3\n      add\n      dup1\n      mload\n      sub(shl(0xe0, 0x01), 0x01)\n      dup4\n      dup2\n      dup4\n      and\n      or\n      dup4\n      mstore\n      pop\n      pop\n      pop\n      pop\n        /* \"@openzeppelin/contracts@5.0.0/token/ERC20/utils/SafeERC20.sol\":1802:1821  _callOptionalReturn */\n      tag_119\n        /* \"@openzeppelin/contracts@5.0.0/token/ERC20/utils/SafeERC20.sol\":1802:1883  _callOptionalReturn(token, abi.encodeCall(token.transferFrom, (from, to, value))) */\n      jump\t// in\n    tag_116:\n        /* \"@openzeppelin/contracts@5.0.0/token/ERC20/utils/SafeERC20.sol\":1702:1890  function safeTransferFrom(IERC20 token, address from, address to, uint256 value) internal {... */\n      pop\n      pop\n      pop\n      pop\n      jump\t// out\n        /* \"@openzeppelin/contracts@5.0.0/token/ERC20/utils/SafeERC20.sol\":1303:1463  function safeTransfer(IERC20 token, address to, uint256 value) internal {... */\n    tag_73:\n        /* \"@openzeppelin/contracts@5.0.0/token/ERC20/utils/SafeERC20.sol\":1412:1455  abi.encodeCall(token.transfer, (to, value)) */\n      mload(0x40)\n      sub(shl(0xa0, 0x01), 0x01)\n        /* \"#utility.yul\":3361:3393   */\n      dup4\n      dup2\n      and\n        /* \"@openzeppelin/contracts@5.0.0/token/ERC20/utils/SafeERC20.sol\":1412:1455  abi.encodeCall(token.transfer, (to, value)) */\n      0x24\n      dup4\n      add\n        /* \"#utility.yul\":3343:3394   */\n      mstore\n        /* \"#utility.yul\":3410:3428   */\n      0x44\n      dup3\n      add\n        /* \"#utility.yul\":3403:3437   */\n      dup4\n      swap1\n      mstore\n        /* \"@openzeppelin/contracts@5.0.0/token/ERC20/utils/SafeERC20.sol\":1385:1456  _callOptionalReturn(token, abi.encodeCall(token.transfer, (to, value))) */\n      tag_121\n      swap2\n        /* \"@openzeppelin/contracts@5.0.0/token/ERC20/utils/SafeERC20.sol\":1405:1410  token */\n      dup6\n      swap2\n        /* \"@openzeppelin/contracts@5.0.0/token/ERC20/utils/SafeERC20.sol\":1427:1441  token.transfer */\n      dup3\n      and\n      swap1\n      0xa9059cbb\n      swap1\n        /* \"#utility.yul\":3316:3334   */\n      0x64\n      add\n        /* \"@openzeppelin/contracts@5.0.0/token/ERC20/utils/SafeERC20.sol\":1412:1455  abi.encodeCall(token.transfer, (to, value)) */\n      tag_117\n        /* \"#utility.yul\":3169:3443   */\n      jump\n        /* \"@openzeppelin/contracts@5.0.0/token/ERC20/utils/SafeERC20.sol\":1385:1456  _callOptionalReturn(token, abi.encodeCall(token.transfer, (to, value))) */\n    tag_121:\n        /* \"@openzeppelin/contracts@5.0.0/token/ERC20/utils/SafeERC20.sol\":1303:1463  function safeTransfer(IERC20 token, address to, uint256 value) internal {... */\n      pop\n      pop\n      pop\n      jump\t// out\n        /* \"@openzeppelin/contracts@5.0.0/access/Ownable.sol\":1796:1958  function _checkOwner() internal view virtual {... */\n    tag_80:\n        /* \"@openzeppelin/contracts@5.0.0/access/Ownable.sol\":1710:1716  _owner */\n      and(sub(shl(0xa0, 0x01), 0x01), sload(0x01))\n        /* \"@openzeppelin/contracts@5.0.0/utils/Context.sol\":735:745  msg.sender */\n      caller\n        /* \"@openzeppelin/contracts@5.0.0/access/Ownable.sol\":1855:1878  owner() != _msgSender() */\n      eq\n        /* \"@openzeppelin/contracts@5.0.0/access/Ownable.sol\":1851:1952  if (owner() != _msgSender()) {... */\n      tag_93\n      jumpi\n        /* \"@openzeppelin/contracts@5.0.0/access/Ownable.sol\":1901:1941  OwnableUnauthorizedAccount(_msgSender()) */\n      mload(0x40)\n      shl(0xe0, 0x118cdaa7)\n      dup2\n      mstore\n        /* \"@openzeppelin/contracts@5.0.0/utils/Context.sol\":735:745  msg.sender */\n      caller\n        /* \"@openzeppelin/contracts@5.0.0/access/Ownable.sol\":1901:1941  OwnableUnauthorizedAccount(_msgSender()) */\n      0x04\n      dup3\n      add\n        /* \"#utility.yul\":174:225   */\n      mstore\n        /* \"#utility.yul\":147:165   */\n      0x24\n      add\n        /* \"@openzeppelin/contracts@5.0.0/access/Ownable.sol\":1901:1941  OwnableUnauthorizedAccount(_msgSender()) */\n      tag_111\n        /* \"#utility.yul\":14:231   */\n      jump\n        /* \"@openzeppelin/contracts@5.0.0/access/Ownable.sol\":2912:3099  function _transferOwnership(address newOwner) internal virtual {... */\n    tag_94:\n        /* \"@openzeppelin/contracts@5.0.0/access/Ownable.sol\":3004:3010  _owner */\n      0x01\n      dup1\n      sload\n      sub(shl(0xa0, 0x01), 0x01)\n        /* \"@openzeppelin/contracts@5.0.0/access/Ownable.sol\":3020:3037  _owner = newOwner */\n      dup4\n      dup2\n      and\n      not(sub(shl(0xa0, 0x01), 0x01))\n      dup4\n      and\n      dup2\n      or\n      swap1\n      swap4\n      sstore\n        /* \"@openzeppelin/contracts@5.0.0/access/Ownable.sol\":3052:3092  OwnershipTransferred(oldOwner, newOwner) */\n      mload(0x40)\n        /* \"@openzeppelin/contracts@5.0.0/access/Ownable.sol\":3004:3010  _owner */\n      swap2\n      and\n      swap2\n        /* \"@openzeppelin/contracts@5.0.0/access/Ownable.sol\":3020:3037  _owner = newOwner */\n      swap1\n        /* \"@openzeppelin/contracts@5.0.0/access/Ownable.sol\":3004:3010  _owner */\n      dup3\n      swap1\n        /* \"@openzeppelin/contracts@5.0.0/access/Ownable.sol\":3052:3092  OwnershipTransferred(oldOwner, newOwner) */\n      0x8be0079c531659141344cd1fd0a4f28419497f9722a3daafe3b4186f6b6457e0\n      swap1\n        /* \"@openzeppelin/contracts@5.0.0/access/Ownable.sol\":2985:3001  address oldOwner */\n      0x00\n      swap1\n        /* \"@openzeppelin/contracts@5.0.0/access/Ownable.sol\":3052:3092  OwnershipTransferred(oldOwner, newOwner) */\n      log3\n        /* \"@openzeppelin/contracts@5.0.0/access/Ownable.sol\":2975:3099  {... */\n      pop\n        /* \"@openzeppelin/contracts@5.0.0/access/Ownable.sol\":2912:3099  function _transferOwnership(address newOwner) internal virtual {... */\n      pop\n      jump\t// out\n        /* \"@openzeppelin/contracts@5.0.0/token/ERC20/utils/SafeERC20.sol\":4059:4688  function _callOptionalReturn(IERC20 token, bytes memory data) private {... */\n    tag_119:\n        /* \"@openzeppelin/contracts@5.0.0/token/ERC20/utils/SafeERC20.sol\":4478:4501  bytes memory returndata */\n      0x00\n        /* \"@openzeppelin/contracts@5.0.0/token/ERC20/utils/SafeERC20.sol\":4504:4537  address(token).functionCall(data) */\n      tag_134\n      sub(shl(0xa0, 0x01), 0x01)\n        /* \"@openzeppelin/contracts@5.0.0/token/ERC20/utils/SafeERC20.sol\":4504:4531  address(token).functionCall */\n      dup5\n      and\n        /* \"@openzeppelin/contracts@5.0.0/token/ERC20/utils/SafeERC20.sol\":4532:4536  data */\n      dup4\n        /* \"@openzeppelin/contracts@5.0.0/token/ERC20/utils/SafeERC20.sol\":4504:4531  address(token).functionCall */\n      tag_135\n        /* \"@openzeppelin/contracts@5.0.0/token/ERC20/utils/SafeERC20.sol\":4504:4537  address(token).functionCall(data) */\n      jump\t// in\n    tag_134:\n        /* \"@openzeppelin/contracts@5.0.0/token/ERC20/utils/SafeERC20.sol\":4478:4537  bytes memory returndata = address(token).functionCall(data) */\n      swap1\n      pop\n        /* \"@openzeppelin/contracts@5.0.0/token/ERC20/utils/SafeERC20.sol\":4551:4561  returndata */\n      dup1\n        /* \"@openzeppelin/contracts@5.0.0/token/ERC20/utils/SafeERC20.sol\":4551:4568  returndata.length */\n      mload\n        /* \"@openzeppelin/contracts@5.0.0/token/ERC20/utils/SafeERC20.sol\":4572:4573  0 */\n      0x00\n        /* \"@openzeppelin/contracts@5.0.0/token/ERC20/utils/SafeERC20.sol\":4551:4573  returndata.length != 0 */\n      eq\n      iszero\n        /* \"@openzeppelin/contracts@5.0.0/token/ERC20/utils/SafeERC20.sol\":4551:4608  returndata.length != 0 && !abi.decode(returndata, (bool)) */\n      dup1\n      iszero\n      tag_136\n      jumpi\n      pop\n        /* \"@openzeppelin/contracts@5.0.0/token/ERC20/utils/SafeERC20.sol\":4589:4599  returndata */\n      dup1\n        /* \"@openzeppelin/contracts@5.0.0/token/ERC20/utils/SafeERC20.sol\":4578:4608  abi.decode(returndata, (bool)) */\n      dup1\n      0x20\n      add\n      swap1\n      mload\n      dup2\n      add\n      swap1\n      tag_137\n      swap2\n      swap1\n      tag_138\n      jump\t// in\n    tag_137:\n        /* \"@openzeppelin/contracts@5.0.0/token/ERC20/utils/SafeERC20.sol\":4577:4608  !abi.decode(returndata, (bool)) */\n      iszero\n        /* \"@openzeppelin/contracts@5.0.0/token/ERC20/utils/SafeERC20.sol\":4551:4608  returndata.length != 0 && !abi.decode(returndata, (bool)) */\n    tag_136:\n        /* \"@openzeppelin/contracts@5.0.0/token/ERC20/utils/SafeERC20.sol\":4547:4682  if (returndata.length != 0 && !abi.decode(returndata, (bool))) {... */\n      iszero\n      tag_121\n      jumpi\n        /* \"@openzeppelin/contracts@5.0.0/token/ERC20/utils/SafeERC20.sol\":4631:4671  SafeERC20FailedOperation(address(token)) */\n      mload(0x40)\n      shl(0xe0, 0x5274afe7)\n      dup2\n      mstore\n      sub(shl(0xa0, 0x01), 0x01)\n        /* \"#utility.yul\":192:224   */\n      dup5\n      and\n        /* \"@openzeppelin/contracts@5.0.0/token/ERC20/utils/SafeERC20.sol\":4631:4671  SafeERC20FailedOperation(address(token)) */\n      0x04\n      dup3\n      add\n        /* \"#utility.yul\":174:225   */\n      mstore\n        /* \"#utility.yul\":147:165   */\n      0x24\n      add\n        /* \"@openzeppelin/contracts@5.0.0/token/ERC20/utils/SafeERC20.sol\":4631:4671  SafeERC20FailedOperation(address(token)) */\n      tag_111\n        /* \"#utility.yul\":14:231   */\n      jump\n        /* \"@openzeppelin/contracts@5.0.0/utils/Address.sol\":2705:2856  function functionCall(address target, bytes memory data) internal returns (bytes memory) {... */\n    tag_135:\n        /* \"@openzeppelin/contracts@5.0.0/utils/Address.sol\":2780:2792  bytes memory */\n      0x60\n        /* \"@openzeppelin/contracts@5.0.0/utils/Address.sol\":2811:2849  functionCallWithValue(target, data, 0) */\n      tag_143\n        /* \"@openzeppelin/contracts@5.0.0/utils/Address.sol\":2833:2839  target */\n      dup4\n        /* \"@openzeppelin/contracts@5.0.0/utils/Address.sol\":2841:2845  data */\n      dup4\n        /* \"@openzeppelin/contracts@5.0.0/utils/Address.sol\":2847:2848  0 */\n      0x00\n        /* \"@openzeppelin/contracts@5.0.0/utils/Address.sol\":2811:2832  functionCallWithValue */\n      tag_144\n        /* \"@openzeppelin/contracts@5.0.0/utils/Address.sol\":2811:2849  functionCallWithValue(target, data, 0) */\n      jump\t// in\n    tag_143:\n        /* \"@openzeppelin/contracts@5.0.0/utils/Address.sol\":2804:2849  return functionCallWithValue(target, data, 0) */\n      swap1\n      pop\n        /* \"@openzeppelin/contracts@5.0.0/utils/Address.sol\":2705:2856  function functionCall(address target, bytes memory data) internal returns (bytes memory) {... */\n    tag_142:\n      swap3\n      swap2\n      pop\n      pop\n      jump\t// out\n        /* \"@openzeppelin/contracts@5.0.0/utils/Address.sol\":3180:3572  function functionCallWithValue(address target, bytes memory data, uint256 value) internal returns (bytes memory) {... */\n    tag_144:\n        /* \"@openzeppelin/contracts@5.0.0/utils/Address.sol\":3279:3291  bytes memory */\n      0x60\n        /* \"@openzeppelin/contracts@5.0.0/utils/Address.sol\":3331:3336  value */\n      dup2\n        /* \"@openzeppelin/contracts@5.0.0/utils/Address.sol\":3307:3328  address(this).balance */\n      selfbalance\n        /* \"@openzeppelin/contracts@5.0.0/utils/Address.sol\":3307:3336  address(this).balance < value */\n      lt\n        /* \"@openzeppelin/contracts@5.0.0/utils/Address.sol\":3303:3411  if (address(this).balance < value) {... */\n      iszero\n      tag_146\n      jumpi\n        /* \"@openzeppelin/contracts@5.0.0/utils/Address.sol\":3359:3400  AddressInsufficientBalance(address(this)) */\n      mload(0x40)\n      shl(0xe0, 0xcd786059)\n      dup2\n      mstore\n        /* \"@openzeppelin/contracts@5.0.0/utils/Address.sol\":3394:3398  this */\n      address\n        /* \"@openzeppelin/contracts@5.0.0/utils/Address.sol\":3359:3400  AddressInsufficientBalance(address(this)) */\n      0x04\n      dup3\n      add\n        /* \"#utility.yul\":174:225   */\n      mstore\n        /* \"#utility.yul\":147:165   */\n      0x24\n      add\n        /* \"@openzeppelin/contracts@5.0.0/utils/Address.sol\":3359:3400  AddressInsufficientBalance(address(this)) */\n      tag_111\n        /* \"#utility.yul\":14:231   */\n      jump\n        /* \"@openzeppelin/contracts@5.0.0/utils/Address.sol\":3303:3411  if (address(this).balance < value) {... */\n    tag_146:\n        /* \"@openzeppelin/contracts@5.0.0/utils/Address.sol\":3421:3433  bool success */\n      0x00\n        /* \"@openzeppelin/contracts@5.0.0/utils/Address.sol\":3435:3458  bytes memory returndata */\n      dup1\n        /* \"@openzeppelin/contracts@5.0.0/utils/Address.sol\":3462:3468  target */\n      dup6\n      sub(shl(0xa0, 0x01), 0x01)\n        /* \"@openzeppelin/contracts@5.0.0/utils/Address.sol\":3462:3473  target.call */\n      and\n        /* \"@openzeppelin/contracts@5.0.0/utils/Address.sol\":3481:3486  value */\n      dup5\n        /* \"@openzeppelin/contracts@5.0.0/utils/Address.sol\":3488:3492  data */\n      dup7\n        /* \"@openzeppelin/contracts@5.0.0/utils/Address.sol\":3462:3493  target.call{value: value}(data) */\n      mload(0x40)\n      tag_148\n      swap2\n      swap1\n      tag_149\n      jump\t// in\n    tag_148:\n      0x00\n      mload(0x40)\n      dup1\n      dup4\n      sub\n      dup2\n      dup6\n      dup8\n      gas\n      call\n      swap3\n      pop\n      pop\n      pop\n      returndatasize\n      dup1\n      0x00\n      dup2\n      eq\n      tag_152\n      jumpi\n      mload(0x40)\n      swap2\n      pop\n      and(add(returndatasize, 0x3f), not(0x1f))\n      dup3\n      add\n      0x40\n      mstore\n      returndatasize\n      dup3\n      mstore\n      returndatasize\n      0x00\n      0x20\n      dup5\n      add\n      returndatacopy\n      jump(tag_151)\n    tag_152:\n      0x60\n      swap2\n      pop\n    tag_151:\n      pop\n        /* \"@openzeppelin/contracts@5.0.0/utils/Address.sol\":3420:3493  (bool success, bytes memory returndata) = target.call{value: value}(data) */\n      swap2\n      pop\n      swap2\n      pop\n        /* \"@openzeppelin/contracts@5.0.0/utils/Address.sol\":3510:3565  verifyCallResultFromTarget(target, success, returndata) */\n      tag_153\n        /* \"@openzeppelin/contracts@5.0.0/utils/Address.sol\":3537:3543  target */\n      dup7\n        /* \"@openzeppelin/contracts@5.0.0/utils/Address.sol\":3545:3552  success */\n      dup4\n        /* \"@openzeppelin/contracts@5.0.0/utils/Address.sol\":3554:3564  returndata */\n      dup4\n        /* \"@openzeppelin/contracts@5.0.0/utils/Address.sol\":3510:3536  verifyCallResultFromTarget */\n      tag_154\n        /* \"@openzeppelin/contracts@5.0.0/utils/Address.sol\":3510:3565  verifyCallResultFromTarget(target, success, returndata) */\n      jump\t// in\n    tag_153:\n        /* \"@openzeppelin/contracts@5.0.0/utils/Address.sol\":3503:3565  return verifyCallResultFromTarget(target, success, returndata) */\n      swap3\n      pop\n      pop\n      pop\n        /* \"@openzeppelin/contracts@5.0.0/utils/Address.sol\":3180:3572  function functionCallWithValue(address target, bytes memory data, uint256 value) internal returns (bytes memory) {... */\n    tag_145:\n      swap4\n      swap3\n      pop\n      pop\n      pop\n      jump\t// out\n        /* \"@openzeppelin/contracts@5.0.0/utils/Address.sol\":4625:5207  function verifyCallResultFromTarget(... */\n    tag_154:\n        /* \"@openzeppelin/contracts@5.0.0/utils/Address.sol\":4769:4781  bytes memory */\n      0x60\n        /* \"@openzeppelin/contracts@5.0.0/utils/Address.sol\":4798:4805  success */\n      dup3\n        /* \"@openzeppelin/contracts@5.0.0/utils/Address.sol\":4793:5201  if (!success) {... */\n      tag_156\n      jumpi\n        /* \"@openzeppelin/contracts@5.0.0/utils/Address.sol\":4821:4840  _revert(returndata) */\n      tag_157\n        /* \"@openzeppelin/contracts@5.0.0/utils/Address.sol\":4829:4839  returndata */\n      dup3\n        /* \"@openzeppelin/contracts@5.0.0/utils/Address.sol\":4821:4828  _revert */\n      tag_158\n        /* \"@openzeppelin/contracts@5.0.0/utils/Address.sol\":4821:4840  _revert(returndata) */\n      jump\t// in\n    tag_157:\n        /* \"@openzeppelin/contracts@5.0.0/utils/Address.sol\":4793:5201  if (!success) {... */\n      jump(tag_145)\n    tag_156:\n        /* \"@openzeppelin/contracts@5.0.0/utils/Address.sol\":5045:5062  returndata.length */\n      dup2\n      mload\n        /* \"@openzeppelin/contracts@5.0.0/utils/Address.sol\":5045:5067  returndata.length == 0 */\n      iszero\n        /* \"@openzeppelin/contracts@5.0.0/utils/Address.sol\":5045:5094  returndata.length == 0 && target.code.length == 0 */\n      dup1\n      iszero\n      tag_160\n      jumpi\n      pop\n      sub(shl(0xa0, 0x01), 0x01)\n        /* \"@openzeppelin/contracts@5.0.0/utils/Address.sol\":5071:5089  target.code.length */\n      dup5\n      and\n      extcodesize\n        /* \"@openzeppelin/contracts@5.0.0/utils/Address.sol\":5071:5094  target.code.length == 0 */\n      iszero\n        /* \"@openzeppelin/contracts@5.0.0/utils/Address.sol\":5045:5094  returndata.length == 0 && target.code.length == 0 */\n    tag_160:\n        /* \"@openzeppelin/contracts@5.0.0/utils/Address.sol\":5041:5160  if (returndata.length == 0 && target.code.length == 0) {... */\n      iszero\n      tag_161\n      jumpi\n        /* \"@openzeppelin/contracts@5.0.0/utils/Address.sol\":5121:5145  AddressEmptyCode(target) */\n      mload(0x40)\n      shl(0xe0, 0x9996b315)\n      dup2\n      mstore\n      sub(shl(0xa0, 0x01), 0x01)\n        /* \"#utility.yul\":192:224   */\n      dup6\n      and\n        /* \"@openzeppelin/contracts@5.0.0/utils/Address.sol\":5121:5145  AddressEmptyCode(target) */\n      0x04\n      dup3\n      add\n        /* \"#utility.yul\":174:225   */\n      mstore\n        /* \"#utility.yul\":147:165   */\n      0x24\n      add\n        /* \"@openzeppelin/contracts@5.0.0/utils/Address.sol\":5121:5145  AddressEmptyCode(target) */\n      tag_111\n        /* \"#utility.yul\":14:231   */\n      jump\n        /* \"@openzeppelin/contracts@5.0.0/utils/Address.sol\":5041:5160  if (returndata.length == 0 && target.code.length == 0) {... */\n    tag_161:\n      pop\n        /* \"@openzeppelin/contracts@5.0.0/utils/Address.sol\":5180:5190  returndata */\n      dup1\n        /* \"@openzeppelin/contracts@5.0.0/utils/Address.sol\":5173:5190  return returndata */\n      jump(tag_145)\n        /* \"@openzeppelin/contracts@5.0.0/utils/Address.sol\":5743:6259  function _revert(bytes memory returndata) private pure {... */\n    tag_158:\n        /* \"@openzeppelin/contracts@5.0.0/utils/Address.sol\":5874:5891  returndata.length */\n      dup1\n      mload\n        /* \"@openzeppelin/contracts@5.0.0/utils/Address.sol\":5874:5895  returndata.length > 0 */\n      iszero\n        /* \"@openzeppelin/contracts@5.0.0/utils/Address.sol\":5870:6253  if (returndata.length > 0) {... */\n      tag_164\n      jumpi\n        /* \"@openzeppelin/contracts@5.0.0/utils/Address.sol\":6102:6112  returndata */\n      dup1\n        /* \"@openzeppelin/contracts@5.0.0/utils/Address.sol\":6096:6113  mload(returndata) */\n      mload\n        /* \"@openzeppelin/contracts@5.0.0/utils/Address.sol\":6158:6173  returndata_size */\n      dup1\n        /* \"@openzeppelin/contracts@5.0.0/utils/Address.sol\":6145:6155  returndata */\n      dup3\n        /* \"@openzeppelin/contracts@5.0.0/utils/Address.sol\":6141:6143  32 */\n      0x20\n        /* \"@openzeppelin/contracts@5.0.0/utils/Address.sol\":6137:6156  add(32, returndata) */\n      add\n        /* \"@openzeppelin/contracts@5.0.0/utils/Address.sol\":6130:6174  revert(add(32, returndata), returndata_size) */\n      revert\n        /* \"@openzeppelin/contracts@5.0.0/utils/Address.sol\":5870:6253  if (returndata.length > 0) {... */\n    tag_164:\n        /* \"@openzeppelin/contracts@5.0.0/utils/Address.sol\":6225:6242  FailedInnerCall() */\n      mload(0x40)\n      shl(0xe1, 0x0a12f521)\n      dup2\n      mstore\n      0x04\n      add\n      mload(0x40)\n      dup1\n      swap2\n      sub\n      swap1\n      revert\n        /* \"#utility.yul\":418:666   */\n    tag_24:\n        /* \"#utility.yul\":486:492   */\n      0x00\n        /* \"#utility.yul\":494:500   */\n      dup1\n        /* \"#utility.yul\":547:549   */\n      0x40\n        /* \"#utility.yul\":535:544   */\n      dup4\n        /* \"#utility.yul\":526:533   */\n      dup6\n        /* \"#utility.yul\":522:545   */\n      sub\n        /* \"#utility.yul\":518:550   */\n      slt\n        /* \"#utility.yul\":515:567   */\n      iszero\n      tag_172\n      jumpi\n        /* \"#utility.yul\":563:564   */\n      0x00\n        /* \"#utility.yul\":560:561   */\n      dup1\n        /* \"#utility.yul\":553:565   */\n      revert\n        /* \"#utility.yul\":515:567   */\n    tag_172:\n      pop\n      pop\n        /* \"#utility.yul\":586:609   */\n      dup1\n      calldataload\n      swap3\n        /* \"#utility.yul\":656:658   */\n      0x20\n        /* \"#utility.yul\":641:659   */\n      swap1\n      swap2\n      add\n        /* \"#utility.yul\":628:660   */\n      calldataload\n      swap2\n      pop\n        /* \"#utility.yul\":418:666   */\n      jump\t// out\n        /* \"#utility.yul\":671:810   */\n    tag_166:\n      sub(shl(0xa0, 0x01), 0x01)\n        /* \"#utility.yul\":754:785   */\n      dup2\n      and\n        /* \"#utility.yul\":744:786   */\n      dup2\n      eq\n        /* \"#utility.yul\":734:804   */\n      tag_84\n      jumpi\n        /* \"#utility.yul\":800:801   */\n      0x00\n        /* \"#utility.yul\":797:798   */\n      dup1\n        /* \"#utility.yul\":790:802   */\n      revert\n        /* \"#utility.yul\":815:1084   */\n    tag_31:\n        /* \"#utility.yul\":888:894   */\n      0x00\n        /* \"#utility.yul\":941:943   */\n      0x20\n        /* \"#utility.yul\":929:938   */\n      dup3\n        /* \"#utility.yul\":920:927   */\n      dup5\n        /* \"#utility.yul\":916:939   */\n      sub\n        /* \"#utility.yul\":912:944   */\n      slt\n        /* \"#utility.yul\":909:961   */\n      iszero\n      tag_176\n      jumpi\n        /* \"#utility.yul\":957:958   */\n      0x00\n        /* \"#utility.yul\":954:955   */\n      dup1\n        /* \"#utility.yul\":947:959   */\n      revert\n        /* \"#utility.yul\":909:961   */\n    tag_176:\n        /* \"#utility.yul\":996:1005   */\n      dup2\n        /* \"#utility.yul\":983:1006   */\n      calldataload\n        /* \"#utility.yul\":1015:1054   */\n      tag_145\n        /* \"#utility.yul\":1048:1053   */\n      dup2\n        /* \"#utility.yul\":1015:1054   */\n      tag_166\n      jump\t// in\n        /* \"#utility.yul\":1557:1684   */\n    tag_167:\n        /* \"#utility.yul\":1618:1628   */\n      0x4e487b71\n        /* \"#utility.yul\":1613:1616   */\n      0xe0\n        /* \"#utility.yul\":1609:1629   */\n      shl\n        /* \"#utility.yul\":1606:1607   */\n      0x00\n        /* \"#utility.yul\":1599:1630   */\n      mstore\n        /* \"#utility.yul\":1649:1653   */\n      0x11\n        /* \"#utility.yul\":1646:1647   */\n      0x04\n        /* \"#utility.yul\":1639:1654   */\n      mstore\n        /* \"#utility.yul\":1673:1677   */\n      0x24\n        /* \"#utility.yul\":1670:1671   */\n      0x00\n        /* \"#utility.yul\":1663:1678   */\n      revert\n        /* \"#utility.yul\":1689:1857   */\n    tag_59:\n        /* \"#utility.yul\":1762:1771   */\n      dup1\n      dup3\n      mul\n        /* \"#utility.yul\":1793:1802   */\n      dup2\n      iszero\n        /* \"#utility.yul\":1810:1825   */\n      dup3\n      dup3\n      div\n        /* \"#utility.yul\":1804:1826   */\n      dup5\n      eq\n        /* \"#utility.yul\":1790:1827   */\n      or\n        /* \"#utility.yul\":1780:1851   */\n      tag_142\n      jumpi\n        /* \"#utility.yul\":1831:1849   */\n      tag_142\n      tag_167\n      jump\t// in\n        /* \"#utility.yul\":1862:1987   */\n    tag_63:\n        /* \"#utility.yul\":1927:1936   */\n      dup1\n      dup3\n      add\n        /* \"#utility.yul\":1948:1958   */\n      dup1\n      dup3\n      gt\n        /* \"#utility.yul\":1945:1981   */\n      iszero\n      tag_142\n      jumpi\n        /* \"#utility.yul\":1961:1979   */\n      tag_142\n      tag_167\n      jump\t// in\n        /* \"#utility.yul\":1992:2209   */\n    tag_65:\n        /* \"#utility.yul\":2032:2033   */\n      0x00\n        /* \"#utility.yul\":2058:2059   */\n      dup3\n        /* \"#utility.yul\":2048:2180   */\n      tag_190\n      jumpi\n        /* \"#utility.yul\":2102:2112   */\n      0x4e487b71\n        /* \"#utility.yul\":2097:2100   */\n      0xe0\n        /* \"#utility.yul\":2093:2113   */\n      shl\n        /* \"#utility.yul\":2090:2091   */\n      0x00\n        /* \"#utility.yul\":2083:2114   */\n      mstore\n        /* \"#utility.yul\":2137:2141   */\n      0x12\n        /* \"#utility.yul\":2134:2135   */\n      0x04\n        /* \"#utility.yul\":2127:2142   */\n      mstore\n        /* \"#utility.yul\":2165:2169   */\n      0x24\n        /* \"#utility.yul\":2162:2163   */\n      0x00\n        /* \"#utility.yul\":2155:2170   */\n      revert\n        /* \"#utility.yul\":2048:2180   */\n    tag_190:\n      pop\n        /* \"#utility.yul\":2194:2203   */\n      div\n      swap1\n        /* \"#utility.yul\":1992:2209   */\n      jump\t// out\n        /* \"#utility.yul\":2214:2342   */\n    tag_69:\n        /* \"#utility.yul\":2281:2290   */\n      dup2\n      dup2\n      sub\n        /* \"#utility.yul\":2302:2313   */\n      dup2\n      dup2\n      gt\n        /* \"#utility.yul\":2299:2336   */\n      iszero\n      tag_142\n      jumpi\n        /* \"#utility.yul\":2316:2334   */\n      tag_142\n      tag_167\n      jump\t// in\n        /* \"#utility.yul\":2600:2784   */\n    tag_89:\n        /* \"#utility.yul\":2670:2676   */\n      0x00\n        /* \"#utility.yul\":2723:2725   */\n      0x20\n        /* \"#utility.yul\":2711:2720   */\n      dup3\n        /* \"#utility.yul\":2702:2709   */\n      dup5\n        /* \"#utility.yul\":2698:2721   */\n      sub\n        /* \"#utility.yul\":2694:2726   */\n      slt\n        /* \"#utility.yul\":2691:2743   */\n      iszero\n      tag_196\n      jumpi\n        /* \"#utility.yul\":2739:2740   */\n      0x00\n        /* \"#utility.yul\":2736:2737   */\n      dup1\n        /* \"#utility.yul\":2729:2741   */\n      revert\n        /* \"#utility.yul\":2691:2743   */\n    tag_196:\n      pop\n        /* \"#utility.yul\":2762:2778   */\n      mload\n      swap2\n        /* \"#utility.yul\":2600:2784   */\n      swap1\n      pop\n      jump\t// out\n        /* \"#utility.yul\":3448:3725   */\n    tag_138:\n        /* \"#utility.yul\":3515:3521   */\n      0x00\n        /* \"#utility.yul\":3568:3570   */\n      0x20\n        /* \"#utility.yul\":3556:3565   */\n      dup3\n        /* \"#utility.yul\":3547:3554   */\n      dup5\n        /* \"#utility.yul\":3543:3566   */\n      sub\n        /* \"#utility.yul\":3539:3571   */\n      slt\n        /* \"#utility.yul\":3536:3588   */\n      iszero\n      tag_200\n      jumpi\n        /* \"#utility.yul\":3584:3585   */\n      0x00\n        /* \"#utility.yul\":3581:3582   */\n      dup1\n        /* \"#utility.yul\":3574:3586   */\n      revert\n        /* \"#utility.yul\":3536:3588   */\n    tag_200:\n        /* \"#utility.yul\":3616:3625   */\n      dup2\n        /* \"#utility.yul\":3610:3626   */\n      mload\n        /* \"#utility.yul\":3669:3674   */\n      dup1\n        /* \"#utility.yul\":3662:3675   */\n      iszero\n        /* \"#utility.yul\":3655:3676   */\n      iszero\n        /* \"#utility.yul\":3648:3653   */\n      dup2\n        /* \"#utility.yul\":3645:3677   */\n      eq\n        /* \"#utility.yul\":3635:3695   */\n      tag_145\n      jumpi\n        /* \"#utility.yul\":3691:3692   */\n      0x00\n        /* \"#utility.yul\":3688:3689   */\n      dup1\n        /* \"#utility.yul\":3681:3693   */\n      revert\n        /* \"#utility.yul\":3730:4142   */\n    tag_149:\n        /* \"#utility.yul\":3859:3862   */\n      0x00\n        /* \"#utility.yul\":3897:3903   */\n      dup3\n        /* \"#utility.yul\":3891:3904   */\n      mload\n        /* \"#utility.yul\":3922:3923   */\n      0x00\n        /* \"#utility.yul\":3932:4061   */\n    tag_203:\n        /* \"#utility.yul\":3946:3952   */\n      dup2\n        /* \"#utility.yul\":3943:3944   */\n      dup2\n        /* \"#utility.yul\":3940:3953   */\n      lt\n        /* \"#utility.yul\":3932:4061   */\n      iszero\n      tag_205\n      jumpi\n        /* \"#utility.yul\":4044:4048   */\n      0x20\n        /* \"#utility.yul\":4028:4042   */\n      dup2\n      dup7\n      add\n        /* \"#utility.yul\":4024:4049   */\n      dup2\n      add\n        /* \"#utility.yul\":4018:4050   */\n      mload\n        /* \"#utility.yul\":4005:4016   */\n      dup6\n      dup4\n      add\n        /* \"#utility.yul\":3998:4051   */\n      mstore\n        /* \"#utility.yul\":3961:3973   */\n      add\n        /* \"#utility.yul\":3932:4061   */\n      jump(tag_203)\n    tag_205:\n      pop\n        /* \"#utility.yul\":4116:4117   */\n      0x00\n        /* \"#utility.yul\":4080:4096   */\n      swap3\n      add\n        /* \"#utility.yul\":4105:4118   */\n      swap2\n      dup3\n      mstore\n      pop\n        /* \"#utility.yul\":4080:4096   */\n      swap2\n        /* \"#utility.yul\":3730:4142   */\n      swap1\n      pop\n      jump\t// out\n\n    auxdata: 0xa2646970667358221220781c05cdb05913b6c109aeeabcc8322ed6a6c5c321fe1c61953aa889b797c7e564736f6c63430008140033\n}\n",
				"bytecode": {
					"linkReferences": {},
					"object": "60c060405234801561000f575f80fd5b50604051610c46380380610c4683398101604081905261002e91610151565b60015f55338061005757604051631e4fbdf760e01b81525f600482015260240160405180910390fd5b610060816100e5565b506001600160a01b038216158061007e57506001600160a01b038116155b1561009c5760405163d92e233d60e01b815260040160405180910390fd5b806001600160a01b0316826001600160a01b0316036100ce57604051630bd969eb60e41b815260040160405180910390fd5b6001600160a01b039182166080521660a052610182565b600180546001600160a01b038381166001600160a01b0319831681179093556040519116919082907f8be0079c531659141344cd1fd0a4f28419497f9722a3daafe3b4186f6b6457e0905f90a35050565b80516001600160a01b038116811461014c575f80fd5b919050565b5f8060408385031215610162575f80fd5b61016b83610136565b915061017960208401610136565b90509250929050565b60805160a051610a6c6101da5f395f8181610114015281816102e30152818161030c01528181610402015261058a01525f818160a4015281816102ae01528181610336015281816103c501526105550152610a6c5ff3fe608060405234801561000f575f80fd5b506004361061009b575f3560e01c8063715018a611610063578063715018a6146101495780638da5cb5b146101515780639cd441da14610162578063dc5fa6c514610175578063f2fde38b1461017e575f80fd5b80630fc63d101461009f57806319e36f3b146100e357806356d9be4c146100fa5780635f64b55b1461010f5780636ff1c9bc14610136575b5f80fd5b6100c67f000000000000000000000000000000000000000000000000000000000000000081565b6040516001600160a01b0390911681526020015b60405180910390f35b6100ec60035481565b6040519081526020016100da565b61010d610108366004610915565b610191565b005b6100c67f000000000000000000000000000000000000000000000000000000000000000081565b61010d610144366004610949565b6103bb565b61010d6104d5565b6001546001600160a01b03166100c6565b61010d610170366004610915565b6104e8565b6100ec60025481565b61010d61018c366004610949565b6105f6565b610199610635565b60025415806101a85750600354155b156101c657604051636180f03f60e11b815260040160405180910390fd5b815f036101e657604051631f2a200560e01b815260040160405180910390fd5b805f0361020657604051631f2a200560e01b815260040160405180910390fd5b5f610213836103e5610978565b90505f600354826102249190610978565b90505f826002546103e86102389190610978565b610242919061098f565b90505f61024f82846109a2565b9050848110156102725760405163bb2875c360e01b815260040160405180910390fd5b8560025f828254610283919061098f565b925050819055508060035f82825461029b91906109c1565b909155506102d690506001600160a01b037f00000000000000000000000000000000000000000000000000000000000000001633308961065d565b61030a6001600160a01b037f00000000000000000000000000000000000000000000000000000000000000001633836106ca565b7f00000000000000000000000000000000000000000000000000000000000000006001600160a01b03167f00000000000000000000000000000000000000000000000000000000000000006001600160a01b0316336001600160a01b03167fdbee45ea236748b94cfbe4aa4456c6460410d51bc244040093d65457fb4b285089856040516103a2929190918252602082015260400190565b60405180910390a4505050506103b760015f55565b5050565b6103c3610700565b7f00000000000000000000000000000000000000000000000000000000000000006001600160a01b0316816001600160a01b03161415801561043757507f00000000000000000000000000000000000000000000000000000000000000006001600160a01b0316816001600160a01b031614155b156104555760405163c1ab6dc160e01b815260040160405180910390fd5b6040516370a0823160e01b81523060048201526104d29033906001600160a01b038416906370a0823190602401602060405180830381865afa15801561049d573d5f803e3d5ffd5b505050506040513d601f19601f820116820180604052508101906104c191906109d4565b6001600160a01b03841691906106ca565b50565b6104dd610700565b6104e65f61072d565b565b6104f0610635565b8115806104fb575080155b1561051957604051631f2a200560e01b815260040160405180910390fd5b8160025f82825461052a919061098f565b925050819055508060035f828254610542919061098f565b9091555061057d90506001600160a01b037f00000000000000000000000000000000000000000000000000000000000000001633308561065d565b6105b26001600160a01b037f00000000000000000000000000000000000000000000000000000000000000001633308461065d565b604080518381526020810183905233917fac1d76749e5447b7b16f5ab61447e1bd502f3bb4807af3b28e620d1700a6ee45910160405180910390a26103b760015f55565b6105fe610700565b6001600160a01b03811661062c57604051631e4fbdf760e01b81525f60048201526024015b60405180910390fd5b6104d28161072d565b60025f540361065757604051633ee5aeb560e01b815260040160405180910390fd5b60025f55565b6040516001600160a01b0384811660248301528381166044830152606482018390526106c49186918216906323b872dd906084015b604051602081830303815290604052915060e01b6020820180516001600160e01b03838183161783525050505061077e565b50505050565b6040516001600160a01b038381166024830152604482018390526106fb91859182169063a9059cbb90606401610692565b505050565b6001546001600160a01b031633146104e65760405163118cdaa760e01b8152336004820152602401610623565b600180546001600160a01b038381166001600160a01b0319831681179093556040519116919082907f8be0079c531659141344cd1fd0a4f28419497f9722a3daafe3b4186f6b6457e0905f90a35050565b5f6107926001600160a01b038416836107df565b905080515f141580156107b65750808060200190518101906107b491906109eb565b155b156106fb57604051635274afe760e01b81526001600160a01b0384166004820152602401610623565b60606107ec83835f6107f5565b90505b92915050565b60608147101561081a5760405163cd78605960e01b8152306004820152602401610623565b5f80856001600160a01b031684866040516108359190610a0a565b5f6040518083038185875af1925050503d805f811461086f576040519150601f19603f3d011682016040523d82523d5f602084013e610874565b606091505b5091509150610884868383610890565b925050505b9392505050565b6060826108a5576108a0826108ec565b610889565b81511580156108bc57506001600160a01b0384163b155b156108e557604051639996b31560e01b81526001600160a01b0385166004820152602401610623565b5080610889565b8051156108fc5780518082602001fd5b604051630a12f52160e11b815260040160405180910390fd5b5f8060408385031215610926575f80fd5b50508035926020909101359150565b6001600160a01b03811681146104d2575f80fd5b5f60208284031215610959575f80fd5b813561088981610935565b634e487b7160e01b5f52601160045260245ffd5b80820281158282048414176107ef576107ef610964565b808201808211156107ef576107ef610964565b5f826109bc57634e487b7160e01b5f52601260045260245ffd5b500490565b818103818111156107ef576107ef610964565b5f602082840312156109e4575f80fd5b5051919050565b5f602082840312156109fb575f80fd5b81518015158114610889575f80fd5b5f82515f5b81811015610a295760208186018101518583015201610a0f565b505f92019182525091905056fea2646970667358221220781c05cdb05913b6c109aeeabcc8322ed6a6c5c321fe1c61953aa889b797c7e564736f6c63430008140033",
					"opcodes": "PUSH1 0xC0 PUSH1 0x40 MSTORE CALLVALUE DUP1 ISZERO PUSH2 0xF JUMPI PUSH0 DUP1 REVERT JUMPDEST POP PUSH1 0x40 MLOAD PUSH2 0xC46 CODESIZE SUB DUP1 PUSH2 0xC46 DUP4 CODECOPY DUP2 ADD PUSH1 0x40 DUP2 SWAP1 MSTORE PUSH2 0x2E SWAP2 PUSH2 0x151 JUMP JUMPDEST PUSH1 0x1 PUSH0 SSTORE CALLER DUP1 PUSH2 0x57 JUMPI PUSH1 0x40 MLOAD PUSH4 0x1E4FBDF7 PUSH1 0xE0 SHL DUP2 MSTORE PUSH0 PUSH1 0x4 DUP3 ADD MSTORE PUSH1 0x24 ADD PUSH1 0x40 MLOAD DUP1 SWAP2 SUB SWAP1 REVERT JUMPDEST PUSH2 0x60 DUP2 PUSH2 0xE5 JUMP JUMPDEST POP PUSH1 0x1 PUSH1 0x1 PUSH1 0xA0 SHL SUB DUP3 AND ISZERO DUP1 PUSH2 0x7E JUMPI POP PUSH1 0x1 PUSH1 0x1 PUSH1 0xA0 SHL SUB DUP2 AND ISZERO JUMPDEST ISZERO PUSH2 0x9C JUMPI PUSH1 0x40 MLOAD PUSH4 0xD92E233D PUSH1 0xE0 SHL DUP2 MSTORE PUSH1 0x4 ADD PUSH1 0x40 MLOAD DUP1 SWAP2 SUB SWAP1 REVERT JUMPDEST DUP1 PUSH1 0x1 PUSH1 0x1 PUSH1 0xA0 SHL SUB AND DUP3 PUSH1 0x1 PUSH1 0x1 PUSH1 0xA0 SHL SUB AND SUB PUSH2 0xCE JUMPI PUSH1 0x40 MLOAD PUSH4 0xBD969EB PUSH1 0xE4 SHL DUP2 MSTORE PUSH1 0x4 ADD PUSH1 0x40 MLOAD DUP1 SWAP2 SUB SWAP1 REVERT JUMPDEST PUSH1 0x1 PUSH1 0x1 PUSH1 0xA0 SHL SUB SWAP2 DUP3 AND PUSH1 0x80 MSTORE AND PUSH1 0xA0 MSTORE PUSH2 0x182 JUMP JUMPDEST PUSH1 0x1 DUP1 SLOAD PUSH1 0x1 PUSH1 0x1 PUSH1 0xA0 SHL SUB DUP4 DUP2 AND PUSH1 0x1 PUSH1 0x1 PUSH1 0xA0 SHL SUB NOT DUP4 AND DUP2 OR SWAP1 SWAP4 SSTORE PUSH1 0x40 MLOAD SWAP2 AND SWAP2 SWAP1 DUP3 SWAP1 PUSH32 0x8BE0079C531659141344CD1FD0A4F28419497F9722A3DAAFE3B4186F6B6457E0 SWAP1 PUSH0 SWAP1 LOG3 POP POP JUMP JUMPDEST DUP1 MLOAD PUSH1 0x1 PUSH1 0x1 PUSH1 0xA0 SHL SUB DUP2 AND DUP2 EQ PUSH2 0x14C JUMPI PUSH0 DUP1 REVERT JUMPDEST SWAP2 SWAP1 POP JUMP JUMPDEST PUSH0 DUP1 PUSH1 0x40 DUP4 DUP6 SUB SLT ISZERO PUSH2 0x162 JUMPI PUSH0 DUP1 REVERT JUMPDEST PUSH2 0x16B DUP4 PUSH2 0x136 JUMP JUMPDEST SWAP2 POP PUSH2 0x179 PUSH1 0x20 DUP5 ADD PUSH2 0x136 JUMP JUMPDEST SWAP1 POP SWAP3 POP SWAP3 SWAP1 POP JUMP JUMPDEST PUSH1 0x80 MLOAD PUSH1 0xA0 MLOAD PUSH2 0xA6C PUSH2 0x1DA PUSH0 CODECOPY PUSH0 DUP2 DUP2 PUSH2 0x114 ADD MSTORE DUP2 DUP2 PUSH2 0x2E3 ADD MSTORE DUP2 DUP2 PUSH2 0x30C ADD MSTORE DUP2 DUP2 PUSH2 0x402 ADD MSTORE PUSH2 0x58A ADD MSTORE PUSH0 DUP2 DUP2 PUSH1 0xA4 ADD MSTORE DUP2 DUP2 PUSH2 0x2AE ADD MSTORE DUP2 DUP2 PUSH2 0x336 ADD MSTORE DUP2 DUP2 PUSH2 0x3C5 ADD MSTORE PUSH2 0x555 ADD MSTORE PUSH2 0xA6C PUSH0 RETURN INVALID PUSH1 0x80 PUSH1 0x40 MSTORE CALLVALUE DUP1 ISZERO PUSH2 0xF JUMPI PUSH0 DUP1 REVERT JUMPDEST POP PUSH1 0x4 CALLDATASIZE LT PUSH2 0x9B JUMPI PUSH0 CALLDATALOAD PUSH1 0xE0 SHR DUP1 PUSH4 0x715018A6 GT PUSH2 0x63 JUMPI DUP1 PUSH4 0x715018A6 EQ PUSH2 0x149 JUMPI DUP1 PUSH4 0x8DA5CB5B EQ PUSH2 0x151 JUMPI DUP1 PUSH4 0x9CD441DA EQ PUSH2 0x162 JUMPI DUP1 PUSH4 0xDC5FA6C5 EQ PUSH2 0x175 JUMPI DUP1 PUSH4 0xF2FDE38B EQ PUSH2 0x17E JUMPI PUSH0 DUP1 REVERT JUMPDEST DUP1 PUSH4 0xFC63D10 EQ PUSH2 0x9F JUMPI DUP1 PUSH4 0x19E36F3B EQ PUSH2 0xE3 JUMPI DUP1 PUSH4 0x56D9BE4C EQ PUSH2 0xFA JUMPI DUP1 PUSH4 0x5F64B55B EQ PUSH2 0x10F JUMPI DUP1 PUSH4 0x6FF1C9BC EQ PUSH2 0x136 JUMPI JUMPDEST PUSH0 DUP1 REVERT JUMPDEST PUSH2 0xC6 PUSH32 0x0 DUP2 JUMP JUMPDEST PUSH1 0x40 MLOAD PUSH1 0x1 PUSH1 0x1 PUSH1 0xA0 SHL SUB SWAP1 SWAP2 AND DUP2 MSTORE PUSH1 0x20 ADD JUMPDEST PUSH1 0x40 MLOAD DUP1 SWAP2 SUB SWAP1 RETURN JUMPDEST PUSH2 0xEC PUSH1 0x3 SLOAD DUP2 JUMP JUMPDEST PUSH1 0x40 MLOAD SWAP1 DUP2 MSTORE PUSH1 0x20 ADD PUSH2 0xDA JUMP JUMPDEST PUSH2 0x10D PUSH2 0x108 CALLDATASIZE PUSH1 0x4 PUSH2 0x915 JUMP JUMPDEST PUSH2 0x191 JUMP JUMPDEST STOP JUMPDEST PUSH2 0xC6 PUSH32 0x0 DUP2 JUMP JUMPDEST PUSH2 0x10D PUSH2 0x144 CALLDATASIZE PUSH1 0x4 PUSH2 0x949 JUMP JUMPDEST PUSH2 0x3BB JUMP JUMPDEST PUSH2 0x10D PUSH2 0x4D5 JUMP JUMPDEST PUSH1 0x1 SLOAD PUSH1 0x1 PUSH1 0x1 PUSH1 0xA0 SHL SUB AND PUSH2 0xC6 JUMP JUMPDEST PUSH2 0x10D PUSH2 0x170 CALLDATASIZE PUSH1 0x4 PUSH2 0x915 JUMP JUMPDEST PUSH2 0x4E8 JUMP JUMPDEST PUSH2 0xEC PUSH1 0x2 SLOAD DUP2 JUMP JUMPDEST PUSH2 0x10D PUSH2 0x18C CALLDATASIZE PUSH1 0x4 PUSH2 0x949 JUMP JUMPDEST PUSH2 0x5F6 JUMP JUMPDEST PUSH2 0x199 PUSH2 0x635 JUMP JUMPDEST PUSH1 0x2 SLOAD ISZERO DUP1 PUSH2 0x1A8 JUMPI POP PUSH1 0x3 SLOAD ISZERO JUMPDEST ISZERO PUSH2 0x1C6 JUMPI PUSH1 0x40 MLOAD PUSH4 0x6180F03F PUSH1 0xE1 SHL DUP2 MSTORE PUSH1 0x4 ADD PUSH1 0x40 MLOAD DUP1 SWAP2 SUB SWAP1 REVERT JUMPDEST DUP2 PUSH0 SUB PUSH2 0x1E6 JUMPI PUSH1 0x40 MLOAD PUSH4 0x1F2A2005 PUSH1 0xE0 SHL DUP2 MSTORE PUSH1 0x4 ADD PUSH1 0x40 MLOAD DUP1 SWAP2 SUB SWAP1 REVERT JUMPDEST DUP1 PUSH0 SUB PUSH2 0x206 JUMPI PUSH1 0x40 MLOAD PUSH4 0x1F2A2005 PUSH1 0xE0 SHL DUP2 MSTORE PUSH1 0x4 ADD PUSH1 0x40 MLOAD DUP1 SWAP2 SUB SWAP1 REVERT JUMPDEST PUSH0 PUSH2 0x213 DUP4 PUSH2 0x3E5 PUSH2 0x978 JUMP JUMPDEST SWAP1 POP PUSH0 PUSH1 0x3 SLOAD DUP3 PUSH2 0x224 SWAP2 SWAP1 PUSH2 0x978 JUMP JUMPDEST SWAP1 POP PUSH0 DUP3 PUSH1 0x2 SLOAD PUSH2 0x3E8 PUSH2 0x238 SWAP2 SWAP1 PUSH2 0x978 JUMP JUMPDEST PUSH2 0x242 SWAP2 SWAP1 PUSH2 0x98F JUMP JUMPDEST SWAP1 POP PUSH0 PUSH2 0x24F DUP3 DUP5 PUSH2 0x9A2 JUMP JUMPDEST SWAP1 POP DUP5 DUP2 LT ISZERO PUSH2 0x272 JUMPI PUSH1 0x40 MLOAD PUSH4 0xBB2875C3 PUSH1 0xE0 SHL DUP2 MSTORE PUSH1 0x4 ADD PUSH1 0x40 MLOAD DUP1 SWAP2 SUB SWAP1 REVERT JUMPDEST DUP6 PUSH1 0x2 PUSH0 DUP3 DUP3 SLOAD PUSH2 0x283 SWAP2 SWAP1 PUSH2 0x98F JUMP JUMPDEST SWAP3 POP POP DUP2 SWAP1 SSTORE POP DUP1 PUSH1 0x3 PUSH0 DUP3 DUP3 SLOAD PUSH2 0x29B SWAP2 SWAP1 PUSH2 0x9C1 JUMP JUMPDEST SWAP1 SWAP2 SSTORE POP PUSH2 0x2D6 SWAP1 POP PUSH1 0x1 PUSH1 0x1 PUSH1 0xA0 SHL SUB PUSH32 0x0 AND CALLER ADDRESS DUP10 PUSH2 0x65D JUMP JUMPDEST PUSH2 0x30A PUSH1 0x1 PUSH1 0x1 PUSH1 0xA0 SHL SUB PUSH32 0x0 AND CALLER DUP4 PUSH2 0x6CA JUMP JUMPDEST PUSH32 0x0 PUSH1 0x1 PUSH1 0x1 PUSH1 0xA0 SHL SUB AND PUSH32 0x0 PUSH1 0x1 PUSH1 0x1 PUSH1 0xA0 SHL SUB AND CALLER PUSH1 0x1 PUSH1 0x1 PUSH1 0xA0 SHL SUB AND PUSH32 0xDBEE45EA236748B94CFBE4AA4456C6460410D51BC244040093D65457FB4B2850 DUP10 DUP6 PUSH1 0x40 MLOAD PUSH2 0x3A2 SWAP3 SWAP2 SWAP1 SWAP2 DUP3 MSTORE PUSH1 0x20 DUP3 ADD MSTORE PUSH1 0x40 ADD SWAP1 JUMP JUMPDEST PUSH1 0x40 MLOAD DUP1 SWAP2 SUB SWAP1 LOG4 POP POP POP POP PUSH2 0x3B7 PUSH1 0x1 PUSH0 SSTORE JUMP JUMPDEST POP POP JUMP JUMPDEST PUSH2 0x3C3 PUSH2 0x700 JUMP JUMPDEST PUSH32 0x0 PUSH1 0x1 PUSH1 0x1 PUSH1 0xA0 SHL SUB AND DUP2 PUSH1 0x1 PUSH1 0x1 PUSH1 0xA0 SHL SUB AND EQ ISZERO DUP1 ISZERO PUSH2 0x437 JUMPI POP PUSH32 0x0 PUSH1 0x1 PUSH1 0x1 PUSH1 0xA0 SHL SUB AND DUP2 PUSH1 0x1 PUSH1 0x1 PUSH1 0xA0 SHL SUB AND EQ ISZERO JUMPDEST ISZERO PUSH2 0x455 JUMPI PUSH1 0x40 MLOAD PUSH4 0xC1AB6DC1 PUSH1 0xE0 SHL DUP2 MSTORE PUSH1 0x4 ADD PUSH1 0x40 MLOAD DUP1 SWAP2 SUB SWAP1 REVERT JUMPDEST PUSH1 0x40 MLOAD PUSH4 0x70A08231 PUSH1 0xE0 SHL DUP2 MSTORE ADDRESS PUSH1 0x4 DUP3 ADD MSTORE PUSH2 0x4D2 SWAP1 CALLER SWAP1 PUSH1 0x1 PUSH1 0x1 PUSH1 0xA0 SHL SUB DUP5 AND SWAP1 PUSH4 0x70A08231 SWAP1 PUSH1 0x24 ADD PUSH1 0x20 PUSH1 0x40 MLOAD DUP1 DUP4 SUB DUP2 DUP7 GAS STATICCALL ISZERO DUP1 ISZERO PUSH2 0x49D JUMPI RETURNDATASIZE PUSH0 DUP1 RETURNDATACOPY RETURNDATASIZE PUSH0 REVERT JUMPDEST POP POP POP POP PUSH1 0x40 MLOAD RETURNDATASIZE PUSH1 0x1F NOT PUSH1 0x1F DUP3 ADD AND DUP3 ADD DUP1 PUSH1 0x40 MSTORE POP DUP2 ADD SWAP1 PUSH2 0x4C1 SWAP2 SWAP1 PUSH2 0x9D4 JUMP JUMPDEST PUSH1 0x1 PUSH1 0x1 PUSH1 0xA0 SHL SUB DUP5 AND SWAP2 SWAP1 PUSH2 0x6CA JUMP JUMPDEST POP JUMP JUMPDEST PUSH2 0x4DD PUSH2 0x700 JUMP JUMPDEST PUSH2 0x4E6 PUSH0 PUSH2 0x72D JUMP JUMPDEST JUMP JUMPDEST PUSH2 0x4F0 PUSH2 0x635 JUMP JUMPDEST DUP2 ISZERO DUP1 PUSH2 0x4FB JUMPI POP DUP1 ISZERO JUMPDEST ISZERO PUSH2 0x519 JUMPI PUSH1 0x40 MLOAD PUSH4 0x1F2A2005 PUSH1 0xE0 SHL DUP2 MSTORE PUSH1 0x4 ADD PUSH1 0x40 MLOAD DUP1 SWAP2 SUB SWAP1 REVERT JUMPDEST DUP2 PUSH1 0x2 PUSH0 DUP3 DUP3 SLOAD PUSH2 0x52A SWAP2 SWAP1 PUSH2 0x98F JUMP JUMPDEST SWAP3 POP POP DUP2 SWAP1 SSTORE POP DUP1 PUSH1 0x3 PUSH0 DUP3 DUP3 SLOAD PUSH2 0x542 SWAP2 SWAP1 PUSH2 0x98F JUMP JUMPDEST SWAP1 SWAP2 SSTORE POP PUSH2 0x57D SWAP1 POP PUSH1 0x1 PUSH1 0x1 PUSH1 0xA0 SHL SUB PUSH32 0x0 AND CALLER ADDRESS DUP6 PUSH2 0x65D JUMP JUMPDEST PUSH2 0x5B2 PUSH1 0x1 PUSH1 0x1 PUSH1 0xA0 SHL SUB PUSH32 0x0 AND CALLER ADDRESS DUP5 PUSH2 0x65D JUMP JUMPDEST PUSH1 0x40 DUP1 MLOAD DUP4 DUP2 MSTORE PUSH1 0x20 DUP2 ADD DUP4 SWAP1 MSTORE CALLER SWAP2 PUSH32 0xAC1D76749E5447B7B16F5AB61447E1BD502F3BB4807AF3B28E620D1700A6EE45 SWAP2 ADD PUSH1 0x40 MLOAD DUP1 SWAP2 SUB SWAP1 LOG2 PUSH2 0x3B7 PUSH1 0x1 PUSH0 SSTORE JUMP JUMPDEST PUSH2 0x5FE PUSH2 0x700 JUMP JUMPDEST PUSH1 0x1 PUSH1 0x1 PUSH1 0xA0 SHL SUB DUP2 AND PUSH2 0x62C JUMPI PUSH1 0x40 MLOAD PUSH4 0x1E4FBDF7 PUSH1 0xE0 SHL DUP2 MSTORE PUSH0 PUSH1 0x4 DUP3 ADD MSTORE PUSH1 0x24 ADD JUMPDEST PUSH1 0x40 MLOAD DUP1 SWAP2 SUB SWAP1 REVERT JUMPDEST PUSH2 0x4D2 DUP2 PUSH2 0x72D JUMP JUMPDEST PUSH1 0x2 PUSH0 SLOAD SUB PUSH2 0x657 JUMPI PUSH1 0x40 MLOAD PUSH4 0x3EE5AEB5 PUSH1 0xE0 SHL DUP2 MSTORE PUSH1 0x4 ADD PUSH1 0x40 MLOAD DUP1 SWAP2 SUB SWAP1 REVERT JUMPDEST PUSH1 0x2 PUSH0 SSTORE JUMP JUMPDEST PUSH1 0x40 MLOAD PUSH1 0x1 PUSH1 0x1 PUSH1 0xA0 SHL SUB DUP5 DUP2 AND PUSH1 0x24 DUP4 ADD MSTORE DUP4 DUP2 AND PUSH1 0x44 DUP4 ADD MSTORE PUSH1 0x64 DUP3 ADD DUP4 SWAP1 MSTORE PUSH2 0x6C4 SWAP2 DUP7 SWAP2 DUP3 AND SWAP1 PUSH4 0x23B872DD SWAP1 PUSH1 0x84 ADD JUMPDEST PUSH1 0x40 MLOAD PUSH1 0x20 DUP2 DUP4 SUB SUB DUP2 MSTORE SWAP1 PUSH1 0x40 MSTORE SWAP2 POP PUSH1 0xE0 SHL PUSH1 0x20 DUP3 ADD DUP1 MLOAD PUSH1 0x1 PUSH1 0x1 PUSH1 0xE0 SHL SUB DUP4 DUP2 DUP4 AND OR DUP4 MSTORE POP POP POP POP PUSH2 0x77E JUMP JUMPDEST POP POP POP POP JUMP JUMPDEST PUSH1 0x40 MLOAD PUSH1 0x1 PUSH1 0x1 PUSH1 0xA0 SHL SUB DUP4 DUP2 AND PUSH1 0x24 DUP4 ADD MSTORE PUSH1 0x44 DUP3 ADD DUP4 SWAP1 MSTORE PUSH2 0x6FB SWAP2 DUP6 SWAP2 DUP3 AND SWAP1 PUSH4 0xA9059CBB SWAP1 PUSH1 0x64 ADD PUSH2 0x692 JUMP JUMPDEST POP POP POP JUMP JUMPDEST PUSH1 0x1 SLOAD PUSH1 0x1 PUSH1 0x1 PUSH1 0xA0 SHL SUB AND CALLER EQ PUSH2 0x4E6 JUMPI PUSH1 0x40 MLOAD PUSH4 0x118CDAA7 PUSH1 0xE0 SHL DUP2 MSTORE CALLER PUSH1 0x4 DUP3 ADD MSTORE PUSH1 0x24 ADD PUSH2 0x623 JUMP JUMPDEST PUSH1 0x1 DUP1 SLOAD PUSH1 0x1 PUSH1 0x1 PUSH1 0xA0 SHL SUB DUP4 DUP2 AND PUSH1 0x1 PUSH1 0x1 PUSH1 0xA0 SHL SUB NOT DUP4 AND DUP2 OR SWAP1 SWAP4 SSTORE PUSH1 0x40 MLOAD SWAP2 AND SWAP2 SWAP1 DUP3 SWAP1 PUSH32 0x8BE0079C531659141344CD1FD0A4F28419497F9722A3DAAFE3B4186F6B6457E0 SWAP1 PUSH0 SWAP1 LOG3 POP POP JUMP JUMPDEST PUSH0 PUSH2 0x792 PUSH1 0x1 PUSH1 0x1 PUSH1 0xA0 SHL SUB DUP5 AND DUP4 PUSH2 0x7DF JUMP JUMPDEST SWAP1 POP DUP1 MLOAD PUSH0 EQ ISZERO DUP1 ISZERO PUSH2 0x7B6 JUMPI POP DUP1 DUP1 PUSH1 0x20 ADD SWAP1 MLOAD DUP2 ADD SWAP1 PUSH2 0x7B4 SWAP2 SWAP1 PUSH2 0x9EB JUMP JUMPDEST ISZERO JUMPDEST ISZERO PUSH2 0x6FB JUMPI PUSH1 0x40 MLOAD PUSH4 0x5274AFE7 PUSH1 0xE0 SHL DUP2 MSTORE PUSH1 0x1 PUSH1 0x1 PUSH1 0xA0 SHL SUB DUP5 AND PUSH1 0x4 DUP3 ADD MSTORE PUSH1 0x24 ADD PUSH2 0x623 JUMP JUMPDEST PUSH1 0x60 PUSH2 0x7EC DUP4 DUP4 PUSH0 PUSH2 0x7F5 JUMP JUMPDEST SWAP1 POP JUMPDEST SWAP3 SWAP2 POP POP JUMP JUMPDEST PUSH1 0x60 DUP2 SELFBALANCE LT ISZERO PUSH2 0x81A JUMPI PUSH1 0x40 MLOAD PUSH4 0xCD786059 PUSH1 0xE0 SHL DUP2 MSTORE ADDRESS PUSH1 0x4 DUP3 ADD MSTORE PUSH1 0x24 ADD PUSH2 0x623 JUMP JUMPDEST PUSH0 DUP1 DUP6 PUSH1 0x1 PUSH1 0x1 PUSH1 0xA0 SHL SUB AND DUP5 DUP7 PUSH1 0x40 MLOAD PUSH2 0x835 SWAP2 SWAP1 PUSH2 0xA0A JUMP JUMPDEST PUSH0 PUSH1 0x40 MLOAD DUP1 DUP4 SUB DUP2 DUP6 DUP8 GAS CALL SWAP3 POP POP POP RETURNDATASIZE DUP1 PUSH0 DUP2 EQ PUSH2 0x86F JUMPI PUSH1 0x40 MLOAD SWAP2 POP PUSH1 0x1F NOT PUSH1 0x3F RETURNDATASIZE ADD AND DUP3 ADD PUSH1 0x40 MSTORE RETURNDATASIZE DUP3 MSTORE RETURNDATASIZE PUSH0 PUSH1 0x20 DUP5 ADD RETURNDATACOPY PUSH2 0x874 JUMP JUMPDEST PUSH1 0x60 SWAP2 POP JUMPDEST POP SWAP2 POP SWAP2 POP PUSH2 0x884 DUP7 DUP4 DUP4 PUSH2 0x890 JUMP JUMPDEST SWAP3 POP POP POP JUMPDEST SWAP4 SWAP3 POP POP POP JUMP JUMPDEST PUSH1 0x60 DUP3 PUSH2 0x8A5 JUMPI PUSH2 0x8A0 DUP3 PUSH2 0x8EC JUMP JUMPDEST PUSH2 0x889 JUMP JUMPDEST DUP2 MLOAD ISZERO DUP1 ISZERO PUSH2 0x8BC JUMPI POP PUSH1 0x1 PUSH1 0x1 PUSH1 0xA0 SHL SUB DUP5 AND EXTCODESIZE ISZERO JUMPDEST ISZERO PUSH2 0x8E5 JUMPI PUSH1 0x40 MLOAD PUSH4 0x9996B315 PUSH1 0xE0 SHL DUP2 MSTORE PUSH1 0x1 PUSH1 0x1 PUSH1 0xA0 SHL SUB DUP6 AND PUSH1 0x4 DUP3 ADD MSTORE PUSH1 0x24 ADD PUSH2 0x623 JUMP JUMPDEST POP DUP1 PUSH2 0x889 JUMP JUMPDEST DUP1 MLOAD ISZERO PUSH2 0x8FC JUMPI DUP1 MLOAD DUP1 DUP3 PUSH1 0x20 ADD REVERT JUMPDEST PUSH1 0x40 MLOAD PUSH4 0xA12F521 PUSH1 0xE1 SHL DUP2 MSTORE PUSH1 0x4 ADD PUSH1 0x40 MLOAD DUP1 SWAP2 SUB SWAP1 REVERT JUMPDEST PUSH0 DUP1 PUSH1 0x40 DUP4 DUP6 SUB SLT ISZERO PUSH2 0x926 JUMPI PUSH0 DUP1 REVERT JUMPDEST POP POP DUP1 CALLDATALOAD SWAP3 PUSH1 0x20 SWAP1 SWAP2 ADD CALLDATALOAD SWAP2 POP JUMP JUMPDEST PUSH1 0x1 PUSH1 0x1 PUSH1 0xA0 SHL SUB DUP2 AND DUP2 EQ PUSH2 0x4D2 JUMPI PUSH0 DUP1 REVERT JUMPDEST PUSH0 PUSH1 0x20 DUP3 DUP5 SUB SLT ISZERO PUSH2 0x959 JUMPI PUSH0 DUP1 REVERT JUMPDEST DUP2 CALLDATALOAD PUSH2 0x889 DUP2 PUSH2 0x935 JUMP JUMPDEST PUSH4 0x4E487B71 PUSH1 0xE0 SHL PUSH0 MSTORE PUSH1 0x11 PUSH1 0x4 MSTORE PUSH1 0x24 PUSH0 REVERT JUMPDEST DUP1 DUP3 MUL DUP2 ISZERO DUP3 DUP3 DIV DUP5 EQ OR PUSH2 0x7EF JUMPI PUSH2 0x7EF PUSH2 0x964 JUMP JUMPDEST DUP1 DUP3 ADD DUP1 DUP3 GT ISZERO PUSH2 0x7EF JUMPI PUSH2 0x7EF PUSH2 0x964 JUMP JUMPDEST PUSH0 DUP3 PUSH2 0x9BC JUMPI PUSH4 0x4E487B71 PUSH1 0xE0 SHL PUSH0 MSTORE PUSH1 0x12 PUSH1 0x4 MSTORE PUSH1 0x24 PUSH0 REVERT JUMPDEST POP DIV SWAP1 JUMP JUMPDEST DUP2 DUP2 SUB DUP2 DUP2 GT ISZERO PUSH2 0x7EF JUMPI PUSH2 0x7EF PUSH2 0x964 JUMP JUMPDEST PUSH0 PUSH1 0x20 DUP3 DUP5 SUB SLT ISZERO PUSH2 0x9E4 JUMPI PUSH0 DUP1 REVERT JUMPDEST POP MLOAD SWAP2 SWAP1 POP JUMP JUMPDEST PUSH0 PUSH1 0x20 DUP3 DUP5 SUB SLT ISZERO PUSH2 0x9FB JUMPI PUSH0 DUP1 REVERT JUMPDEST DUP2 MLOAD DUP1 ISZERO ISZERO DUP2 EQ PUSH2 0x889 JUMPI PUSH0 DUP1 REVERT JUMPDEST PUSH0 DUP3 MLOAD PUSH0 JUMPDEST DUP2 DUP2 LT ISZERO PUSH2 0xA29 JUMPI PUSH1 0x20 DUP2 DUP7 ADD DUP2 ADD MLOAD DUP6 DUP4 ADD MSTORE ADD PUSH2 0xA0F JUMP JUMPDEST POP PUSH0 SWAP3 ADD SWAP2 DUP3 MSTORE POP SWAP2 SWAP1 POP JUMP INVALID LOG2 PUSH5 0x6970667358 0x22 SLT KECCAK256 PUSH25 0x1C05CDB05913B6C109AEEABCC8322ED6A6C5C321FE1C61953A 0xA8 DUP10 0xB7 SWAP8 0xC7 0xE5 PUSH5 0x736F6C6343 STOP ADDMOD EQ STOP CALLER "
				},
				"gasEstimates": {
					"creation": {
						"codeDepositCost": "533600",
						"executionCost": "infinite",
						"totalCost": "infinite"
					},
					"external": {
						"addLiquidity(uint256,uint256)": "infinite",
						"emergencyWithdraw(address)": "infinite",
						"owner()": "2341",
						"renounceOwnership()": "infinite",
						"reserveA()": "2360",
						"reserveB()": "2317",
						"swapTokenAForTokenB(uint256,uint256)": "infinite",
						"tokenA()": "infinite",
						"tokenB()": "infinite",
						"transferOwnership(address)": "infinite"
					}
				},
				"methodIdentifiers": {
					"addLiquidity(uint256,uint256)": "9cd441da",
					"emergencyWithdraw(address)": "6ff1c9bc",
					"owner()": "8da5cb5b",
					"renounceOwnership()": "715018a6",
					"reserveA()": "dc5fa6c5",
					"reserveB()": "19e36f3b",
					"swapTokenAForTokenB(uint256,uint256)": "56d9be4c",
					"tokenA()": "0fc63d10",
					"tokenB()": "5f64b55b",
					"transferOwnership(address)": "f2fde38b"
				}
			},
			"storageLayout": {
				"storage": [
					{
						"astId": 837,
						"contract": "contract/MyDEX.sol:MyHyperOptimizedDEX",
						"label": "_status",
						"offset": 0,
						"slot": "0",
						"type": "t_uint256"
					},
					{
						"astId": 8,
						"contract": "contract/MyDEX.sol:MyHyperOptimizedDEX",
						"label": "_owner",
						"offset": 0,
						"slot": "1",
						"type": "t_address"
					},
					{
						"astId": 930,
						"contract": "contract/MyDEX.sol:MyHyperOptimizedDEX",
						"label": "reserveA",
						"offset": 0,
						"slot": "2",
						"type": "t_uint256"
					},
					{
						"astId": 932,
						"contract": "contract/MyDEX.sol:MyHyperOptimizedDEX",
						"label": "reserveB",
						"offset": 0,
						"slot": "3",
						"type": "t_uint256"
					}
				],
				"types": {
					"t_address": {
						"encoding": "inplace",
						"label": "address",
						"numberOfBytes": "20"
					},
					"t_uint256": {
						"encoding": "inplace",
						"label": "uint256",
						"numberOfBytes": "32"
					}
				}
			},
			"userdoc": {
				"kind": "user",
				"methods": {
					"swapTokenAForTokenB(uint256,uint256)": {
						"notice": "Swaps Token A for Token B with slippage protection."
					}
				},
				"notice": "A production-grade, gas-optimized, and hardened AMM.",
				"version": 1
			}
		}
	}
}