{
	"data": {
		"bytecode": {
			"linkReferences": {},
			"object": "60c060405261038460055534801562000016575f80fd5b506040516200190838038062001908833981016040819052620000399162000175565b60015f5533806200006357604051631e4fbdf760e01b81525f600482015260240160405180910390fd5b6200006e8162000108565b506001805460ff60a01b191690556001600160a01b03821615806200009a57506001600160a01b038116155b15620000b95760405163d92e233d60e01b815260040160405180910390fd5b806001600160a01b0316826001600160a01b031603620000ec57604051635c6d7b7360e01b815260040160405180910390fd5b6001600160a01b039182166080521660a05243600455620001ab565b600180546001600160a01b038381166001600160a01b0319831681179093556040519116919082907f8be0079c531659141344cd1fd0a4f28419497f9722a3daafe3b4186f6b6457e0905f90a35050565b80516001600160a01b038116811462000170575f80fd5b919050565b5f806040838503121562000187575f80fd5b620001928362000159565b9150620001a26020840162000159565b90509250929050565b60805160a0516116d96200022f5f395f8181610215015281816103bf0152818161073e015281816109c8015281816109f101528181610d2501528181610dad0152610fd301525f818161019e01528181610382015281816107090152818161099301528181610a1b01528181610d5a01528181610d830152610f9f01526116d95ff3fe608060405234801561000f575f80fd5b5060043610610153575f3560e01c80638da5cb5b116100bf578063d73792a911610079578063d73792a9146102d5578063dbbdd935146102de578063dc5fa6c514610306578063f2fde38b1461030f578063f6767d9b14610322578063f88bf15a14610335575f80fd5b80638da5cb5b14610263578063a218141b14610274578063aebf3e411461027d578063ba4c28c314610290578063c4727964146102af578063cb2068d8146102c2575f80fd5b80635c975abb116101105780635c975abb146101f35780635f64b55b146102105780636ff1c9bc14610237578063715018a61461024a57806376ea38b0146102525780638456cb591461025b575f80fd5b8063054d50d4146101575780630902f1ac1461017d5780630fc63d101461019957806319e36f3b146101d85780633f4ba83a146101e157806341cd47bf146101eb575b5f80fd5b61016a61016536600461153c565b610348565b6040519081526020015b60405180910390f35b6002546003545b60408051928352602083019190915201610174565b6101c07f000000000000000000000000000000000000000000000000000000000000000081565b6040516001600160a01b039091168152602001610174565b61016a60035481565b6101e961035e565b005b61016a600381565b600154600160a01b900460ff166040519015158152602001610174565b6101c07f000000000000000000000000000000000000000000000000000000000000000081565b6101e9610245366004611565565b610370565b6101e96104a3565b61016a60055481565b6101e96104b4565b6001546001600160a01b03166101c0565b61016a60045481565b61016a61028b36600461158b565b6104c4565b61016a61029e366004611565565b60066020525f908152604090205481565b61016a6102bd36600461153c565b610809565b6101e96102d03660046115ba565b610aea565b61016a6103e881565b61016a6102ec366004611565565b6001600160a01b03165f9081526006602052604090205490565b61016a60025481565b6101e961031d366004611565565b610b5c565b61016a61033036600461153c565b610b9b565b61018461034336600461158b565b610e23565b5f61035484848461109d565b90505b9392505050565b610366611114565b61036e611141565b565b610378611114565b610380611196565b7f00000000000000000000000000000000000000000000000000000000000000006001600160a01b0316816001600160a01b0316141580156103f457507f00000000000000000000000000000000000000000000000000000000000000006001600160a01b0316816001600160a01b031614155b156104125760405163c1ab6dc160e01b815260040160405180910390fd5b6040516370a0823160e01b81523060048201525f906001600160a01b038316906370a0823190602401602060405180830381865afa158015610456573d5f803e3d5ffd5b505050506040513d601f19601f8201168201806040525081019061047a91906115d1565b90508015610496576104966001600160a01b03831633836111be565b506104a060015f55565b50565b6104ab611114565b61036e5f611222565b6104bc611114565b61036e611273565b5f6104cd611196565b600154600160a01b900460ff16156104f85760405163d93c066560e01b815260040160405180910390fd5b8484811580610505575080155b1561052357604051631f2a200560e01b815260040160405180910390fd5b6001600160801b0382118061053e57506001600160801b0381115b1561055c57604051630fc12e3560e11b815260040160405180910390fd5b838043111561057e5760405163559895a360e01b815260040160405180910390fd5b61058f886001600160801b036115fc565b60025411806105af57506105aa876001600160801b036115fc565b600354115b156105cd57604051630fc12e3560e11b815260040160405180910390fd5b6002541580156105dd5750600354155b1561061e576105f46105ef888a61160f565b6112b6565b93506103e88410156106195760405163bb55fd2760e01b815260040160405180910390fd5b610686565b5f6002546003546002546106329190611626565b61063c908b61160f565b6106469190611639565b90505f60035460035460025461065c9190611626565b610666908b61160f565b6106709190611639565b905080821061067f5780610681565b815b955050505b858410156106a7576040516342301c2360e01b815260040160405180910390fd5b8760025f8282546106b89190611626565b925050819055508660035f8282546106d09190611626565b9091555050335f90815260066020526040812080548692906106f3908490611626565b9091555050436004556107316001600160a01b037f00000000000000000000000000000000000000000000000000000000000000001633308b611313565b6107666001600160a01b037f00000000000000000000000000000000000000000000000000000000000000001633308a611313565b604080518981526020810189905290810185905243606082015233907f08d7621a09a86934f387f650007fa17f2413759ca5f2ae0681161b371583a5f59060800160405180910390a27fcf2aa50876cdfbb541206f89af0ee78d44a2abf8d328e37fa4917f982149848a6002546003546040516107ed929190918252602082015260400190565b60405180910390a150505061080160015f55565b949350505050565b5f610812611196565b600154600160a01b900460ff161561083d5760405163d93c066560e01b815260040160405180910390fd5b818043111561085f5760405163559895a360e01b815260040160405180910390fd5b84158061086a575083155b1561088857604051631f2a200560e01b815260040160405180910390fd5b60025415806108975750600354155b156108b55760405163bb55fd2760e01b815260040160405180910390fd5b6108c48560025460035461109d565b9150838210156108e7576040516342301c2360e01b815260040160405180910390fd5b60035482111561090a5760405163bb55fd2760e01b815260040160405180910390fd5b6003545f9061091984826115fc565b610925906103e861160f565b61092f9190611639565b905060055481101561095457604051630988208760e41b815260040160405180910390fd5b8560025f8282546109659190611626565b925050819055508260035f82825461097d91906115fc565b9091555050436004556109bb6001600160a01b037f000000000000000000000000000000000000000000000000000000000000000016333089611313565b6109ef6001600160a01b037f00000000000000000000000000000000000000000000000000000000000000001633856111be565b7f00000000000000000000000000000000000000000000000000000000000000006001600160a01b03167f00000000000000000000000000000000000000000000000000000000000000006001600160a01b0316336001600160a01b03167fc9163c3bdf7263acf1bb3d24072cc7da025f7181c31e2edc7e1673edf5e0ca32898743604051610a91939291909283526020830191909152604082015260600190565b60405180910390a47fcf2aa50876cdfbb541206f89af0ee78d44a2abf8d328e37fa4917f982149848a600254600354604051610ad7929190918252602082015260400190565b60405180910390a1505061035760015f55565b610af2611114565b6101f4811080610b0357506103e881115b15610b215760405163aabd5a0960e01b815260040160405180910390fd5b60058190556040518181527f4b61601be904d344cdd7e3ea01867fb4090181cab92fe0782835c6723f2e8fba9060200160405180910390a150565b610b64611114565b6001600160a01b038116610b9257604051631e4fbdf760e01b81525f60048201526024015b60405180910390fd5b6104a081611222565b5f610ba4611196565b600154600160a01b900460ff1615610bcf5760405163d93c066560e01b815260040160405180910390fd5b8180431115610bf15760405163559895a360e01b815260040160405180910390fd5b841580610bfc575083155b15610c1a57604051631f2a200560e01b815260040160405180910390fd5b6002541580610c295750600354155b15610c475760405163bb55fd2760e01b815260040160405180910390fd5b610c568560035460025461109d565b915083821015610c79576040516342301c2360e01b815260040160405180910390fd5b600254821115610c9c5760405163bb55fd2760e01b815260040160405180910390fd5b6002545f90610cab84826115fc565b610cb7906103e861160f565b610cc19190611639565b9050600554811015610ce657604051630988208760e41b815260040160405180910390fd5b8560035f828254610cf79190611626565b925050819055508260025f828254610d0f91906115fc565b909155505043600455610d4d6001600160a01b037f000000000000000000000000000000000000000000000000000000000000000016333089611313565b610d816001600160a01b037f00000000000000000000000000000000000000000000000000000000000000001633856111be565b7f00000000000000000000000000000000000000000000000000000000000000006001600160a01b03167f00000000000000000000000000000000000000000000000000000000000000006001600160a01b0316336001600160a01b03167fc9163c3bdf7263acf1bb3d24072cc7da025f7181c31e2edc7e1673edf5e0ca32898743604051610a91939291909283526020830191909152604082015260600190565b5f80610e2d611196565b600154600160a01b900460ff1615610e585760405163d93c066560e01b815260040160405180910390fd5b8280431115610e7a5760405163559895a360e01b815260040160405180910390fd5b865f03610e9a57604051631f2a200560e01b815260040160405180910390fd5b335f90815260066020526040902054871115610ec9576040516347a73ad960e11b815260040160405180910390fd5b5f600354600254610eda9190611626565b90508088600254610eeb919061160f565b610ef59190611639565b93508088600354610f06919061160f565b610f109190611639565b925086841080610f1f57508583105b15610f3d576040516342301c2360e01b815260040160405180910390fd5b8360025f828254610f4e91906115fc565b925050819055508260035f828254610f6691906115fc565b9091555050335f90815260066020526040812080548a9290610f899084906115fc565b909155505043600455610fc66001600160a01b037f00000000000000000000000000000000000000000000000000000000000000001633866111be565b610ffa6001600160a01b037f00000000000000000000000000000000000000000000000000000000000000001633856111be565b604080518581526020810185905290810189905243606082015233907f8598e6b147330d38243f9c4cd33d61e208b9015719e977086fa42a0f73b1462b9060800160405180910390a27fcf2aa50876cdfbb541206f89af0ee78d44a2abf8d328e37fa4917f982149848a600254600354604051611081929190918252602082015260400190565b60405180910390a1505061109460015f55565b94509492505050565b5f8315806110a9575082155b806110b2575081155b156110be57505f610357565b5f6110cc60036103e86115fc565b6110d6908661160f565b90505f6110e3848361160f565b90505f826110f36103e88861160f565b6110fd9190611626565b90506111098183611639565b979650505050505050565b6001546001600160a01b0316331461036e5760405163118cdaa760e01b8152336004820152602401610b89565b611149611352565b6001805460ff60a01b191690557f5db9ee0a495bf2e6ff9c91a7834c1ba4fdd244a5e8aa4e537bd38aeae4b073aa335b6040516001600160a01b03909116815260200160405180910390a1565b60025f54036111b857604051633ee5aeb560e01b815260040160405180910390fd5b60025f55565b6040516001600160a01b0383811660248301526044820183905261121d91859182169063a9059cbb906064015b604051602081830303815290604052915060e01b6020820180516001600160e01b03838183161783525050505061137c565b505050565b600180546001600160a01b038381166001600160a01b0319831681179093556040519116919082907f8be0079c531659141344cd1fd0a4f28419497f9722a3daafe3b4186f6b6457e0905f90a35050565b61127b6113dd565b6001805460ff60a01b1916600160a01b1790557f62e78cea01bee320cd4e420270b5ea74000d11b0c9f74754ebdbfc544b05a2586111793390565b5f815f036112c557505f919050565b5f60026112d3846001611626565b6112dd9190611639565b9050825b808210156103575750806002816112f88187611639565b6113029190611626565b61130c9190611639565b91506112e1565b6040516001600160a01b03848116602483015283811660448301526064820183905261134c9186918216906323b872dd906084016111eb565b50505050565b600154600160a01b900460ff1661036e57604051638dfc202b60e01b815260040160405180910390fd5b5f6113906001600160a01b03841683611408565b905080515f141580156113b45750808060200190518101906113b29190611658565b155b1561121d57604051635274afe760e01b81526001600160a01b0384166004820152602401610b89565b600154600160a01b900460ff161561036e5760405163d93c066560e01b815260040160405180910390fd5b606061141583835f61141e565b90505b92915050565b6060814710156114435760405163cd78605960e01b8152306004820152602401610b89565b5f80856001600160a01b0316848660405161145e9190611677565b5f6040518083038185875af1925050503d805f8114611498576040519150601f19603f3d011682016040523d82523d5f602084013e61149d565b606091505b50915091506114ad8683836114b7565b9695505050505050565b6060826114cc576114c782611513565b610357565b81511580156114e357506001600160a01b0384163b155b1561150c57604051639996b31560e01b81526001600160a01b0385166004820152602401610b89565b5080610357565b8051156115235780518082602001fd5b604051630a12f52160e11b815260040160405180910390fd5b5f805f6060848603121561154e575f80fd5b505081359360208301359350604090920135919050565b5f60208284031215611575575f80fd5b81356001600160a01b0381168114610357575f80fd5b5f805f806080858703121561159e575f80fd5b5050823594602084013594506040840135936060013592509050565b5f602082840312156115ca575f80fd5b5035919050565b5f602082840312156115e1575f80fd5b5051919050565b634e487b7160e01b5f52601160045260245ffd5b81810381811115611418576114186115e8565b8082028115828204841417611418576114186115e8565b80820180821115611418576114186115e8565b5f8261165357634e487b7160e01b5f52601260045260245ffd5b500490565b5f60208284031215611668575f80fd5b81518015158114610357575f80fd5b5f82515f5b81811015611696576020818601810151858301520161167c565b505f92019182525091905056fea26469706673582212205dc8ee38950149f43ea737132802f86e13647172b9a99f7e337ca09d1b58924764736f6c63430008180033",
			"opcodes": "PUSH1 0xC0 PUSH1 0x40 MSTORE PUSH2 0x384 PUSH1 0x5 SSTORE CALLVALUE DUP1 ISZERO PUSH3 0x16 JUMPI PUSH0 DUP1 REVERT JUMPDEST POP PUSH1 0x40 MLOAD PUSH3 0x1908 CODESIZE SUB DUP1 PUSH3 0x1908 DUP4 CODECOPY DUP2 ADD PUSH1 0x40 DUP2 SWAP1 MSTORE PUSH3 0x39 SWAP2 PUSH3 0x175 JUMP JUMPDEST PUSH1 0x1 PUSH0 SSTORE CALLER DUP1 PUSH3 0x63 JUMPI PUSH1 0x40 MLOAD PUSH4 0x1E4FBDF7 PUSH1 0xE0 SHL DUP2 MSTORE PUSH0 PUSH1 0x4 DUP3 ADD MSTORE PUSH1 0x24 ADD PUSH1 0x40 MLOAD DUP1 SWAP2 SUB SWAP1 REVERT JUMPDEST PUSH3 0x6E DUP2 PUSH3 0x108 JUMP JUMPDEST POP PUSH1 0x1 DUP1 SLOAD PUSH1 0xFF PUSH1 0xA0 SHL NOT AND SWAP1 SSTORE PUSH1 0x1 PUSH1 0x1 PUSH1 0xA0 SHL SUB DUP3 AND ISZERO DUP1 PUSH3 0x9A JUMPI POP PUSH1 0x1 PUSH1 0x1 PUSH1 0xA0 SHL SUB DUP2 AND ISZERO JUMPDEST ISZERO PUSH3 0xB9 JUMPI PUSH1 0x40 MLOAD PUSH4 0xD92E233D PUSH1 0xE0 SHL DUP2 MSTORE PUSH1 0x4 ADD PUSH1 0x40 MLOAD DUP1 SWAP2 SUB SWAP1 REVERT JUMPDEST DUP1 PUSH1 0x1 PUSH1 0x1 PUSH1 0xA0 SHL SUB AND DUP3 PUSH1 0x1 PUSH1 0x1 PUSH1 0xA0 SHL SUB AND SUB PUSH3 0xEC JUMPI PUSH1 0x40 MLOAD PUSH4 0x5C6D7B73 PUSH1 0xE0 SHL DUP2 MSTORE PUSH1 0x4 ADD PUSH1 0x40 MLOAD DUP1 SWAP2 SUB SWAP1 REVERT JUMPDEST PUSH1 0x1 PUSH1 0x1 PUSH1 0xA0 SHL SUB SWAP2 DUP3 AND PUSH1 0x80 MSTORE AND PUSH1 0xA0 MSTORE NUMBER PUSH1 0x4 SSTORE PUSH3 0x1AB JUMP JUMPDEST PUSH1 0x1 DUP1 SLOAD PUSH1 0x1 PUSH1 0x1 PUSH1 0xA0 SHL SUB DUP4 DUP2 AND PUSH1 0x1 PUSH1 0x1 PUSH1 0xA0 SHL SUB NOT DUP4 AND DUP2 OR SWAP1 SWAP4 SSTORE PUSH1 0x40 MLOAD SWAP2 AND SWAP2 SWAP1 DUP3 SWAP1 PUSH32 0x8BE0079C531659141344CD1FD0A4F28419497F9722A3DAAFE3B4186F6B6457E0 SWAP1 PUSH0 SWAP1 LOG3 POP POP JUMP JUMPDEST DUP1 MLOAD PUSH1 0x1 PUSH1 0x1 PUSH1 0xA0 SHL SUB DUP2 AND DUP2 EQ PUSH3 0x170 JUMPI PUSH0 DUP1 REVERT JUMPDEST SWAP2 SWAP1 POP JUMP JUMPDEST PUSH0 DUP1 PUSH1 0x40 DUP4 DUP6 SUB SLT ISZERO PUSH3 0x187 JUMPI PUSH0 DUP1 REVERT JUMPDEST PUSH3 0x192 DUP4 PUSH3 0x159 JUMP JUMPDEST SWAP2 POP PUSH3 0x1A2 PUSH1 0x20 DUP5 ADD PUSH3 0x159 JUMP JUMPDEST SWAP1 POP SWAP3 POP SWAP3 SWAP1 POP JUMP JUMPDEST PUSH1 0x80 MLOAD PUSH1 0xA0 MLOAD PUSH2 0x16D9 PUSH3 0x22F PUSH0 CODECOPY PUSH0 DUP2 DUP2 PUSH2 0x215 ADD MSTORE DUP2 DUP2 PUSH2 0x3BF ADD MSTORE DUP2 DUP2 PUSH2 0x73E ADD MSTORE DUP2 DUP2 PUSH2 0x9C8 ADD MSTORE DUP2 DUP2 PUSH2 0x9F1 ADD MSTORE DUP2 DUP2 PUSH2 0xD25 ADD MSTORE DUP2 DUP2 PUSH2 0xDAD ADD MSTORE PUSH2 0xFD3 ADD MSTORE PUSH0 DUP2 DUP2 PUSH2 0x19E ADD MSTORE DUP2 DUP2 PUSH2 0x382 ADD MSTORE DUP2 DUP2 PUSH2 0x709 ADD MSTORE DUP2 DUP2 PUSH2 0x993 ADD MSTORE DUP2 DUP2 PUSH2 0xA1B ADD MSTORE DUP2 DUP2 PUSH2 0xD5A ADD MSTORE DUP2 DUP2 PUSH2 0xD83 ADD MSTORE PUSH2 0xF9F ADD MSTORE PUSH2 0x16D9 PUSH0 RETURN INVALID PUSH1 0x80 PUSH1 0x40 MSTORE CALLVALUE DUP1 ISZERO PUSH2 0xF JUMPI PUSH0 DUP1 REVERT JUMPDEST POP PUSH1 0x4 CALLDATASIZE LT PUSH2 0x153 JUMPI PUSH0 CALLDATALOAD PUSH1 0xE0 SHR DUP1 PUSH4 0x8DA5CB5B GT PUSH2 0xBF JUMPI DUP1 PUSH4 0xD73792A9 GT PUSH2 0x79 JUMPI DUP1 PUSH4 0xD73792A9 EQ PUSH2 0x2D5 JUMPI DUP1 PUSH4 0xDBBDD935 EQ PUSH2 0x2DE JUMPI DUP1 PUSH4 0xDC5FA6C5 EQ PUSH2 0x306 JUMPI DUP1 PUSH4 0xF2FDE38B EQ PUSH2 0x30F JUMPI DUP1 PUSH4 0xF6767D9B EQ PUSH2 0x322 JUMPI DUP1 PUSH4 0xF88BF15A EQ PUSH2 0x335 JUMPI PUSH0 DUP1 REVERT JUMPDEST DUP1 PUSH4 0x8DA5CB5B EQ PUSH2 0x263 JUMPI DUP1 PUSH4 0xA218141B EQ PUSH2 0x274 JUMPI DUP1 PUSH4 0xAEBF3E41 EQ PUSH2 0x27D JUMPI DUP1 PUSH4 0xBA4C28C3 EQ PUSH2 0x290 JUMPI DUP1 PUSH4 0xC4727964 EQ PUSH2 0x2AF JUMPI DUP1 PUSH4 0xCB2068D8 EQ PUSH2 0x2C2 JUMPI PUSH0 DUP1 REVERT JUMPDEST DUP1 PUSH4 0x5C975ABB GT PUSH2 0x110 JUMPI DUP1 PUSH4 0x5C975ABB EQ PUSH2 0x1F3 JUMPI DUP1 PUSH4 0x5F64B55B EQ PUSH2 0x210 JUMPI DUP1 PUSH4 0x6FF1C9BC EQ PUSH2 0x237 JUMPI DUP1 PUSH4 0x715018A6 EQ PUSH2 0x24A JUMPI DUP1 PUSH4 0x76EA38B0 EQ PUSH2 0x252 JUMPI DUP1 PUSH4 0x8456CB59 EQ PUSH2 0x25B JUMPI PUSH0 DUP1 REVERT JUMPDEST DUP1 PUSH4 0x54D50D4 EQ PUSH2 0x157 JUMPI DUP1 PUSH4 0x902F1AC EQ PUSH2 0x17D JUMPI DUP1 PUSH4 0xFC63D10 EQ PUSH2 0x199 JUMPI DUP1 PUSH4 0x19E36F3B EQ PUSH2 0x1D8 JUMPI DUP1 PUSH4 0x3F4BA83A EQ PUSH2 0x1E1 JUMPI DUP1 PUSH4 0x41CD47BF EQ PUSH2 0x1EB JUMPI JUMPDEST PUSH0 DUP1 REVERT JUMPDEST PUSH2 0x16A PUSH2 0x165 CALLDATASIZE PUSH1 0x4 PUSH2 0x153C JUMP JUMPDEST PUSH2 0x348 JUMP JUMPDEST PUSH1 0x40 MLOAD SWAP1 DUP2 MSTORE PUSH1 0x20 ADD JUMPDEST PUSH1 0x40 MLOAD DUP1 SWAP2 SUB SWAP1 RETURN JUMPDEST PUSH1 0x2 SLOAD PUSH1 0x3 SLOAD JUMPDEST PUSH1 0x40 DUP1 MLOAD SWAP3 DUP4 MSTORE PUSH1 0x20 DUP4 ADD SWAP2 SWAP1 SWAP2 MSTORE ADD PUSH2 0x174 JUMP JUMPDEST PUSH2 0x1C0 PUSH32 0x0 DUP2 JUMP JUMPDEST PUSH1 0x40 MLOAD PUSH1 0x1 PUSH1 0x1 PUSH1 0xA0 SHL SUB SWAP1 SWAP2 AND DUP2 MSTORE PUSH1 0x20 ADD PUSH2 0x174 JUMP JUMPDEST PUSH2 0x16A PUSH1 0x3 SLOAD DUP2 JUMP JUMPDEST PUSH2 0x1E9 PUSH2 0x35E JUMP JUMPDEST STOP JUMPDEST PUSH2 0x16A PUSH1 0x3 DUP2 JUMP JUMPDEST PUSH1 0x1 SLOAD PUSH1 0x1 PUSH1 0xA0 SHL SWAP1 DIV PUSH1 0xFF AND PUSH1 0x40 MLOAD SWAP1 ISZERO ISZERO DUP2 MSTORE PUSH1 0x20 ADD PUSH2 0x174 JUMP JUMPDEST PUSH2 0x1C0 PUSH32 0x0 DUP2 JUMP JUMPDEST PUSH2 0x1E9 PUSH2 0x245 CALLDATASIZE PUSH1 0x4 PUSH2 0x1565 JUMP JUMPDEST PUSH2 0x370 JUMP JUMPDEST PUSH2 0x1E9 PUSH2 0x4A3 JUMP JUMPDEST PUSH2 0x16A PUSH1 0x5 SLOAD DUP2 JUMP JUMPDEST PUSH2 0x1E9 PUSH2 0x4B4 JUMP JUMPDEST PUSH1 0x1 SLOAD PUSH1 0x1 PUSH1 0x1 PUSH1 0xA0 SHL SUB AND PUSH2 0x1C0 JUMP JUMPDEST PUSH2 0x16A PUSH1 0x4 SLOAD DUP2 JUMP JUMPDEST PUSH2 0x16A PUSH2 0x28B CALLDATASIZE PUSH1 0x4 PUSH2 0x158B JUMP JUMPDEST PUSH2 0x4C4 JUMP JUMPDEST PUSH2 0x16A PUSH2 0x29E CALLDATASIZE PUSH1 0x4 PUSH2 0x1565 JUMP JUMPDEST PUSH1 0x6 PUSH1 0x20 MSTORE PUSH0 SWAP1 DUP2 MSTORE PUSH1 0x40 SWAP1 KECCAK256 SLOAD DUP2 JUMP JUMPDEST PUSH2 0x16A PUSH2 0x2BD CALLDATASIZE PUSH1 0x4 PUSH2 0x153C JUMP JUMPDEST PUSH2 0x809 JUMP JUMPDEST PUSH2 0x1E9 PUSH2 0x2D0 CALLDATASIZE PUSH1 0x4 PUSH2 0x15BA JUMP JUMPDEST PUSH2 0xAEA JUMP JUMPDEST PUSH2 0x16A PUSH2 0x3E8 DUP2 JUMP JUMPDEST PUSH2 0x16A PUSH2 0x2EC CALLDATASIZE PUSH1 0x4 PUSH2 0x1565 JUMP JUMPDEST PUSH1 0x1 PUSH1 0x1 PUSH1 0xA0 SHL SUB AND PUSH0 SWAP1 DUP2 MSTORE PUSH1 0x6 PUSH1 0x20 MSTORE PUSH1 0x40 SWAP1 KECCAK256 SLOAD SWAP1 JUMP JUMPDEST PUSH2 0x16A PUSH1 0x2 SLOAD DUP2 JUMP JUMPDEST PUSH2 0x1E9 PUSH2 0x31D CALLDATASIZE PUSH1 0x4 PUSH2 0x1565 JUMP JUMPDEST PUSH2 0xB5C JUMP JUMPDEST PUSH2 0x16A PUSH2 0x330 CALLDATASIZE PUSH1 0x4 PUSH2 0x153C JUMP JUMPDEST PUSH2 0xB9B JUMP JUMPDEST PUSH2 0x184 PUSH2 0x343 CALLDATASIZE PUSH1 0x4 PUSH2 0x158B JUMP JUMPDEST PUSH2 0xE23 JUMP JUMPDEST PUSH0 PUSH2 0x354 DUP5 DUP5 DUP5 PUSH2 0x109D JUMP JUMPDEST SWAP1 POP JUMPDEST SWAP4 SWAP3 POP POP POP JUMP JUMPDEST PUSH2 0x366 PUSH2 0x1114 JUMP JUMPDEST PUSH2 0x36E PUSH2 0x1141 JUMP JUMPDEST JUMP JUMPDEST PUSH2 0x378 PUSH2 0x1114 JUMP JUMPDEST PUSH2 0x380 PUSH2 0x1196 JUMP JUMPDEST PUSH32 0x0 PUSH1 0x1 PUSH1 0x1 PUSH1 0xA0 SHL SUB AND DUP2 PUSH1 0x1 PUSH1 0x1 PUSH1 0xA0 SHL SUB AND EQ ISZERO DUP1 ISZERO PUSH2 0x3F4 JUMPI POP PUSH32 0x0 PUSH1 0x1 PUSH1 0x1 PUSH1 0xA0 SHL SUB AND DUP2 PUSH1 0x1 PUSH1 0x1 PUSH1 0xA0 SHL SUB AND EQ ISZERO JUMPDEST ISZERO PUSH2 0x412 JUMPI PUSH1 0x40 MLOAD PUSH4 0xC1AB6DC1 PUSH1 0xE0 SHL DUP2 MSTORE PUSH1 0x4 ADD PUSH1 0x40 MLOAD DUP1 SWAP2 SUB SWAP1 REVERT JUMPDEST PUSH1 0x40 MLOAD PUSH4 0x70A08231 PUSH1 0xE0 SHL DUP2 MSTORE ADDRESS PUSH1 0x4 DUP3 ADD MSTORE PUSH0 SWAP1 PUSH1 0x1 PUSH1 0x1 PUSH1 0xA0 SHL SUB DUP4 AND SWAP1 PUSH4 0x70A08231 SWAP1 PUSH1 0x24 ADD PUSH1 0x20 PUSH1 0x40 MLOAD DUP1 DUP4 SUB DUP2 DUP7 GAS STATICCALL ISZERO DUP1 ISZERO PUSH2 0x456 JUMPI RETURNDATASIZE PUSH0 DUP1 RETURNDATACOPY RETURNDATASIZE PUSH0 REVERT JUMPDEST POP POP POP POP PUSH1 0x40 MLOAD RETURNDATASIZE PUSH1 0x1F NOT PUSH1 0x1F DUP3 ADD AND DUP3 ADD DUP1 PUSH1 0x40 MSTORE POP DUP2 ADD SWAP1 PUSH2 0x47A SWAP2 SWAP1 PUSH2 0x15D1 JUMP JUMPDEST SWAP1 POP DUP1 ISZERO PUSH2 0x496 JUMPI PUSH2 0x496 PUSH1 0x1 PUSH1 0x1 PUSH1 0xA0 SHL SUB DUP4 AND CALLER DUP4 PUSH2 0x11BE JUMP JUMPDEST POP PUSH2 0x4A0 PUSH1 0x1 PUSH0 SSTORE JUMP JUMPDEST POP JUMP JUMPDEST PUSH2 0x4AB PUSH2 0x1114 JUMP JUMPDEST PUSH2 0x36E PUSH0 PUSH2 0x1222 JUMP JUMPDEST PUSH2 0x4BC PUSH2 0x1114 JUMP JUMPDEST PUSH2 0x36E PUSH2 0x1273 JUMP JUMPDEST PUSH0 PUSH2 0x4CD PUSH2 0x1196 JUMP JUMPDEST PUSH1 0x1 SLOAD PUSH1 0x1 PUSH1 0xA0 SHL SWAP1 DIV PUSH1 0xFF AND ISZERO PUSH2 0x4F8 JUMPI PUSH1 0x40 MLOAD PUSH4 0xD93C0665 PUSH1 0xE0 SHL DUP2 MSTORE PUSH1 0x4 ADD PUSH1 0x40 MLOAD DUP1 SWAP2 SUB SWAP1 REVERT JUMPDEST DUP5 DUP5 DUP2 ISZERO DUP1 PUSH2 0x505 JUMPI POP DUP1 ISZERO JUMPDEST ISZERO PUSH2 0x523 JUMPI PUSH1 0x40 MLOAD PUSH4 0x1F2A2005 PUSH1 0xE0 SHL DUP2 MSTORE PUSH1 0x4 ADD PUSH1 0x40 MLOAD DUP1 SWAP2 SUB SWAP1 REVERT JUMPDEST PUSH1 0x1 PUSH1 0x1 PUSH1 0x80 SHL SUB DUP3 GT DUP1 PUSH2 0x53E JUMPI POP PUSH1 0x1 PUSH1 0x1 PUSH1 0x80 SHL SUB DUP2 GT JUMPDEST ISZERO PUSH2 0x55C JUMPI PUSH1 0x40 MLOAD PUSH4 0xFC12E35 PUSH1 0xE1 SHL DUP2 MSTORE PUSH1 0x4 ADD PUSH1 0x40 MLOAD DUP1 SWAP2 SUB SWAP1 REVERT JUMPDEST DUP4 DUP1 NUMBER GT ISZERO PUSH2 0x57E JUMPI PUSH1 0x40 MLOAD PUSH4 0x559895A3 PUSH1 0xE0 SHL DUP2 MSTORE PUSH1 0x4 ADD PUSH1 0x40 MLOAD DUP1 SWAP2 SUB SWAP1 REVERT JUMPDEST PUSH2 0x58F DUP9 PUSH1 0x1 PUSH1 0x1 PUSH1 0x80 SHL SUB PUSH2 0x15FC JUMP JUMPDEST PUSH1 0x2 SLOAD GT DUP1 PUSH2 0x5AF JUMPI POP PUSH2 0x5AA DUP8 PUSH1 0x1 PUSH1 0x1 PUSH1 0x80 SHL SUB PUSH2 0x15FC JUMP JUMPDEST PUSH1 0x3 SLOAD GT JUMPDEST ISZERO PUSH2 0x5CD JUMPI PUSH1 0x40 MLOAD PUSH4 0xFC12E35 PUSH1 0xE1 SHL DUP2 MSTORE PUSH1 0x4 ADD PUSH1 0x40 MLOAD DUP1 SWAP2 SUB SWAP1 REVERT JUMPDEST PUSH1 0x2 SLOAD ISZERO DUP1 ISZERO PUSH2 0x5DD JUMPI POP PUSH1 0x3 SLOAD ISZERO JUMPDEST ISZERO PUSH2 0x61E JUMPI PUSH2 0x5F4 PUSH2 0x5EF DUP9 DUP11 PUSH2 0x160F JUMP JUMPDEST PUSH2 0x12B6 JUMP JUMPDEST SWAP4 POP PUSH2 0x3E8 DUP5 LT ISZERO PUSH2 0x619 JUMPI PUSH1 0x40 MLOAD PUSH4 0xBB55FD27 PUSH1 0xE0 SHL DUP2 MSTORE PUSH1 0x4 ADD PUSH1 0x40 MLOAD DUP1 SWAP2 SUB SWAP1 REVERT JUMPDEST PUSH2 0x686 JUMP JUMPDEST PUSH0 PUSH1 0x2 SLOAD PUSH1 0x3 SLOAD PUSH1 0x2 SLOAD PUSH2 0x632 SWAP2 SWAP1 PUSH2 0x1626 JUMP JUMPDEST PUSH2 0x63C SWAP1 DUP12 PUSH2 0x160F JUMP JUMPDEST PUSH2 0x646 SWAP2 SWAP1 PUSH2 0x1639 JUMP JUMPDEST SWAP1 POP PUSH0 PUSH1 0x3 SLOAD PUSH1 0x3 SLOAD PUSH1 0x2 SLOAD PUSH2 0x65C SWAP2 SWAP1 PUSH2 0x1626 JUMP JUMPDEST PUSH2 0x666 SWAP1 DUP12 PUSH2 0x160F JUMP JUMPDEST PUSH2 0x670 SWAP2 SWAP1 PUSH2 0x1639 JUMP JUMPDEST SWAP1 POP DUP1 DUP3 LT PUSH2 0x67F JUMPI DUP1 PUSH2 0x681 JUMP JUMPDEST DUP2 JUMPDEST SWAP6 POP POP POP JUMPDEST DUP6 DUP5 LT ISZERO PUSH2 0x6A7 JUMPI PUSH1 0x40 MLOAD PUSH4 0x42301C23 PUSH1 0xE0 SHL DUP2 MSTORE PUSH1 0x4 ADD PUSH1 0x40 MLOAD DUP1 SWAP2 SUB SWAP1 REVERT JUMPDEST DUP8 PUSH1 0x2 PUSH0 DUP3 DUP3 SLOAD PUSH2 0x6B8 SWAP2 SWAP1 PUSH2 0x1626 JUMP JUMPDEST SWAP3 POP POP DUP2 SWAP1 SSTORE POP DUP7 PUSH1 0x3 PUSH0 DUP3 DUP3 SLOAD PUSH2 0x6D0 SWAP2 SWAP1 PUSH2 0x1626 JUMP JUMPDEST SWAP1 SWAP2 SSTORE POP POP CALLER PUSH0 SWAP1 DUP2 MSTORE PUSH1 0x6 PUSH1 0x20 MSTORE PUSH1 0x40 DUP2 KECCAK256 DUP1 SLOAD DUP7 SWAP3 SWAP1 PUSH2 0x6F3 SWAP1 DUP5 SWAP1 PUSH2 0x1626 JUMP JUMPDEST SWAP1 SWAP2 SSTORE POP POP NUMBER PUSH1 0x4 SSTORE PUSH2 0x731 PUSH1 0x1 PUSH1 0x1 PUSH1 0xA0 SHL SUB PUSH32 0x0 AND CALLER ADDRESS DUP12 PUSH2 0x1313 JUMP JUMPDEST PUSH2 0x766 PUSH1 0x1 PUSH1 0x1 PUSH1 0xA0 SHL SUB PUSH32 0x0 AND CALLER ADDRESS DUP11 PUSH2 0x1313 JUMP JUMPDEST PUSH1 0x40 DUP1 MLOAD DUP10 DUP2 MSTORE PUSH1 0x20 DUP2 ADD DUP10 SWAP1 MSTORE SWAP1 DUP2 ADD DUP6 SWAP1 MSTORE NUMBER PUSH1 0x60 DUP3 ADD MSTORE CALLER SWAP1 PUSH32 0x8D7621A09A86934F387F650007FA17F2413759CA5F2AE0681161B371583A5F5 SWAP1 PUSH1 0x80 ADD PUSH1 0x40 MLOAD DUP1 SWAP2 SUB SWAP1 LOG2 PUSH32 0xCF2AA50876CDFBB541206F89AF0EE78D44A2ABF8D328E37FA4917F982149848A PUSH1 0x2 SLOAD PUSH1 0x3 SLOAD PUSH1 0x40 MLOAD PUSH2 0x7ED SWAP3 SWAP2 SWAP1 SWAP2 DUP3 MSTORE PUSH1 0x20 DUP3 ADD MSTORE PUSH1 0x40 ADD SWAP1 JUMP JUMPDEST PUSH1 0x40 MLOAD DUP1 SWAP2 SUB SWAP1 LOG1 POP POP POP PUSH2 0x801 PUSH1 0x1 PUSH0 SSTORE JUMP JUMPDEST SWAP5 SWAP4 POP POP POP POP JUMP JUMPDEST PUSH0 PUSH2 0x812 PUSH2 0x1196 JUMP JUMPDEST PUSH1 0x1 SLOAD PUSH1 0x1 PUSH1 0xA0 SHL SWAP1 DIV PUSH1 0xFF AND ISZERO PUSH2 0x83D JUMPI PUSH1 0x40 MLOAD PUSH4 0xD93C0665 PUSH1 0xE0 SHL DUP2 MSTORE PUSH1 0x4 ADD PUSH1 0x40 MLOAD DUP1 SWAP2 SUB SWAP1 REVERT JUMPDEST DUP2 DUP1 NUMBER GT ISZERO PUSH2 0x85F JUMPI PUSH1 0x40 MLOAD PUSH4 0x559895A3 PUSH1 0xE0 SHL DUP2 MSTORE PUSH1 0x4 ADD PUSH1 0x40 MLOAD DUP1 SWAP2 SUB SWAP1 REVERT JUMPDEST DUP5 ISZERO DUP1 PUSH2 0x86A JUMPI POP DUP4 ISZERO JUMPDEST ISZERO PUSH2 0x888 JUMPI PUSH1 0x40 MLOAD PUSH4 0x1F2A2005 PUSH1 0xE0 SHL DUP2 MSTORE PUSH1 0x4 ADD PUSH1 0x40 MLOAD DUP1 SWAP2 SUB SWAP1 REVERT JUMPDEST PUSH1 0x2 SLOAD ISZERO DUP1 PUSH2 0x897 JUMPI POP PUSH1 0x3 SLOAD ISZERO JUMPDEST ISZERO PUSH2 0x8B5 JUMPI PUSH1 0x40 MLOAD PUSH4 0xBB55FD27 PUSH1 0xE0 SHL DUP2 MSTORE PUSH1 0x4 ADD PUSH1 0x40 MLOAD DUP1 SWAP2 SUB SWAP1 REVERT JUMPDEST PUSH2 0x8C4 DUP6 PUSH1 0x2 SLOAD PUSH1 0x3 SLOAD PUSH2 0x109D JUMP JUMPDEST SWAP2 POP DUP4 DUP3 LT ISZERO PUSH2 0x8E7 JUMPI PUSH1 0x40 MLOAD PUSH4 0x42301C23 PUSH1 0xE0 SHL DUP2 MSTORE PUSH1 0x4 ADD PUSH1 0x40 MLOAD DUP1 SWAP2 SUB SWAP1 REVERT JUMPDEST PUSH1 0x3 SLOAD DUP3 GT ISZERO PUSH2 0x90A JUMPI PUSH1 0x40 MLOAD PUSH4 0xBB55FD27 PUSH1 0xE0 SHL DUP2 MSTORE PUSH1 0x4 ADD PUSH1 0x40 MLOAD DUP1 SWAP2 SUB SWAP1 REVERT JUMPDEST PUSH1 0x3 SLOAD PUSH0 SWAP1 PUSH2 0x919 DUP5 DUP3 PUSH2 0x15FC JUMP JUMPDEST PUSH2 0x925 SWAP1 PUSH2 0x3E8 PUSH2 0x160F JUMP JUMPDEST PUSH2 0x92F SWAP2 SWAP1 PUSH2 0x1639 JUMP JUMPDEST SWAP1 POP PUSH1 0x5 SLOAD DUP2 LT ISZERO PUSH2 0x954 JUMPI PUSH1 0x40 MLOAD PUSH4 0x9882087 PUSH1 0xE4 SHL DUP2 MSTORE PUSH1 0x4 ADD PUSH1 0x40 MLOAD DUP1 SWAP2 SUB SWAP1 REVERT JUMPDEST DUP6 PUSH1 0x2 PUSH0 DUP3 DUP3 SLOAD PUSH2 0x965 SWAP2 SWAP1 PUSH2 0x1626 JUMP JUMPDEST SWAP3 POP POP DUP2 SWAP1 SSTORE POP DUP3 PUSH1 0x3 PUSH0 DUP3 DUP3 SLOAD PUSH2 0x97D SWAP2 SWAP1 PUSH2 0x15FC JUMP JUMPDEST SWAP1 SWAP2 SSTORE POP POP NUMBER PUSH1 0x4 SSTORE PUSH2 0x9BB PUSH1 0x1 PUSH1 0x1 PUSH1 0xA0 SHL SUB PUSH32 0x0 AND CALLER ADDRESS DUP10 PUSH2 0x1313 JUMP JUMPDEST PUSH2 0x9EF PUSH1 0x1 PUSH1 0x1 PUSH1 0xA0 SHL SUB PUSH32 0x0 AND CALLER DUP6 PUSH2 0x11BE JUMP JUMPDEST PUSH32 0x0 PUSH1 0x1 PUSH1 0x1 PUSH1 0xA0 SHL SUB AND PUSH32 0x0 PUSH1 0x1 PUSH1 0x1 PUSH1 0xA0 SHL SUB AND CALLER PUSH1 0x1 PUSH1 0x1 PUSH1 0xA0 SHL SUB AND PUSH32 0xC9163C3BDF7263ACF1BB3D24072CC7DA025F7181C31E2EDC7E1673EDF5E0CA32 DUP10 DUP8 NUMBER PUSH1 0x40 MLOAD PUSH2 0xA91 SWAP4 SWAP3 SWAP2 SWAP1 SWAP3 DUP4 MSTORE PUSH1 0x20 DUP4 ADD SWAP2 SWAP1 SWAP2 MSTORE PUSH1 0x40 DUP3 ADD MSTORE PUSH1 0x60 ADD SWAP1 JUMP JUMPDEST PUSH1 0x40 MLOAD DUP1 SWAP2 SUB SWAP1 LOG4 PUSH32 0xCF2AA50876CDFBB541206F89AF0EE78D44A2ABF8D328E37FA4917F982149848A PUSH1 0x2 SLOAD PUSH1 0x3 SLOAD PUSH1 0x40 MLOAD PUSH2 0xAD7 SWAP3 SWAP2 SWAP1 SWAP2 DUP3 MSTORE PUSH1 0x20 DUP3 ADD MSTORE PUSH1 0x40 ADD SWAP1 JUMP JUMPDEST PUSH1 0x40 MLOAD DUP1 SWAP2 SUB SWAP1 LOG1 POP POP PUSH2 0x357 PUSH1 0x1 PUSH0 SSTORE JUMP JUMPDEST PUSH2 0xAF2 PUSH2 0x1114 JUMP JUMPDEST PUSH2 0x1F4 DUP2 LT DUP1 PUSH2 0xB03 JUMPI POP PUSH2 0x3E8 DUP2 GT JUMPDEST ISZERO PUSH2 0xB21 JUMPI PUSH1 0x40 MLOAD PUSH4 0xAABD5A09 PUSH1 0xE0 SHL DUP2 MSTORE PUSH1 0x4 ADD PUSH1 0x40 MLOAD DUP1 SWAP2 SUB SWAP1 REVERT JUMPDEST PUSH1 0x5 DUP2 SWAP1 SSTORE PUSH1 0x40 MLOAD DUP2 DUP2 MSTORE PUSH32 0x4B61601BE904D344CDD7E3EA01867FB4090181CAB92FE0782835C6723F2E8FBA SWAP1 PUSH1 0x20 ADD PUSH1 0x40 MLOAD DUP1 SWAP2 SUB SWAP1 LOG1 POP JUMP JUMPDEST PUSH2 0xB64 PUSH2 0x1114 JUMP JUMPDEST PUSH1 0x1 PUSH1 0x1 PUSH1 0xA0 SHL SUB DUP2 AND PUSH2 0xB92 JUMPI PUSH1 0x40 MLOAD PUSH4 0x1E4FBDF7 PUSH1 0xE0 SHL DUP2 MSTORE PUSH0 PUSH1 0x4 DUP3 ADD MSTORE PUSH1 0x24 ADD JUMPDEST PUSH1 0x40 MLOAD DUP1 SWAP2 SUB SWAP1 REVERT JUMPDEST PUSH2 0x4A0 DUP2 PUSH2 0x1222 JUMP JUMPDEST PUSH0 PUSH2 0xBA4 PUSH2 0x1196 JUMP JUMPDEST PUSH1 0x1 SLOAD PUSH1 0x1 PUSH1 0xA0 SHL SWAP1 DIV PUSH1 0xFF AND ISZERO PUSH2 0xBCF JUMPI PUSH1 0x40 MLOAD PUSH4 0xD93C0665 PUSH1 0xE0 SHL DUP2 MSTORE PUSH1 0x4 ADD PUSH1 0x40 MLOAD DUP1 SWAP2 SUB SWAP1 REVERT JUMPDEST DUP2 DUP1 NUMBER GT ISZERO PUSH2 0xBF1 JUMPI PUSH1 0x40 MLOAD PUSH4 0x559895A3 PUSH1 0xE0 SHL DUP2 MSTORE PUSH1 0x4 ADD PUSH1 0x40 MLOAD DUP1 SWAP2 SUB SWAP1 REVERT JUMPDEST DUP5 ISZERO DUP1 PUSH2 0xBFC JUMPI POP DUP4 ISZERO JUMPDEST ISZERO PUSH2 0xC1A JUMPI PUSH1 0x40 MLOAD PUSH4 0x1F2A2005 PUSH1 0xE0 SHL DUP2 MSTORE PUSH1 0x4 ADD PUSH1 0x40 MLOAD DUP1 SWAP2 SUB SWAP1 REVERT JUMPDEST PUSH1 0x2 SLOAD ISZERO DUP1 PUSH2 0xC29 JUMPI POP PUSH1 0x3 SLOAD ISZERO JUMPDEST ISZERO PUSH2 0xC47 JUMPI PUSH1 0x40 MLOAD PUSH4 0xBB55FD27 PUSH1 0xE0 SHL DUP2 MSTORE PUSH1 0x4 ADD PUSH1 0x40 MLOAD DUP1 SWAP2 SUB SWAP1 REVERT JUMPDEST PUSH2 0xC56 DUP6 PUSH1 0x3 SLOAD PUSH1 0x2 SLOAD PUSH2 0x109D JUMP JUMPDEST SWAP2 POP DUP4 DUP3 LT ISZERO PUSH2 0xC79 JUMPI PUSH1 0x40 MLOAD PUSH4 0x42301C23 PUSH1 0xE0 SHL DUP2 MSTORE PUSH1 0x4 ADD PUSH1 0x40 MLOAD DUP1 SWAP2 SUB SWAP1 REVERT JUMPDEST PUSH1 0x2 SLOAD DUP3 GT ISZERO PUSH2 0xC9C JUMPI PUSH1 0x40 MLOAD PUSH4 0xBB55FD27 PUSH1 0xE0 SHL DUP2 MSTORE PUSH1 0x4 ADD PUSH1 0x40 MLOAD DUP1 SWAP2 SUB SWAP1 REVERT JUMPDEST PUSH1 0x2 SLOAD PUSH0 SWAP1 PUSH2 0xCAB DUP5 DUP3 PUSH2 0x15FC JUMP JUMPDEST PUSH2 0xCB7 SWAP1 PUSH2 0x3E8 PUSH2 0x160F JUMP JUMPDEST PUSH2 0xCC1 SWAP2 SWAP1 PUSH2 0x1639 JUMP JUMPDEST SWAP1 POP PUSH1 0x5 SLOAD DUP2 LT ISZERO PUSH2 0xCE6 JUMPI PUSH1 0x40 MLOAD PUSH4 0x9882087 PUSH1 0xE4 SHL DUP2 MSTORE PUSH1 0x4 ADD PUSH1 0x40 MLOAD DUP1 SWAP2 SUB SWAP1 REVERT JUMPDEST DUP6 PUSH1 0x3 PUSH0 DUP3 DUP3 SLOAD PUSH2 0xCF7 SWAP2 SWAP1 PUSH2 0x1626 JUMP JUMPDEST SWAP3 POP POP DUP2 SWAP1 SSTORE POP DUP3 PUSH1 0x2 PUSH0 DUP3 DUP3 SLOAD PUSH2 0xD0F SWAP2 SWAP1 PUSH2 0x15FC JUMP JUMPDEST SWAP1 SWAP2 SSTORE POP POP NUMBER PUSH1 0x4 SSTORE PUSH2 0xD4D PUSH1 0x1 PUSH1 0x1 PUSH1 0xA0 SHL SUB PUSH32 0x0 AND CALLER ADDRESS DUP10 PUSH2 0x1313 JUMP JUMPDEST PUSH2 0xD81 PUSH1 0x1 PUSH1 0x1 PUSH1 0xA0 SHL SUB PUSH32 0x0 AND CALLER DUP6 PUSH2 0x11BE JUMP JUMPDEST PUSH32 0x0 PUSH1 0x1 PUSH1 0x1 PUSH1 0xA0 SHL SUB AND PUSH32 0x0 PUSH1 0x1 PUSH1 0x1 PUSH1 0xA0 SHL SUB AND CALLER PUSH1 0x1 PUSH1 0x1 PUSH1 0xA0 SHL SUB AND PUSH32 0xC9163C3BDF7263ACF1BB3D24072CC7DA025F7181C31E2EDC7E1673EDF5E0CA32 DUP10 DUP8 NUMBER PUSH1 0x40 MLOAD PUSH2 0xA91 SWAP4 SWAP3 SWAP2 SWAP1 SWAP3 DUP4 MSTORE PUSH1 0x20 DUP4 ADD SWAP2 SWAP1 SWAP2 MSTORE PUSH1 0x40 DUP3 ADD MSTORE PUSH1 0x60 ADD SWAP1 JUMP JUMPDEST PUSH0 DUP1 PUSH2 0xE2D PUSH2 0x1196 JUMP JUMPDEST PUSH1 0x1 SLOAD PUSH1 0x1 PUSH1 0xA0 SHL SWAP1 DIV PUSH1 0xFF AND ISZERO PUSH2 0xE58 JUMPI PUSH1 0x40 MLOAD PUSH4 0xD93C0665 PUSH1 0xE0 SHL DUP2 MSTORE PUSH1 0x4 ADD PUSH1 0x40 MLOAD DUP1 SWAP2 SUB SWAP1 REVERT JUMPDEST DUP3 DUP1 NUMBER GT ISZERO PUSH2 0xE7A JUMPI PUSH1 0x40 MLOAD PUSH4 0x559895A3 PUSH1 0xE0 SHL DUP2 MSTORE PUSH1 0x4 ADD PUSH1 0x40 MLOAD DUP1 SWAP2 SUB SWAP1 REVERT JUMPDEST DUP7 PUSH0 SUB PUSH2 0xE9A JUMPI PUSH1 0x40 MLOAD PUSH4 0x1F2A2005 PUSH1 0xE0 SHL DUP2 MSTORE PUSH1 0x4 ADD PUSH1 0x40 MLOAD DUP1 SWAP2 SUB SWAP1 REVERT JUMPDEST CALLER PUSH0 SWAP1 DUP2 MSTORE PUSH1 0x6 PUSH1 0x20 MSTORE PUSH1 0x40 SWAP1 KECCAK256 SLOAD DUP8 GT ISZERO PUSH2 0xEC9 JUMPI PUSH1 0x40 MLOAD PUSH4 0x47A73AD9 PUSH1 0xE1 SHL DUP2 MSTORE PUSH1 0x4 ADD PUSH1 0x40 MLOAD DUP1 SWAP2 SUB SWAP1 REVERT JUMPDEST PUSH0 PUSH1 0x3 SLOAD PUSH1 0x2 SLOAD PUSH2 0xEDA SWAP2 SWAP1 PUSH2 0x1626 JUMP JUMPDEST SWAP1 POP DUP1 DUP9 PUSH1 0x2 SLOAD PUSH2 0xEEB SWAP2 SWAP1 PUSH2 0x160F JUMP JUMPDEST PUSH2 0xEF5 SWAP2 SWAP1 PUSH2 0x1639 JUMP JUMPDEST SWAP4 POP DUP1 DUP9 PUSH1 0x3 SLOAD PUSH2 0xF06 SWAP2 SWAP1 PUSH2 0x160F JUMP JUMPDEST PUSH2 0xF10 SWAP2 SWAP1 PUSH2 0x1639 JUMP JUMPDEST SWAP3 POP DUP7 DUP5 LT DUP1 PUSH2 0xF1F JUMPI POP DUP6 DUP4 LT JUMPDEST ISZERO PUSH2 0xF3D JUMPI PUSH1 0x40 MLOAD PUSH4 0x42301C23 PUSH1 0xE0 SHL DUP2 MSTORE PUSH1 0x4 ADD PUSH1 0x40 MLOAD DUP1 SWAP2 SUB SWAP1 REVERT JUMPDEST DUP4 PUSH1 0x2 PUSH0 DUP3 DUP3 SLOAD PUSH2 0xF4E SWAP2 SWAP1 PUSH2 0x15FC JUMP JUMPDEST SWAP3 POP POP DUP2 SWAP1 SSTORE POP DUP3 PUSH1 0x3 PUSH0 DUP3 DUP3 SLOAD PUSH2 0xF66 SWAP2 SWAP1 PUSH2 0x15FC JUMP JUMPDEST SWAP1 SWAP2 SSTORE POP POP CALLER PUSH0 SWAP1 DUP2 MSTORE PUSH1 0x6 PUSH1 0x20 MSTORE PUSH1 0x40 DUP2 KECCAK256 DUP1 SLOAD DUP11 SWAP3 SWAP1 PUSH2 0xF89 SWAP1 DUP5 SWAP1 PUSH2 0x15FC JUMP JUMPDEST SWAP1 SWAP2 SSTORE POP POP NUMBER PUSH1 0x4 SSTORE PUSH2 0xFC6 PUSH1 0x1 PUSH1 0x1 PUSH1 0xA0 SHL SUB PUSH32 0x0 AND CALLER DUP7 PUSH2 0x11BE JUMP JUMPDEST PUSH2 0xFFA PUSH1 0x1 PUSH1 0x1 PUSH1 0xA0 SHL SUB PUSH32 0x0 AND CALLER DUP6 PUSH2 0x11BE JUMP JUMPDEST PUSH1 0x40 DUP1 MLOAD DUP6 DUP2 MSTORE PUSH1 0x20 DUP2 ADD DUP6 SWAP1 MSTORE SWAP1 DUP2 ADD DUP10 SWAP1 MSTORE NUMBER PUSH1 0x60 DUP3 ADD MSTORE CALLER SWAP1 PUSH32 0x8598E6B147330D38243F9C4CD33D61E208B9015719E977086FA42A0F73B1462B SWAP1 PUSH1 0x80 ADD PUSH1 0x40 MLOAD DUP1 SWAP2 SUB SWAP1 LOG2 PUSH32 0xCF2AA50876CDFBB541206F89AF0EE78D44A2ABF8D328E37FA4917F982149848A PUSH1 0x2 SLOAD PUSH1 0x3 SLOAD PUSH1 0x40 MLOAD PUSH2 0x1081 SWAP3 SWAP2 SWAP1 SWAP2 DUP3 MSTORE PUSH1 0x20 DUP3 ADD MSTORE PUSH1 0x40 ADD SWAP1 JUMP JUMPDEST PUSH1 0x40 MLOAD DUP1 SWAP2 SUB SWAP1 LOG1 POP POP PUSH2 0x1094 PUSH1 0x1 PUSH0 SSTORE JUMP JUMPDEST SWAP5 POP SWAP5 SWAP3 POP POP POP JUMP JUMPDEST PUSH0 DUP4 ISZERO DUP1 PUSH2 0x10A9 JUMPI POP DUP3 ISZERO JUMPDEST DUP1 PUSH2 0x10B2 JUMPI POP DUP2 ISZERO JUMPDEST ISZERO PUSH2 0x10BE JUMPI POP PUSH0 PUSH2 0x357 JUMP JUMPDEST PUSH0 PUSH2 0x10CC PUSH1 0x3 PUSH2 0x3E8 PUSH2 0x15FC JUMP JUMPDEST PUSH2 0x10D6 SWAP1 DUP7 PUSH2 0x160F JUMP JUMPDEST SWAP1 POP PUSH0 PUSH2 0x10E3 DUP5 DUP4 PUSH2 0x160F JUMP JUMPDEST SWAP1 POP PUSH0 DUP3 PUSH2 0x10F3 PUSH2 0x3E8 DUP9 PUSH2 0x160F JUMP JUMPDEST PUSH2 0x10FD SWAP2 SWAP1 PUSH2 0x1626 JUMP JUMPDEST SWAP1 POP PUSH2 0x1109 DUP2 DUP4 PUSH2 0x1639 JUMP JUMPDEST SWAP8 SWAP7 POP POP POP POP POP POP POP JUMP JUMPDEST PUSH1 0x1 SLOAD PUSH1 0x1 PUSH1 0x1 PUSH1 0xA0 SHL SUB AND CALLER EQ PUSH2 0x36E JUMPI PUSH1 0x40 MLOAD PUSH4 0x118CDAA7 PUSH1 0xE0 SHL DUP2 MSTORE CALLER PUSH1 0x4 DUP3 ADD MSTORE PUSH1 0x24 ADD PUSH2 0xB89 JUMP JUMPDEST PUSH2 0x1149 PUSH2 0x1352 JUMP JUMPDEST PUSH1 0x1 DUP1 SLOAD PUSH1 0xFF PUSH1 0xA0 SHL NOT AND SWAP1 SSTORE PUSH32 0x5DB9EE0A495BF2E6FF9C91A7834C1BA4FDD244A5E8AA4E537BD38AEAE4B073AA CALLER JUMPDEST PUSH1 0x40 MLOAD PUSH1 0x1 PUSH1 0x1 PUSH1 0xA0 SHL SUB SWAP1 SWAP2 AND DUP2 MSTORE PUSH1 0x20 ADD PUSH1 0x40 MLOAD DUP1 SWAP2 SUB SWAP1 LOG1 JUMP JUMPDEST PUSH1 0x2 PUSH0 SLOAD SUB PUSH2 0x11B8 JUMPI PUSH1 0x40 MLOAD PUSH4 0x3EE5AEB5 PUSH1 0xE0 SHL DUP2 MSTORE PUSH1 0x4 ADD PUSH1 0x40 MLOAD DUP1 SWAP2 SUB SWAP1 REVERT JUMPDEST PUSH1 0x2 PUSH0 SSTORE JUMP JUMPDEST PUSH1 0x40 MLOAD PUSH1 0x1 PUSH1 0x1 PUSH1 0xA0 SHL SUB DUP4 DUP2 AND PUSH1 0x24 DUP4 ADD MSTORE PUSH1 0x44 DUP3 ADD DUP4 SWAP1 MSTORE PUSH2 0x121D SWAP2 DUP6 SWAP2 DUP3 AND SWAP1 PUSH4 0xA9059CBB SWAP1 PUSH1 0x64 ADD JUMPDEST PUSH1 0x40 MLOAD PUSH1 0x20 DUP2 DUP4 SUB SUB DUP2 MSTORE SWAP1 PUSH1 0x40 MSTORE SWAP2 POP PUSH1 0xE0 SHL PUSH1 0x20 DUP3 ADD DUP1 MLOAD PUSH1 0x1 PUSH1 0x1 PUSH1 0xE0 SHL SUB DUP4 DUP2 DUP4 AND OR DUP4 MSTORE POP POP POP POP PUSH2 0x137C JUMP JUMPDEST POP POP POP JUMP JUMPDEST PUSH1 0x1 DUP1 SLOAD PUSH1 0x1 PUSH1 0x1 PUSH1 0xA0 SHL SUB DUP4 DUP2 AND PUSH1 0x1 PUSH1 0x1 PUSH1 0xA0 SHL SUB NOT DUP4 AND DUP2 OR SWAP1 SWAP4 SSTORE PUSH1 0x40 MLOAD SWAP2 AND SWAP2 SWAP1 DUP3 SWAP1 PUSH32 0x8BE0079C531659141344CD1FD0A4F28419497F9722A3DAAFE3B4186F6B6457E0 SWAP1 PUSH0 SWAP1 LOG3 POP POP JUMP JUMPDEST PUSH2 0x127B PUSH2 0x13DD JUMP JUMPDEST PUSH1 0x1 DUP1 SLOAD PUSH1 0xFF PUSH1 0xA0 SHL NOT AND PUSH1 0x1 PUSH1 0xA0 SHL OR SWAP1 SSTORE PUSH32 0x62E78CEA01BEE320CD4E420270B5EA74000D11B0C9F74754EBDBFC544B05A258 PUSH2 0x1179 CALLER SWAP1 JUMP JUMPDEST PUSH0 DUP2 PUSH0 SUB PUSH2 0x12C5 JUMPI POP PUSH0 SWAP2 SWAP1 POP JUMP JUMPDEST PUSH0 PUSH1 0x2 PUSH2 0x12D3 DUP5 PUSH1 0x1 PUSH2 0x1626 JUMP JUMPDEST PUSH2 0x12DD SWAP2 SWAP1 PUSH2 0x1639 JUMP JUMPDEST SWAP1 POP DUP3 JUMPDEST DUP1 DUP3 LT ISZERO PUSH2 0x357 JUMPI POP DUP1 PUSH1 0x2 DUP2 PUSH2 0x12F8 DUP2 DUP8 PUSH2 0x1639 JUMP JUMPDEST PUSH2 0x1302 SWAP2 SWAP1 PUSH2 0x1626 JUMP JUMPDEST PUSH2 0x130C SWAP2 SWAP1 PUSH2 0x1639 JUMP JUMPDEST SWAP2 POP PUSH2 0x12E1 JUMP JUMPDEST PUSH1 0x40 MLOAD PUSH1 0x1 PUSH1 0x1 PUSH1 0xA0 SHL SUB DUP5 DUP2 AND PUSH1 0x24 DUP4 ADD MSTORE DUP4 DUP2 AND PUSH1 0x44 DUP4 ADD MSTORE PUSH1 0x64 DUP3 ADD DUP4 SWAP1 MSTORE PUSH2 0x134C SWAP2 DUP7 SWAP2 DUP3 AND SWAP1 PUSH4 0x23B872DD SWAP1 PUSH1 0x84 ADD PUSH2 0x11EB JUMP JUMPDEST POP POP POP POP JUMP JUMPDEST PUSH1 0x1 SLOAD PUSH1 0x1 PUSH1 0xA0 SHL SWAP1 DIV PUSH1 0xFF AND PUSH2 0x36E JUMPI PUSH1 0x40 MLOAD PUSH4 0x8DFC202B PUSH1 0xE0 SHL DUP2 MSTORE PUSH1 0x4 ADD PUSH1 0x40 MLOAD DUP1 SWAP2 SUB SWAP1 REVERT JUMPDEST PUSH0 PUSH2 0x1390 PUSH1 0x1 PUSH1 0x1 PUSH1 0xA0 SHL SUB DUP5 AND DUP4 PUSH2 0x1408 JUMP JUMPDEST SWAP1 POP DUP1 MLOAD PUSH0 EQ ISZERO DUP1 ISZERO PUSH2 0x13B4 JUMPI POP DUP1 DUP1 PUSH1 0x20 ADD SWAP1 MLOAD DUP2 ADD SWAP1 PUSH2 0x13B2 SWAP2 SWAP1 PUSH2 0x1658 JUMP JUMPDEST ISZERO JUMPDEST ISZERO PUSH2 0x121D JUMPI PUSH1 0x40 MLOAD PUSH4 0x5274AFE7 PUSH1 0xE0 SHL DUP2 MSTORE PUSH1 0x1 PUSH1 0x1 PUSH1 0xA0 SHL SUB DUP5 AND PUSH1 0x4 DUP3 ADD MSTORE PUSH1 0x24 ADD PUSH2 0xB89 JUMP JUMPDEST PUSH1 0x1 SLOAD PUSH1 0x1 PUSH1 0xA0 SHL SWAP1 DIV PUSH1 0xFF AND ISZERO PUSH2 0x36E JUMPI PUSH1 0x40 MLOAD PUSH4 0xD93C0665 PUSH1 0xE0 SHL DUP2 MSTORE PUSH1 0x4 ADD PUSH1 0x40 MLOAD DUP1 SWAP2 SUB SWAP1 REVERT JUMPDEST PUSH1 0x60 PUSH2 0x1415 DUP4 DUP4 PUSH0 PUSH2 0x141E JUMP JUMPDEST SWAP1 POP JUMPDEST SWAP3 SWAP2 POP POP JUMP JUMPDEST PUSH1 0x60 DUP2 SELFBALANCE LT ISZERO PUSH2 0x1443 JUMPI PUSH1 0x40 MLOAD PUSH4 0xCD786059 PUSH1 0xE0 SHL DUP2 MSTORE ADDRESS PUSH1 0x4 DUP3 ADD MSTORE PUSH1 0x24 ADD PUSH2 0xB89 JUMP JUMPDEST PUSH0 DUP1 DUP6 PUSH1 0x1 PUSH1 0x1 PUSH1 0xA0 SHL SUB AND DUP5 DUP7 PUSH1 0x40 MLOAD PUSH2 0x145E SWAP2 SWAP1 PUSH2 0x1677 JUMP JUMPDEST PUSH0 PUSH1 0x40 MLOAD DUP1 DUP4 SUB DUP2 DUP6 DUP8 GAS CALL SWAP3 POP POP POP RETURNDATASIZE DUP1 PUSH0 DUP2 EQ PUSH2 0x1498 JUMPI PUSH1 0x40 MLOAD SWAP2 POP PUSH1 0x1F NOT PUSH1 0x3F RETURNDATASIZE ADD AND DUP3 ADD PUSH1 0x40 MSTORE RETURNDATASIZE DUP3 MSTORE RETURNDATASIZE PUSH0 PUSH1 0x20 DUP5 ADD RETURNDATACOPY PUSH2 0x149D JUMP JUMPDEST PUSH1 0x60 SWAP2 POP JUMPDEST POP SWAP2 POP SWAP2 POP PUSH2 0x14AD DUP7 DUP4 DUP4 PUSH2 0x14B7 JUMP JUMPDEST SWAP7 SWAP6 POP POP POP POP POP POP JUMP JUMPDEST PUSH1 0x60 DUP3 PUSH2 0x14CC JUMPI PUSH2 0x14C7 DUP3 PUSH2 0x1513 JUMP JUMPDEST PUSH2 0x357 JUMP JUMPDEST DUP2 MLOAD ISZERO DUP1 ISZERO PUSH2 0x14E3 JUMPI POP PUSH1 0x1 PUSH1 0x1 PUSH1 0xA0 SHL SUB DUP5 AND EXTCODESIZE ISZERO JUMPDEST ISZERO PUSH2 0x150C JUMPI PUSH1 0x40 MLOAD PUSH4 0x9996B315 PUSH1 0xE0 SHL DUP2 MSTORE PUSH1 0x1 PUSH1 0x1 PUSH1 0xA0 SHL SUB DUP6 AND PUSH1 0x4 DUP3 ADD MSTORE PUSH1 0x24 ADD PUSH2 0xB89 JUMP JUMPDEST POP DUP1 PUSH2 0x357 JUMP JUMPDEST DUP1 MLOAD ISZERO PUSH2 0x1523 JUMPI DUP1 MLOAD DUP1 DUP3 PUSH1 0x20 ADD REVERT JUMPDEST PUSH1 0x40 MLOAD PUSH4 0xA12F521 PUSH1 0xE1 SHL DUP2 MSTORE PUSH1 0x4 ADD PUSH1 0x40 MLOAD DUP1 SWAP2 SUB SWAP1 REVERT JUMPDEST PUSH0 DUP1 PUSH0 PUSH1 0x60 DUP5 DUP7 SUB SLT ISZERO PUSH2 0x154E JUMPI PUSH0 DUP1 REVERT JUMPDEST POP POP DUP2 CALLDATALOAD SWAP4 PUSH1 0x20 DUP4 ADD CALLDATALOAD SWAP4 POP PUSH1 0x40 SWAP1 SWAP3 ADD CALLDATALOAD SWAP2 SWAP1 POP JUMP JUMPDEST PUSH0 PUSH1 0x20 DUP3 DUP5 SUB SLT ISZERO PUSH2 0x1575 JUMPI PUSH0 DUP1 REVERT JUMPDEST DUP2 CALLDATALOAD PUSH1 0x1 PUSH1 0x1 PUSH1 0xA0 SHL SUB DUP2 AND DUP2 EQ PUSH2 0x357 JUMPI PUSH0 DUP1 REVERT JUMPDEST PUSH0 DUP1 PUSH0 DUP1 PUSH1 0x80 DUP6 DUP8 SUB SLT ISZERO PUSH2 0x159E JUMPI PUSH0 DUP1 REVERT JUMPDEST POP POP DUP3 CALLDATALOAD SWAP5 PUSH1 0x20 DUP5 ADD CALLDATALOAD SWAP5 POP PUSH1 0x40 DUP5 ADD CALLDATALOAD SWAP4 PUSH1 0x60 ADD CALLDATALOAD SWAP3 POP SWAP1 POP JUMP JUMPDEST PUSH0 PUSH1 0x20 DUP3 DUP5 SUB SLT ISZERO PUSH2 0x15CA JUMPI PUSH0 DUP1 REVERT JUMPDEST POP CALLDATALOAD SWAP2 SWAP1 POP JUMP JUMPDEST PUSH0 PUSH1 0x20 DUP3 DUP5 SUB SLT ISZERO PUSH2 0x15E1 JUMPI PUSH0 DUP1 REVERT JUMPDEST POP MLOAD SWAP2 SWAP1 POP JUMP JUMPDEST PUSH4 0x4E487B71 PUSH1 0xE0 SHL PUSH0 MSTORE PUSH1 0x11 PUSH1 0x4 MSTORE PUSH1 0x24 PUSH0 REVERT JUMPDEST DUP2 DUP2 SUB DUP2 DUP2 GT ISZERO PUSH2 0x1418 JUMPI PUSH2 0x1418 PUSH2 0x15E8 JUMP JUMPDEST DUP1 DUP3 MUL DUP2 ISZERO DUP3 DUP3 DIV DUP5 EQ OR PUSH2 0x1418 JUMPI PUSH2 0x1418 PUSH2 0x15E8 JUMP JUMPDEST DUP1 DUP3 ADD DUP1 DUP3 GT ISZERO PUSH2 0x1418 JUMPI PUSH2 0x1418 PUSH2 0x15E8 JUMP JUMPDEST PUSH0 DUP3 PUSH2 0x1653 JUMPI PUSH4 0x4E487B71 PUSH1 0xE0 SHL PUSH0 MSTORE PUSH1 0x12 PUSH1 0x4 MSTORE PUSH1 0x24 PUSH0 REVERT JUMPDEST POP DIV SWAP1 JUMP JUMPDEST PUSH0 PUSH1 0x20 DUP3 DUP5 SUB SLT ISZERO PUSH2 0x1668 JUMPI PUSH0 DUP1 REVERT JUMPDEST DUP2 MLOAD DUP1 ISZERO ISZERO DUP2 EQ PUSH2 0x357 JUMPI PUSH0 DUP1 REVERT JUMPDEST PUSH0 DUP3 MLOAD PUSH0 JUMPDEST DUP2 DUP2 LT ISZERO PUSH2 0x1696 JUMPI PUSH1 0x20 DUP2 DUP7 ADD DUP2 ADD MLOAD DUP6 DUP4 ADD MSTORE ADD PUSH2 0x167C JUMP JUMPDEST POP PUSH0 SWAP3 ADD SWAP2 DUP3 MSTORE POP SWAP2 SWAP1 POP JUMP INVALID LOG2 PUSH5 0x6970667358 0x22 SLT KECCAK256 TSTORE 0xC8 0xEE CODESIZE SWAP6 ADD BLOBHASH DELEGATECALL RETURNDATACOPY 0xA7 CALLDATACOPY SGT 0x28 MUL 0xF8 PUSH15 0x13647172B9A99F7E337CA09D1B5892 SELFBALANCE PUSH5 0x736F6C6343 STOP ADDMOD XOR STOP CALLER "
		},
		"gasEstimates": {
			"creation": {
				"codeDepositCost": "1169800",
				"executionCost": "infinite",
				"totalCost": "infinite"
			},
			"external": {
				"FEE_DENOMINATOR()": "205",
				"FEE_NUMERATOR()": "317",
				"addLiquidity(uint256,uint256,uint256,uint256)": "infinite",
				"emergencyWithdraw(address)": "infinite",
				"getAmountOut(uint256,uint256,uint256)": "infinite",
				"getReserves()": "4453",
				"getUserLiquidity(address)": "2532",
				"lastUpdateBlock()": "2328",
				"owner()": "2353",
				"pause()": "infinite",
				"paused()": "2331",
				"priceImpactThreshold()": "2394",
				"removeLiquidity(uint256,uint256,uint256,uint256)": "infinite",
				"renounceOwnership()": "infinite",
				"reserveA()": "2349",
				"reserveB()": "2373",
				"setPriceImpactThreshold(uint256)": "25738",
				"swapExactTokenAForTokenB(uint256,uint256,uint256)": "infinite",
				"swapExactTokenBForTokenA(uint256,uint256,uint256)": "infinite",
				"tokenA()": "infinite",
				"tokenB()": "infinite",
				"transferOwnership(address)": "28386",
				"unpause()": "infinite",
				"userLiquidity(address)": "2559"
			},
			"internal": {
				"_getAmountOut(uint256,uint256,uint256)": "infinite",
				"sqrt(uint256)": "infinite"
			}
		},
		"methodIdentifiers": {
			"FEE_DENOMINATOR()": "d73792a9",
			"FEE_NUMERATOR()": "41cd47bf",
			"addLiquidity(uint256,uint256,uint256,uint256)": "aebf3e41",
			"emergencyWithdraw(address)": "6ff1c9bc",
			"getAmountOut(uint256,uint256,uint256)": "054d50d4",
			"getReserves()": "0902f1ac",
			"getUserLiquidity(address)": "dbbdd935",
			"lastUpdateBlock()": "a218141b",
			"owner()": "8da5cb5b",
			"pause()": "8456cb59",
			"paused()": "5c975abb",
			"priceImpactThreshold()": "76ea38b0",
			"removeLiquidity(uint256,uint256,uint256,uint256)": "f88bf15a",
			"renounceOwnership()": "715018a6",
			"reserveA()": "dc5fa6c5",
			"reserveB()": "19e36f3b",
			"setPriceImpactThreshold(uint256)": "cb2068d8",
			"swapExactTokenAForTokenB(uint256,uint256,uint256)": "c4727964",
			"swapExactTokenBForTokenA(uint256,uint256,uint256)": "f6767d9b",
			"tokenA()": "0fc63d10",
			"tokenB()": "5f64b55b",
			"transferOwnership(address)": "f2fde38b",
			"unpause()": "3f4ba83a",
			"userLiquidity(address)": "ba4c28c3"
		}
	},
	"abi": [
		{
			"inputs": [
				{
					"internalType": "address",
					"name": "tokenAAddress",
					"type": "address"
				},
				{
					"internalType": "address",
					"name": "tokenBAddress",
					"type": "address"
				}
			],
			"stateMutability": "nonpayable",
			"type": "constructor"
		},
		{
			"inputs": [
				{
					"internalType": "address",
					"name": "target",
					"type": "address"
				}
			],
			"name": "AddressEmptyCode",
			"type": "error"
		},
		{
			"inputs": [
				{
					"internalType": "address",
					"name": "account",
					"type": "address"
				}
			],
			"name": "AddressInsufficientBalance",
			"type": "error"
		},
		{
			"inputs": [],
			"name": "ArithmeticError",
			"type": "error"
		},
		{
			"inputs": [],
			"name": "DeadlineExceeded",
			"type": "error"
		},
		{
			"inputs": [],
			"name": "EnforcedPause",
			"type": "error"
		},
		{
			"inputs": [],
			"name": "ExcessivePriceImpact",
			"type": "error"
		},
		{
			"inputs": [],
			"name": "ExpectedPause",
			"type": "error"
		},
		{
			"inputs": [],
			"name": "FailedInnerCall",
			"type": "error"
		},
		{
			"inputs": [],
			"name": "FailedTransfer",
			"type": "error"
		},
		{
			"inputs": [],
			"name": "IdenticalTokens",
			"type": "error"
		},
		{
			"inputs": [],
			"name": "InsufficientLiquidity",
			"type": "error"
		},
		{
			"inputs": [],
			"name": "InsufficientOutputAmount",
			"type": "error"
		},
		{
			"inputs": [],
			"name": "InvalidThreshold",
			"type": "error"
		},
		{
			"inputs": [],
			"name": "InvalidToken",
			"type": "error"
		},
		{
			"inputs": [],
			"name": "LiquidityLocked",
			"type": "error"
		},
		{
			"inputs": [
				{
					"internalType": "address",
					"name": "owner",
					"type": "address"
				}
			],
			"name": "OwnableInvalidOwner",
			"type": "error"
		},
		{
			"inputs": [
				{
					"internalType": "address",
					"name": "account",
					"type": "address"
				}
			],
			"name": "OwnableUnauthorizedAccount",
			"type": "error"
		},
		{
			"inputs": [],
			"name": "ReentrancyGuardReentrantCall",
			"type": "error"
		},
		{
			"inputs": [
				{
					"internalType": "address",
					"name": "token",
					"type": "address"
				}
			],
			"name": "SafeERC20FailedOperation",
			"type": "error"
		},
		{
			"inputs": [],
			"name": "ZeroAddress",
			"type": "error"
		},
		{
			"inputs": [],
			"name": "ZeroAmount",
			"type": "error"
		},
		{
			"anonymous": false,
			"inputs": [
				{
					"indexed": true,
					"internalType": "address",
					"name": "user",
					"type": "address"
				},
				{
					"indexed": false,
					"internalType": "uint256",
					"name": "amountA",
					"type": "uint256"
				},
				{
					"indexed": false,
					"internalType": "uint256",
					"name": "amountB",
					"type": "uint256"
				},
				{
					"indexed": false,
					"internalType": "uint256",
					"name": "liquidityMinted",
					"type": "uint256"
				},
				{
					"indexed": false,
					"internalType": "uint256",
					"name": "blockNumber",
					"type": "uint256"
				}
			],
			"name": "LiquidityAdded",
			"type": "event"
		},
		{
			"anonymous": false,
			"inputs": [
				{
					"indexed": true,
					"internalType": "address",
					"name": "user",
					"type": "address"
				},
				{
					"indexed": false,
					"internalType": "uint256",
					"name": "amountA",
					"type": "uint256"
				},
				{
					"indexed": false,
					"internalType": "uint256",
					"name": "amountB",
					"type": "uint256"
				},
				{
					"indexed": false,
					"internalType": "uint256",
					"name": "liquidityBurned",
					"type": "uint256"
				},
				{
					"indexed": false,
					"internalType": "uint256",
					"name": "blockNumber",
					"type": "uint256"
				}
			],
			"name": "LiquidityRemoved",
			"type": "event"
		},
		{
			"anonymous": false,
			"inputs": [
				{
					"indexed": true,
					"internalType": "address",
					"name": "previousOwner",
					"type": "address"
				},
				{
					"indexed": true,
					"internalType": "address",
					"name": "newOwner",
					"type": "address"
				}
			],
			"name": "OwnershipTransferred",
			"type": "event"
		},
		{
			"anonymous": false,
			"inputs": [
				{
					"indexed": false,
					"internalType": "address",
					"name": "account",
					"type": "address"
				}
			],
			"name": "Paused",
			"type": "event"
		},
		{
			"anonymous": false,
			"inputs": [
				{
					"indexed": false,
					"internalType": "uint256",
					"name": "newThreshold",
					"type": "uint256"
				}
			],
			"name": "PriceImpactThresholdUpdated",
			"type": "event"
		},
		{
			"anonymous": false,
			"inputs": [
				{
					"indexed": true,
					"internalType": "address",
					"name": "user",
					"type": "address"
				},
				{
					"indexed": true,
					"internalType": "address",
					"name": "tokenIn",
					"type": "address"
				},
				{
					"indexed": true,
					"internalType": "address",
					"name": "tokenOut",
					"type": "address"
				},
				{
					"indexed": false,
					"internalType": "uint256",
					"name": "amountIn",
					"type": "uint256"
				},
				{
					"indexed": false,
					"internalType": "uint256",
					"name": "amountOut",
					"type": "uint256"
				},
				{
					"indexed": false,
					"internalType": "uint256",
					"name": "blockNumber",
					"type": "uint256"
				}
			],
			"name": "Swapped",
			"type": "event"
		},
		{
			"anonymous": false,
			"inputs": [
				{
					"indexed": false,
					"internalType": "uint256",
					"name": "reserveA",
					"type": "uint256"
				},
				{
					"indexed": false,
					"internalType": "uint256",
					"name": "reserveB",
					"type": "uint256"
				}
			],
			"name": "Sync",
			"type": "event"
		},
		{
			"anonymous": false,
			"inputs": [
				{
					"indexed": false,
					"internalType": "address",
					"name": "account",
					"type": "address"
				}
			],
			"name": "Unpaused",
			"type": "event"
		},
		{
			"inputs": [],
			"name": "FEE_DENOMINATOR",
			"outputs": [
				{
					"internalType": "uint256",
					"name": "",
					"type": "uint256"
				}
			],
			"stateMutability": "view",
			"type": "function"
		},
		{
			"inputs": [],
			"name": "FEE_NUMERATOR",
			"outputs": [
				{
					"internalType": "uint256",
					"name": "",
					"type": "uint256"
				}
			],
			"stateMutability": "view",
			"type": "function"
		},
		{
			"inputs": [
				{
					"internalType": "uint256",
					"name": "amountA",
					"type": "uint256"
				},
				{
					"internalType": "uint256",
					"name": "amountB",
					"type": "uint256"
				},
				{
					"internalType": "uint256",
					"name": "minLiquidity",
					"type": "uint256"
				},
				{
					"internalType": "uint256",
					"name": "deadline",
					"type": "uint256"
				}
			],
			"name": "addLiquidity",
			"outputs": [
				{
					"internalType": "uint256",
					"name": "liquidity",
					"type": "uint256"
				}
			],
			"stateMutability": "nonpayable",
			"type": "function"
		},
		{
			"inputs": [
				{
					"internalType": "address",
					"name": "token",
					"type": "address"
				}
			],
			"name": "emergencyWithdraw",
			"outputs": [],
			"stateMutability": "nonpayable",
			"type": "function"
		},
		{
			"inputs": [
				{
					"internalType": "uint256",
					"name": "amountIn",
					"type": "uint256"
				},
				{
					"internalType": "uint256",
					"name": "reserveIn",
					"type": "uint256"
				},
				{
					"internalType": "uint256",
					"name": "reserveOut",
					"type": "uint256"
				}
			],
			"name": "getAmountOut",
			"outputs": [
				{
					"internalType": "uint256",
					"name": "",
					"type": "uint256"
				}
			],
			"stateMutability": "pure",
			"type": "function"
		},
		{
			"inputs": [],
			"name": "getReserves",
			"outputs": [
				{
					"internalType": "uint256",
					"name": "",
					"type": "uint256"
				},
				{
					"internalType": "uint256",
					"name": "",
					"type": "uint256"
				}
			],
			"stateMutability": "view",
			"type": "function"
		},
		{
			"inputs": [
				{
					"internalType": "address",
					"name": "user",
					"type": "address"
				}
			],
			"name": "getUserLiquidity",
			"outputs": [
				{
					"internalType": "uint256",
					"name": "",
					"type": "uint256"
				}
			],
			"stateMutability": "view",
			"type": "function"
		},
		{
			"inputs": [],
			"name": "lastUpdateBlock",
			"outputs": [
				{
					"internalType": "uint256",
					"name": "",
					"type": "uint256"
				}
			],
			"stateMutability": "view",
			"type": "function"
		},
		{
			"inputs": [],
			"name": "owner",
			"outputs": [
				{
					"internalType": "address",
					"name": "",
					"type": "address"
				}
			],
			"stateMutability": "view",
			"type": "function"
		},
		{
			"inputs": [],
			"name": "pause",
			"outputs": [],
			"stateMutability": "nonpayable",
			"type": "function"
		},
		{
			"inputs": [],
			"name": "paused",
			"outputs": [
				{
					"internalType": "bool",
					"name": "",
					"type": "bool"
				}
			],
			"stateMutability": "view",
			"type": "function"
		},
		{
			"inputs": [],
			"name": "priceImpactThreshold",
			"outputs": [
				{
					"internalType": "uint256",
					"name": "",
					"type": "uint256"
				}
			],
			"stateMutability": "view",
			"type": "function"
		},
		{
			"inputs": [
				{
					"internalType": "uint256",
					"name": "liquidity",
					"type": "uint256"
				},
				{
					"internalType": "uint256",
					"name": "minAmountA",
					"type": "uint256"
				},
				{
					"internalType": "uint256",
					"name": "minAmountB",
					"type": "uint256"
				},
				{
					"internalType": "uint256",
					"name": "deadline",
					"type": "uint256"
				}
			],
			"name": "removeLiquidity",
			"outputs": [
				{
					"internalType": "uint256",
					"name": "amountA",
					"type": "uint256"
				},
				{
					"internalType": "uint256",
					"name": "amountB",
					"type": "uint256"
				}
			],
			"stateMutability": "nonpayable",
			"type": "function"
		},
		{
			"inputs": [],
			"name": "renounceOwnership",
			"outputs": [],
			"stateMutability": "nonpayable",
			"type": "function"
		},
		{
			"inputs": [],
			"name": "reserveA",
			"outputs": [
				{
					"internalType": "uint256",
					"name": "",
					"type": "uint256"
				}
			],
			"stateMutability": "view",
			"type": "function"
		},
		{
			"inputs": [],
			"name": "reserveB",
			"outputs": [
				{
					"internalType": "uint256",
					"name": "",
					"type": "uint256"
				}
			],
			"stateMutability": "view",
			"type": "function"
		},
		{
			"inputs": [
				{
					"internalType": "uint256",
					"name": "newThreshold",
					"type": "uint256"
				}
			],
			"name": "setPriceImpactThreshold",
			"outputs": [],
			"stateMutability": "nonpayable",
			"type": "function"
		},
		{
			"inputs": [
				{
					"internalType": "uint256",
					"name": "amountInA",
					"type": "uint256"
				},
				{
					"internalType": "uint256",
					"name": "minAmountOutB",
					"type": "uint256"
				},
				{
					"internalType": "uint256",
					"name": "deadline",
					"type": "uint256"
				}
			],
			"name": "swapExactTokenAForTokenB",
			"outputs": [
				{
					"internalType": "uint256",
					"name": "amountOutB",
					"type": "uint256"
				}
			],
			"stateMutability": "nonpayable",
			"type": "function"
		},
		{
			"inputs": [
				{
					"internalType": "uint256",
					"name": "amountInB",
					"type": "uint256"
				},
				{
					"internalType": "uint256",
					"name": "minAmountOutA",
					"type": "uint256"
				},
				{
					"internalType": "uint256",
					"name": "deadline",
					"type": "uint256"
				}
			],
			"name": "swapExactTokenBForTokenA",
			"outputs": [
				{
					"internalType": "uint256",
					"name": "amountOutA",
					"type": "uint256"
				}
			],
			"stateMutability": "nonpayable",
			"type": "function"
		},
		{
			"inputs": [],
			"name": "tokenA",
			"outputs": [
				{
					"internalType": "contract IERC20",
					"name": "",
					"type": "address"
				}
			],
			"stateMutability": "view",
			"type": "function"
		},
		{
			"inputs": [],
			"name": "tokenB",
			"outputs": [
				{
					"internalType": "contract IERC20",
					"name": "",
					"type": "address"
				}
			],
			"stateMutability": "view",
			"type": "function"
		},
		{
			"inputs": [
				{
					"internalType": "address",
					"name": "newOwner",
					"type": "address"
				}
			],
			"name": "transferOwnership",
			"outputs": [],
			"stateMutability": "nonpayable",
			"type": "function"
		},
		{
			"inputs": [],
			"name": "unpause",
			"outputs": [],
			"stateMutability": "nonpayable",
			"type": "function"
		},
		{
			"inputs": [
				{
					"internalType": "address",
					"name": "",
					"type": "address"
				}
			],
			"name": "userLiquidity",
			"outputs": [
				{
					"internalType": "uint256",
					"name": "",
					"type": "uint256"
				}
			],
			"stateMutability": "view",
			"type": "function"
		}
	]
}