{
	"data": {
		"bytecode": {
			"linkReferences": {},
			"object": "60c060405234801561000f575f80fd5b50604051610c46380380610c4683398101604081905261002e91610151565b60015f55338061005757604051631e4fbdf760e01b81525f600482015260240160405180910390fd5b610060816100e5565b506001600160a01b038216158061007e57506001600160a01b038116155b1561009c5760405163d92e233d60e01b815260040160405180910390fd5b806001600160a01b0316826001600160a01b0316036100ce57604051630bd969eb60e41b815260040160405180910390fd5b6001600160a01b039182166080521660a052610182565b600180546001600160a01b038381166001600160a01b0319831681179093556040519116919082907f8be0079c531659141344cd1fd0a4f28419497f9722a3daafe3b4186f6b6457e0905f90a35050565b80516001600160a01b038116811461014c575f80fd5b919050565b5f8060408385031215610162575f80fd5b61016b83610136565b915061017960208401610136565b90509250929050565b60805160a051610a6c6101da5f395f8181610114015281816102e30152818161030c01528181610402015261058a01525f818160a4015281816102ae01528181610336015281816103c501526105550152610a6c5ff3fe608060405234801561000f575f80fd5b506004361061009b575f3560e01c8063715018a611610063578063715018a6146101495780638da5cb5b146101515780639cd441da14610162578063dc5fa6c514610175578063f2fde38b1461017e575f80fd5b80630fc63d101461009f57806319e36f3b146100e357806356d9be4c146100fa5780635f64b55b1461010f5780636ff1c9bc14610136575b5f80fd5b6100c67f000000000000000000000000000000000000000000000000000000000000000081565b6040516001600160a01b0390911681526020015b60405180910390f35b6100ec60035481565b6040519081526020016100da565b61010d610108366004610915565b610191565b005b6100c67f000000000000000000000000000000000000000000000000000000000000000081565b61010d610144366004610949565b6103bb565b61010d6104d5565b6001546001600160a01b03166100c6565b61010d610170366004610915565b6104e8565b6100ec60025481565b61010d61018c366004610949565b6105f6565b610199610635565b60025415806101a85750600354155b156101c657604051636180f03f60e11b815260040160405180910390fd5b815f036101e657604051631f2a200560e01b815260040160405180910390fd5b805f0361020657604051631f2a200560e01b815260040160405180910390fd5b5f610213836103e5610978565b90505f600354826102249190610978565b90505f826002546103e86102389190610978565b610242919061098f565b90505f61024f82846109a2565b9050848110156102725760405163bb2875c360e01b815260040160405180910390fd5b8560025f828254610283919061098f565b925050819055508060035f82825461029b91906109c1565b909155506102d690506001600160a01b037f00000000000000000000000000000000000000000000000000000000000000001633308961065d565b61030a6001600160a01b037f00000000000000000000000000000000000000000000000000000000000000001633836106ca565b7f00000000000000000000000000000000000000000000000000000000000000006001600160a01b03167f00000000000000000000000000000000000000000000000000000000000000006001600160a01b0316336001600160a01b03167fdbee45ea236748b94cfbe4aa4456c6460410d51bc244040093d65457fb4b285089856040516103a2929190918252602082015260400190565b60405180910390a4505050506103b760015f55565b5050565b6103c3610700565b7f00000000000000000000000000000000000000000000000000000000000000006001600160a01b0316816001600160a01b03161415801561043757507f00000000000000000000000000000000000000000000000000000000000000006001600160a01b0316816001600160a01b031614155b156104555760405163c1ab6dc160e01b815260040160405180910390fd5b6040516370a0823160e01b81523060048201526104d29033906001600160a01b038416906370a0823190602401602060405180830381865afa15801561049d573d5f803e3d5ffd5b505050506040513d601f19601f820116820180604052508101906104c191906109d4565b6001600160a01b03841691906106ca565b50565b6104dd610700565b6104e65f61072d565b565b6104f0610635565b8115806104fb575080155b1561051957604051631f2a200560e01b815260040160405180910390fd5b8160025f82825461052a919061098f565b925050819055508060035f828254610542919061098f565b9091555061057d90506001600160a01b037f00000000000000000000000000000000000000000000000000000000000000001633308561065d565b6105b26001600160a01b037f00000000000000000000000000000000000000000000000000000000000000001633308461065d565b604080518381526020810183905233917fac1d76749e5447b7b16f5ab61447e1bd502f3bb4807af3b28e620d1700a6ee45910160405180910390a26103b760015f55565b6105fe610700565b6001600160a01b03811661062c57604051631e4fbdf760e01b81525f60048201526024015b60405180910390fd5b6104d28161072d565b60025f540361065757604051633ee5aeb560e01b815260040160405180910390fd5b60025f55565b6040516001600160a01b0384811660248301528381166044830152606482018390526106c49186918216906323b872dd906084015b604051602081830303815290604052915060e01b6020820180516001600160e01b03838183161783525050505061077e565b50505050565b6040516001600160a01b038381166024830152604482018390526106fb91859182169063a9059cbb90606401610692565b505050565b6001546001600160a01b031633146104e65760405163118cdaa760e01b8152336004820152602401610623565b600180546001600160a01b038381166001600160a01b0319831681179093556040519116919082907f8be0079c531659141344cd1fd0a4f28419497f9722a3daafe3b4186f6b6457e0905f90a35050565b5f6107926001600160a01b038416836107df565b905080515f141580156107b65750808060200190518101906107b491906109eb565b155b156106fb57604051635274afe760e01b81526001600160a01b0384166004820152602401610623565b60606107ec83835f6107f5565b90505b92915050565b60608147101561081a5760405163cd78605960e01b8152306004820152602401610623565b5f80856001600160a01b031684866040516108359190610a0a565b5f6040518083038185875af1925050503d805f811461086f576040519150601f19603f3d011682016040523d82523d5f602084013e610874565b606091505b5091509150610884868383610890565b925050505b9392505050565b6060826108a5576108a0826108ec565b610889565b81511580156108bc57506001600160a01b0384163b155b156108e557604051639996b31560e01b81526001600160a01b0385166004820152602401610623565b5080610889565b8051156108fc5780518082602001fd5b604051630a12f52160e11b815260040160405180910390fd5b5f8060408385031215610926575f80fd5b50508035926020909101359150565b6001600160a01b03811681146104d2575f80fd5b5f60208284031215610959575f80fd5b813561088981610935565b634e487b7160e01b5f52601160045260245ffd5b80820281158282048414176107ef576107ef610964565b808201808211156107ef576107ef610964565b5f826109bc57634e487b7160e01b5f52601260045260245ffd5b500490565b818103818111156107ef576107ef610964565b5f602082840312156109e4575f80fd5b5051919050565b5f602082840312156109fb575f80fd5b81518015158114610889575f80fd5b5f82515f5b81811015610a295760208186018101518583015201610a0f565b505f92019182525091905056fea2646970667358221220781c05cdb05913b6c109aeeabcc8322ed6a6c5c321fe1c61953aa889b797c7e564736f6c63430008140033",
			"opcodes": "PUSH1 0xC0 PUSH1 0x40 MSTORE CALLVALUE DUP1 ISZERO PUSH2 0xF JUMPI PUSH0 DUP1 REVERT JUMPDEST POP PUSH1 0x40 MLOAD PUSH2 0xC46 CODESIZE SUB DUP1 PUSH2 0xC46 DUP4 CODECOPY DUP2 ADD PUSH1 0x40 DUP2 SWAP1 MSTORE PUSH2 0x2E SWAP2 PUSH2 0x151 JUMP JUMPDEST PUSH1 0x1 PUSH0 SSTORE CALLER DUP1 PUSH2 0x57 JUMPI PUSH1 0x40 MLOAD PUSH4 0x1E4FBDF7 PUSH1 0xE0 SHL DUP2 MSTORE PUSH0 PUSH1 0x4 DUP3 ADD MSTORE PUSH1 0x24 ADD PUSH1 0x40 MLOAD DUP1 SWAP2 SUB SWAP1 REVERT JUMPDEST PUSH2 0x60 DUP2 PUSH2 0xE5 JUMP JUMPDEST POP PUSH1 0x1 PUSH1 0x1 PUSH1 0xA0 SHL SUB DUP3 AND ISZERO DUP1 PUSH2 0x7E JUMPI POP PUSH1 0x1 PUSH1 0x1 PUSH1 0xA0 SHL SUB DUP2 AND ISZERO JUMPDEST ISZERO PUSH2 0x9C JUMPI PUSH1 0x40 MLOAD PUSH4 0xD92E233D PUSH1 0xE0 SHL DUP2 MSTORE PUSH1 0x4 ADD PUSH1 0x40 MLOAD DUP1 SWAP2 SUB SWAP1 REVERT JUMPDEST DUP1 PUSH1 0x1 PUSH1 0x1 PUSH1 0xA0 SHL SUB AND DUP3 PUSH1 0x1 PUSH1 0x1 PUSH1 0xA0 SHL SUB AND SUB PUSH2 0xCE JUMPI PUSH1 0x40 MLOAD PUSH4 0xBD969EB PUSH1 0xE4 SHL DUP2 MSTORE PUSH1 0x4 ADD PUSH1 0x40 MLOAD DUP1 SWAP2 SUB SWAP1 REVERT JUMPDEST PUSH1 0x1 PUSH1 0x1 PUSH1 0xA0 SHL SUB SWAP2 DUP3 AND PUSH1 0x80 MSTORE AND PUSH1 0xA0 MSTORE PUSH2 0x182 JUMP JUMPDEST PUSH1 0x1 DUP1 SLOAD PUSH1 0x1 PUSH1 0x1 PUSH1 0xA0 SHL SUB DUP4 DUP2 AND PUSH1 0x1 PUSH1 0x1 PUSH1 0xA0 SHL SUB NOT DUP4 AND DUP2 OR SWAP1 SWAP4 SSTORE PUSH1 0x40 MLOAD SWAP2 AND SWAP2 SWAP1 DUP3 SWAP1 PUSH32 0x8BE0079C531659141344CD1FD0A4F28419497F9722A3DAAFE3B4186F6B6457E0 SWAP1 PUSH0 SWAP1 LOG3 POP POP JUMP JUMPDEST DUP1 MLOAD PUSH1 0x1 PUSH1 0x1 PUSH1 0xA0 SHL SUB DUP2 AND DUP2 EQ PUSH2 0x14C JUMPI PUSH0 DUP1 REVERT JUMPDEST SWAP2 SWAP1 POP JUMP JUMPDEST PUSH0 DUP1 PUSH1 0x40 DUP4 DUP6 SUB SLT ISZERO PUSH2 0x162 JUMPI PUSH0 DUP1 REVERT JUMPDEST PUSH2 0x16B DUP4 PUSH2 0x136 JUMP JUMPDEST SWAP2 POP PUSH2 0x179 PUSH1 0x20 DUP5 ADD PUSH2 0x136 JUMP JUMPDEST SWAP1 POP SWAP3 POP SWAP3 SWAP1 POP JUMP JUMPDEST PUSH1 0x80 MLOAD PUSH1 0xA0 MLOAD PUSH2 0xA6C PUSH2 0x1DA PUSH0 CODECOPY PUSH0 DUP2 DUP2 PUSH2 0x114 ADD MSTORE DUP2 DUP2 PUSH2 0x2E3 ADD MSTORE DUP2 DUP2 PUSH2 0x30C ADD MSTORE DUP2 DUP2 PUSH2 0x402 ADD MSTORE PUSH2 0x58A ADD MSTORE PUSH0 DUP2 DUP2 PUSH1 0xA4 ADD MSTORE DUP2 DUP2 PUSH2 0x2AE ADD MSTORE DUP2 DUP2 PUSH2 0x336 ADD MSTORE DUP2 DUP2 PUSH2 0x3C5 ADD MSTORE PUSH2 0x555 ADD MSTORE PUSH2 0xA6C PUSH0 RETURN INVALID PUSH1 0x80 PUSH1 0x40 MSTORE CALLVALUE DUP1 ISZERO PUSH2 0xF JUMPI PUSH0 DUP1 REVERT JUMPDEST POP PUSH1 0x4 CALLDATASIZE LT PUSH2 0x9B JUMPI PUSH0 CALLDATALOAD PUSH1 0xE0 SHR DUP1 PUSH4 0x715018A6 GT PUSH2 0x63 JUMPI DUP1 PUSH4 0x715018A6 EQ PUSH2 0x149 JUMPI DUP1 PUSH4 0x8DA5CB5B EQ PUSH2 0x151 JUMPI DUP1 PUSH4 0x9CD441DA EQ PUSH2 0x162 JUMPI DUP1 PUSH4 0xDC5FA6C5 EQ PUSH2 0x175 JUMPI DUP1 PUSH4 0xF2FDE38B EQ PUSH2 0x17E JUMPI PUSH0 DUP1 REVERT JUMPDEST DUP1 PUSH4 0xFC63D10 EQ PUSH2 0x9F JUMPI DUP1 PUSH4 0x19E36F3B EQ PUSH2 0xE3 JUMPI DUP1 PUSH4 0x56D9BE4C EQ PUSH2 0xFA JUMPI DUP1 PUSH4 0x5F64B55B EQ PUSH2 0x10F JUMPI DUP1 PUSH4 0x6FF1C9BC EQ PUSH2 0x136 JUMPI JUMPDEST PUSH0 DUP1 REVERT JUMPDEST PUSH2 0xC6 PUSH32 0x0 DUP2 JUMP JUMPDEST PUSH1 0x40 MLOAD PUSH1 0x1 PUSH1 0x1 PUSH1 0xA0 SHL SUB SWAP1 SWAP2 AND DUP2 MSTORE PUSH1 0x20 ADD JUMPDEST PUSH1 0x40 MLOAD DUP1 SWAP2 SUB SWAP1 RETURN JUMPDEST PUSH2 0xEC PUSH1 0x3 SLOAD DUP2 JUMP JUMPDEST PUSH1 0x40 MLOAD SWAP1 DUP2 MSTORE PUSH1 0x20 ADD PUSH2 0xDA JUMP JUMPDEST PUSH2 0x10D PUSH2 0x108 CALLDATASIZE PUSH1 0x4 PUSH2 0x915 JUMP JUMPDEST PUSH2 0x191 JUMP JUMPDEST STOP JUMPDEST PUSH2 0xC6 PUSH32 0x0 DUP2 JUMP JUMPDEST PUSH2 0x10D PUSH2 0x144 CALLDATASIZE PUSH1 0x4 PUSH2 0x949 JUMP JUMPDEST PUSH2 0x3BB JUMP JUMPDEST PUSH2 0x10D PUSH2 0x4D5 JUMP JUMPDEST PUSH1 0x1 SLOAD PUSH1 0x1 PUSH1 0x1 PUSH1 0xA0 SHL SUB AND PUSH2 0xC6 JUMP JUMPDEST PUSH2 0x10D PUSH2 0x170 CALLDATASIZE PUSH1 0x4 PUSH2 0x915 JUMP JUMPDEST PUSH2 0x4E8 JUMP JUMPDEST PUSH2 0xEC PUSH1 0x2 SLOAD DUP2 JUMP JUMPDEST PUSH2 0x10D PUSH2 0x18C CALLDATASIZE PUSH1 0x4 PUSH2 0x949 JUMP JUMPDEST PUSH2 0x5F6 JUMP JUMPDEST PUSH2 0x199 PUSH2 0x635 JUMP JUMPDEST PUSH1 0x2 SLOAD ISZERO DUP1 PUSH2 0x1A8 JUMPI POP PUSH1 0x3 SLOAD ISZERO JUMPDEST ISZERO PUSH2 0x1C6 JUMPI PUSH1 0x40 MLOAD PUSH4 0x6180F03F PUSH1 0xE1 SHL DUP2 MSTORE PUSH1 0x4 ADD PUSH1 0x40 MLOAD DUP1 SWAP2 SUB SWAP1 REVERT JUMPDEST DUP2 PUSH0 SUB PUSH2 0x1E6 JUMPI PUSH1 0x40 MLOAD PUSH4 0x1F2A2005 PUSH1 0xE0 SHL DUP2 MSTORE PUSH1 0x4 ADD PUSH1 0x40 MLOAD DUP1 SWAP2 SUB SWAP1 REVERT JUMPDEST DUP1 PUSH0 SUB PUSH2 0x206 JUMPI PUSH1 0x40 MLOAD PUSH4 0x1F2A2005 PUSH1 0xE0 SHL DUP2 MSTORE PUSH1 0x4 ADD PUSH1 0x40 MLOAD DUP1 SWAP2 SUB SWAP1 REVERT JUMPDEST PUSH0 PUSH2 0x213 DUP4 PUSH2 0x3E5 PUSH2 0x978 JUMP JUMPDEST SWAP1 POP PUSH0 PUSH1 0x3 SLOAD DUP3 PUSH2 0x224 SWAP2 SWAP1 PUSH2 0x978 JUMP JUMPDEST SWAP1 POP PUSH0 DUP3 PUSH1 0x2 SLOAD PUSH2 0x3E8 PUSH2 0x238 SWAP2 SWAP1 PUSH2 0x978 JUMP JUMPDEST PUSH2 0x242 SWAP2 SWAP1 PUSH2 0x98F JUMP JUMPDEST SWAP1 POP PUSH0 PUSH2 0x24F DUP3 DUP5 PUSH2 0x9A2 JUMP JUMPDEST SWAP1 POP DUP5 DUP2 LT ISZERO PUSH2 0x272 JUMPI PUSH1 0x40 MLOAD PUSH4 0xBB2875C3 PUSH1 0xE0 SHL DUP2 MSTORE PUSH1 0x4 ADD PUSH1 0x40 MLOAD DUP1 SWAP2 SUB SWAP1 REVERT JUMPDEST DUP6 PUSH1 0x2 PUSH0 DUP3 DUP3 SLOAD PUSH2 0x283 SWAP2 SWAP1 PUSH2 0x98F JUMP JUMPDEST SWAP3 POP POP DUP2 SWAP1 SSTORE POP DUP1 PUSH1 0x3 PUSH0 DUP3 DUP3 SLOAD PUSH2 0x29B SWAP2 SWAP1 PUSH2 0x9C1 JUMP JUMPDEST SWAP1 SWAP2 SSTORE POP PUSH2 0x2D6 SWAP1 POP PUSH1 0x1 PUSH1 0x1 PUSH1 0xA0 SHL SUB PUSH32 0x0 AND CALLER ADDRESS DUP10 PUSH2 0x65D JUMP JUMPDEST PUSH2 0x30A PUSH1 0x1 PUSH1 0x1 PUSH1 0xA0 SHL SUB PUSH32 0x0 AND CALLER DUP4 PUSH2 0x6CA JUMP JUMPDEST PUSH32 0x0 PUSH1 0x1 PUSH1 0x1 PUSH1 0xA0 SHL SUB AND PUSH32 0x0 PUSH1 0x1 PUSH1 0x1 PUSH1 0xA0 SHL SUB AND CALLER PUSH1 0x1 PUSH1 0x1 PUSH1 0xA0 SHL SUB AND PUSH32 0xDBEE45EA236748B94CFBE4AA4456C6460410D51BC244040093D65457FB4B2850 DUP10 DUP6 PUSH1 0x40 MLOAD PUSH2 0x3A2 SWAP3 SWAP2 SWAP1 SWAP2 DUP3 MSTORE PUSH1 0x20 DUP3 ADD MSTORE PUSH1 0x40 ADD SWAP1 JUMP JUMPDEST PUSH1 0x40 MLOAD DUP1 SWAP2 SUB SWAP1 LOG4 POP POP POP POP PUSH2 0x3B7 PUSH1 0x1 PUSH0 SSTORE JUMP JUMPDEST POP POP JUMP JUMPDEST PUSH2 0x3C3 PUSH2 0x700 JUMP JUMPDEST PUSH32 0x0 PUSH1 0x1 PUSH1 0x1 PUSH1 0xA0 SHL SUB AND DUP2 PUSH1 0x1 PUSH1 0x1 PUSH1 0xA0 SHL SUB AND EQ ISZERO DUP1 ISZERO PUSH2 0x437 JUMPI POP PUSH32 0x0 PUSH1 0x1 PUSH1 0x1 PUSH1 0xA0 SHL SUB AND DUP2 PUSH1 0x1 PUSH1 0x1 PUSH1 0xA0 SHL SUB AND EQ ISZERO JUMPDEST ISZERO PUSH2 0x455 JUMPI PUSH1 0x40 MLOAD PUSH4 0xC1AB6DC1 PUSH1 0xE0 SHL DUP2 MSTORE PUSH1 0x4 ADD PUSH1 0x40 MLOAD DUP1 SWAP2 SUB SWAP1 REVERT JUMPDEST PUSH1 0x40 MLOAD PUSH4 0x70A08231 PUSH1 0xE0 SHL DUP2 MSTORE ADDRESS PUSH1 0x4 DUP3 ADD MSTORE PUSH2 0x4D2 SWAP1 CALLER SWAP1 PUSH1 0x1 PUSH1 0x1 PUSH1 0xA0 SHL SUB DUP5 AND SWAP1 PUSH4 0x70A08231 SWAP1 PUSH1 0x24 ADD PUSH1 0x20 PUSH1 0x40 MLOAD DUP1 DUP4 SUB DUP2 DUP7 GAS STATICCALL ISZERO DUP1 ISZERO PUSH2 0x49D JUMPI RETURNDATASIZE PUSH0 DUP1 RETURNDATACOPY RETURNDATASIZE PUSH0 REVERT JUMPDEST POP POP POP POP PUSH1 0x40 MLOAD RETURNDATASIZE PUSH1 0x1F NOT PUSH1 0x1F DUP3 ADD AND DUP3 ADD DUP1 PUSH1 0x40 MSTORE POP DUP2 ADD SWAP1 PUSH2 0x4C1 SWAP2 SWAP1 PUSH2 0x9D4 JUMP JUMPDEST PUSH1 0x1 PUSH1 0x1 PUSH1 0xA0 SHL SUB DUP5 AND SWAP2 SWAP1 PUSH2 0x6CA JUMP JUMPDEST POP JUMP JUMPDEST PUSH2 0x4DD PUSH2 0x700 JUMP JUMPDEST PUSH2 0x4E6 PUSH0 PUSH2 0x72D JUMP JUMPDEST JUMP JUMPDEST PUSH2 0x4F0 PUSH2 0x635 JUMP JUMPDEST DUP2 ISZERO DUP1 PUSH2 0x4FB JUMPI POP DUP1 ISZERO JUMPDEST ISZERO PUSH2 0x519 JUMPI PUSH1 0x40 MLOAD PUSH4 0x1F2A2005 PUSH1 0xE0 SHL DUP2 MSTORE PUSH1 0x4 ADD PUSH1 0x40 MLOAD DUP1 SWAP2 SUB SWAP1 REVERT JUMPDEST DUP2 PUSH1 0x2 PUSH0 DUP3 DUP3 SLOAD PUSH2 0x52A SWAP2 SWAP1 PUSH2 0x98F JUMP JUMPDEST SWAP3 POP POP DUP2 SWAP1 SSTORE POP DUP1 PUSH1 0x3 PUSH0 DUP3 DUP3 SLOAD PUSH2 0x542 SWAP2 SWAP1 PUSH2 0x98F JUMP JUMPDEST SWAP1 SWAP2 SSTORE POP PUSH2 0x57D SWAP1 POP PUSH1 0x1 PUSH1 0x1 PUSH1 0xA0 SHL SUB PUSH32 0x0 AND CALLER ADDRESS DUP6 PUSH2 0x65D JUMP JUMPDEST PUSH2 0x5B2 PUSH1 0x1 PUSH1 0x1 PUSH1 0xA0 SHL SUB PUSH32 0x0 AND CALLER ADDRESS DUP5 PUSH2 0x65D JUMP JUMPDEST PUSH1 0x40 DUP1 MLOAD DUP4 DUP2 MSTORE PUSH1 0x20 DUP2 ADD DUP4 SWAP1 MSTORE CALLER SWAP2 PUSH32 0xAC1D76749E5447B7B16F5AB61447E1BD502F3BB4807AF3B28E620D1700A6EE45 SWAP2 ADD PUSH1 0x40 MLOAD DUP1 SWAP2 SUB SWAP1 LOG2 PUSH2 0x3B7 PUSH1 0x1 PUSH0 SSTORE JUMP JUMPDEST PUSH2 0x5FE PUSH2 0x700 JUMP JUMPDEST PUSH1 0x1 PUSH1 0x1 PUSH1 0xA0 SHL SUB DUP2 AND PUSH2 0x62C JUMPI PUSH1 0x40 MLOAD PUSH4 0x1E4FBDF7 PUSH1 0xE0 SHL DUP2 MSTORE PUSH0 PUSH1 0x4 DUP3 ADD MSTORE PUSH1 0x24 ADD JUMPDEST PUSH1 0x40 MLOAD DUP1 SWAP2 SUB SWAP1 REVERT JUMPDEST PUSH2 0x4D2 DUP2 PUSH2 0x72D JUMP JUMPDEST PUSH1 0x2 PUSH0 SLOAD SUB PUSH2 0x657 JUMPI PUSH1 0x40 MLOAD PUSH4 0x3EE5AEB5 PUSH1 0xE0 SHL DUP2 MSTORE PUSH1 0x4 ADD PUSH1 0x40 MLOAD DUP1 SWAP2 SUB SWAP1 REVERT JUMPDEST PUSH1 0x2 PUSH0 SSTORE JUMP JUMPDEST PUSH1 0x40 MLOAD PUSH1 0x1 PUSH1 0x1 PUSH1 0xA0 SHL SUB DUP5 DUP2 AND PUSH1 0x24 DUP4 ADD MSTORE DUP4 DUP2 AND PUSH1 0x44 DUP4 ADD MSTORE PUSH1 0x64 DUP3 ADD DUP4 SWAP1 MSTORE PUSH2 0x6C4 SWAP2 DUP7 SWAP2 DUP3 AND SWAP1 PUSH4 0x23B872DD SWAP1 PUSH1 0x84 ADD JUMPDEST PUSH1 0x40 MLOAD PUSH1 0x20 DUP2 DUP4 SUB SUB DUP2 MSTORE SWAP1 PUSH1 0x40 MSTORE SWAP2 POP PUSH1 0xE0 SHL PUSH1 0x20 DUP3 ADD DUP1 MLOAD PUSH1 0x1 PUSH1 0x1 PUSH1 0xE0 SHL SUB DUP4 DUP2 DUP4 AND OR DUP4 MSTORE POP POP POP POP PUSH2 0x77E JUMP JUMPDEST POP POP POP POP JUMP JUMPDEST PUSH1 0x40 MLOAD PUSH1 0x1 PUSH1 0x1 PUSH1 0xA0 SHL SUB DUP4 DUP2 AND PUSH1 0x24 DUP4 ADD MSTORE PUSH1 0x44 DUP3 ADD DUP4 SWAP1 MSTORE PUSH2 0x6FB SWAP2 DUP6 SWAP2 DUP3 AND SWAP1 PUSH4 0xA9059CBB SWAP1 PUSH1 0x64 ADD PUSH2 0x692 JUMP JUMPDEST POP POP POP JUMP JUMPDEST PUSH1 0x1 SLOAD PUSH1 0x1 PUSH1 0x1 PUSH1 0xA0 SHL SUB AND CALLER EQ PUSH2 0x4E6 JUMPI PUSH1 0x40 MLOAD PUSH4 0x118CDAA7 PUSH1 0xE0 SHL DUP2 MSTORE CALLER PUSH1 0x4 DUP3 ADD MSTORE PUSH1 0x24 ADD PUSH2 0x623 JUMP JUMPDEST PUSH1 0x1 DUP1 SLOAD PUSH1 0x1 PUSH1 0x1 PUSH1 0xA0 SHL SUB DUP4 DUP2 AND PUSH1 0x1 PUSH1 0x1 PUSH1 0xA0 SHL SUB NOT DUP4 AND DUP2 OR SWAP1 SWAP4 SSTORE PUSH1 0x40 MLOAD SWAP2 AND SWAP2 SWAP1 DUP3 SWAP1 PUSH32 0x8BE0079C531659141344CD1FD0A4F28419497F9722A3DAAFE3B4186F6B6457E0 SWAP1 PUSH0 SWAP1 LOG3 POP POP JUMP JUMPDEST PUSH0 PUSH2 0x792 PUSH1 0x1 PUSH1 0x1 PUSH1 0xA0 SHL SUB DUP5 AND DUP4 PUSH2 0x7DF JUMP JUMPDEST SWAP1 POP DUP1 MLOAD PUSH0 EQ ISZERO DUP1 ISZERO PUSH2 0x7B6 JUMPI POP DUP1 DUP1 PUSH1 0x20 ADD SWAP1 MLOAD DUP2 ADD SWAP1 PUSH2 0x7B4 SWAP2 SWAP1 PUSH2 0x9EB JUMP JUMPDEST ISZERO JUMPDEST ISZERO PUSH2 0x6FB JUMPI PUSH1 0x40 MLOAD PUSH4 0x5274AFE7 PUSH1 0xE0 SHL DUP2 MSTORE PUSH1 0x1 PUSH1 0x1 PUSH1 0xA0 SHL SUB DUP5 AND PUSH1 0x4 DUP3 ADD MSTORE PUSH1 0x24 ADD PUSH2 0x623 JUMP JUMPDEST PUSH1 0x60 PUSH2 0x7EC DUP4 DUP4 PUSH0 PUSH2 0x7F5 JUMP JUMPDEST SWAP1 POP JUMPDEST SWAP3 SWAP2 POP POP JUMP JUMPDEST PUSH1 0x60 DUP2 SELFBALANCE LT ISZERO PUSH2 0x81A JUMPI PUSH1 0x40 MLOAD PUSH4 0xCD786059 PUSH1 0xE0 SHL DUP2 MSTORE ADDRESS PUSH1 0x4 DUP3 ADD MSTORE PUSH1 0x24 ADD PUSH2 0x623 JUMP JUMPDEST PUSH0 DUP1 DUP6 PUSH1 0x1 PUSH1 0x1 PUSH1 0xA0 SHL SUB AND DUP5 DUP7 PUSH1 0x40 MLOAD PUSH2 0x835 SWAP2 SWAP1 PUSH2 0xA0A JUMP JUMPDEST PUSH0 PUSH1 0x40 MLOAD DUP1 DUP4 SUB DUP2 DUP6 DUP8 GAS CALL SWAP3 POP POP POP RETURNDATASIZE DUP1 PUSH0 DUP2 EQ PUSH2 0x86F JUMPI PUSH1 0x40 MLOAD SWAP2 POP PUSH1 0x1F NOT PUSH1 0x3F RETURNDATASIZE ADD AND DUP3 ADD PUSH1 0x40 MSTORE RETURNDATASIZE DUP3 MSTORE RETURNDATASIZE PUSH0 PUSH1 0x20 DUP5 ADD RETURNDATACOPY PUSH2 0x874 JUMP JUMPDEST PUSH1 0x60 SWAP2 POP JUMPDEST POP SWAP2 POP SWAP2 POP PUSH2 0x884 DUP7 DUP4 DUP4 PUSH2 0x890 JUMP JUMPDEST SWAP3 POP POP POP JUMPDEST SWAP4 SWAP3 POP POP POP JUMP JUMPDEST PUSH1 0x60 DUP3 PUSH2 0x8A5 JUMPI PUSH2 0x8A0 DUP3 PUSH2 0x8EC JUMP JUMPDEST PUSH2 0x889 JUMP JUMPDEST DUP2 MLOAD ISZERO DUP1 ISZERO PUSH2 0x8BC JUMPI POP PUSH1 0x1 PUSH1 0x1 PUSH1 0xA0 SHL SUB DUP5 AND EXTCODESIZE ISZERO JUMPDEST ISZERO PUSH2 0x8E5 JUMPI PUSH1 0x40 MLOAD PUSH4 0x9996B315 PUSH1 0xE0 SHL DUP2 MSTORE PUSH1 0x1 PUSH1 0x1 PUSH1 0xA0 SHL SUB DUP6 AND PUSH1 0x4 DUP3 ADD MSTORE PUSH1 0x24 ADD PUSH2 0x623 JUMP JUMPDEST POP DUP1 PUSH2 0x889 JUMP JUMPDEST DUP1 MLOAD ISZERO PUSH2 0x8FC JUMPI DUP1 MLOAD DUP1 DUP3 PUSH1 0x20 ADD REVERT JUMPDEST PUSH1 0x40 MLOAD PUSH4 0xA12F521 PUSH1 0xE1 SHL DUP2 MSTORE PUSH1 0x4 ADD PUSH1 0x40 MLOAD DUP1 SWAP2 SUB SWAP1 REVERT JUMPDEST PUSH0 DUP1 PUSH1 0x40 DUP4 DUP6 SUB SLT ISZERO PUSH2 0x926 JUMPI PUSH0 DUP1 REVERT JUMPDEST POP POP DUP1 CALLDATALOAD SWAP3 PUSH1 0x20 SWAP1 SWAP2 ADD CALLDATALOAD SWAP2 POP JUMP JUMPDEST PUSH1 0x1 PUSH1 0x1 PUSH1 0xA0 SHL SUB DUP2 AND DUP2 EQ PUSH2 0x4D2 JUMPI PUSH0 DUP1 REVERT JUMPDEST PUSH0 PUSH1 0x20 DUP3 DUP5 SUB SLT ISZERO PUSH2 0x959 JUMPI PUSH0 DUP1 REVERT JUMPDEST DUP2 CALLDATALOAD PUSH2 0x889 DUP2 PUSH2 0x935 JUMP JUMPDEST PUSH4 0x4E487B71 PUSH1 0xE0 SHL PUSH0 MSTORE PUSH1 0x11 PUSH1 0x4 MSTORE PUSH1 0x24 PUSH0 REVERT JUMPDEST DUP1 DUP3 MUL DUP2 ISZERO DUP3 DUP3 DIV DUP5 EQ OR PUSH2 0x7EF JUMPI PUSH2 0x7EF PUSH2 0x964 JUMP JUMPDEST DUP1 DUP3 ADD DUP1 DUP3 GT ISZERO PUSH2 0x7EF JUMPI PUSH2 0x7EF PUSH2 0x964 JUMP JUMPDEST PUSH0 DUP3 PUSH2 0x9BC JUMPI PUSH4 0x4E487B71 PUSH1 0xE0 SHL PUSH0 MSTORE PUSH1 0x12 PUSH1 0x4 MSTORE PUSH1 0x24 PUSH0 REVERT JUMPDEST POP DIV SWAP1 JUMP JUMPDEST DUP2 DUP2 SUB DUP2 DUP2 GT ISZERO PUSH2 0x7EF JUMPI PUSH2 0x7EF PUSH2 0x964 JUMP JUMPDEST PUSH0 PUSH1 0x20 DUP3 DUP5 SUB SLT ISZERO PUSH2 0x9E4 JUMPI PUSH0 DUP1 REVERT JUMPDEST POP MLOAD SWAP2 SWAP1 POP JUMP JUMPDEST PUSH0 PUSH1 0x20 DUP3 DUP5 SUB SLT ISZERO PUSH2 0x9FB JUMPI PUSH0 DUP1 REVERT JUMPDEST DUP2 MLOAD DUP1 ISZERO ISZERO DUP2 EQ PUSH2 0x889 JUMPI PUSH0 DUP1 REVERT JUMPDEST PUSH0 DUP3 MLOAD PUSH0 JUMPDEST DUP2 DUP2 LT ISZERO PUSH2 0xA29 JUMPI PUSH1 0x20 DUP2 DUP7 ADD DUP2 ADD MLOAD DUP6 DUP4 ADD MSTORE ADD PUSH2 0xA0F JUMP JUMPDEST POP PUSH0 SWAP3 ADD SWAP2 DUP3 MSTORE POP SWAP2 SWAP1 POP JUMP INVALID LOG2 PUSH5 0x6970667358 0x22 SLT KECCAK256 PUSH25 0x1C05CDB05913B6C109AEEABCC8322ED6A6C5C321FE1C61953A 0xA8 DUP10 0xB7 SWAP8 0xC7 0xE5 PUSH5 0x736F6C6343 STOP ADDMOD EQ STOP CALLER "
		},
		"gasEstimates": {
			"creation": {
				"codeDepositCost": "533600",
				"executionCost": "infinite",
				"totalCost": "infinite"
			},
			"external": {
				"addLiquidity(uint256,uint256)": "infinite",
				"emergencyWithdraw(address)": "infinite",
				"owner()": "2341",
				"renounceOwnership()": "infinite",
				"reserveA()": "2360",
				"reserveB()": "2317",
				"swapTokenAForTokenB(uint256,uint256)": "infinite",
				"tokenA()": "infinite",
				"tokenB()": "infinite",
				"transferOwnership(address)": "infinite"
			}
		},
		"methodIdentifiers": {
			"addLiquidity(uint256,uint256)": "9cd441da",
			"emergencyWithdraw(address)": "6ff1c9bc",
			"owner()": "8da5cb5b",
			"renounceOwnership()": "715018a6",
			"reserveA()": "dc5fa6c5",
			"reserveB()": "19e36f3b",
			"swapTokenAForTokenB(uint256,uint256)": "56d9be4c",
			"tokenA()": "0fc63d10",
			"tokenB()": "5f64b55b",
			"transferOwnership(address)": "f2fde38b"
		}
	},
	"abi": [
		{
			"inputs": [
				{
					"internalType": "address",
					"name": "tokenAAddress",
					"type": "address"
				},
				{
					"internalType": "address",
					"name": "tokenBAddress",
					"type": "address"
				}
			],
			"stateMutability": "nonpayable",
			"type": "constructor"
		},
		{
			"inputs": [
				{
					"internalType": "address",
					"name": "target",
					"type": "address"
				}
			],
			"name": "AddressEmptyCode",
			"type": "error"
		},
		{
			"inputs": [
				{
					"internalType": "address",
					"name": "account",
					"type": "address"
				}
			],
			"name": "AddressInsufficientBalance",
			"type": "error"
		},
		{
			"inputs": [],
			"name": "FailedInnerCall",
			"type": "error"
		},
		{
			"inputs": [],
			"name": "IdenticalAddresses",
			"type": "error"
		},
		{
			"inputs": [],
			"name": "InsufficientOutput",
			"type": "error"
		},
		{
			"inputs": [],
			"name": "InvalidToken",
			"type": "error"
		},
		{
			"inputs": [],
			"name": "NoLiquidity",
			"type": "error"
		},
		{
			"inputs": [
				{
					"internalType": "address",
					"name": "owner",
					"type": "address"
				}
			],
			"name": "OwnableInvalidOwner",
			"type": "error"
		},
		{
			"inputs": [
				{
					"internalType": "address",
					"name": "account",
					"type": "address"
				}
			],
			"name": "OwnableUnauthorizedAccount",
			"type": "error"
		},
		{
			"inputs": [],
			"name": "ReentrancyGuardReentrantCall",
			"type": "error"
		},
		{
			"inputs": [
				{
					"internalType": "address",
					"name": "token",
					"type": "address"
				}
			],
			"name": "SafeERC20FailedOperation",
			"type": "error"
		},
		{
			"inputs": [],
			"name": "ZeroAddress",
			"type": "error"
		},
		{
			"inputs": [],
			"name": "ZeroAmount",
			"type": "error"
		},
		{
			"anonymous": false,
			"inputs": [
				{
					"indexed": true,
					"internalType": "address",
					"name": "sender",
					"type": "address"
				},
				{
					"indexed": false,
					"internalType": "uint256",
					"name": "amountA",
					"type": "uint256"
				},
				{
					"indexed": false,
					"internalType": "uint256",
					"name": "amountB",
					"type": "uint256"
				}
			],
			"name": "LiquidityAdded",
			"type": "event"
		},
		{
			"anonymous": false,
			"inputs": [
				{
					"indexed": true,
					"internalType": "address",
					"name": "previousOwner",
					"type": "address"
				},
				{
					"indexed": true,
					"internalType": "address",
					"name": "newOwner",
					"type": "address"
				}
			],
			"name": "OwnershipTransferred",
			"type": "event"
		},
		{
			"anonymous": false,
			"inputs": [
				{
					"indexed": true,
					"internalType": "address",
					"name": "sender",
					"type": "address"
				},
				{
					"indexed": false,
					"internalType": "uint256",
					"name": "amountIn",
					"type": "uint256"
				},
				{
					"indexed": false,
					"internalType": "uint256",
					"name": "amountOut",
					"type": "uint256"
				},
				{
					"indexed": true,
					"internalType": "address",
					"name": "tokenIn",
					"type": "address"
				},
				{
					"indexed": true,
					"internalType": "address",
					"name": "tokenOut",
					"type": "address"
				}
			],
			"name": "Swapped",
			"type": "event"
		},
		{
			"inputs": [
				{
					"internalType": "uint256",
					"name": "amountA",
					"type": "uint256"
				},
				{
					"internalType": "uint256",
					"name": "amountB",
					"type": "uint256"
				}
			],
			"name": "addLiquidity",
			"outputs": [],
			"stateMutability": "nonpayable",
			"type": "function"
		},
		{
			"inputs": [
				{
					"internalType": "contract IERC20",
					"name": "token",
					"type": "address"
				}
			],
			"name": "emergencyWithdraw",
			"outputs": [],
			"stateMutability": "nonpayable",
			"type": "function"
		},
		{
			"inputs": [],
			"name": "owner",
			"outputs": [
				{
					"internalType": "address",
					"name": "",
					"type": "address"
				}
			],
			"stateMutability": "view",
			"type": "function"
		},
		{
			"inputs": [],
			"name": "renounceOwnership",
			"outputs": [],
			"stateMutability": "nonpayable",
			"type": "function"
		},
		{
			"inputs": [],
			"name": "reserveA",
			"outputs": [
				{
					"internalType": "uint256",
					"name": "",
					"type": "uint256"
				}
			],
			"stateMutability": "view",
			"type": "function"
		},
		{
			"inputs": [],
			"name": "reserveB",
			"outputs": [
				{
					"internalType": "uint256",
					"name": "",
					"type": "uint256"
				}
			],
			"stateMutability": "view",
			"type": "function"
		},
		{
			"inputs": [
				{
					"internalType": "uint256",
					"name": "amountInA",
					"type": "uint256"
				},
				{
					"internalType": "uint256",
					"name": "amountOutMin",
					"type": "uint256"
				}
			],
			"name": "swapTokenAForTokenB",
			"outputs": [],
			"stateMutability": "nonpayable",
			"type": "function"
		},
		{
			"inputs": [],
			"name": "tokenA",
			"outputs": [
				{
					"internalType": "contract IERC20",
					"name": "",
					"type": "address"
				}
			],
			"stateMutability": "view",
			"type": "function"
		},
		{
			"inputs": [],
			"name": "tokenB",
			"outputs": [
				{
					"internalType": "contract IERC20",
					"name": "",
					"type": "address"
				}
			],
			"stateMutability": "view",
			"type": "function"
		},
		{
			"inputs": [
				{
					"internalType": "address",
					"name": "newOwner",
					"type": "address"
				}
			],
			"name": "transferOwnership",
			"outputs": [],
			"stateMutability": "nonpayable",
			"type": "function"
		}
	]
}